:020000020000FC
:0A0000000C9433000C94571318956C
:02000C00189545
:02001000189541
:0200140018953D
:02001800189539
:02001C00189535
:02002000189531
:0200240018952D
:02002800189529
:10002C000C9466020C9468020C946F020C94780287
:02003C00189515
:02004000189511
:0200440018950D
:100048000C94E2030C949B040C949A040C941113E2
:020058001895F9
:02005C001895F5
:100060000C942C18189505B70160102F0D7F15BF43
:1000700005BFE0E0F1E000270193F530E9F7E0305B
:10008000D9F70293EDBFFEBFEEE1FF27EA95F083BB
:10009000E9F700E007B90FEC08B902EC0AB90AEF7A
:1000A0000BB900E204B90CEF05B90CE00093B800FD
:1000B00002E30093BA0005E40093BC0007E6009356
:1000C000C40000E00093C50008ED0093C10006E005
:1000D0000093C20002E00093B00003E00093B1007F
:1000E0000CE70093B30000E000937000BAE4A8E3CB
:1000F000A0938B01B0938C01B0938900A0938800EA
:10010000BAE4A8E3A0938D01B0938E01B0938B0065
:10011000A0938A0000E00093800007E000936F0046
:1001200002E00093810009EF07BD08BD02E004BDB5
:1001300003E000936E0003E005BD0AE00093690050
:1001400001E00DBB00E000937B0007E000937C0022
:100150000DEE00937A00CAEFD0E00E9416010E94D3
:100160002E170E945A1000910102002321F40FEF74
:100170000093000232C00E942E170E9433170AE734
:100180000E945A170E944D1700910102002321F48A
:100190000AE70093000215C00E942E170E94331731
:1001A00008E70E945A170E944D1700910102002390
:1001B00021F408E70093000204C000E0009300026D
:1001C0000CC00E9413110E9444110E94C410C8EA7E
:1001D000D1E0C093AA01D093AB0109B105FD0C9405
:1001E000F500B4E0A0EB0C94F700AA27BB27A0937E
:1001F000A801B093A90109E80E94FE15B0E0A5E0AE
:10020000A0939601B0939701009100020F3F21F057
:10021000EAE8F7E10E946F1578940E94D20309E89A
:100220000E94FE150C942101C8EED3E0EF93FF93DA
:10023000E0E4FFE13197F1F72197D1F7FF91EF91DA
:1002400008950091D30100FF07C00E7F0093D301F2
:100250000F930E9434040F9101FF07C00D7F00939C
:10026000D3010F930E94C9170F9103FF09C0077FA5
:100270000093D3010F930E94D2030E94CA010F91F1
:1002800004FF09C00F7E0093D3010F930E94D20395
:100290000E94F0010F9105FF23C00F7D0093D30151
:1002A0000F9300919301003059F0CF93DF93C2E395
:1002B000D0E0C0939601D0939701DF91CF910AC00F
:1002C000CF93DF93C5E0D0E0C0939601D093970120
:1002D000DF91CF9102E0009393010E9412050F91EC
:1002E00006FF23C00F7B0093D3010F93009193016E
:1002F000003059F0CF93DF93C2E3D0E0C093960172
:10030000D0939701DF91CF910AC0CF93DF93C5E0DF
:10031000D0E0C0939601D0939701DF91CF9102E096
:10032000009393010E944D050F910091D40100FFAD
:100330000AC00E7F0093D4010F930E94C9040E944B
:100340001C030F9125C001FF0AC00D7F0093D4014B
:100350000F930E940F020E94A9050F9119C002FF7E
:100360000DC00B7F0093D4010F93009193010030D7
:1003700009F00A95009393010F910AC003FF08C08A
:10038000077F0093D4010F930E9480030F9100C058
:100390000C942101FF92FFB6FF920F9300919B01F5
:1003A000003021F402E00E94B10215C0013039F49E
:1003B00000E00E94B10209E80E94FE150CC0023064
:1003C00039F400E00E94B10209E80E94FE1503C062
:1003D000033009F400C00F91FF90FFBEFF90089515
:1003E000FF92FFB6FF920F9300919B01003021F422
:1003F00001E00E94B1020EC0023019F401E00E9437
:10040000B102033039F400E00E94B10209E80E9411
:10041000FE1500C00F91FF90FFBEFF900895FF9260
:10042000FFB6FF920E94BB030E94650F0091CC01B2
:1004300003950093CC01033008F444C000270093D7
:10044000CC010091A801009304010091A90100933F
:1004500005010091A601009306010091A7010093F8
:10046000070100919B010F7010919A011071012BEF
:10047000109199011072012B0093080109E80E9464
:10048000C3150AE80E94C31500919B01002379F46B
:1004900000919901002339F00AE80E94D7150AE873
:1004A0000E94FE150FC009E80E94D7150BC003304B
:1004B00049F009E80E94D7150AE80E94D7150AE812
:1004C0000E94FE15FF90FFBEFF9008955E9818955C
:1004D0005E9A0F9301E000931D000F9118955E9AAC
:1004E0000F9300911D00016000931D000F9118955E
:1004F0000F930FB70F930E944B031F931091D401DA
:100500000091CE01093029F003950093CE011860C7
:1005100021C000270093CE010091CF01093029F0BE
:1005200003950093CF01146015C000270093CF01FD
:100530000091D001093029F003950093D001126099
:1005400009C000270093D0010091D10103950093C9
:10055000D10111601093D4011F910F910FBF0F9122
:1005600018950F930027009399010F91003009F41B
:100570000AC0013009F41DC0023009F430C0033054
:1005800009F443C058C000939B01C8EAD1E0C0936E
:10059000AA01D093AB012D9A00910002002341F0F3
:1005A0000F3F31F00E944411EAE8F7E10E946F1515
:1005B00042C000939B01C6EAD1E0C093AA01D09348
:1005C000AB012D9800910002002341F00F3F31F064
:1005D0000E944411E9E9F7E10E946F152CC00093D5
:1005E0009B01C6EAD1E0C093AA01D093AB012D9A3A
:1005F00000910002002341F00F3F31F00E944411AE
:10060000E8EAF7E10E946F1516C000939B01C6EA65
:10061000D1E0C093AA01D093AB012D9A00910002C2
:10062000002341F00F3F31F00E944411E6EBF7E167
:100630000E946F1500C008950F930FB70F93EF93AB
:10064000FF930091D20103950093D2010A30E8F0A4
:1006500000270093D20100919B01003019F4EAE8D1
:10066000F7E10FC0013019F4E9E9F7E10AC00230FF
:1006700019F4E8EAF7E105C0033039F4E6EBF7E1F5
:1006800000C00E9413110E946F15FF91EF910F910E
:100690000FBF0F9108950F930FB70F931F9309B1D9
:1006A000087110918F01103021F4003011F510E81D
:1006B00020C0083161F0083021F413951A3F90F4FE
:1006C00018C0003119F41A95153020F012C01038F6
:1006D00081F040F00091D30100640F7D0093D301BD
:1006E000112707C00091D3010F7B00620093D30153
:1006F000112710938F011F910F910FBF0F91089534
:1007000009B100721FEF012705FBA9E8B1E0CAE8B3
:10071000D1E00E949C030E94AA031091D301009192
:100720008A01007E003A11F4106103C0003409F41C
:1007300018601093D30108950C911FE22EF01A95C2
:10074000011731F0039504C01195011709F00A95BE
:100750000C930895188117FB0C91002342F056F476
:1007600016FD03C01F77106404C0112702C016F0E5
:1007700010E818830895CAE8D1E021E0199117FB29
:1007800076F416FB66F0012F0F710F3141F00395DF
:10079000107E102B0A3008F010621A9319912A95D6
:1007A00069F708950F931F93CF93DF93CAE8D1E0C1
:1007B00011E00FEF09931A95E9F7DF91CF911F919F
:1007C0000F910895FF92FFB6FF92EF93FF931F934F
:1007D0000F930091D30100FD3FC0E5EDF1E00091E2
:1007E000C6000D3009F431C0073408F40CC00A35D6
:1007F00058F051F0013608F42FC00A3710F009F014
:100800002BC00052F1CF06C000C000830027009328
:10081000F50122C0003350F0093348F041F00134B3
:1008200028F0063420F019F00052F9CF15C01091CD
:10083000F50113951F3010F009F00EC01093F5016B
:10084000E10F10E0F11F008307C00091D3010160A8
:100850000093D3010E9434040F911F91FF91EF91F7
:10086000FF90FFBEFF901895FF92FFB6FF92E5ED57
:10087000F1E01091F5010191033509F407C00D3441
:1008800009F437C0043509F447C048C022271430A2
:1008900039F0133061F0123081F01130A9F03EC010
:1008A00001910E94FB04E8F00295007F202F019146
:1008B0000E94FB04B0F00F70202B01910E94FB04FA
:1008C00080F00295007F102F01910E94FB0448F0F8
:1008D0000F70102B04EC101709E0200710F009F03E
:1008E00089012093A9011093A80109E80E94FE152F
:1008F00015C0113009F012C000919B01033059F06E
:1009000001910E94FB0438F0033008F007C0009307
:100910009B010E94B10202C0000000C000270093AA
:10092000F5010091D3010E7F0093D301FF90FFBE2C
:10093000FF9008951895FF92FFB6FF92EF93FF93F3
:100940001F930F93E5EEF1E00091F60110E0E00F48
:10095000F11F03950E3F79F00093F60101910030ED
:1009600051F00093C6000F911F91FF91EF91FF90FE
:10097000FFBEFF90189508ED0093C10000E00093C2
:10098000F701F1CF0FEF0093F70108EF0093C100DB
:100990000895FF92FFB6FF92A5EEB1E004E50D9336
:1009A000C6EAD1E009810E94A9110D9308810E9435
:1009B000A9111D930D93C8EAD1E009810E94A911E4
:1009C0000D9308810E94A9111D930D93CBE9D1E0ED
:1009D00008810E94A9110D930DE00D930AE00D937B
:1009E00000E00D930093F60108EF0093C100FF9023
:1009F000FFBEFF900895003398F00A3318F40053B7
:100A000088940FC0013460F0073418F407538894B9
:100A100008C0013628F0073618F40755889401C03D
:100A200008940895FF92FFB6FF9200919B011091E8
:100A300000021F3F19F0103029F002C0003011F4FD
:100A4000033009F426C0009199010F3F09F421C039
:100A50000091A8011091A901209196013091970170
:100A6000020F131F0E94960520E931E002171307B9
:100A700010F4890107C024EC39E00217130710F0C5
:100A800009F089010093A8011093A90109E80E94C7
:100A9000FE15FF90FFBEFF900895FF92FFB6FF92F4
:100AA00000919B01109100021F3F19F0103029F0B6
:100AB00002C0003011F4033009F434C0E091990110
:100AC000EF3F09F00FC00091A6011091A70124E6A5
:100AD00030E0021B130B18F4002711271CC00E94E2
:100AE000960519C00091A8011091A9010E949605D0
:100AF00001280228032831F42091960130919701B2
:100B0000021B130B20E931E00217130717FD01C088
:100B100010F4002711270093A8011093A90109E8F8
:100B20000E94FE15FF90FFBEFF90089538018824B3
:100B30009924A0909601B0909701CC24DD240E94C6
:100B4000BC1180909601909097010E948E118501B2
:100B50000895FF92FFB6FF920F931F9300919B01A0
:100B6000033009F447C006B1037000FF31C010E044
:100B700010930302027010919401011721F41127C0
:100B80001093950137C0109195011A3020F41395F8
:100B9000109395012FC00093940111271093950194
:100BA00001FD03C001FF0CC025C000919B01013075
:100BB00031F400E00E94B10209E80E94FE151AC05B
:100BC00000919B01003019F401E00E94B10212C0B3
:100BD00010919B01133011F400E005C00091030255
:100BE0000A3020F403950093030204C003E00E943E
:100BF000B10200C01F910F91FF90FFBEFF900895BA
:100C0000030687090509C0FF0C0200F0FC0E07036C
:100C1000030303FFFF00003F3F0303030303033FFE
:100C20003F0000FFFFC3C3C3C3C3C3830300003F30
:100C30003F3030303030391F0F0000FFFFC3C3C3D7
:100C4000C3E7FEBC0000003F3F3030303030391F7A
:100C50000F0000FFFF030303030303030300003F30
:100C60003F00000000000000000000F0FC0E070341
:100C7000030303FFFF00F0FF3F3030303030303FE0
:100C8000FFF000FFFFC3C3C3C3C3C3030300003FA0
:100C90003F3030303030303030000F3EF8E0C0FFB1
:100CA000FFC0E0F81E073C1F0701003F3F0001079F
:100CB0001F3C000C0E07C3C3C3C3C3E77E3C000C3C
:100CC0001C383030303030391F0E00FFFF0000C0BC
:100CD000F0380EFFFF00003F3F1C07030000003FFD
:100CE0003F0000FFFF0000C6F3380EFFFF00003F8B
:100CF0003F1C07030000003F3F0000FFFFC0E0F083
:100D0000381C0E070300003F3F000103070E1C388C
:100D100030000000000003FFFF0303FFFF00001886
:100D20003830381F0F00003F3F0000FFFF1E78E003
:100D3000E0781EFFFF00003F3F0000010100003F80
:100D40003F0000FFFFC0C0C0C0C0C0FFFF00003FA9
:100D50003F0000000000003F3F0000F0FC0E0703D2
:100D600003070EFCF00000030F1C383030381C0F56
:100D7000030000FFFF030303030303FFFF00003F23
:100D80003F0000000000003F3F0000FFFF8383831F
:100D90008383C7FE7C00003F3F0101010101010088
:100DA000000000F0FC0E07030303070E0C00000315
:100DB0000F1C38303030381C0C000000030303FFD8
:100DC000FF030303000000000000003F3F0000009D
:100DD0000000007FFFC0C0C0C0C0C0FFFF000018FF
:100DE000383030303030381F070000F8FC0C0CFF72
:100DF000FF0C0CFCF80000030706063F3F06060741
:100E0000030000030F1C30E0E0301C0F0300003033
:100E10003C0E030101030E3C300000FFFF00000008
:100E20000000FFFF0000003F3F30303030303FFF18
:100E3000F000007FFFC0C0C0C0C0C0FFFF000000C6
:100E4000000000000000003F3F0000FFFF0000FF27
:100E5000FF0000FFFF00003F3F30303F3F30303F9A
:100E60003F0000FFFF0000FFFF0000FFFF00003F0A
:100E70003F30303F3F30303FFFF00F0F03FFFF6048
:100E80006060E0C080000000003F3F303030381F1D
:100E90000F0000FFFF6060E0C08000FFFF00003F28
:100EA0003F3030381F0F003F3F0000FFFF606060A1
:100EB0006060E0C08000003F3F3030303030381F8D
:100EC0000F00000C0E07C3C3C3C7CEFCF000000C1C
:100ED0001C38303030381C0F0300FFFFC0F0FC0E10
:100EE0000703070EFCF03F3F00030F1C3830381C8F
:100EF0000F03007CFEC78383838383FFFF000030E2
:100F0000381D0F070301013F3F0000004060606093
:100F1000606060E0C000001C3E3333333333333F46
:100F20003F0000F0F898D8D8D8D8D88C0000001F1F
:100F30003F3130303030391F0F000000E0E060609A
:100F40006060E0C0000000003F3F323232323F1D9F
:100F500000000000E0E06060606060600000000091
:100F60003F3F0000000000000000000080C0606003
:100F70006060E0E0000000F0FF3F303030303FFFC5
:100F8000F0000080C0E06060606060C08000000F22
:100F90001F3B333333333313010060E0C08000E084
:100FA000E00080C0E06030381F07033F3F03071FA9
:100FB0003830000080C060606060C08000000000C9
:100FC0000818303232321F0D00000000E0E000004F
:100FD000000080E0E00000003F3F180C0603013FE6
:100FE0003F000000E0E00000180C80E0E00000009E
:100FF0003F3F180C0603013F3F000000E0E0008087
:10100000C0E06000000000003F3F03070F1C3830C5
:101010000000000000000080E060E0E00000000050
:1010200020381E0701003F3F000000E0E0E0C00064
:1010300000C0E0E0E000003F3F0001030301003F8B
:101040003F000000E0E00000000000E0E0000000E1
:101050003F3F06060606063F3F000080C0E0606096
:101060006060E0C08000000F1F3830303030381F23
:101070000F000000E0E06060606060E0E000000001
:101080003F3F00000000003F3F0000E0E060606084
:101090006060E0C0800000FFFF0C181818181C0FDB
:1010A00007000080C0E06060606060C08000000FEA
:1010B0001F3830303030301808000000606060E0C9
:1010C000E0606060000000000000003F3F000000A2
:1010D0000000000060E080000080E0600000000090
:1010E0000081E77E1E07010000000080C0C0C0E054
:1010F000E0C0C0C08000001F3F3030FFFF30303FF5
:101100001F000060E0C0800080C0E0600000003090
:10111000381D0F070F1D383000000000E0E0000010
:101120000000E0E0000000003F3F303030303FFF83
:10113000F0000000E0E000000000E0E0000000003F
:101140000307060606063F3F000000E0E00000E05F
:10115000E00000E0E000003F3F30303F3F30303FF4
:101160003F0000E0E00000E0E00000E0E000003FC1
:101170003F30303F3F30303FFFF000E0E060E0E0E4
:10118000000000000000000000003F3F3333333F09
:101190001E0000E0E0000000000000E0E000003F72
:1011A0003F3333333F1E003F3F000000E0E00000CC
:1011B00000000000000000003F3F333333333F1E88
:1011C00000000080C06060606060C08000000008B7
:1011D00018303033333B1F0F000000E0E00080C0C8
:1011E000E060E0C08000003F3F030F1F3830381F31
:1011F0000F000000C0E060606060E0E00000000000
:10120000313B1E0E06023F3F00002E3D080200004B
:10121000000000001818001818000000000000006E
:10122000000000000000000000000000000000E0DE
:10123000F0180818F0E000070F1810180F0700400A
:101240006030F8F80000001010101F1F1010003060
:1012500038080888F87000181C1613111818003088
:10126000388888C87830000C1C1010111F0E000040
:10127000C0F0781880800007070504041F1F00F8DD
:10128000F88888888808000C1C1010101F0F00F0C8
:10129000F88888889810000F1F1010101F0F000882
:1012A000080888E878180000181E07010000007080
:1012B000F8888888F870000F1F1010101F0F00F0BA
:1012C000F8080808F8F00008191111111F0F0000A4
:1012D000000080800080000000000101000180000B
:1012E000808000000000010001010000000000807B
:1012F00080C0C0E0F8FE0001010303071F7FFEF875
:10130000E0C0C08080007F1F07030301010030435D
:101310001E050000000080C0E0F0F0F8F8FCFCFCC6
:10132000FCFCFCFCFCF8F8F0F0E0C08000000000E1
:101330000000F8FEFFFFFFFFFF1F0703030101018D
:10134000010303071FFFFFFFFFFFFEF8000000007F
:10135000FFFFFFFFFFFFFF00000000000000000094
:10136000000000FFFFFFFFFFFFFF000000001F7FE6
:10137000FFFFFFFFFFF8E0C0C080808080C0C0E0BA
:10138000F8FFFFFFFFFF7F1F0000000000000103C8
:10139000070F0F1F1F3F3F3F3F3F3F3F3F1F1F0FA5
:1013A0000F07030100000000000000000000000023
:1013B000000080C0E0F0F8FCFCFCFCFC0000000039
:1013C0000000000000000000000000F0F8FCFEFF3C
:1013D0007F3F1FFFFFFFFFFFFFFF00000000000037
:1013E0000000000000000000000F070301000000E3
:1013F00000FFFFFFFFFFFFFF0000000000000000F4
:10140000000000000000000000000000000000FFDD
:10141000FFFFFFFFFFFF00000000000000000000D2
:10142000000000003F3F3F3F3F3F3F3F3F3F3F3FC8
:101430003F3F3F3F3F3F3F3F3F3F3F3F00000000B8
:10144000000080C0E0F0F0F8F8FCFCFCFCFCFCFCC8
:10145000FCF8F8F0F0E0C080000000000000181E6A
:101460001F1F1F1F1F1F07030301010101030307A4
:101470009FFFFFFFFFFFFEF80000000000000000DC
:101480000000000000000080C0E0F0F8FCFEFFFF5C
:101490007F3F1F0F07010000000000000080C0E038
:1014A000F0F8FCFEFFFFFFBF9F8F87838180808065
:1014B00080808080000000003C3E3F3F3F3F3F3F38
:1014C0003F3F3F3F3F3F3F3F3F3F3F3F3F3F3F3F2C
:1014D0003F3F0000000000000080C0E0F0F0F8F89E
:1014E000FCFCFCFCFCFCF8F8F0F0E0C08000000024
:1014F0000000000000000E0F0F0F0F0F0F07838377
:1015000081818383C7FFFFFFFFFFFFFE0000000014
:101510000000000000000000000000001F1F1F1F4F
:101520001F3F3F7FFFFFFFFBF1E0C0000000000016
:101530001878F8F8F8F8F8F8E0C0C080808080C02B
:10154000C0E0F0FFFFFFFFFF7F1F00000000000072
:101550000103070F0F1F1F3F3F3F3F3F3F3F3F1F0D
:101560001F0F0F0703010000000000000000000033
:1015700000000000000080E0F8FCFCFCFCFC3C0CDF
:10158000000000000000000000000000000000005B
:1015900080E0F8FEFFFFFFFF3F0F030000000000A8
:1015A0000000000000000000000080E0F8FEFFFFE7
:1015B000FFFF3F0F0300000000FEFEFEFEFEFEFEEA
:1015C000000000000000787E7F7F7F7F7F7F7F7F2D
:1015D0007F7F7F7F7F7F7FFFFFFFFFFFFFFF7F7F9B
:1015E00000000000000000000000000000000000FB
:1015F00000000000003F3F3F3F3F3F3F0000000032
:10160000000000FCFCFCFCFCFCFCFCFCFCFCFCFC0E
:10161000FCFCFCFCFCFCFCFCFCFCFC0000000000F6
:1016200000FFFFFFFFFFFFFFF0F0F0F0F0F0F0F041
:10163000E0E0E0C0C0800000000000000000000109
:10164000030707070707070707070707070F0F1F06
:101650007FFFFFFFFFFEF8E0000000001878F8F8B9
:10166000F8F8F8F8E0C0C080808080C0C0E0F8FFE3
:10167000FFFFFFFF7F1F0000000000000103070FB6
:101680000F1F1F3F3F3F3F3F3F3F3F1F1F0F0F07B2
:1016900003010000000000000000000000000080C6
:1016A000E0F8FCFCFCFCFCFC7C1C040000000000DE
:1016B00000000000000000000080E0F8FEFFFFFFD7
:1016C000FFFFFFDFC7C1C0808000000000000000F6
:1016D00000000000E0F8FEFFFFFFFFFF7F3F3F1F1D
:1016E0001F1F1F3F3F7FFFFFFFFEFCF8E080000051
:1016F00000001F7FFFFFFFFFFFF9E0C0C080808078
:1017000080C0C0E0F9FFFFFFFFFF7F1F0000000067
:1017100000000103070F0F1F1F3F3F3F3F3F3F3FA9
:101720003F1F1F0F0F070301000000000000FCFC1B
:10173000FCFCFCFCFCFCFCFCFCFCFCFCFCFCFCFCE9
:10174000FCFCFCFCFCFCFCFC0000000001010101B5
:10175000010101010101010101010181E1F9FFFF25
:10176000FFFFFF3F0F03000000000000000000002B
:10177000000000000080E0F8FEFFFFFFFF3F0F03C6
:1017800000000000000000000000000000000080D9
:10179000E0F8FEFFFFFFFF3F0F0300000000000026
:1017A0000000000000000000000020383E3F3F3FE6
:1017B0003F3F0F0300000000000000000000000099
:1017C00000000000000000C0E0F0F0F8F8FCFCFCB5
:1017D000FCFCFCFCFCF8F8F0F0E0C00000000000AD
:1017E000000000003FFFFFFFFFFFC38181000000FA
:1017F000008181C3FFFFFFFFFF3F000000000000EA
:101800000080E0F0F9FFFFFFFF7F7F3F3F3F3F7F1A
:101810007FFFFFFFFFF9F0E08000000000001E7F67
:10182000FFFFFFFFFFF3C08080000000008080C04A
:10183000F3FFFFFFFFFF7F1E000000000000010319
:10184000070F0F1F1F3F3F3F3F3F3F3F3F1F1F0FF0
:101850000F070301000000000000000080C0E0F05E
:10186000F0F8F8FCFCFCFCFCFCFCFCF8F8F0F0E008
:10187000C080000000000000F8FEFFFFFFFFFF9F98
:10188000070303010101010303079FFFFFFFFFFFA0
:10189000FEF80000000001071F3F7FFFFFFFFEFC76
:1018A000FCF8F8F8F8FCFCFEFFFFFFFFFF7F1F07C6
:1018B000000000000000000000000001010303839D
:1018C000E3FBFFFFFFFFFF7F1F0701000000000099
:1018D00000000000000000000000303C3F3F3F3FA0
:1018E0003F3F1F0701000000000000000000000053
:1018F00000000000000000000000000000000000E8
:1019000000000000000000000000000000000000D7
:10191000000000000000C0E0F0F8F8FCFC7C7C7CDB
:10192000FCFCF8F8F0E0C00000000000000000003F
:10193000000000FEFFFFFFFF0300000000000000AA
:1019400003FFFFFFFFFE000000000000000000009A
:10195000003FFFFFFFFFE080800000008080E0FF8D
:10196000FFFFFF7F000000000E1F1F1F0E00000082
:101970000103070F0F1F1F1F1F1F1F1F1F0F0F0721
:101980000300000000000000000000000000000054
:101990000000000000000000000000000000000047
:1019A00000000000000000000000000000000080B7
:1019B000C0E0F0F8FCFCFC000000000000000000AB
:1019C000000000000000000000F8FCFE7F3F1F0F39
:1019D000FFFFFFFFFF00000000000000000000000C
:1019E0000000000000000001010000000000FFFFF7
:1019F000FFFFFF00000000000000000000000E1FBD
:101A00001F1F0E0000001F1F1F1F1F1F1F1F1F1F54
:101A10001F1F1F1F1F1F1F000000000000000000ED
:101A200000000000000000000000000000000000B6
:101A300000000000000000000000000000000000A6
:101A40000080C0F0F8F8FCFC7C7C7C7CFCFCF8F8A6
:101A5000F0E080000000000000000000000000072F
:101A6000070707070100000080C0E0F1FFFFFF7FCC
:101A70001F0000000000000000000000000080C007
:101A8000E0F0F8FCFE7F3F1F0F070301000000009D
:101A9000000000000E1F1F1F0E00001F1F1F1F1F32
:101AA0001F1F1F1F1F1F1F1F1F1F1F1F1F000000A3
:101AB0000000000000000000000000000000000026
:101AC0000000000000000000000000000000000016
:101AD0000000000000000000C0F0F8F8FCFCFC7CF6
:101AE0007C7CFCFCFCF8F8F0E0000000000000004A
:101AF000000000000000010101010101F0F0F0F020
:101B0000F8FDFFFFFFFFCF00000000000000000015
:101B1000000000F0F0F0F0F0C0800101010101834D
:101B2000C7FFFFFFFFFF000000000E1F1F1F0E007A
:101B3000000001070F0F1F1F1F1F1F1F1F1F1F0F59
:101B40000F0703000000000000000000000000007C
:101B50000000000000000000000000000000000085
:101B60000000000000000000000000000000000075
:101B7000000000C0F0FCFCFCFC3C00000000000089
:101B800000000000000000000000000000C0F0FCA9
:101B9000FFFFFF3F0F0300E0E0E0E0E00000000097
:101BA0000000000000000000007C7F7F7F7F7F7FBF
:101BB0007C7C7C7C7CFFFFFFFFFF7C7C00000000C6
:101BC0000E1F1F1F0E00000000000000000000009C
:101BD0000000001F1F1F1F1F00000000000000006A
:101BE00000000000000000000000000000000000F5
:101BF00000000000000000000000000000000000E5
:101C0000000000FCFCFCFCFC7C7C7C7C7C7C7C7C08
:101C10007C7C7C7C7C000000000000000000000058
:101C2000001F3F7F7F7F7C7C7C7C7C7CFCFCFCF805
:101C3000F8F0E0C00000000000000000000000F02C
:101C4000F0F0F0F0C080000000008080C1FFFFFFD6
:101C5000FFFF000000000E1F1F1F0E000000010705
:101C60000F0F1F1F1F1F1F1F1F1F1F0F0F07030017
:101C70000000000000000000000000000000000064
:101C80000000000000000000000000000000000054
:101C9000000000000000000000000000000080E0E4
:101CA000F8FCFCFC3C0C0000000000000000000000
:101CB000000000000000000080E0F8FEFFFFFFFFD2
:101CC000F3F0F0F0F0E0E0C00000000000000000E1
:101CD00000000000007EFFFFFFFFC783010101013C
:101CE0000183C7FFFFFFFF7C000000000E1F1F1FC6
:101CF0000E00000001070F0F1F1F1F1F1F1F1F1FB8
:101D00001F0F0F070100000000000000000000008E
:101D100000000000000000000000000000000000C3
:101D20000000000000000000000000000000007C37
:101D30007C7C7C7C7C7C7C7C7C7C7C7CFCFCFCFCE3
:101D4000FCFC00000000000000000000000000009B
:101D500000000000000080E0F8FEFFFF3F0F0300DE
:101D60000000000000000000000000000000000073
:101D700080E0F8FEFFFF3F0F0300000000000000BE
:101D800000000E1F1F1F0E0000000000181E1F1F66
:101D90001F0F030000000000000000000000000012
:101DA0000000000000000000000000000000000033
:101DB0000000000000000000000000000000000023
:101DC00000000000000000C0E0F8F8FCFC7C7C7C17
:101DD000FCFCF8F8E0C0000000000000000000007B
:101DE0000000000080C7FFFFFFFFFCF8F8F8FCFFD1
:101DF000FFFFFFC78000000000000000000000009F
:101E000000FEFFFFFFFFC381000000000081C3FF51
:101E1000FFFFFFFE000000000E1F1F1F0E0000004E
:101E200001070F0F1F1F1F1F1F1F1F1F1F0F0F0750
:101E3000030000000000000000000000000000009F
:101E40000000000000000000000000000000000092
:101E50000000000000000000000000C0F0F8F8FCE6
:101E6000FCFC7C7C7C7CFCFCFCF8F8F0C0000000F6
:101E700000000000000000001F7FFFFFFFFFF1E0F7
:101E8000C0C0C0C0E0F1FFFFFFFFFF3F0000000047
:101E9000000000000000000001030307070787E7B8
:101EA000FFFFFFFFFF3F0F030000000000000E1FB9
:101EB0001F1F0E00000000000000181E1F1F1F1F24
:101EC0000F0300000000000000000F930FB70F93F6
:101ED00000919801002309F00BC00FEF00939801C7
:101EE00000910002003021F00F3F49F00E948D1058
:101EF00000E0009398010F910FBF0F91089500919A
:101F00009B01003039F0013009F1023089F10330D2
:101F1000E1F148C000919901002361F400911C0196
:101F200007FF5AC00F7700931C016091A8017091C0
:101F3000A90145C000911E0107FF4EC00F77009315
:101F40001E016091A6017091A70139C009E20093BA
:101F5000080208E20093070203E3009306020BE283
:101F60000093050237C06091A6017091A70127C0B8
:101F700009E2009308020CE3009307020EE30093CA
:101F800006020EE30093050225C008E20093080252
:101F900008E30093070208E20093060209E20093B7
:101FA000050218C00BE3009308020BE3009307023D
:101FB0000BE3009306020BE3009305020BC0882796
:101FC00099270E943C120E94A51200910602006807
:101FD000009306020E94ED0F8BCFFF92FFB6FF9297
:101FE0001F930F93EF93FF9300919B01033081F4B4
:101FF0000E9433170091CD010A9507700093CD011F
:1020000008680E94B9100E945A170E944D1709C013
:102010000E9433170AE80E94B9100E945A170E94C2
:102020004D171FEF1150F0F70E94331700EC0E947C
:10203000B9100E945A17EAEFF0E2009108020E94DC
:1020400047100E94B9100E945A17009107020E947F
:1020500047100E94B9100E945A17009106020E9470
:1020600047100E94B9100E945A17009105020E9461
:1020700047100E94B9100E945A170E944D17FF91F5
:10208000EF910F911F91FF90FFBEFF900895EF9386
:10209000FF9307FB0F77003220F0003410F400525A
:1020A00001C000E0E00F00E0F01F049107F9FF918C
:1020B000EF9108950E9433170CE80E94B9100E9416
:1020C0005A17EBD61FEF1150F0F71FEF1150F0F732
:1020D000CAD600E40E94B910EDD6DFD61FEF11502A
:1020E000F0F71FEF1150F0F708953F065B4F666D54
:1020F0007D077F6F00805CF9710000000000000028
:10210000000077735F31000000003F065B4F666D93
:102110007D077F6F00805CF97100FF92FFB6FF9230
:102120000F931F932F93CF93DF9308E8003920F488
:102130000E94A5100395FACFDF91CF912F911F91A7
:102140000F91FF90FFBEFF9008950F93C9E0D1E07B
:10215000102F10582227C10FD21FC10FD21F198173
:10216000107C103C21F40E9412160E949D150F91C4
:1021700008951F932F9328E00795111F2A95E1F7E3
:10218000012F2F911F9108950E9433170091000293
:102190000E945A1700E80E945A170FEA0E945A1725
:1021A0000E944D1708950F931F932F9310E0202F37
:1021B0001093F8012093F9010E946B110E943317CC
:1021C000009100020E945A1700E40E945A1714E876
:1021D00000E00E945A171A95D9F70E944D172F91C7
:1021E0001F910F9108950F931F932F9310E0202FAD
:1021F0001093F8012093F9010E946B110E9433178C
:10220000009100020E945A1700E40E945A1710E839
:102210002F91022F0E945A171A95D9F70E944D1735
:102220001F910F9108950F930FB70F931F93EF9383
:10223000FF930E943317009100020E945A170F3F2C
:1022400009F4000000E00E945A1719E1EEE6F2E2FC
:1022500005910E945A171A951123D1F70E944D1724
:10226000FF91EF911F910F910FBF0F910895A83F1C
:10227000D300408D14A1C8DA1281FFD922DB30A42B
:10228000A6D5800010B0AF000F931F932F930E942C
:10229000E91528E014E82A951F9310E01093F8013F
:1022A0002093F9010E946B111F910E943317009136
:1022B00000020E945A1700E40E945A1700E00E9490
:1022C0005A171A95D9F70E944D17222319F72F9103
:1022D0001F910F9108951091F8012091F90117FDB8
:1022E0001CC00F930E943317009100020E945A17DE
:1022F00000E00E945A17022F0770006B0E945A17C5
:10230000012F0F700E945A17012F02950F70006164
:102310000E945A170E944D170F910895FF92FFB621
:10232000FF92FF920F921F92799C6001689C50016E
:10233000699CFF24B00CC11CDF1C789CFF24B00CEE
:10234000C11CDF1C1F900F90FF90FF90FFBEFF90FD
:102350000895FF92FFB6FF92102F0F70107F129515
:10236000005D0A3308F0095F105D1A3308F0195F49
:10237000FF90FFBEFF9008950024112422243324EF
:10238000F0E2660C771C881C991C001C111C221C96
:10239000331C0A141B042C043D0428F063940A180F
:1023A0001B082C083D08FA9561F708950F931F93B9
:1023B0002F933F934F935F936F937F93CC24DD24B0
:1023C000EE2400E4F02E88249924AA24BB2484015E
:1023D00095010C291D292E293F29B694A79497947D
:1023E0008794401751076207730740F08C289D2897
:1023F000AE28BF28401B510B620B730BF694E79479
:10240000D794C794F694E794D794C7940C2D0D29CC
:102410000E290F29E1F67F916F915F914F913F91C6
:102420002F911F910F910895FF92FFB6FF920F9386
:102430001F933F934F9330E1CC24BB24AA24FF2762
:10244000000F111FAA1CBB1CCC1C3A9549F40000BC
:102450004F913F911F910F91FF90FFBEFF90089504
:10246000EDE042914D5F43FD40834081405D47FD7B
:102470004083EA30B1F7E4CF4F935F936F937F933C
:102480008F939F93FF93EF9397FD0E94081340E271
:10249000EE24DD24CC24BB24AA24FF27660F771F5B
:1024A000881F991FAA1CBB1CCC1CDD1CEE1C4A9566
:1024B00061F0EFE052915D5F53FD50835081505DBC
:1024C00057FD5083EA30B1F7E9CF5A2D5F70506362
:1024D000509305025A2D52955F7050635093060237
:1024E0005B2D5F705063509307025B2D52955F70B8
:1024F0005063509308025C2D5F7050635093090243
:102500005C2D52955F70506350930A025D2D5F7091
:10251000506350930B025D2D52955F705063509342
:102520000C025E2D5F70506350930D025E2D52952C
:102530005F70506350930E02EF91FF919F918F91C6
:102540007F916F915F914F9108950F931F932F93F8
:10255000222710E300910E02011719F400E22395DF
:1025600001C010E200930E0200910D02011719F450
:1025700000E2239501C010E200930D0200910C02CD
:10258000011719F4239500E201C010E200930C0238
:1025900000910B02011719F4239500E201C010E22B
:1025A00000930B0200910A02011719F4239500E22F
:1025B00001C010E200930A0200910902011719F408
:1025C000239500E201C010E2009309020091080285
:1025D000011719F4239500E201C010E200930802EC
:1025E00000910702011719F4239500E201C010E2DF
:1025F0000093070200910602009306020091050273
:102600000093050220930F022F911F910F910895BF
:1026100060957095809590956F5F7F4F8F4F9F4F1E
:102620000895FF92FFB6FF92EF93FF936F927F9210
:102630008F929F92AF92BF92CF92DF925E9B05C026
:10264000AA24BB24CC24DD2407C0609078007090BD
:10265000790043010E948E1160909C0170909D0151
:1026600080909E0190909F016A0C7B1C8C1C9D1C8D
:1026700060929C0170929D0180929E0190929F01B8
:10268000E091A001F091A1013196E093A001F093B7
:10269000A101DF90CF90BF90AF909F908F907F90DF
:1026A0006F90FF91EF91FF90FFBEFF901895FF9202
:1026B000FFB6FF920F931F9300E000931D005E9AF8
:1026C000009181000F93087F009381000027009301
:1026D00085000093840010918C0100918B01109370
:1026E00089000093880010918E0100918D01109354
:1026F0008B0000938A0001E003BD0F9100938100DD
:102700004F93FF93EF93DF93CF930F921F922F92EC
:102710003F924F925F926F927F928F929F92AF9271
:10272000BF92CF92DF92EF92FF9200916900037007
:10273000023091F0033029F00BE0009369000C9413
:10274000BE140DEE00937A00009169000C7F0260C8
:10275000009369000C94BE140DE600937A0000917A
:1027600069000C7F03600093690060909C01709089
:102770009D0180909E0190909F01A090A001B0903B
:10278000A101660C771C881C991C660C771C881CA0
:10279000991CCC24DD240E94BC11660C771C881C7B
:1027A000991C660C771C881C991CA301B4016092CB
:1027B000A2017092A3018092A4019092A5010E94AF
:1027C000D6118092AC019092AD01002700939C013C
:1027D00000939D0100939E0100939F010093A0012F
:1027E0000093A101F1E0ECECEF010027802E202EF8
:1027F000302E7A906A900FE0002359F00A951A90D3
:102800000A90600C711C821C931C129202920C9410
:10281000FC13E0E1F0E05F01CC24DD240E94BC1158
:102820006092A6017092A70100919B01003009F40B
:1028300032C0013009F407C0023009F418C0033077
:1028400009F415C09BC02D985F9A00E000939A018F
:10285000E0918B01F0918C01C8E8D3E1EC1BFD0BFA
:1028600009F018F4EE27FF2731964F014EC02D9A3C
:102870005F9A00E000939A0108E31AE4C8E8D3E104
:1028800080908B0190908C018C0E9D1E801691067D
:1028900008F048013AC02D9A6090AC017090AD01EB
:1028A0008090A8019090A9016818790838F0C8E8CC
:1028B000D3E16C167D0648F03E0107C0C8E7DCEEA8
:1028C0006C167D0610F43E0100C080908B01909044
:1028D0008C01860C971C00E08016900611F097FE84
:1028E00007C001E010E048010FEF009399010DC00F
:1028F00008E31AE48016910608F048010091990156
:10290000002319F000270093990180928B01909287
:102910008C0100919B01003009F030C0E091A601CC
:10292000F091A7010091A8011091A901E01BF10B02
:1029300018F4E095F095319603E010E0E017F10708
:1029400050F40027009302025F9810919A010FEF54
:1029500000939A010EC000910202093120F4039500
:10296000009302020BC05F9A10919A0100E000935D
:102970009A01011303C008E80E94FE15FF90EF9032
:10298000DF90CF90BF90AF909F908F907F906F908F
:102990005F904F903F902F901F900F90CF91DF91BD
:1029A000EF91FF914F911F910F91FF90FFBEFF900C
:1029B0001895FF92FFB6FF920F931F932F933F93AB
:1029C0004F930F921F92FF93EF93F198F0980F930C
:1029D0000091FE0110E0E0E0FCE0E00FF11FE00FED
:1029E000F11F05911591000F111F0093FC01109329
:1029F000FD01F8010F911591259135914591003216
:102A000049F0003031F0011718F0021721F018F0EA
:102A100059C0F09AF19A003828F0003CC8F3103CF5
:102A200008F400540F93011B349F009DE00DF11D2D
:102A30000091F8010093FA010091F9010093FB0164
:102A40000F910E3219F400243695301D4F930E94D9
:102A50003317009100020E945A1700E40E945A178F
:102A60003F930091F801003868F403950093F80152
:102A700000E0F19B05910E945A173A95F0993A951A
:102A800081F702C00591F9CF3F910E944D174A95F9
:102A900079F00091FA010093F8010091FB01039590
:102AA00007700093F9010093FB010E946B11CFCFD7
:102AB0004F910091F901041B039507700093F901F0
:102AC0000E946B11EF91FF911F900F904F913F91DA
:102AD0002F911F910F91FF90FFBEFF900895FF92DD
:102AE000FFB6FF920F931F93AF93BF93CF93DF93E4
:102AF000EE0FFF1F00270093FF010091FF01003838
:102B000008F011C00395009382150591003809F46F
:102B10000AC0003828F0003C18F40E949D15EDCF43
:102B20000E94D914EACFDF91CF91BF91AF911F914D
:102B30000F91FF90FFBEFF900895DF01ECEDFDE2E5
:102B4000C9E0D1E00F9300580F7010E0E00FF11FC3
:102B5000E00FF11FC00FD11FC00FD11F05911491BD
:102B6000F8010091F80108831091F90117700091A4
:102B7000FE0102950073102B10641F7719830F91CB
:102B80000995FD010895CF93DF930F931F9300588C
:102B90001127C9E0D1E0C00FD11FC00FD11F09819B
:102BA0000F7B09831F910F91DF91CF910895CF93F0
:102BB000DF930F9300581127C9E0D1E0C00FD11F58
:102BC000C00FD11F0981006409830F91DF91CF915C
:102BD0000895CF93DF930F931F93C9E0D1E000E4F2
:102BE000002339F00A9519811F7B1F7719832296DC
:102BF000F7CF1F910F91DF91CF910895CF93DF937E
:102C00000F931F93C9E0D1E000581127C00FD11FC7
:102C1000C00FD11F1981106819831F910F91DF9187
:102C2000CF9108950F931F93CF93DF93C9E0D1E025
:102C300000581127C00FD11FC00FD11F0881198163
:102C40000093F8011093F9011F771064198312950E
:102C500013701093FE010E946B11DF91CF911F91B1
:102C60000F9108950895FD01059103700093FE01F1
:102C7000DF010895FD012F933F9315912591359123
:102C800005910F932093F8011093F9010E946B11A5
:102C90000E943317009100020E945A1700E40E941C
:102CA0005A170F91231739F030F40F930E945A17D7
:102CB0000F912395F7CF0E944D173F912F91DF0180
:102CC0000895FD010591003808F00FE70093F80121
:102CD000059107700093F901DF010E946B110895BF
:102CE000FD010091F8011591010F003808F00FE780
:102CF0000093F8010091F9011591010F07700093FD
:102D0000F901DF010E946B110895CF93DF930F93B8
:102D10001F93FD010591DF01003CC0F40A38B0F0BB
:102D200000581127C9E0D1E0C00FD11FC00FD11F3B
:102D30000091F80108831091F90117700091FE01CC
:102D400002950073102B1F7B1F7719831F910F9122
:102D5000DF91CF91089500919B01003089F400919B
:102D60009A01003039F00CE30E94D9140DE30E945F
:102D7000D91406C00AE30E94D9140BE30E94D914A7
:102D80000895C8EAD1E003C0C6EAD1E000C0688176
:102D90007981882799270E943C120E94A5120091F0
:102DA00008020E94D914009107020E94D9140091D0
:102DB00006020E94D9140091FE01013031F4009105
:102DC0000502065F0E94D91408C00EE20E94D914C1
:102DD000009105020E94D91400C0089532163316DE
:102DE0003A1661167016851632163216AB16C116D3
:102DF000C416321632163216321632163216321601
:102E00003216321632163216321632163216321682
:102E10003216321632163216321632163216321672
:102E20003216321632163216321632163216321662
:102E30003216321632163216321632163216321652
:102E40003216321632163216321632163216321642
:102E50003216321632163216321632162198209851
:102E6000189BFECF08952F93219A209A24E0215099
:102E7000F0F700002F9108952F9321982098189B28
:102E8000FECF24E02150F0F70000219A209A24E0A0
:102E90002150F0F700002F9108952F93209A219A46
:102EA0002098189BFECF219824E02150F0F70000D5
:102EB0002F9108951F932F932FB72F9318E007FD9D
:102EC000219807FF219A001F24E02150F0F700000D
:102ED0002098189BFECF24E02150F0F70000209AA4
:102EE0001A9569F7219824E02150F0F70000209806
:102EF000189BFECF24E02150F0F700002091FF0046
:102F0000199B222720930102209A2F912FBF2F91E6
:102F10001F9108958100830000C2FBF5EEE4810259
:102F2000836800888101830403858A898202008086
:102F300018808100830000D0E0E7E3EEED8102839A
:102F40005C0089820200801881018304038A80006A
:102F50008100830000D1F2EEEF8102835C00898260
:102F60000200801881018304038A80008100830AA3
:102F700001C2FBEAEBFEF7E5EDEE830A03E0E2E0D7
:102F8000F0E8E9EDFBEC831005F1E8E3EDE0EBEEB2
:102F9000EC80FF92FFB6FF920F931F932F93009147
:102FA0000001013009F407C0023009F414C00330F5
:102FB00009F426C04AC000910101033010F009F065
:102FC00044C010919B01133009F43FC000939B0152
:102FD0000E94B1023AC0009101011091020117FD57
:102FE00034C024EC021729E0120711F008F02DC0BC
:102FF0000093A8011093A90109E80E94FE1525C0BD
:10300000009101011091020117FD0FC024EC02177D
:1030100029E0120711F008F008C00093A8011093EE
:10302000A90109E80E94FE1510C0009103010330B8
:1030300010F009F00AC010919B01133009F405C08B
:1030400000939B010E94B10200C02F911F910F912C
:10305000FF90FFBEFF900895FF92FFB6FF920F937F
:103060001F93EF93FF93E8E9F0E30091B900087F25
:103070000695069506951127E00FF11FE00FF11F49
:1030800005911491F8010995FF91EF911F910F910E
:10309000FF90FFBEFF9018956C18E318E318E31833
:1030A000E318E318E318E318E318E318E318E31848
:1030B0007018E318E318E3187D189418E318E31860
:1030C000AA18B318E318C818DF18DF18E318E318B4
:1030D000E318E318E318E31805ED0093BC00089526
:1030E00000E00093000100910300013011F405E8B5
:1030F00001C005EC0093BC00089500271091000169
:10310000E1E0F1E0E10FF01F0091BB0000831395B7
:103110001093000103E00A95101711F405E801C0AF
:1031200005EC0093BC000895002710910001E1E038
:10313000F1E0E10FF01F0091BB00008313951093A5
:10314000000105EC0093BC000091D30102600093E4
:10315000D301089505EC0093BC000091D3010260F7
:103160000093D301089510E010930001E4E0F1E032
:103170000027E10FF01F00810093BB0000910500C4
:10318000013011F405E801C005EC0093BC0008957E
:10319000002710910001139510930001E4E0F1E085
:1031A000E10FF01F00810093BB0005E00A951017A6
:1031B00011F405E801C005EC0093BC00089505EC8E
:0831C0000093BC00089508957E
:00000001FF
