:020000020000FC
:0A0000000C9433000C94E3121895E1
:02000C00189545
:060010000C940C0618958B
:02001800189539
:02001C00189535
:02002000189531
:0200240018952D
:02002800189529
:10002C000C9403020C9405020C940C020C940E021A
:02003C00189515
:02004000189511
:0200440018950D
:100048000C94E9030C94B1040C94B0040C949D1224
:020058001895F9
:02005C001895F5
:100060000C94E118189505B70160102F0D7F15BF8E
:1000700005BFE0E0F1E000270193F530E9F7E0305B
:10008000D9F70293EDBFFEBFEEE1FF27EA95F083BB
:10009000E9F700E007B90FE308B902EC0AB90AEF83
:1000A0000BB90BE204B90CEF05B903E000936C0047
:1000B00000E0009368000CE00093B80002E30093B6
:1000C000BA0005E40093BC0009E10093C40000E01D
:1000D0000093C50008ED0093C10006E00093C20044
:1000E00002E00093B00003E00093B1000CE700933E
:1000F000B30000E000937000BAE4A8E3A0930B0102
:10010000B0930C01B0938900A0938800BAE4A8E3EF
:10011000A0930D01B0930E01B0938B00A0938A00C1
:1001200000E00093800007E000936F0002E000937E
:10013000810009EF07BD08BD02E004BD03E00093A4
:100140006E0003E005BD09E00093570109E000934C
:10015000580109E0009359010AE00093690001E0A9
:100160000DBB00E000937B0007E000937C000DEEE8
:1001700000937A000E94351836F00FEF0093B20119
:100180000E94E5172EC00E94F8160AE70E943E174B
:100190000E942217002326F00AE70093B20111C043
:1001A0000E94F81608E70E943E170E9422170023BB
:1001B00026F008E70093B20104C000E00093B2010A
:1001C00013C00E94A5100E94CA100E945610CFE2D0
:1001D000D1E0C0933101D0933201E9E6F7E10E940A
:1001E00008150FEF00931F0109B105FD0C94FC00E9
:1001F000B4E0A0EB0C94FE00AA27BB27A0932F012C
:10020000B093300109E80E94B715B0E0A5E0A093D3
:100210001801B093190178940FEF00931D010E940B
:10022000D9030C9413010091640100FF07C00E7FF5
:10023000009364010F930E943E040F9101FF07C0D9
:100240000D7F009364010F930E9470180F9103FFBC
:1002500009C0077F009364010F930E94D9030E9495
:1002600079010F9104FF09C00F7E009364010F9381
:100270000E94D9030E949C010F9105FF07C00F7DCA
:10028000009364010F930E942F050F9106FF07C092
:100290000F7B009364010F930E9476050F910091EC
:1002A000650100FF07C00E7F009365010F930E9458
:1002B000D6040F9101FF09C00D7F009365010F93D4
:1002C0000E94B3010E940C060F9102FF05C00B7F34
:1002D000009365010F930F9103FF09C0077F0093FF
:1002E00065010F930E945A030E9487030F910C949B
:1002F0001301FF92FFB6FF920F930091220100308D
:1003000021F402E00E94E80212C0013021F400E072
:100310000E94E8020CC0023021F400E00E94E802D2
:1003200006C0033021F400E00093B40100C00F9137
:10033000FF90FFBEFF900895FF92FFB6FF920F93CC
:1003400000912201003021F401E00E94E80206C081
:10035000033021F400E00E94E80200C00F91FF90FA
:10036000FFBEFF900895FF92FFB6FF92CF93DF93F9
:10037000EF93FF930F931F932F930E94C2030E944A
:10038000061000915A01023009F02FC000270F9388
:1003900000912F01009304010091300100930501A9
:1003A00000912D010093060100912E010093070199
:1003B00000912201009308010AE80E94B7150091FC
:1003C0002201002389F400912001002339F009E87B
:1003D0000E945B150AE80E946D1506C009E80E949C
:1003E0006D150AE80E945B150F91039500935A0161
:1003F0002F911F910F91FF91EF91DF91CF91FF907E
:10040000FFBEFF9008955E9818955E9A0F9301E0E5
:1004100000931D000F9118955E9A1895FF92FFB6F4
:10042000FF923F932F931F930F93109165010091BB
:100430005B01093029F0039500935B01186021C02E
:10044000002700935B0100915C01093029F00395BE
:1004500000935C01146015C0002700935C010091BB
:100460005D01093029F0039500935D01126009C018
:10047000002700935D0100915E01039500935E01EA
:100480001160109365010F911F912F913F91FF9083
:10049000FFBEFF9018954E024E027E02EEEED4D4BF
:1004A000BDBDB2B29E9E8D8D7E7E767669695E5EA2
:1004B00058584F4F46463E3E3B3B00000000000070
:1004C000000000000000000000000000000000002C
:1004D000000000000000000000000000000000001C
:1004E000000000000000000000000000000000000C
:1004F00000000000000000000000000046464646E4
:100500004646464646460000000000000000000047
:10051000464646464646464646460000000000001F
:10052000000000003B3B3B3B3B3B3B3B3B3B00007D
:1005300000000000000000000000000000000000BB
:1005400000000000000000000000000000000000AB
:10055000000000000000000000000000EF93FF9387
:100560000F931F930091B401002309F425C0E6E91D
:10057000F4E011270370E00FF11FE00FF11F059168
:100580001491F801EE0FFF1F0091B30110E0E00F8E
:10059000F11F0395003608F000270093B301049182
:1005A000002331F00093B30002E40093B0000BC0CD
:1005B00002E00093B00007C002E00093B000002703
:1005C0000093B30100C01F910F91FF91EF91089527
:1005D000003009F40AC0013009F420C0023009F4E7
:1005E00036C0033009F44CC064C0009322010FEF01
:1005F00000931D01CFE2D1E0C0933101D0933201CD
:100600002D9A0091B201002341F00F3F31F00E947A
:10061000CA10E9E6F7E10E9408154BC000932201D9
:100620000FEF00931D01CDE2D1E0C0933101D093D3
:1006300032012D980091B201002341F00F3F31F0BB
:100640000E94CA10E8E7F7E10E94081532C0009343
:1006500022010FEF00931D01CDE2D1E0C0933101E3
:10066000D09332012D9A0091B201002341F00F3F47
:1006700031F00E94CA10E7E8F7E10E94081519C09E
:10068000009322010FEF00931D01CDE2D1E0C09352
:100690003101D09332012D9A0091B201002341F033
:1006A0000F3F31F00E94CA10E5E9F7E10E940815FA
:1006B00000C0089509B1087110911501103021F49E
:1006C000003011F510E820C0083161F0083021F445
:1006D00013951A3F90F418C0003119F41A9515308B
:1006E00020F012C0103881F040F0009164010064E5
:1006F0000F7D00936401112707C0009164010F7BF7
:10070000006200936401112710931501089509B147
:1007100000721FEF012705FBA9E0B1E0CAE0D1E0BC
:100720000E94A3030E94B1031091640100910A0189
:10073000007E003A11F4106103C0003409F418601F
:100740001093640108950C911FE22EF01A95011781
:1007500031F0039504C01195011709F00A950C9327
:100760000895188117FB0C91002342F056F416FDF2
:1007700003C01F77106404C0112702C016F010E8F0
:1007800018830895CAE0D1E021E0199117FB76F4AF
:1007900016FB66F0012F0F710F3141F00395107EAB
:1007A000102B0A3008F010621A9319912A9569F7F4
:1007B00008950F931F93CF93DF93CAE0D1E011E028
:1007C0000FEF09931A95E9F7DF91CF911F910F91E0
:1007D0000895FF92FFB6FF92EF93FF931F930F933D
:1007E0000091640100FD42C0E6E6F1E00091C60020
:1007F000033509F412C0033711F403E50EC00D34BC
:1008000009F40BC00D3611F40DE407C0043509F4EA
:1008100004C00D3009F425C005C0008300270093F3
:10082000A60124C0003370F0093368F061F0013490
:1008300048F0063440F039F00052013418F0063424
:1008400010F009F013C01091A60113951F3010F09D
:1008500009F00CC01093A601E10F10E0F11F008316
:1008600005C0009164010160009364010F911F9124
:10087000FF91EF91FF90FFBEFF901895FF92FFB69A
:10088000FF92EF93FF930F931F932F93E6E6F1E010
:100890001091A6010191033509F407C00D3409F444
:1008A00034C0043509F449C04AC02227133051F03E
:1008B000123071F044C001910E94180528F1029590
:1008C000007F202F01910E941805F0F00F70202B5F
:1008D00001910E941805C0F00295007F102F019130
:1008E0000E94180588F00F70102B05EC101709E016
:1008F000200750F42093300110932F0109E80E9443
:10090000B7150FEF00931D011AC0113009F017C081
:1009100000912201033081F001910E94180560F0DE
:10092000033008F00CC0009322010E94E8020FEF90
:1009300000931D0100931F0102C0000000C00027AA
:100940000093A601009164010E7F009364012F9132
:100950001F910F91FF91EF91FF90FFBEFF900895BF
:100960001895FF92FFB6FF92EF93FF931F930F939B
:10097000E6E8F1E00091A70110E0E00FF11F039518
:100980000F71003079F00093A7010191003051F010
:100990000093C6000F911F91FF91EF91FF90FFBE52
:1009A000FF90189508ED0093C100F4CFFF92FFB6B9
:1009B000FF92AF93BF93CF93DF93EF93FF930F9388
:1009C0001F93A6E8B1E004E50D93CDE2D1E00981E3
:1009D0000E9435110D9308810E9435111D930D93CE
:1009E000CFE2D1E009810E9435110D9308810E9468
:1009F00035111D930D93C2E2D1E008810E9435119B
:100A00000D930DE00D930AE00D9300E00D9300931C
:100A1000A70108EF0093C1001F910F91FF91EF9183
:100A2000DF91CF91BF91AF91FF90FFBEFF900895EE
:100A3000003398F00A3318F4005388940FC001343F
:100A400060F0073418F40753889408C0013628F082
:100A5000073618F40755889401C008940895FF924A
:100A6000FFB6FF920F931F932F933F9300912201A4
:100A70001091B2011F3F19F4003021F02FC0033054
:100A800009F42CC00FEF00931D01009120010F3FCE
:100A900009F424C000912F01109130012091180118
:100AA00030911901020F131F0E94F90520E931E06E
:100AB0000217130710F4890107C024EC39E002176C
:100AC000130710F009F0890100932F0110933001F2
:100AD00009E80E94B7150FEF00931D013F912F9178
:100AE0001F910F91FF90FFBEFF900895FF92FFB6F8
:100AF000FF926F927F928F929F92AF92BF92CF920E
:100B0000DF920F931F932F933F9300912201109137
:100B1000B2011F3F19F4003021F05BC0033009F42B
:100B200058C00FEF00931D01E0912001EF3F91F5B8
:100B300000912201003071F5809018019090190108
:100B4000880C991C880C991C880C991C880C991C81
:100B500060903501709036016818790888249924CE
:100B6000A0901801B0901901CC24DD240E944811F6
:100B700080901801909019010E941A11850128E8AF
:100B800033E120930B0130930C0120911801309137
:100B9000190108C000912F01109130012091180116
:100BA00030911901021B130B0E94F90520E931E075
:100BB0000217130717FD01C010F400271127009337
:100BC0002F011093300109E80E94B7150FEF009331
:100BD0001D013F912F911F910F91DF90CF90BF90FA
:100BE000AF909F908F907F906F90FF90FFBEFF908F
:100BF0000895380188249924A0901801B090190113
:100C0000CC24DD240E944811809018019090190195
:100C10000E941A1185010895FF92FFB6FF920F936B
:100C20001F9300912201033009F43AC006B103700A
:100C300000FF21C010E01093B90101FD03C001FFC6
:100C40000FC02EC000912201013049F40091BA0179
:100C5000003829F400E00093BA010E94E80220C0A5
:100C600000912201003031F401E00E94E80200E826
:100C70000093BA0115C010912201133011F400E065
:100C800005C00091B9010A3020F403950093B90121
:100C900007C003E00E94E80202E00093B40100C034
:100CA0001F910F91FF90FFBEFF9018955906DD0927
:100CB0005B09C0FF0C0200F0FC0E0703030303FFF7
:100CC000FF00003F3F0303030303033F3F0000FF18
:100CD000FFC3C3C3C3C3C3830300003F3F303030EF
:100CE0003030391F0F0000FFFFC3C3C3C3E7FEBC92
:100CF0000000003F3F3030303030391F0F0000FF20
:100D0000FF030303030303030300003F3F0000004E
:100D100000000000000000F0FC0E0703030303FFC7
:100D2000FF00F0FF3F3030303030303FFFF000FF49
:100D3000FFC3C3C3C3C3C3030300003F3F3030300E
:100D40003030303030000F3EF8E0C0FFFFC0E0F838
:100D50001E073C1F0701003F3F0001071F3C000C1E
:100D60000E07C3C3C3C3C3E77E3C000C1C3830303E
:100D7000303030391F0E00FFFF0000C0F0380EFF8A
:100D8000FF00003F3F1C07030000003F3F0000FF43
:100D9000FF0000C6F3380EFFFF00003F3F1C0703B3
:100DA0000000003F3F0000FFFFC0E0F0381C0E07CE
:100DB0000300003F3F000103070E1C383000000015
:100DC000000003FFFF0303FFFF0000183830381F47
:100DD0000F00003F3F0000FFFF1E78E0E0781EFF9D
:100DE000FF00003F3F0000010100003F3F0000FF07
:100DF000FFC0C0C0C0C0C0FFFF00003F3F000000F8
:100E00000000003F3F0000F0FC0E070303070EFC4C
:100E1000F00000030F1C383030381C0F030000FFB7
:100E2000FF030303030303FFFF00003F3F00000035
:100E30000000003F3F0000FFFF8383838383C7FEE2
:100E40007C00003F3F01010101010100000000F0B2
:100E5000FC0E07030303070E0C0000030F1C3830C1
:100E60003030381C0C000000030303FFFF030303B2
:100E7000000000000000003F3F0000000000007F75
:100E8000FFC0C0C0C0C0C0FFFF0000183830303005
:100E90003030381F070000F8FC0C0CFFFF0C0CFC76
:100EA000F80000030706063F3F060607030000039D
:100EB0000F1C30E0E0301C0F030000303C0E03013B
:100EC00001030E3C300000FFFF0000000000FFFFA8
:100ED0000000003F3F30303030303FFFF000007FF7
:100EE000FFC0C0C0C0C0C0FFFF0000000000000085
:100EF0000000003F3F0000FFFF0000FFFF0000FF79
:100F0000FF00003F3F30303F3F30303F3F0000FFA9
:100F1000FF0000FFFF0000FFFF00003F3F30303FB9
:100F20003F30303FFFF00F0F03FFFF606060E0C015
:100F300080000000003F3F303030381F0F0000FFBE
:100F4000FF6060E0C08000FFFF00003F3F303038AE
:100F50001F0F003F3F0000FFFF6060606060E0C067
:100F60008000003F3F3030303030381F0F00000C21
:100F70000E07C3C3C3C7CEFCF000000C1C383030D2
:100F800030381C0F0300FFFFC0F0FC0E0703070EF4
:100F9000FCF03F3F00030F1C3830381C0F03007C6F
:100FA000FEC78383838383FFFF000030381D0F0754
:100FB0000301013F3F00000040606060606060E04E
:100FC000C000001C3E3333333333333F3F0000F067
:100FD000F898D8D8D8D8D88C0000001F3F313030CE
:100FE0003030391F0F000000E0E060606060E0C05A
:100FF000000000003F3F323232323F1D000000004F
:10100000E0E0606060606060000000003F3F000062
:10101000000000000000000080C060606060E0E050
:10102000000000F0FF3F303030303FFFF000008024
:10103000C0E06060606060C08000000F1F3B333321
:1010400033333313010060E0C08000E0E00080C073
:10105000E06030381F07033F3F03071F38300000B0
:1010600080C060606060C0800000000008183032FE
:1010700032321F0D00000000E0E00000000080E0C0
:10108000E00000003F3F180C0603013F3F00000056
:10109000E0E00000180C80E0E00000003F3F180C8A
:1010A0000603013F3F000000E0E00080C0E0600078
:1010B000000000003F3F03070F1C38300000000015
:1010C00000000080E060E0E00000000020381E0723
:1010D00001003F3F000000E0E0E0C00000C0E0E0B1
:1010E000E000003F3F0001030301003F3F0000001C
:1010F000E0E00000000000E0E00000003F3F0606E6
:101100000606063F3F000080C0E060606060E0C00F
:101110008000000F1F3830303030381F0F000000C3
:10112000E0E06060606060E0E00000003F3F0000E1
:101130000000003F3F0000E0E06060606060E0C0F1
:10114000800000FFFF0C181818181C0F0700008003
:10115000C0E06060606060C08000000F1F38303009
:101160003030301808000000606060E0E0606060CF
:10117000000000000000003F3F00000000000000F1
:1011800060E080000080E060000000000081E77EF9
:101190001E07010000000080C0C0C0E0E0C0C0C069
:1011A0008000001F3F3030FFFF30303F1F000060E5
:1011B000E0C0800080C0E06000000030381D0F07F4
:1011C0000F1D383000000000E0E000000000E0E00B
:1011D000000000003F3F303030303FFFF0000000A3
:1011E000E0E000000000E0E0000000000307060669
:1011F00006063F3F000000E0E00000E0E00000E005
:10120000E000003F3F30303F3F30303F3F0000E0E4
:10121000E00000E0E00000E0E000003F3F30303F51
:101220003F30303FFFF000E0E060E0E00000000011
:101230000000000000003F3F3333333F1E0000E05A
:10124000E0000000000000E0E000003F3F333333E7
:101250003F1E003F3F000000E0E0000000000000F3
:10126000000000003F3F333333333F1E0000008057
:10127000C06060606060C0800000000818303033DB
:10128000333B1F0F000000E0E00080C0E060E0C0E2
:101290008000003F3F030F1F3830381F0F00000051
:1012A000C0E060606060E0E000000000313B1E0EC6
:1012B00006023F3F00002E3D080200000000000033
:1012C00018180018180000000000000000000000BE
:1012D0000000000000000000000000E0F018081806
:1012E000F0E000070F1810180F0700406030F8F802
:1012F0000000001010101F1F101000303808088860
:10130000F87000181C16131118180030388888C897
:101310007830000C1C1010111F0E0000C0F078185F
:1013200080800007070504041F1F00F8F8888888DC
:101330008808000C1C1010101F0F00F0F888888817
:101340009810000F1F1010101F0F0008080888E8E1
:1013500078180000181E070100000070F8888888BF
:10136000F870000F1F1010101F0F00F0F808080889
:10137000F8F00008191111111F0F000000181820B3
:1013800040800000001818040200004020181800D7
:101390000000010204181800000080800000000016
:1013A000000003070F1E3C383C1E0080C0E0F078B0
:1013B0003C1E0F0703010000000030431E05000023
:1013C000000080C0E0F0F0F8F8FCFCFCFCFCFCFC49
:1013D000FCF8F8F0F0E0C080000000000000F8FE2B
:1013E000FFFFFFFFFF1F07030301010101030307C5
:1013F0001FFFFFFFFFFFFEF800000000FFFFFFFFE1
:10140000FFFFFF000000000000000000000000FFE0
:10141000FFFFFFFFFFFF000000001F7FFFFFFFFF38
:10142000FFF8E0C0C080808080C0C0E0F8FFFFFF10
:10143000FFFF7F1F0000000000000103070F0F1FC8
:101440001F3F3F3F3F3F3F3F3F1F1F0F0F0703011E
:10145000000000000000000000000000000080C04C
:10146000E0F0F8FCFCFCFCFC0000000000000000C8
:1014700000000000000000F0F8FCFEFF7F3F1FFFAF
:10148000FFFFFFFFFFFF0000000000000000000062
:1014900000000000000F07030100000000FFFFFF35
:1014A000FFFFFFFF00000000000000000000000040
:1014B0000000000000000000000000FFFFFFFFFF31
:1014C000FFFF00000000000000000000000000001E
:1014D0003F3F3F3F3F3F3F3F3F3F3F3F3F3F3F3F1C
:1014E0003F3F3F3F3F3F3F3F00000000000080C0C4
:1014F000E0F0F0F8F8FCFCFCFCFCFCFCFCF8F8F07C
:10150000F0E0C080000000000000181E1F1F1F1F19
:101510001F1F070303010101010303079FFFFFFFD3
:10152000FFFFFEF8000000000000000000000000C7
:1015300000000080C0E0F0F8FCFEFFFF7F3F1F0FBF
:1015400007010000000000000080C0E0F0F8FCFE91
:10155000FFFFFFBF9F8F8783818080808080808096
:10156000000000003C3E3F3F3F3F3F3F3F3F3F3F8B
:101570003F3F3F3F3F3F3F3F3F3F3F3F3F3F0000F9
:10158000000000000080C0E0F0F0F8F8FCFCFCFC7B
:10159000FCFCF8F8F0F0E0C0800000000000000063
:1015A00000000E0F0F0F0F0F0F07838381818383BE
:1015B000C7FFFFFFFFFFFFFE00000000000000006C
:1015C00000000000000000001F1F1F1F1F3F3F7F83
:1015D000FFFFFFFBF1E0C000000000001878F8F802
:1015E000F8F8F8F8E0C0C080808080C0C0E0F0FF6C
:1015F000FFFFFFFF7F1F0000000000000103070F37
:101600000F1F1F3F3F3F3F3F3F3F3F1F1F0F0F0732
:1016100003010000000000000000000000000000C6
:10162000000080E0F8FCFCFCFCFC3C0C000000002E
:1016300000000000000000000000000080E0F8FE54
:10164000FFFFFFFF3F0F030000000000000000004D
:1016500000000000000080E0F8FEFFFFFFFF3F0FEA
:101660000300000000FEFEFEFEFEFEFE0000000085
:101670000000787E7F7F7F7F7F7F7F7F7F7F7F7F80
:101680007F7F7FFFFFFFFFFFFFFF7F7F00000000E6
:10169000000000000000000000000000000000004A
:1016A000003F3F3F3F3F3F3F00000000000000FC85
:1016B000FCFCFCFCFCFCFCFCFCFCFCFCFCFCFCFC6A
:1016C000FCFCFCFCFCFCFC000000000000FFFFFF39
:1016D000FFFFFFFFF0F0F0F0F0F0F0F0E0E0E0C02E
:1016E000C0800000000000000000000103070707A1
:1016F0000707070707070707070F0F1F7FFFFFFFF2
:10170000FFFEF8E0000000001878F8F8F8F8F8F8A4
:10171000E0C0C080808080C0C0E0F8FFFFFFFFFF16
:101720007F1F0000000000000103070F0F1F1F3F75
:101730003F3F3F3F3F3F3F1F1F0F0F070301000089
:10174000000000000000000000000080E0F8FCFC49
:10175000FCFCFCFC7C1C04000000000000000000FD
:10176000000000000080E0F8FEFFFFFFFFFFFFDF4A
:10177000C7C1C08080000000000000000000000021
:10178000E0F8FEFFFFFFFFFF7F3F3F1F1F1F1F3FD0
:101790003F7FFFFFFFFEFCF8E080000000001F7F9E
:1017A000FFFFFFFFFFF9E0C0C080808080C0C0E085
:1017B000F9FFFFFFFFFF7F1F000000000000010393
:1017C000070F0F1F1F3F3F3F3F3F3F3F3F1F1F0F71
:1017D0000F070301000000000000FCFCFCFCFCFC07
:1017E000FCFCFCFCFCFCFCFCFCFCFCFCFCFCFCFC39
:1017F000FCFCFCFC000000000101010101010101F1
:101800000101010101010181E1F9FFFFFFFFFF3F3C
:101810000F030000000000000000000000000000B6
:101820000080E0F8FEFFFFFFFF3F0F030000000015
:10183000000000000000000000000080E0F8FEFF53
:10184000FFFFFF3F0F03000000000000000000004A
:1018500000000000000020383E3F3F3F3F3F0F03A5
:101860000000000000000000000000000000000078
:10187000000000C0E0F0F0F8F8FCFCFCFCFCFCFC14
:10188000FCF8F8F0F0E0C0000000000000000000EC
:101890003FFFFFFFFFFFC38181000000008181C384
:1018A000FFFFFFFFFF3F0000000000000080E0F0AE
:1018B000F9FFFFFFFF7F7F3F3F3F3F7F7FFFFFFF3E
:1018C000FFF9F0E08000000000001E7FFFFFFFFF37
:1018D000FFF3C08080000000008080C0F3FFFFFFA6
:1018E000FFFF7F1E0000000000000103070F0F1F15
:1018F0001F3F3F3F3F3F3F3F3F1F1F0F0F0703016A
:10190000000000000000000080C0E0F0F0F8F8FCEB
:10191000FCFCFCFCFCFCFCF8F8F0F0E0C0800000F3
:1019200000000000F8FEFFFFFFFFFF9F0703030119
:101930000101010303079FFFFFFFFFFFFEF8000007
:10194000000001071F3F7FFFFFFFFEFCFCF8F8F8D7
:10195000F8FCFCFEFFFFFFFFFF7F1F0700000000F9
:10196000000000000000000101030383E3FBFFFF10
:10197000FFFFFF7F1F0701000000000000000000C4
:10198000000000000000303C3F3F3F3F3F3F1F074B
:101990000100000000000000000000000000000046
:1019A0000000000000000000000000000000000037
:1019B0000000000000000000000000000000000027
:1019C0000000C0E0F0F8F8FCFC7C7C7CFCFCF8F843
:1019D000F0E0C0000000000000000000000000FE79
:1019E000FFFFFFFF030000000000000003FFFFFFF8
:1019F000FFFE00000000000000000000003FFFFFAD
:101A0000FFFFE080800000008080E0FFFFFFFF7F9D
:101A1000000000000E1F1F1F0E0000000103070F33
:101A20000F1F1F1F1F1F1F1F1F0F0F070300000087
:101A300000000000000000000000000000000000A6
:101A40000000000000000000000000000000000096
:101A5000000000000000000000000080C0E0F0F87E
:101A6000FCFCFC0000000000000000000000000082
:101A70000000000000F8FCFE7F3F1F0FFFFFFFFF8C
:101A8000FF00000000000000000000000000000057
:101A900000000001010000000000FFFFFFFFFF0049
:101AA000000000000000000000000E1F1F1F0E00BD
:101AB00000001F1F1F1F1F1F1F1F1F1F1F1F1F1F74
:101AC0001F1F1F00000000000000000000000000B9
:101AD0000000000000000000000000000000000006
:101AE0000000000000000000000000000080C0F0C6
:101AF000F8F8FCFC7C7C7C7CFCFCF8F8F0E08000D6
:101B000000000000000000000000000707070707B2
:101B10000100000080C0E0F1FFFFFF7F1F00000018
:101B20000000000000000000000080C0E0F0F8FCB1
:101B3000FE7F3F1F0F0703010000000000000000B0
:101B40000E1F1F1F0E00001F1F1F1F1F1F1F1F1F05
:101B50001F1F1F1F1F1F1F1F1F000000000000006E
:101B60000000000000000000000000000000000075
:101B70000000000000000000000000000000000065
:101B800000000000C0F0F8F8FCFCFC7C7C7CFCFC55
:101B9000FCF8F8F0E0000000000000000000000089
:101BA0000000010101010101F0F0F0F0F8FDFFFF7C
:101BB000FFFFCF000000000000000000000000F068
:101BC000F0F0F0F0C080010101010183C7FFFFFFC9
:101BD000FFFF000000000E1F1F1F0E000000010786
:101BE0000F0F1F1F1F1F1F1F1F1F1F0F0F07030098
:101BF00000000000000000000000000000000000E5
:101C000000000000000000000000000000000000D4
:101C1000000000000000000000000000000000C004
:101C2000F0FCFCFCFC3C0000000000000000000098
:101C3000000000000000000000C0F0FCFFFFFF3FBC
:101C40000F0300E0E0E0E0E0000000000000000022
:101C500000000000007C7F7F7F7F7F7F7C7C7C7C1E
:101C60007CFFFFFFFFFF7C7C000000000E1F1F1F9A
:101C70000E00000000000000000000000000001F37
:101C80001F1F1F1F000000000000000000000000D8
:101C90000000000000000000000000000000000044
:101CA000000000000000000000000000000000FC38
:101CB000FCFCFCFC7C7C7C7C7C7C7C7C7C7C7C7C64
:101CC0007C0000000000000000000000001F3F7FBB
:101CD0007F7F7C7C7C7C7C7CFCFCFCF8F8F0E0C0AA
:101CE0000000000000000000000000F0F0F0F0F044
:101CF000C080000000008080C1FFFFFFFFFF0000E8
:101D000000000E1F1F1F0E00000001070F0F1F1FF6
:101D10001F1F1F1F1F1F1F0F0F07030000000000C2
:101D200000000000000000000000000000000000B3
:101D300000000000000000000000000000000000A3
:101D40000000000000000000000080E0F8FCFCFC47
:101D50003C0C00000000000000000000000000003B
:101D60000000000080E0F8FEFFFFFFFFF3F0F0F05E
:101D7000F0E0E0C0000000000000000000000000F3
:101D8000007EFFFFFFFFC783010101010183C7FF41
:101D9000FFFFFF7C000000000E1F1F1F0E00000051
:101DA00001070F0F1F1F1F1F1F1F1F1F1F0F0F07D1
:101DB0000100000000000000000000000000000022
:101DC0000000000000000000000000000000000013
:101DD00000000000000000000000007C7C7C7C7C97
:101DE0007C7C7C7C7C7C7C7CFCFCFCFCFCFC00002B
:101DF00000000000000000000000000000000000E3
:101E0000000080E0F8FEFFFF3F0F0300000000002D
:101E100000000000000000000000000080E0F8FE6C
:101E2000FFFF3F0F030000000000000000000E1F36
:101E30001F1F0E0000000000181E1F1F1F0F0300B1
:101E40000000000000000000000000000000000092
:101E50000000000000000000000000000000000082
:101E60000000000000000000000000000000000072
:101E7000000000C0E0F8F8FCFC7C7C7CFCFCF8F87E
:101E8000E0C00000000000000000000000000000B2
:101E900080C7FFFFFFFFFCF8F8F8FCFFFFFFFFC75C
:101EA00080000000000000000000000000FEFFFFB6
:101EB000FFFFC381000000000081C3FFFFFFFFFEA2
:101EC000000000000E1F1F1F0E00000001070F0F73
:101ED0001F1F1F1F1F1F1F1F1F0F0F0703000000C3
:101EE00000000000000000000000000000000000F2
:101EF00000000000000000000000000000000000E2
:101F000000000000000000C0F0F8F8FCFCFC7C7C45
:101F10007C7CFCFCFCF8F8F0C00000000000000035
:101F2000000000001F7FFFFFFFFFF1E0C0C0C0C046
:101F3000E0F1FFFFFFFFFF3F000000000000000096
:101F40000000000001030307070787E7FFFFFFFF0B
:101F5000FF3F0F030000000000000E1F1F1F0E00B8
:101F6000000000000000181E1F1F1F1F0F030000AD
:101F70000000000000000000000000000000000061
:101F80000000000000000000000000000000000051
:101F90000000000000000000000000000000000041
:101FA0000000000000000000000000000000000031
:101FB0000000000000000000000000000000000021
:101FC0000000000000000000000000000000000011
:101FD0000000000000000000000000000000000001
:101FE00000000000000000000000000000000000F1
:101FF00000000000000000000000000000000000E1
:1020000000000000000000000000000000911B0123
:10201000002311F000C008950FEF00931B01009101
:10202000B2010F3F09F03BC000911D01002391F167
:10203000002700931D0100912201003081F0013042
:1020400091F0023031F0033039F024C0002711271D
:1020500013C00EEE1CEA17C00EEE1CED14C000916A
:102060002001002329F000912D0110912E0104C0C0
:1020700000912F01109130010093620110936301D0
:102080000E94E51707C000936201109363010E944C
:10209000A81700C0000000E000931B01BCCF0E9405
:1020A000AD1500E000931B01089508950E94F816F5
:1020B0000091B2010E943E1700E80E943E170FEA0D
:1020C0000E943E170E94221708950F931F932F938B
:1020D00010E0202F1093AA012093AB010E94F11071
:1020E0000E94F8160091B2010E943E1700E40E947F
:1020F0003E1714E800E00E943E171A95D9F70E9497
:1021000022172F911F910F9108950F931F932F93D3
:1021100010E0202F1093AA012093AB010E94F11030
:102120000E94F8160091B2010E943E1700E40E943E
:102130003E1710E82F91022F0E943E171A95D9F7EB
:102140000E9422171F910F9108950E94F816009186
:10215000B2010E943E170F3F09F4000000E00E9408
:102160003E1718E1EAE7F1E205910E943E171A9541
:102170001123D1F70E9422170895D580A83FD300DC
:10218000408D14A1C8DA1281FFD922DB30A4A60049
:1021900010B0AF000F931F932F930E947F1528E07C
:1021A00014E82A951F9310E01093AA012093AB0125
:1021B0000E94F1101F910E94F8160091B2010E9436
:1021C0003E1700E40E943E1700E00E943E171A9559
:1021D000D9F70E942217222319F72F911F910F91EF
:1021E00008951091AA012091AB0117FD20C00F9313
:1021F0001093A8012093A9010E94F8160091B20142
:102200000E943E1700E00E943E17022F0770006BED
:102210000E943E17012F0F700E943E17012F02955A
:102220000F7000610E943E170E9422170F910895BF
:1022300008950895FF92FFB6FF92FF920F921F92AA
:10224000799C6001689C5001699CFF24B00CC11C02
:10225000DF1C789CFF24B00CC11CDF1C1F900F906A
:10226000FF90FF90FFBEFF900895FF92FFB6FF9290
:10227000102F0F70107F1295005D0A3308F0095F70
:10228000105D1A3308F0195FFF90FFBEFF900895AC
:102290000024112422243324F0E2660C771C881CCD
:1022A000991C001C111C221C331C0A141B042C0436
:1022B0003D0428F063940A181B082C083D08FA9581
:1022C00061F708950F931F932F933F934F935F935D
:1022D0006F937F93CC24DD24EE2400E4F02E882439
:1022E0009924AA24BB24840195010C291D292E2997
:1022F0003F29B694A7949794879440175107620793
:10230000730740F08C289D28AE28BF28401B510B36
:10231000620B730BF694E794D794C794F694E79402
:10232000D794C7940C2D0D290E290F29E1F67F9122
:102330006F915F914F913F912F911F910F91089550
:10234000FF92FFB6FF920F931F933F934F9330E19D
:10235000CC24BB24AA24FF27000F111FAA1CBB1CDE
:10236000CC1C3A9549F400004F913F911F910F9179
:10237000FF90FFBEFF900895EDE042914D5F43FD59
:1023800040834081405D47FD4083EA30B1F7E4CFB0
:102390004F935F936F937F938F939F93FF93EF93ED
:1023A00097FD0E94941240E2EE24DD24CC24BB244D
:1023B000AA24FF27660F771F881F991FAA1CBB1C22
:1023C000CC1CDD1CEE1C4A9561F0EFE052915D5F84
:1023D00053FD50835081505D57FD5083EA30B1F773
:1023E000E9CF5A2D5F7050635093BB015A2D52951F
:1023F0005F7050635093BC015B2D5F7050635093CE
:10240000BD015B2D52955F7050635093BE015C2DF2
:102410005F7050635093BF015C2D52955F705063A5
:102420005093C0015D2D5F7050635093C1015D2DCD
:1024300052955F7050635093C2015E2D5F70506380
:102440005093C3015E2D52955F7050635093C40149
:10245000EF91FF919F918F917F916F915F914F913C
:1024600008950F931F932F93222710E30091C40127
:10247000011719F400E2239501C010E20093C40192
:102480000091C301011719F400E2239501C010E285
:102490000093C3010091C201011719F4239500E2D2
:1024A00001C010E20093C2010091C101011719F4AB
:1024B000239500E201C010E20093C1010091C00128
:1024C000011719F4239500E201C010E20093C00146
:1024D0000091BF01011719F4239500E201C010E239
:1024E0000093BF010091BE01011719F4239500E28A
:1024F00001C010E20093BE010091BD01011719F463
:10250000239500E201C010E20093BD010091BC01DF
:102510000093BC010091BB010093BB012093C50156
:102520002F911F910F9108956095709580959095CA
:102530006F5F7F4F8F4F9F4F0895FF92FFB6FF92BF
:10254000EF93FF936F927F928F929F92AF92BF9281
:10255000CF92DF925E9B05C0AA24BB24CC24DD244D
:1025600007C0609078007090790043010E941A11B2
:1025700060902301709024018090250190902601A5
:102580006A0C7B1C8C1C9D1C6092230170922401A0
:102590008092250190922601E0912701F091280177
:1025A0003196E0932701F0932801DF90CF90BF9000
:1025B000AF909F908F907F906F90FF91EF91FF90E1
:1025C000FFBEFF901895FF92FFB6FF920F931F93E7
:1025D0002F933F9300E000931D005E9A00918100CD
:1025E0000F93087F00938100209184003091850033
:1025F0000027009385000093840010910C01009146
:102600000B01109389000093880010910E01009136
:102610000D0110938B0000938A0001E003BD0F9120
:10262000009381004F93FF93EF93DF93CF930F922B
:102630001F922F923F924F925F926F927F928F9252
:102640009F92AF92BF92CF92DF92EF92FF92009152
:1026500069000370023031F1033029F00BE0009380
:1026600069000C9455140DEE00937A0000916900F6
:102670000C7F02600093690020930F0130931001DA
:102680000091110110911201201B310B8894379594
:10269000279588943795279520931301309314013B
:1026A0000C9455140DE600937A00009169000C7F9C
:1026B000036000936900209311013093120100918F
:1026C0000F0110911001201B310B089437952795AD
:1026D0000894379527952093130130931401609047
:1026E0002301709024018090250190902601A090F4
:1026F0002701B0902801660C771C881C991C660C79
:10270000771C881C991CCC24DD240E944811660C7F
:10271000771C881C991C660C771C881C991CA301CB
:10272000B4016092290170922A0180922B0190924B
:102730002C010E946211809235019092360100278F
:1027400000932301009324010093250100932601A7
:102750000093270100932801F1E0E5E5EF01002750
:10276000802E202E302E7A906A900FE0002359F0B0
:102770000A951A900A90600C711C821C931C12928C
:1027800002920C94B613E0E1F0E05F01CC24DD246A
:102790000E94481160922D0170922E010091220139
:1027A000003009F41CC0013009F407C0023009F4FC
:1027B0000DC0033009F40AC078C02D9888249924EC
:1027C00083940FEF00931D013CC06FC02D9A08E366
:1027D0001AE448010FEF00931D0133C066C02D9A23
:1027E000609035017090360180902F0190903001FB
:1027F0006818790877FC03C00EEF602202C00EEF64
:10280000602280900B0190900C01860C971C97FE23
:102810000AC001E010E048010FEF0093200100938F
:102820001D010C94211408E31AE48016910630F07F
:1028300048010FEF00931D0100931E010027009334
:10284000200180920B0190920C01E0912D01F091FA
:102850002E0100912F0110913001E01BF10B18F4B3
:10286000E095F095319603E010E0E017F10750F4A1
:1028700000270093B8015F98109121010FEF00939A
:1028800021010EC00091B8010A3020F40395009395
:10289000B8010BC05F9A1091210100E00093210163
:1028A000011303C008E80E94B715FF90EF90DF9076
:1028B000CF90BF90AF909F908F907F906F905F90E0
:1028C0004F903F902F901F900F90CF91DF91EF91FD
:1028D000FF914F913F912F911F910F91FF90FFBE5C
:1028E000FF901895FF92FFB6FF920F931F932F93BF
:1028F0003F934F930F921F92FF93EF93F198F098AD
:102900000F930091B00110E0ECEAFCE0E00FF11F42
:10291000E00FF11F05911591000F111F0093AE01FB
:102920001093AF01F8010F911591259135914591C3
:10293000003249F0003031F0011718F0021721F091
:1029400018F059C0F09AF19A003828F0003CC8F30A
:10295000103C08F400540F93011B349F009DE00DC0
:10296000F11D0091AA010093AC010091AB0100930D
:10297000AD010F910E3219F400243695301D4F939E
:102980000E94F8160091B2010E943E1700E40E94D6
:102990003E173F930091AA01003868F40395009315
:1029A000AA0100E0F19B05910E943E173A95F0992B
:1029B0003A9581F702C00591F9CF3F910E94221705
:1029C0004A9579F00091AC010093AA010091AD0104
:1029D000039507700093AB010093AD010E94F110C5
:1029E000CFCF4F910091AB01041B0395077000936B
:1029F000AB010E94F110EF91FF911F900F904F914A
:102A00003F912F911F910F91FF90FFBEFF9008956E
:102A1000FF92FFB6FF920F931F93AF93BF93CF9395
:102A2000DF93EE0FFF1F00270093B1010091B1016A
:102A3000003808F011C0039500931B15059100386C
:102A400009F40AC0003828F0003C18F40E9436153A
:102A5000EDCF0E947214EACFDF91CF91BF91AF9179
:102A60001F910F91FF90FFBEFF900895DF01E6E4F4
:102A7000FDE2C6ECD1E00F93005810E0E00FF11F2B
:102A8000E00FF11FC00FD11FC00FD11F059114918E
:102A9000F8010091AA0108831091AB011770009111
:102AA000B00102950073102B10641F7719830F91EA
:102AB0000995FD010895CF93DF930F9300581127D7
:102AC000C6ECD1E0C00FD11FC00FD11F09810F7B11
:102AD00009830F91DF91CF910895CF93DF930F93E7
:102AE00000581127C6ECD1E0C00FD11FC00FD11F75
:102AF0000981006409830F91DF91CF910895CF93ED
:102B0000DF930F931F93C6ECD1E000E4002339F06C
:102B10000A9519811F7B1F7719832296F7CF1F9182
:102B20000F91DF91CF910895CF93DF93C6ECD1E061
:102B30000F9300581127C00FD11FC00FD11F09815B
:102B4000007C003C0F9131F40F930E94CB150E9442
:102B500036150F91DF91CF9108950F9308E8003952
:102B600020F40E9494150395FACF0F910895CF9306
:102B7000DF930F931F93C6ECD1E000581127C00FCD
:102B8000D11FC00FD11F1981106819831F910F9198
:102B9000DF91CF9108950F931F93CF93DF93C6ECEE
:102BA000D1E000581127C00FD11FC00FD11F0881DD
:102BB00019810093AA011093AB011F771064198348
:102BC000129513701093B0010E94F110DF91CF9114
:102BD0001F910F9108950895FD01059103700093D1
:102BE000B001DF010895FD012F933F9315912591C9
:102BF000359105910F932093AA011093AB010E9488
:102C0000F1100E94F8160091B2010E943E1700E4F4
:102C10000E943E170F91231739F030F40F930E9452
:102C20003E170F912395F7CF0E9422173F912F91C6
:102C3000DF010895FD010591003808F00FE70093CA
:102C4000AA01059107700093AB01DF010E94F1100A
:102C50000895FD010091AA011591010F003808F0B7
:102C60000FE70093AA010091AB011591010F0770C6
:102C70000093AB01DF010E94F1100895CF93DF9321
:102C80000F931F93FD010591DF01003CC0F40A384A
:102C9000B0F000581127C6ECD1E0C00FD11FC00F13
:102CA000D11F0091AA0108831091AB011770009108
:102CB000B00102950073102B1F7B1F7719831F91A2
:102CC0000F91DF91CF91089500912101003039F0EB
:102CD0000CE30E9472140DE30E94721406C00AE312
:102CE0000E9472140BE30E9472140895CFE2D1E0A7
:102CF00003C0CDE2D1E000C068817981882799279F
:102D00000E94C8110E9431120091BE010E947214EB
:102D10000091BD010E9472140091BC010E947214C6
:102D20000091B001013031F40091BB01065F0E94B7
:102D3000721408C00EE20E9472140091BB010E943E
:102D4000721400C00895EB15EC15F3151A16291628
:102D50003E16EB15EB15641676167916EB15EB158A
:102D6000EB15EB15EB15EB15EB15EB15EB15EB1563
:102D7000EB15EB15EB15EB15EB15EB15EB15EB1553
:102D8000EB15EB15EB15EB15EB15EB15EB15EB1543
:102D9000EB15EB15EB15EB15EB15EB15EB15EB1533
:102DA000EB15EB15EB15EB15EB15EB15EB15EB1523
:102DB000EB15EB15EB15EB15EB15EB15EB15EB1513
:102DC000EB15EB15EB152098289A08952898209A72
:102DD00008952198299A08952998219A08952F9362
:102DE0000E94E9160E94E3160E9422172F9108956F
:102DF0002F930E94EC1624E02150F0F700000E946F
:102E0000E61624E02150F0F700002F9108952F934B
:102E10000E94E91624E02150F0F700000E94E3161A
:102E200024E02150F0F700000E94EC1624E021502D
:102E3000F0F700000E94E61624E02150F0F70000B1
:102E40002F9108952F930E94E61624E02150F0F769
:102E500000000E94EC1624E02150F0F700000E94D0
:102E6000E31624E02150F0F700000E94E91629E063
:102E70002150F0F7000000002F9108951F932F9329
:102E800018E0001F18F40E94E91602C00E94EC1618
:102E900024E02150F0F700000E94E31624E02150C6
:102EA000F0F700000E94E6161A9559F70E94E916FD
:102EB00024E02150F0F700000E94E31624E02150A6
:102EC000F0F7000013B111FB0E94E6162F911F913D
:102ED00008958100830000C2FBF5EEE4810283685F
:102EE00000888101830403858A898202008018801A
:102EF0008100830000D0E0E7E3EEED8102835C0017
:102F000089820200801881018304038A8000810085
:102F1000830000D1F2EEEF8102835C00898202001F
:102F2000801881018304038A80008100830A01C222
:102F3000FBEAEBFEF7E5EDEE830A03E0E2E0F0E802
:102F4000E9EDFBEC831005F1E8E3EDE0EBEEEC805E
:102F5000FF92FFB6FF920F93EF93FF9391D000EC97
:102F60009BD0EAE5F0E36F0100916301007F0295D9
:102F7000E00F00E0F01F04910E944C18F601009150
:102F800063010F70E00F00E0F01F04910E944C18E5
:102F9000F60100916201007F0295E00F00E0F01F52
:102FA00004910E944C18F601009162010F70E00F2D
:102FB00000E0F01F04910E944C1869D0FF91EF913E
:102FC0000F91FF90FFBEFF900895FF92FFB6FF9212
:102FD0000F931F93EF93FF9353D000EC5DD00091BC
:102FE0006201109163010E94A011EAE5F0E36F0114
:102FF00011270B2D02950F70002309F40FE0E00F4D
:10300000F11F04910E944C18F60111270B2D00238B
:1030100009F40FEF0F70E00FF11F04910E944C189C
:10302000F60111270A2D02950F70E00FF11F049190
:1030300000680E944C18F60111270A2D0F70E00F4E
:10304000F11F04910E944C1822D0FF91EF911F9123
:103050000F91FF90FFBEFF9008953F065B4F666D96
:103060007D077F6F00005C7971000AD00AE814D0F8
:103070000ED02FD005D000E40FD009D02AD008956B
:1030800028D0289A299A25D0299823D00895289ABB
:1030900020D0299A1ED008951F9318E0289819D09F
:1030A000069510F4299A01C0299813D0289A11D0B6
:1030B0001A95A1F7219828980CD013B1E89411FD26
:1030C0006894289A06D028982998219A02D01F91AE
:1030D00008950F930FE00150F1F70F9108950895AF
:1030E000FF92FFB6FF920F931F932F930091000161
:1030F000013009F407C0023009F418C0033009F4A4
:103100002DC058C000910101033010F009F052C0E9
:1031100010912201133009F44DC0009322010E9446
:10312000E8020091FF0000931D0144C000910101DD
:103130001091020117FD3EC024EC021729E012078E
:1031400011F008F037C000932F011093300109E807
:103150000E94B7150FEF00931D012CC000910101D3
:103160001091020117FD12C024EC021729E012078A
:1031700011F008F00BC000932F011093300109E803
:103180000E94B7150FEF00931D0114C000910301B9
:10319000033010F009F00EC010912201133009F431
:1031A00009C0009322010E94E8020091FF000093F1
:1031B0001D0100C02F911F910F91FF90FFBEFF9046
:1031C0000895FF92FFB6FF920F931F93EF93FF9323
:1031D000E2E0F2E30091B900087F069506950695B6
:1031E0001127E00FF11FE00FF11F05911491F80175
:1031F0000995FF91EF911F910F91FF90FFBEFF90F6
:1032000018952119981998199819981998199819B1
:103210009819981998199819981925199819981999
:10322000981932194919981998195F196819981934
:103230007D19941994199819981998199819981929
:10324000981905ED0093BC00089500E0009300017B
:1032500000910300013011F405E801C005EC009372
:10326000BC000895002710910001E1E0F1E0E10FBA
:10327000F01F0091BB00008313951093000103E041
:103280000A95101711F405E801C005EC0093BC0085
:103290000895002710910001E1E0F1E0E10FF01F37
:1032A0000091BB00008313951093000105EC00937F
:1032B000BC0000916401026000936401089505EC74
:1032C0000093BC00009164010260009364010895C2
:1032D00010E010930001E4E0F1E00027E10FF01F9F
:1032E00000810093BB0000910500013011F405E856
:1032F00001C005EC0093BC00089500271091000167
:10330000139510930001E4E0F1E0E10FF01F00815C
:103310000093BB0005E00A95101711F405E801C001
:1033200005EC0093BC00089505EC0093BC000895E3
:023330000895FE
:00000001FF
