:020000020000FC
:0A0000000C9433000C947D13189546
:02000C00189545
:02001000189541
:0200140018953D
:02001800189539
:02001C00189535
:02002000189531
:0200240018952D
:02002800189529
:10002C000C9481020C9483020C948A020C9493021B
:02003C00189515
:02004000189511
:0200440018950D
:100048000C94BC030C947B040C947A040C94371322
:020058001895F9
:02005C001895F5
:100060000C947A18189500916000086110E20093D2
:1000700060001093600005B70160102F0D7F15BF61
:1000800005BF04B710E014BF00FD0C94510001FD42
:100090000C945A0002FD0C945A0003FD0C945A0073
:1000A0000000E0E0F1E000270193F530E9F7E030EF
:1000B000D9F70293E0E0F5E0EDBFFEBFEEE1FF27E8
:1000C000EA95F083E9F700E007B90FE308B902EC1D
:1000D0000AB90AEF0BB90BE204B90CEF05B903E05A
:1000E00000936C0000E0009368000CE00093B800FF
:1000F00002E30093BA0005E40093BC0007E6009316
:10010000C40000E00093C50008ED0093C10006E0C4
:100110000093C20002E00093B00003E00093B1003E
:100120000CE70093B30000E000937000B6E4A0E594
:10013000A0930D01B0930E01B0938900A0938800A5
:10014000B6E4A0E5A0930F01B0931001B0938B002B
:10015000A0938A0000E00093800007E000936F0006
:1001600002E00093810009EF07BD08BD02E004BD75
:1001700003E000936E0003E005BD0AE00093690010
:1001800001E00DBB00E000937B0007E000937C00E2
:100190000DEE00937A00CAEFD0E00E9427010E9482
:1001A00060170E94721026F00FEF0093A30126C083
:1001B0000E9460170E9469170AE70E94AE170E940A
:1001C000931726F00AE70093A30112C00E9460175C
:1001D0000E94691708E70E94AE170E94931726F045
:1001E00008E70093A30104C000E00093A30106C048
:1001F0000E9416110E943B110E94C71009B105FD13
:100200000C940601B4E0A0EB0C940801AA27BB27CC
:10021000A0932801B093290109E80E941316B0E0C9
:10022000A5E0A0931601B09317010091A3010F3F21
:1002300021F0E9EDF7E10E94851578940E94AC0366
:1002400009E80E9413160C943201C8EED3E0EF9334
:10025000FF93E0E4FFE13197F1F72197D1F7FF91A8
:10026000EF9108950091560100FF07C00F930E947F
:100270000E040F910E7F0093560101FF07C00F93EC
:100280000E9417180F910D7F0093560103FF09C0BC
:100290000F930E94AC030E94D9010F91077F009336
:1002A000560104FF09C00F930E94AC030E94FF0196
:1002B0000F910F7E0093560105FF23C00F9300910D
:1002C0001501003059F0CF93DF93C2E3D0E0C09323
:1002D0001601D0931701DF91CF910AC0CF93DF931E
:1002E000C5E0D0E0C0931601D0931701DF91CF9104
:1002F00002E0009315010E94F9040F910F7D009315
:10030000560106FF23C00F9300911501003059F0EC
:10031000CF93DF93C2E3D0E0C0931601D0931701CF
:10032000DF91CF910AC0CF93DF93C5E0D0E0C093B7
:100330001601D0931701DF91CF9102E000931501D0
:100340000E943C050F910F7B0093560100915701CD
:1003500000FF08C00F930E9485110F910E7F00933C
:10036000570125C001FF0AC00F930E941E020E9480
:10037000CE050F910D7F0093570119C002FF0FC0EA
:100380000F930E945A0300911501003009F00A955D
:10039000009315010F910B7F0093570108C003FFD5
:1003A00006C00F930F91077F0093570100C00C9474
:1003B0003201FF92FFB6FF920F9300911B010030B4
:1003C00021F402E00E94CC0215C0013039F400E0B3
:1003D0000E94CC0209E80E9413160CC0023039F4C6
:1003E00000E00E94CC0209E80E94131603C003300B
:1003F00009F400C00F91FF90FFBEFF900895FF9297
:10040000FFB6FF920F9300911B01003021F401E031
:100410000E94CC020EC0023019F401E00E94CC020E
:10042000033039F400E00E94CC0209E80E94131660
:1004300000C00F91FF90FFBEFF9008950F931F9390
:100440000E9495030F930E94A60F0F9100914A01FD
:10045000039512E0011338C00F9300912801009317
:1004600006010091290100930701009126010093E4
:100470000801009127010093090100911B010F70F1
:1004800010911A011071012B109119011072012B9A
:1004900000930A010AE80E94131600911B01002331
:1004A00089F400911901002339F009E80E94D81558
:1004B0000AE80E94EC1506C009E80E94EC150AE85B
:1004C0000E94D8150F91002700934A0100914B011B
:1004D000039513E0011303C00F930F9100270093BE
:1004E0004B0100914C01039514E0011305C00F93DB
:1004F0000E94A0040F91002700934C011F910F91BF
:1005000008955E9818955E9A0F9301E000931D0080
:100510000F9118955E9A0F9300911D000160009352
:100520001D000F9118950F930FB70F931F93109104
:10053000570100915201093029F0039500935201AF
:10054000186021C000270093520100915301093027
:1005500029F0039500935301146015C00027009300
:10056000530100915401093029F00395009354017F
:10057000126009C0002700935401009155010395B2
:10058000009355011160109357010E942E031F9193
:100590000F910FBF0F9118950F930027009319012A
:1005A000009351010F91003009F40AC0013009F4A1
:1005B00019C0023009F428C0033009F437C04DC017
:1005C00000931B012D9A0091A301002351F00F3FCE
:1005D00041F00E9416110E943B11E9EDF7E10E94E3
:1005E00085153BC000931B012D980091A3010023AA
:1005F00051F00F3F41F00E9416110E943B11E7EEAF
:10060000F7E10E94851529C000931B012D9A0091E6
:10061000A301002351F00F3F41F00E9416110E94E8
:100620003B11E4EFF7E10E94851517C000931B0111
:10063000C8E2D1E00027099308832D9A0091A30115
:10064000002351F00F3F41F00E9416110E943B1110
:10065000E1E0F8E10E94851500C008952F93009114
:10066000560105FD25C006FD23C0002719B113FF63
:10067000016014FF0260109100010117C9F0209180
:100680000101133089F4021779F0023039F4009136
:1006900056010F7D00640093560106C0009156017B
:1006A00000620F7B0093560110930101009300013B
:1006B0002F91089509B100721FEF012705FBABE0F0
:1006C000B1E0CCE0D1E00E9476030E948403109157
:1006D000560100910C01007E003A11F4106103C034
:1006E000003409F418601093560108950C9114E039
:1006F0002EF01A95011731F0039504C011950117DA
:1007000009F00A950C930895188117FB0C910023AA
:1007100042F056F416FD03C01F77106404C0112781
:1007200002C016F010E818830895CCE0D1E021E073
:10073000199117FB76F416FB66F0012F0F710F313C
:1007400041F00395107E102B0A3008F010621A93C6
:1007500019912A9569F708950F931F93CF93DF930B
:10076000CCE0D1E011E00FEF09931A95E9F7DF91A2
:10077000CF911F910F910895FF92FFB6FF92EF93D3
:10078000FF931F930F930091560100FD3FC0E8E5D2
:10079000F1E00091C6000D3009F431C0073408F4CF
:1007A0000CC00A3558F051F0013608F42FC00A3752
:1007B00010F009F02BC00052F1CF06C000C000833A
:1007C00000270093980122C0003350F0093348F00D
:1007D00041F0013428F0063420F019F00052F9CF2E
:1007E00015C01091980113951F3010F009F00EC03C
:1007F00010939801E10F10E0F11F008307C00091F2
:1008000056010160009356010E940E040F911F9142
:10081000FF91EF91FF90FFBEFF901895FF92FFB6FA
:10082000FF92EF93FF930F931F932F93E8E5F1E06F
:10083000109198010191033509F407C00D3409F4B2
:1008400033C0043509F443C044C022271430E9F30F
:10085000133051F0123071F03CC001910E94E2045B
:1008600010F10295007F202F01910E94E204D8F040
:100870000F70202B01910E94E204A8F00295007FE6
:10088000102F01910E94E20470F00F70102B05EC04
:10089000101709E0200738F420932901109328014C
:1008A00009E80E94131615C0113009F012C000911A
:1008B0001B01033059F001910E94E20438F003302B
:1008C00008F007C000931B010E94CC0202C0000088
:1008D00000C0002700939801009156010E7F0093FD
:1008E00056012F911F910F91FF91EF91FF90FFBE45
:1008F000FF9008951895FF92FFB6FF92EF93FF9334
:100900001F930F93E8E7F1E00091990110E0E00FE9
:10091000F11F03950F71003079F000939901019157
:10092000003051F00093C6000F911F91FF91EF919D
:10093000FF90FFBEFF90189508ED0093C100F4CF23
:10094000FF92FFB6FF92AF93BF93CF93DF93EF93E6
:10095000FF930F931F93A8E7B1E004E50D93C6E260
:10096000D1E009810E94CF110D9308810E94CF111F
:100970001D930D93C8E2D1E009810E94CF110D9320
:1009800008810E94CF111D930D93CBE1D1E0088126
:100990000E94CF110D930DE00D930AE00D9300E03E
:1009A0000D930093990108EF0093C1001F910F91DF
:1009B000FF91EF91DF91CF91BF91AF91FF90FFBE7B
:1009C000FF900895003398F00A3318F40053889488
:1009D0000FC0013460F0073418F40753889408C03E
:1009E000013628F0073618F40755889401C008949A
:1009F0000895FF92FFB6FF920F931F932F933F939B
:100A000000911B011091A3011F3F19F0103029F034
:100A100002C0003011F4033009F426C0009119011E
:100A20000F3F09F421C00091280110912901209164
:100A3000160130911701020F131F0E94BB0520E918
:100A400031E00217130710F4890107C024EC39E0E4
:100A50000217130710F009F0890100932801109381
:100A6000290109E80E9413163F912F911F910F91C0
:100A7000FF90FFBEFF900895FF92FFB6FF926F9226
:100A80007F928F929F92AF92BF92CF92DF920F93FD
:100A90001F932F933F9300911B011091A3011F3FC0
:100AA00019F0103029F002C0003011F4033009F4BD
:100AB00052C0E0911901EF3F91F500911B01003008
:100AC00071F58090160190901701880C991C880C84
:100AD000991C880C991C880C991C60902A017090B4
:100AE0002B016818790888249924A0901601B090E9
:100AF0001701CC24DD240E94E21180901601909011
:100B000017010E94B411850128E833E120930D01FB
:100B100030930E01209116013091170108C0009109
:100B20002801109129012091160130911701021B13
:100B3000130B0E94BB0520E931E00217130717FDD4
:100B400001C010F4002711270093280110932901F8
:100B500009E80E9413163F912F911F910F91DF908A
:100B6000CF90BF90AF909F908F907F906F90FF90AD
:100B7000FFBEFF900895380188249924A0901601A3
:100B8000B0901701CC24DD240E94E2118090160160
:100B9000909017010E94B411850108950F930FB72B
:100BA0000F931F932F9306B11FEF012710914E0152
:100BB00000934E01102720911B01233021F00E9449
:100BC000E9050E9407062F911F910F910FBF0F910A
:100BD00008950F931F9310FD14C010914F0117FF3C
:100BE00004C0112710934F010FC0103069F01A95FF
:100BF00010934F0149F400FF07C003E00E94CC02AC
:100C000003C014E110934F011F910F9108950F93AA
:100C10001F9311FD1EC01091500117FF04C0112732
:100C20001093500119C01030B9F01A95109350016B
:100C300099F410911B0101FD06C0113069F400E028
:100C40000E94CC0209C0113039F001E00E94CC02B0
:100C500003C014E0109350011F910F9108953206C4
:100C6000640902082A390B0200008080000080809D
:100C7000000080000001010000010100000180006F
:100C80000080800000808000000100000101000061
:100C900001010000000000C07098ECF4F67A3A0000
:100CA0000000030E19372F6F5E5C3A7AF6F4EC9869
:100CB00070C00000005C5E6F2F37190E030000004B
:100CC0000000000060600000000000000000000064
:100CD0000000000000000000000000000000000014
:100CE00000000000000000000000000000F0FC1CFC
:100CF0000E06060E1CFCF0000F3F38706060703866
:100D00003F0F006070381CFEFE00000000006060B5
:100D100060607F7F6060606000181C0E06060686BB
:100D2000CEFC78006070787C6E676361606000065E
:100D30000606C6C6E6F6DE8E0600183870606060ED
:100D400060713F1F00000080C0E070381C8E86007C
:100D50000E0F0F0D0C0C0C0C7F7F00FEFEC6C6C6DE
:100D6000C6C6C686060018387060606060713F1F96
:100D700000F8FC8EC6C6C6C6CE8C08001F3F716048
:100D8000606060713F1F00060606060686E6FE7E6E
:100D90001E00000060787E1F07010000000078FC44
:100DA000CE8686CEFC7800001E3F73616161617360
:100DB0003F1E00F8FC8E060606068EFCF800103179
:100DC0007363636363713F1F000000000000000055
:100DD0000000000000000000000000000000000013
:100DE0000000000000000000000000000000000003
:100DF00000000000000000000000000000000000F3
:100E000000000000000000000000000000000000E2
:100E100000000000000000000000000000000000D2
:100E20002A390C02000000808000008080000080D1
:100E300000000001010000010100000180000080AD
:100E4000800000808000000001000001010000011E
:100E50000100000000000000C07098ECF4F67A3A3F
:100E600000000000030E19372F6F5E5C3A7AF6F42B
:100E7000EC9870C0000000005C5E6F2F37190E0305
:100E800000000000000000606000000000000000A2
:100E90000000000000000000000000000000000052
:100EA0000000000000000000000000000000000042
:100EB0000000000000F0FC1C0E06060E1CFCF000FA
:100EC000000F3F3870606070383F0F00006070386E
:100ED0001CFEFE000000000000606060607F7F601C
:100EE0006060600000181C0E06060686CEFC7800C6
:100EF000006070787C6E67636160600000060606C3
:100F0000C6C6E6F6DE8E06000018387060606060C7
:100F1000713F1F0000000080C0E070381C8E86000A
:100F2000000E0F0F0D0C0C0C0C7F7F0000FEFEC698
:100F3000C6C6C6C6C6860600001838706060606007
:100F4000713F1F0000F8FC8EC6C6C6C6CE8C0800D6
:100F5000001F3F7160606060713F1F000006060661
:100F6000060686E6FE7E1E0000000060787E1F07F3
:100F700001000000000078FCCE8686CEFC780000E0
:100F8000001E3F7361616161733F1E0000F8FC8EBB
:100F9000060606068EFCF800001031736363636377
:100FA000713F1F0000000000000000000000000072
:100FB0000000000000000000000000000000000031
:100FC0000000000000000000000000000000000021
:100FD0000000000000000000000000000000000011
:100FE0000000000000000000000000000000000001
:100FF00000000000000000000000000000000000F1
:1010000000000000E0FF0B0200CCEE66666666663C
:1010100066FEFC000307060606060603070700FE39
:10102000FE363636363676E6C00007070606060672
:101030000607030100FEFE66666666767EECC0006B
:10104000070706060606060703010088CC6E6666DB
:101050006666663C180001030606060606060303DC
:101060000000FCFE06060606FEFC00000E0F07064A
:10107000060606070F0E00F8FC6666666666667C66
:10108000380001030606060606060600008EDEF09E
:1010900060FEFE60F0DE8E0007070000070700001C
:1010A000070700080C0E0666666666FC98000103DA
:1010B000070606060606030100FEFE0080C0E0707B
:1010C00038FEFE000707070301000000070700FEC7
:1010D000FE0080C6E67038FEFE0007070703010029
:1010E0000000070700FEFE606070F8DC8E0600005E
:1010F000070700000000010307060000E0F81E06D5
:10110000061EF8E0000007070000000000000707C7
:1011100000FEFE1C30E0E0301CFEFE000707000071
:1011200000000000070700FEFE606060606060FE77
:10113000FE000707000000000000070700F8FC0E93
:10114000060606060EFCF80001030706060606075B
:10115000030100FEFE060606060606FEFE00070761
:10116000000000000000070700FEFEC6C6C6C6C697
:10117000EE7C38000707000000000000000000F8C7
:10118000FC0E060606060E9C9800010307060606DE
:10119000060703010006060606FEFE060606060012
:1011A00000000000070700000000003E7E60606055
:1011B000606060FEFE0000060606060606070301E4
:1011C00000F8FC0C0CFEFE0C0CFCF8000103030301
:1011D00007070303030100060E9CD8F0F0B89C0E2D
:1011E00006000607030100000103070600FEFE00DB
:1011F00000000000FEFE00000707060606061617A0
:101200001F1C003E7EE0C0C0C0C0C0FEFE0000004B
:10121000000000000000070700FEFE0000F8F800D4
:1012200000FEFE000707060607070606070700FE82
:10123000FE0000F8F80000FEFE000707060607079C
:1012400016161F1F000606FEFE30303030F0E0009C
:101250000000070706060606070300FEFE303030D2
:10126000F0E000FEFE00070706060607030007077A
:1012700000FEFE303030303070E0C0000707060658
:1012800006060607030100080C0E066666666EFC7D
:10129000F8000103070606060607030100FEFE60CC
:1012A000FCFE060606FEFC0007070003070606060E
:1012B0000703003C7E66E6E6E66666FEFE00040680
:1012C0000703010000000707304320050000C0F0BD
:1012D000F8F8FCFCFEFEFE7E7E7E7E7E7E7E7E7EBE
:1012E0007EFEFEFEFCFCF8F8F0C0000000FFFFFFF1
:1012F000FFFFFF0701000000000000000000008069
:10130000C0E0703907FFFFFFFFFFFF0000FFFFFF96
:10131000FFFFFF0000000080C0E070381C0E0703D4
:101320000100000000FFFFFFFFFFFF0000FFFFFFC5
:10133000FFFFFFE09C0E070301000000000000001B
:1013400000000080E0FFFFFFFFFFFF000000030F31
:101350001F1F3F3F7F7F7F7E7E7E7E7E7E7E7E7EE6
:101360007E7F7F7F3F3F1F1F0F03000000000000B4
:10137000000000000080C0E0F0FEFEFEFEFEFE0069
:10138000000000000000000000000000000000005D
:10139000F0F8FCFEFFFF7F3F1FFFFFFFFFFFFF0096
:1013A000000000000000000000000000000000003D
:1013B000000000000000000000FFFFFFFFFFFF0033
:1013C000000000000000000000000000000000001D
:1013D000000000000000000000FFFFFFFFFFFF0013
:1013E00000000000000000000000000000000000FD
:1013F0007E7E7E7E7E7E7E7E7E7F7F7F7F7F7F7E07
:101400007E7E7E7E7E7E7E7E000000000080E0F09C
:10141000F8F8FCFCFEFE7E7E7E7E7E7E7E7E7E7EFC
:101420007E7EFEFEFCFCFCF8F0E08000000F0F0F5B
:101430000F0F0F030000000000000000000000007C
:10144000000080C0E1FFFFFFFFFF3F000000000041
:101450000000000000000000000080C0E0F0F8FC88
:10146000FEFF7F3F1F0F0703010000000000000088
:10147000000080C0E0F0F8FCFEFF7F3F1F0F070375
:101480000100000000000000000000000070787CF7
:101490007E7F7F7F7F7F7F7F7F7E7E7E7E7E7E7E64
:1014A0007E7E7E7E7E7E7E7E7E7E7E000080E0F082
:1014B000F8F8FCFCFE7E7E7E7E7E7E7E7E7E7E7EDC
:1014C0007E7E7EFEFCFCFCF8F0E08000000F0F0F3B
:1014D0000F0F0F03000000000000000000000000DC
:1014E00000000000C3FFFFFFFFFF7F0000000000BF
:1014F0000000000000000000003E3E3E3E3E3E3E3A
:101500003E3E3E7FFFFFFFF7E3C1000000F0F0F03A
:10151000F0F0F0C00000000000000000000000003B
:1015200000000000C1FFFFFFFFFFFF000001070FE9
:101530001F1F3F3F7F7E7E7E7E7E7E7E7E7E7E7E06
:101540007E7E7E7F3F3F3F1F0F07010000000000AF
:1015500000000000000000000000000080C0E0F07B
:10156000F8FCFEFEFE7E3E1E0000000000000000B3
:101570000000000080C0E0F0F8FCFEFFFF7F3F1F8E
:101580000F070301000000000000000000C0E0F0B1
:10159000F8FCFEFFFF7F3F1F0F0703010000000064
:1015A0000000FEFEFEFEFEFE00000000007F7F7FCA
:1015B0007F7F7F7F7E7E7E7E7E7E7E7E7E7E7E7E47
:1015C0007E7EFFFFFFFFFFFF7E7E7E0000000000AB
:1015D000000000000000000000000000000000000B
:1015E00000003F3F3F3F3F3F0000000000FEFEFE87
:1015F000FEFEFE7E7E7E7E7E7E7E7E7E7E7E7E7E8B
:101600007E7E7E7E7E7E7E7E7E7E7E0000FFFFFF73
:10161000FFFFFFC08080808080808080808080800D
:101620008080808000000000000000000001070FA3
:101630000F1F1F1F1F1F1F1F1F1F1F1F1F1F1F1FCA
:101640001F1F1F3FFFFFFEFEFCF8E00000F0F0F060
:10165000F0F0F0C0000000000000000000000000FA
:1016600000000000C0FFFFFFFFFFFF000001070FA9
:101670001F1F3F3F7F7E7E7E7E7E7E7E7E7E7E7EC5
:101680007E7E7E7F3F3F1F1F0F070100000080E02E
:10169000F0F8F8FCFC7E7E7E7E7E7E7E7E7E7E7E08
:1016A0007E7EFEFCFCF8F8F0E080000000FEFFFF0C
:1016B000FFFFFF010000808080808080808080802C
:1016C00080808003030303030303000000FFFFFF88
:1016D000FFFFFFFE3F1F1F1F1F1F1F1F1F1F1F1F7B
:1016E0001F1F1F3FFFFEFEFCF8F0C00000FFFFFFC2
:1016F000FFFFFFC00000000000000000000000002D
:1017000000000000C0FFFFFFFFFFFF000000030715
:101710000F1F1F3F3F7E7E7E7E7E7E7E7E7E7E7E94
:101720007E7E7E3F3F1F1F0F07030000007E7E7EF0
:101730007E7E7E7E7E7E7E7E7E7E7E7E7E7E7E7EC9
:101740007E7E7E7EFEFEFEFEFEFEFE0000000000AF
:101750000000000000000000000000000000000089
:10176000C0F0FCFFFFFFFF7F1F070100000000002B
:10177000000000000000000000000000C0F0FCFFBE
:10178000FFFFFF7F1F0701000000000000000000B6
:101790000000000000000000C0F0FCFFFFFFFF7F22
:1017A0001F07010000000000000000000000000012
:1017B0000000000040707C7F7F7F7F7F1F0701005B
:1017C000000000000000000000000000000080E0B9
:1017D000F0F8F8FCFCFE7E7E7E7E7E7E7E7E7E7E47
:1017E0007E7EFEFCFCF8F8F0E080000000003FFF89
:1017F000FFFFFFFFC18000000000000000000000AC
:10180000000080C1FFFFFFFFFF3F000000C0E0F8C5
:10181000FDFFFFFF7F3F3F3F3F3F3F3F3F3F3F3F9A
:101820003F3F3F7FFFFFFFFDF8E0C00000FFFFFFED
:10183000FFFFFFC1000000000000000000000000EA
:1018400000000000C1FFFFFFFFFFFF000001070FC6
:101850001F1F3F3F7F7E7E7E7E7E7E7E7E7E7E7EE3
:101860007E7E7E7F3F3F1F1F0F0701000080E0F05C
:10187000F8F8FCFCFE7E7E7E7E7E7E7E7E7E7E7E18
:101880007E7E7EFEFCFCF8F8F0E0800000FFFFFFAB
:10189000FFFFFF0300000000000000000000000048
:1018A0000000000003FFFFFFFFFFFF0000071F3FD6
:1018B0007FFFFFFFFCF8F8F8F8F8F8F8F8F8F8F808
:1018C000F8F8F8FC7FFFFFFFFFFFFF000000C0C03B
:1018D000C0C0C0C0C101010101010101010101013C
:1018E0000101000080FFFFFFFFFFFF000000010774
:1018F0000F1F1F3F3F7F7E7E7E7E7E7E7E7E7E7EB2
:101900007E7E7E7F3F3F1F1F0F070100000000000B
:1019100000000000000000000000000000000000C7
:1019200000000000000000000000000000000000B7
:101930000000000000C0E0E0F0F0F8F8F8F8F8F877
:10194000F8F8F8F8F0F0E0E0C00000000000000057
:1019500000000000FFFFFFFFFF0701000000008004
:10196000C0E0703907FFFFFFFFFF0000000000002C
:1019700000000000FFFFFFFFFF8070381C0E070310
:101980000100000080FFFFFFFFFF000000387C7CAB
:101990007C380000030F1F1F3F3F7E7C7C7C7C7CDB
:1019A0007C7C7C7E3F3F1F1F0F0300000000000077
:1019B0000000000000000000000000000000000027
:1019C0000000000000000000000000000000000017
:1019D0000000000000000000000000000080F8F897
:1019E000F8F8F8000000000000000000000000000F
:1019F00000000000000000E0F0F8FC7E3F1FFFFF49
:101A0000FFFFFF00000000000000000000000000D9
:101A10000000000000000003030100000000FFFFC1
:101A2000FFFFFF00000000000000000000387C7C89
:101A30007C38000000007C7C7C7C7C7C7C7C7F7F14
:101A40007F7F7F7C7C7C7C7C7C7C000000000000B5
:101A50000000000000000000000000000000000086
:101A60000000000000000000000000000000000076
:101A70000000000000C0E0E0F0F0F8F8F8F8F8F836
:101A8000F8F8F8F8F0F0E0E0C00000000000000016
:101A90000000000007070707070100000000000022
:101AA000000080C0E1FFFFFFFF3F000000000000DA
:101AB0000000000000000000000080C0E0F0F8FC22
:101AC000FE7F3F1F0F0703010000000000387C7CF1
:101AD0007C3800006070787C7E7F7F7F7F7F7F7D99
:101AE0007C7C7C7C7C7C7C7C7C7C0000000000001E
:101AF00000000000000000000000000000000000E6
:101B000000000000000000000000000000000000D5
:101B10000000000000C0E0E0F0F0F8F8F8F8F8F895
:101B2000F8F8F8F0F0E0E0C000000000000000006D
:101B300000000000070707070703010000C0C0C03E
:101B4000C0E0E1F3FFFF7F3F1F0000000000000046
:101B500000000000808080808000000000030303FC
:101B6000030307070FFFFFFEFCF8000000387C7C32
:101B70007C380000030F1F1F3F3F7E7C7C7C7C7CF9
:101B80007C7C7E3E3F1F1F0F07010000000000000D
:101B90000000000000000000000000000000000045
:101BA0000000000000000000000000000000000035
:101BB00000000000000000000000000000000080A5
:101BC000C0E0F0F8F8F878380000000000000000ED
:101BD0000000000000000080C0E0F0F8FCFE7F3F45
:101BE0001F0F07838180808000000000000000003C
:101BF00000000000FCFEFFFFFFFFF7F3F1F0F0F044
:101C0000F0F0F0FFFFFFFFFFF0F0000000387C7CF9
:101C10007C38000001010101010101010101010104
:101C20000101017F7F7F7F7F010100000000000034
:101C300000000000000000000000000000000000A4
:101C40000000000000000000000000000000000094
:101C500000000000F8F8F8F8F8F8F8F8F8F8F8F8E4
:101C6000F8F8F8F8F8F8F8F80000000000000000B4
:101C700000000000FFFFFFFFFFE0E0E0E0E0E0E049
:101C8000E0E0E0C0C0808000000000000000000034
:101C900000000000818383838303030303030303A2
:101CA000030307070FFFFFFFFEF8000000387C7CEE
:101CB0007C380000030F1F1F3F3E7C7C7C7C7C7CBB
:101CC0007C7C7C3E3F1F1F0F0701000000000000CE
:101CD0000000000000000000000000000000000004
:101CE00000000000000000000000000000000000F4
:101CF0000000000000C0E0E0F0F0F8F8F8F8F8F8B4
:101D0000F8F8F8F0F0E0E0C000000000000000008B
:101D100000000000FFFFFFFFFF83C1E0E0E0E0E024
:101D2000E0E0E0C1C3838303030000000000000083
:101D300000000000FFFFFFFFFF0F07030303030383
:101D4000030303070FFFFFFFFEF8000000387C7C51
:101D50007C380000030F1F1F3F3F7E7C7C7C7C7C17
:101D60007C7C7C3E3F1F1F0F07010000000000002D
:101D70000000000000000000000000000000000063
:101D80000000000000000000000000000000000053
:101D900000000000F8F8F8F8F8F8F8F8F8F8F8F8A3
:101DA000F8F8F8F8F8F8F8F8F8F800000000000083
:101DB0000000000000000000000000000000000023
:101DC00000C0F0FCFFFF7F1F0701000000000000C3
:101DD00000000000000000000000000000C0F0FC57
:101DE000FFFF7F1F070100000000000000387C7C1F
:101DF0007C380000000000000040707C7F7F7F1F67
:101E000007010000000000000000000000000000CA
:101E100000000000000000000000000000000000C2
:101E200000000000000000000000000000000000B2
:101E3000000000000080E0E0F0F0F8F8F8F8F8F8B2
:101E4000F8F8F8F0F0E0E0C000000000000000004A
:101E500000000000001F3F7FFFFFF3E1C0C0C0C0D3
:101E6000C0C0E1F3FFFF7F3F1F0000000000000043
:101E700000000000F8FCFEFFFF0F0703030303034D
:101E8000030303070FFFFFFEFCF8000000387C7C13
:101E90007C380000030F1F1F3F3F7E7C7C7C7C7CD6
:101EA0007C7C7C3E3F1F1F0F0701000000000000EC
:101EB0000000000000000000000000000000000022
:101EC0000000000000000000000000000000000012
:101ED000000000000080C0E0E0F0F0F8F8F8F8F84A
:101EE000F8F8F8F8F0F0E0E0C000000000000000B2
:101EF000000000007EFFFFFFFFC381000000000024
:101F000000000081C3FFFFFFFFFF00000000000092
:101F10000000000000010307070F0F1F1F1F1F1FF6
:101F20001F1F1F0F0F07FFFFFFFF000000387C7C03
:101F30007C380000030F1F1F3F3E7C7C7C7C7C7C38
:101F40007C7C7C7C3E3F1F1F0F030000009118012A
:101F5000002309F008950FEF009318010091A301E9
:101F60000F3F41F0003011F00E94991000E0009303
:101F70001801089500911B01003039F0013009F17A
:101F8000023089F10330E1F148C0009119010023CA
:101F900061F40091C30107FF55C00F770093C3019F
:101FA000609128017091290145C00091C50107FF8A
:101FB00049C00F770093C5016091260170912701F8
:101FC00039C009E20093A80108E20093A70103E3E6
:101FD0000093A6010BE20093A50132C06091260197
:101FE0007091270127C009E20093A8010CE3009338
:101FF000A7010EE30093A6010EE30093A50120C004
:1020000008E20093A80108E30093A70108E2009307
:10201000A60109E20093A50113C00BE30093A801F8
:102020000BE30093A7010BE30093A6010BE30093DE
:10203000A50106C0882799270E9462120E94CB1230
:102040000E94231093CFFF92FFB6FF921F930F932E
:10205000EF93FF930E94691700EC0E94BC100E944E
:10206000AE17E2E1F1E20091A8010E9462100E9425
:10207000BC100E94AE170091A7010E9462100E943E
:10208000BC100E94AE170091A6010E946210109130
:102090001B01103009F400680E94BC100E94AE17AA
:1020A0000091A5010E9462100E94BC100E94AE1710
:1020B0000E949317FF91EF910F911F91FF90FFBE28
:1020C000FF900895EF93FF93003220F0003410F456
:1020D000005201C000E0E00F00E0F01F0491FF910A
:1020E000EF9108950E9469170AE80E94BC100E94AF
:1020F000AE1719D7EED600E40E94BC102FD713D725
:1021000008953F065B4F666D7D077F6F00805CF929
:102110007100000000000000000077735F310000D4
:1021200000003F065B4F666D7D077F6F00805CF9A6
:1021300071000F9308E8003920F40E94A310039562
:10214000FACF0F910895CF93DF93C0EBD1E00F93B7
:1021500000581127C00FD11FC00FD11F0981007C6B
:10216000003C0F9131F40F930E9427160E94B31583
:102170000F91DF91CF9108951F932F9328E007953A
:10218000111F2A95E1F7012F2F911F9108950E94A9
:1021900069170091A3010E94AE1700E80E94AE17D4
:1021A0000FEA0E94AE170E94931708950F931F9392
:1021B0002F9310E0202F10939B0120939C010E94ED
:1021C00062110E9469170091A3010E94AE1700E4FA
:1021D0000E94AE171FE700E00E94AE171A95D9F7CC
:1021E0000E9493172F911F910F9108950F931F93A2
:1021F0002F9310E0202F10939B0120939C010E94AD
:1022000062110E9469170091A3010E94AE1700E4B9
:102210000E94AE1710E82F91022F0E94AE171A9558
:10222000D9F70E9493171F910F9108950E94691783
:102230000091A3010E94AE170F3F09F4000000E0D7
:102240000E94AE1718E1ECE5F2E205910E94AE178C
:102250001A951123D1F70E9493170895D580A83FAE
:10226000D300408D14A1C8DA1281FFD922DB30A43B
:10227000A60010B0AF000F931F932F930E94FE157E
:1022800028E014E82A951F9310E010939B012093F7
:102290009C010E9462111F910E9469170091A30185
:1022A0000E94AE1700E40E94AE1700E00E94AE1735
:1022B0001A95D9F70E949317222319F72F911F918E
:1022C0000F91089510919B0120919C0117FD1CC056
:1022D0000F930E9469170091A3010E94AE1700E0BE
:1022E0000E94AE17022F0770006B0E94AE17012FDD
:1022F0000F700E94AE17012F02950F7000610E94AF
:10230000AE170E9493170F9108950F930FB70F9375
:10231000EF93FF93009151010A3020F4039500934D
:1023200051011CC00027009351010E941611009119
:102330001B01003019F4E9EDF7E10EC0013019F48A
:10234000E7EEF7E109C0023019F4E4EFF7E104C069
:10235000033021F4E1E0F8E10E948515FF91EF914F
:102360000F910FBF0F910895FF92FFB6FF92FF925A
:102370000F921F92799C6001689C5001699CFF2418
:10238000B00CC11CDF1C789CFF24B00CC11CDF1CEE
:102390001F900F90FF90FF90FFBEFF900895FF9257
:1023A000FFB6FF92102F0F70107F1295005D0A3359
:1023B00008F0095F105D1A3308F0195FFF90FFBE47
:1023C000FF9008950024112422243324F0E2660CA7
:1023D000771C881C991C001C111C221C331C0A141D
:1023E0001B042C043D0428F063940A181B082C08D5
:1023F0003D08FA9561F708950F931F932F933F932C
:102400004F935F936F937F93CC24DD24EE2400E4FD
:10241000F02E88249924AA24BB24840195010C2938
:102420001D292E293F29B694A79497948794401785
:1024300051076207730740F08C289D28AE28BF28FB
:10244000401B510B620B730BF694E794D794C7941F
:10245000F694E794D794C7940C2D0D290E290F29D3
:10246000E1F67F916F915F914F913F912F911F9175
:102470000F910895FF92FFB6FF920F931F933F9322
:102480004F9330E1CC24BB24AA24FF27000F111F57
:10249000AA1CBB1CCC1C3A9549F400004F913F91FB
:1024A0001F910F91FF90FFBEFF900895EDE04291C4
:1024B0004D5F43FD40834081405D47FD4083EA30EE
:1024C000B1F7E4CF4F935F936F937F938F939F9375
:1024D000FF93EF9397FD0E942E1340E2EE24DD243C
:1024E000CC24BB24AA24FF27660F771F881F991FBF
:1024F000AA1CBB1CCC1CDD1CEE1C4A9561F0EFE055
:1025000052915D5F53FD50835081505D57FD508364
:10251000EA30B1F7E9CF5A2D5F7050635093A501AF
:102520005A2D52955F7050635093A6015B2D5F70DA
:1025300050635093A7015B2D52955F705063509389
:10254000A8015C2D5F7050635093A9015C2D5295DA
:102550005F7050635093AA015D2D5F70506350937C
:10256000AB015D2D52955F7050635093AC015E2DB1
:102570005F7050635093AD015E2D52955F70506354
:102580005093AE01EF91FF919F918F917F916F9149
:102590005F914F9108950F931F932F93222710E37C
:1025A0000091AE01011719F400E2239501C010E279
:1025B0000093AE010091AD01011719F400E22395DB
:1025C00001C010E20093AD010091AC01011719F4B4
:1025D000239500E201C010E20093AC010091AB0131
:1025E000011719F4239500E201C010E20093AB013A
:1025F0000091AA01011719F4239500E201C010E22D
:102600000093AA010091A901011719F4239500E292
:1026100001C010E20093A9010091A801011719F46B
:10262000239500E201C010E20093A8010091A701E8
:10263000011719F4239500E201C010E20093A701ED
:102640000091A6010093A6010091A5010093A501A8
:102650002093AF012F911F910F9108956095709570
:10266000809590956F5F7F4F8F4F9F4F0895FF929A
:10267000FFB6FF92EF93FF936F927F928F929F929C
:10268000AF92BF92CF92DF925E9B05C0AA24BB247B
:10269000CC24DD2407C0609078007090790043015D
:1026A0000E94B41160901C0170901D0180901E0169
:1026B00090901F016A0C7B1C8C1C9D1C60921C015D
:1026C00070921D0180921E0190921F01E0912001E5
:1026D000F09121013196E0932001F0932101DF90E8
:1026E000CF90BF90AF909F908F907F906F90FF9111
:1026F000EF91FF90FFBEFF901895FF92FFB6FF92FB
:102700000F931F932F933F9300E000931D005E9A59
:10271000009181000F93087F009381002091840035
:10272000309185000027009385000093840010916C
:102730000E0100910D011093890000938800109103
:10274000100100910F0110938B0000938A0001E0AB
:1027500003BD0F91009381004F93FF93EF93DF939D
:10276000CF930F921F922F923F924F925F926F9250
:102770007F928F929F92AF92BF92CF92DF92EF9211
:10278000FF920091690003700230B1F0033029F02C
:102790000BE0009369000C94CE140DEE00937A00C8
:1027A000009169000C7F0260009369002093110181
:1027B000309312010C94CE140DE600937A00009130
:1027C00069000C7F0360009369002093130130932C
:1027D000140160901C0170901D0180901E0190906A
:1027E0001F01A0902001B0902101660C771C881C6D
:1027F000991C660C771C881C991CCC24DD240E9433
:10280000E211660C771C881C991C660C771C881CCE
:10281000991CA301B401609222017092230180925D
:102820002401909225010E94FC1180922A0190922D
:102830002B01002700931C0100931D0100931E0132
:1028400000931F010093200100932101F1E0EAE4CD
:10285000EF010027802E202E302E7A906A900FE014
:10286000002359F00A951A900A90600C711C821C82
:10287000931C129202920C943014E0E1F0E05F019C
:10288000CC24DD240E94E21160922601709227017F
:1028900000911B01003009F427C0013009F407C082
:1028A000023009F418C0033009F415C077C02D9820
:1028B0005F9A00E000931A01E0910D01F0910E0182
:1028C000C4EFD1E0EC1BFD0B09F018F4EE27FF2755
:1028D00031964F0139C02D9A5F9A00E000931A019A
:1028E00000E516E4480130C02D9A60902A017090EE
:1028F0002B0180902801909029016818790888940C
:1029000077FC08947794679480900D0190900E0165
:10291000860C971C97FE0BC001E010E04801109157
:1029200019010FEF0093190101130EC00DC000E54E
:1029300016E48016910608F0480100911901002361
:1029400019F000270093190180920D0190920E0159
:10295000E0912601F0912701339600912801109112
:102960002901E01BF10B07E010E0E017F1070091EF
:102970001A010F7040F05F9A0F3009F00CC000E8A8
:1029800000931A0108C05F98003009F004C00FE8F6
:1029900000931A0100C008E80E941316FF90EF9000
:1029A000DF90CF90BF90AF909F908F907F906F906F
:1029B0005F904F903F902F901F900F90CF91DF919D
:1029C000EF91FF914F913F912F911F910F91FF90A8
:1029D000FFBEFF901895FF92FFB6FF920F931F93D3
:1029E0002F933F934F930F921F92FF93EF93009378
:1029F0009A01F198F0980F930091A10110E0EEE593
:102A0000FCE0E00FF11FE00FF11F05911591000FA1
:102A1000111F00939F011093A001F8010F911591D0
:102A2000259135914591003249F0003031F0011780
:102A300018F0021721F018F05BC0F09AF19A0038F4
:102A400010F0003CC8F30F93011B349F009DE00D74
:102A5000F11D00919B0100939D0100919C01009349
:102A60009E010F910E3241F400243695301D3695AB
:102A7000301D301D20919A014F930E9469170091DB
:102A8000A3010E94AE1700E40E94AE173F9300918D
:102A90009B01003868F4039500939B0100E0F19BD3
:102AA00005910E94AE173A95F0993A9581F702C0C8
:102AB0000591F9CF3F910E9493174A9579F00091C3
:102AC0009D0100939B0100919E0103950770009367
:102AD0009C0100939E010E946211CFCF4F91009103
:102AE0009C01041B0395077000939C010E946211D6
:102AF000EF91FF911F900F904F913F912F911F9158
:102B00000F91FF90FFBEFF900895FF92FFB6FF92D6
:102B10000F931F93AF93BF93CF93DF93EE0FFF1FDE
:102B200000270093A2010091A201003808F011C013
:102B30000395009398150591003809F40AC00038F0
:102B400028F0003C18F40E94B315EDCF0E94EB145E
:102B5000EACFDF91CF91BF91AF911F910F91FF907D
:102B6000FFBEFF900895DF01E2E2FEE2C0EBD1E09C
:102B70000F93005810E0E00FF11FE00FF11FC00F9E
:102B8000D11FC00FD11F05911491F80100919B0135
:102B9000088310919C0117700091A10102950073A8
:102BA000102B10641F7719830F910995FD0108956B
:102BB000CF93DF930F931F9300581127C0EBD1E001
:102BC000C00FD11FC00FD11F09810F7B09831F9137
:102BD0000F91DF91CF910895CF93DF930F9300581A
:102BE0001127C0EBD1E0C00FD11FC00FD11F098149
:102BF000006409830F91DF91CF910895CF93DF9304
:102C00000F931F93C0EBD1E000E4002339F00A9545
:102C100019811F7B1F7719832296F7CF1F910F9180
:102C2000DF91CF910895CF93DF930F931F93C0EB64
:102C3000D1E000581127C00FD11FC00FD11F19813B
:102C4000106819831F910F91DF91CF9108950F9311
:102C50001F93CF93DF93C0EBD1E000581127C00F33
:102C6000D11FC00FD11F0881198100939B011093C0
:102C70009C011F7710641983129513701093A101A2
:102C80000E946211DF91CF911F910F9108950895D5
:102C9000FD01059103700093A101DF010895FD017D
:102CA0002F933F9315912591359105910F93209383
:102CB0009B0110939C010E9462110E946917009170
:102CC000A3010E94AE1700E40E94AE170F912317D4
:102CD00039F030F40F930E94AE170F912395F7CF80
:102CE0000E9493173F912F91DF010895FD010591F7
:102CF000003808F00FE700939B01059107700093DF
:102D00009C01DF010E9462110895FD0100919B0169
:102D10001591010F003808F00FE700939B01009117
:102D20009C011591010F077000939C01DF010E9427
:102D300062110895CF93DF930F931F93FD010591C7
:102D4000DF01003CC0F40A38B0F000581127C0EB96
:102D5000D1E0C00FD11FC00FD11F00919B0108838C
:102D600010919C0117700091A10102950073102B26
:102D70001F7B1F7719831F910F91DF91CF910895CA
:102D800000911B01003091F400911A010F70003086
:102D900039F00CE20E94EB140DE20E94EB1406C025
:102DA0000AE20E94EB140BE20E94EB140895C8E2C1
:102DB000D1E003C0C6E2D1E000C0FF92FFB6FF92AF
:102DC000F89468817981FF90FFBEFF9085EC99E0CF
:102DD0006817790708F024C0882799270E94621293
:102DE0000E94CB120091A8010E94EB140091A70150
:102DF0000E94EB140091A6010E94EB140091A10126
:102E0000013031F40091A501065F0E94EB1408C067
:102E10000EE20E94EB140091A5010E94EB1400C089
:102E20000895471648164F16761685169A164716B1
:102E30004716C016D716DA1647164716471647160E
:102E4000471647164716471647164716471647169A
:102E5000471647164716471647164716471647168A
:102E6000471647164716471647164716471647167A
:102E7000471647164716471647164716471647166A
:102E8000471647164716471647164716471647165A
:102E9000471647164716471647164716471647164A
:102EA00047162098289A23B120FFFDCF089528982F
:102EB000209A08952198299A08952998219A089589
:102EC0002F930E945A170E9451170E9493172F9117
:102ED00008952F930E945D1724E02150F0F7000021
:102EE0000E94571724E02150F0F700002F91089519
:102EF0002F930E945A1724E02150F0F700000E94FF
:102F0000511724E02150F0F700000E945D1724E0E3
:102F10002150F0F700000E94571724E02150F0F7ED
:102F200000002F9108952F930E94571724E02150FD
:102F3000F0F700000E945D1724E02150F0F7000038
:102F40000E94511724E02150F0F700000E945A1708
:102F500024E02150F0F700002F9108951F932F9344
:102F600018E0001F18F40E945A1702C00E945D1753
:102F700024E02150F0F700000E94511724E0215076
:102F8000F0F700000E9457171A9559F70E945A1738
:102F900024E02150F0F700000E94511724E0215056
:102FA000F0F7000013B111FB0E9457172F911F91EA
:102FB00008958102830000E2FBF5EEE42020810009
:102FC000836800888101830003858A8980008102EB
:102FD000830000F0E0E7E3EEED20810083510089FB
:102FE00081018300038A80008102830000F1F2EEF8
:102FF000EF20202081008351008981018300038A12
:103000008000810283000120E2FBEAEBFEF7E5EDA0
:10301000EE2083000320E0E2E0F0E8E9EDFBEC20A5
:1030200083050520F1E8E3EDE0EBEEEC2080FF9274
:10303000FFB6FF920F931F932F930091020101306F
:1030400009F407C0023009F414C0033009F426C0A3
:103050004AC000910301033010F009F044C0109100
:103060001B01133009F43FC000931B010E94CC02E6
:103070003AC0009103011091040117FD34C024EC03
:10308000021729E0120711F008F02DC00093280163
:103090001093290109E80E94131625C0009103012D
:1030A0001091040117FD0FC024EC021729E012074C
:1030B00011F008F008C0009328011093290109E8D5
:1030C0000E94131610C000910501033010F009F0A2
:1030D0000AC010911B01133009F405C000931B01B5
:1030E0000E94CC0200C02F911F910F91FF90FFBE54
:1030F000FF900895FF92FFB6FF920F931F93EF93F7
:10310000FF93E4E3F1E30091B900087F069506958B
:1031100006951127E00FF11FE00FF11F05911491A3
:10312000F8010995FF91EF911F910F91FF90FFBE5C
:10313000FF901895BA18311931193119311931190F
:10314000311931193119311931193119BE183119A3
:1031500031193119CB18E21831193119F818011940
:10316000311916192D192D19311931193119311932
:103170003119311905ED0093BC00089500E000936A
:10318000020100910300013011F405E801C005ECD3
:103190000093BC000895002710910201E3E0F1E0E4
:1031A000E10FF01F0091BB00008313951093020103
:1031B00003E00A95101711F405E801C005EC00932F
:1031C000BC000895002710910201E3E0F1E0E10F57
:1031D000F01F0091BB00008313951093020105ECD2
:1031E0000093BC00009156010260009356010895BF
:1031F00005EC0093BC00009156010260009356015B
:10320000089510E010930201E6E0F1E00027E10FDD
:10321000F01F00810093BB0000910500013011F404
:1032200005E801C005EC0093BC000895002710914B
:103230000201139510930201E6E0F1E0E10FF01FA7
:1032400000810093BB0005E00A95101711F405E812
:1032500001C005EC0093BC00089505EC0093BC0090
:043260000895089530
:00000001FF
