:020000020000FC
:0A0000000C9433000C945510189571
:02000C00189545
:02001000189541
:0200140018953D
:02001800189539
:02001C00189535
:02002000189531
:0200240018952D
:02002800189529
:10002C000C943E100C9440100C9442100C949101C2
:02003C00189515
:02004000189511
:0200440018950D
:100048000C9454030C9408040C9407040C94FC0FAF
:020058001895F9
:02005C001895F5
:100060000C944C15189505B70160102F0D7F15BF26
:1000700005BFE0E0F1E000270193F930E9F7E03057
:10008000D9F70293EEE1FF27EA95F083E9F7EFEF66
:10009000F8E0EDBFFEBF00E007B90FE308B900ECE0
:1000A0000AB908EF0BB90BE204B90CEF05B903E08C
:1000B00000936C0000E0009368000CE00093B8002F
:1000C00002E30093BA000FEF0093BB0004E000933B
:1000D000BC0007E60093C40000E00093C50008EDF3
:1000E0000093C10006E00093C20002E00093B0005C
:1000F00003E00093B1000CE70093B30000E000932D
:100100007000BAE4A8E3A0931201B0931301B09376
:100110008900A0938800BAE4A8E3A0931401B093E7
:100120001501B0938B00A0938A0000E0009380003B
:1001300007E000936F0002E00093810009EF07BD24
:1001400008BD02E004BD03E000936E0003E005BDBE
:100150000AE00093690001E00DBB00E000937B0022
:1001600007E000937C00EF93FF93F3ECE0E5319719
:10017000319631973196319731963197C1F7FF918A
:10018000EF910E9450140AE70E9495140E947A147D
:10019000002321F40AE70093AA0111C00E94501421
:1001A00008E70E9495140E947A14002321F408E7BE
:1001B0000093AA0104C000E00093AA0106C00E94B7
:1001C0007B0E0E94A10E0E946C0E09B105FD0C94DD
:1001D000ED00B4E0A0EB0C94EF00AA27BB27A0939E
:1001E0003001B093310109E80E940713B0E0A5E0A7
:1001F000A0931F01B09320010091AA010F3F21F0AD
:10020000009124010E941002002704BF00932F01D7
:100210000093340105EC0093BC0078940C94190110
:10022000C8EED3E0E0E4FFE13197F1F72197D1F791
:10023000089500915E0100FF07C00E7F00935E01EC
:100240000E949F030E94510401FF05C00D7F00938F
:100250005E010E94331602FF03C00B7F00935E0114
:1002600003FF05C0077F00935E010E94160304FF91
:1002700005C00F7E00935E010E94370305FF05C095
:100280000F7D00935E010E94A70406FF05C00F7B4F
:1002900000935E010E94E10407FF03C00F77009303
:1002A0005E0100915F0100FF09C00E7F00935F01B6
:1002B0000F930E9451040E94E6010F9101FF0BC0B1
:1002C0000D7F00935F010F930E94500E0E94660500
:1002D0000E948C160F9102FF07C00B7F00935F01F5
:1002E0000F930E94BC020F9103FF09C0077F009388
:1002F0005F010F930E9475020E9444100F9104FF4A
:1003000005C00F7E00935F010F930F9105FF07C09B
:100310000F7D00935F010F930E945F0E0F910C946D
:1003200019010F920FB60F923F932F931F930F93C4
:1003300010915F0100915801093028F40395009352
:100340005801186039C000270093580100915901E5
:10035000093028F403950093590114602DC000273B
:100360000093590100915C010395053018F4009346
:100370005C0104C0002700935C01106100915D01E5
:100380000395023018F400935D0104C00027009328
:100390005D01106200915A01093028F40395009321
:1003A0005A01126009C0002700935A0100915B01B5
:1003B000039500935B01116010935F010F911F91F2
:1003C0002F913F910F900FBE0F9018950F931F9391
:1003D000EF93FF93009157010395009357010F305E
:1003E00008F419C000270093570100932F010093D0
:1003F000340100912401043008F00DC0E2E9F9E273
:100400001127000F111FE00FF11F05911491F80142
:100410000E94581200C0FF91EF911F910F91089513
:10042000EF93FF930F93002700932201009357014E
:1004300000932F01009334010F91003009F40AC09A
:10044000013009F419C0023009F428C0033009F45E
:1004500037C048C0009324012D9A0091AA010023BF
:1004600051F00F3F41F00E947B0E0E94A10EEDEC77
:10047000F4E10E94581236C0009324012D98009197
:10048000AA01002351F00F3F41F00E947B0E0E9411
:10049000A10EEEEDF4E10E94581224C00093240155
:1004A0002D9A0091AA01002351F00F3F41F00E94C4
:1004B0007B0E0E94A10EEFEEF4E10E94581212C0D2
:1004C000009324012D9A0091AA01002351F00F3FBF
:1004D00041F00E947B0E0E94A10EE0E0F5E10E9437
:1004E000581200C0FF91EF9108950F931F932F931F
:1004F00000910201003051F00A950093020102E3DD
:1005000010E000931F011093200106C005E010E0E9
:1005100000931F011093200100915E0105FD28C08A
:1005200006FD26C0002719B114FF016013FF026009
:10053000109100010117E1F0209101011330A1F4A5
:10054000021791F0023039F400915E010F7D0064D2
:1005500000935E0106C000915E0100620F7B009374
:100560005E0124E120930201109301010093000138
:100570002F911F910F9108950F931F9309B11FEFB2
:10058000012700721091030100930301102715FF4A
:1005900004C011E01093040146C01091040117FF3C
:1005A00004C01127109304013EC0103059F11A9570
:1005B00010930401C1F505FD21C000C01091060192
:1005C000139510930601123030F410910501153087
:1005D00050F1143640F500915E01086000935E0111
:1005E00000910601009307010027009306011BC03C
:1005F0001091060113951093060115C01127109351
:10060000050111C005FF0FC010910501143629F432
:1006100000915E01006100935E011F3F21F0139580
:100620001093050100C01F910F9108950F920FB60E
:100630000F920F93009124010370003021F402E027
:100640000E9410020FC0013021F400E00E9410024D
:1006500009C0023021F400E00E94100203C0033000
:1006600009F400C00F910F900FBE0F9008950F92E4
:100670000FB60F920F93009124010370003021F404
:1006800001E00E9410020BC0023019F401E00E9448
:100690001002033021F400E00E94100200C00F910C
:1006A0000F900FBE0F9008950F920FB60F920F93F9
:1006B0001F93EF93FF9300915E0100FD38C0E0E6C9
:1006C000F1E00091C6001091A001013608F000523F
:1006D0000B3508F026C0073408F00DC0013408F0CF
:1006E00014C00A3308F01DC0003308F00EC00D30EE
:1006F00009F418C016C0033519F00D3409F011C003
:10070000008310E01093A00112C013951F3010F069
:1007100009F00DC01093A001E10F1127F11F008314
:1007200006C005C000915E01016000935E01FF916B
:10073000EF911F910F910F900FBE0F9018950F9290
:100740000FB60F92F8940F931F932F93EF93FF938D
:10075000E0E6F1E01091A0010191033509F404C035
:100760000D3409F42EC042C0133039F0123020E0AD
:1007700049F0113010E061F039C001910E948F04FE
:10078000F8F0202F01910E948F04D0F00295102FD5
:1007900001910E948F04A0F0102B04EC101709E0C7
:1007A000200770F400913001011700913101020718
:1007B00039F0209331011093300109E80E940713AA
:1007C00015C0113009F012C001910E948F0468F029
:1007D000033008F00BC0109124010093240101178D
:1007E00029F0009324010E94100200C0002700930A
:1007F000A00100915E010E7F00935E01FF91EF91D9
:100800002F911F910F910F900FBE0F900895189583
:100810000F920FB60F920F931F93EF93FF93E0E8A1
:10082000F1E00091A10110E0E00FF11F039500320B
:1008300078F40093A1010191003051F00093C600BB
:10084000FF91EF911F910F910F900FBE0F90189590
:1008500008ED0093C100F4CF0981188107FF05C09E
:1008600000E30D930D930D931BC0012F14EC0117A2
:10087000098119E0010758F051F009E00E94FE0ECD
:100880000D9304EC0E94FE0E1D930D9309C0098187
:100890000E94FE0E0D9308810E94FE0E1D930D9383
:1008A00008950F931F93AF93BF93CF93DF93EF936D
:1008B000FF93A0E8B1E004E50D93CBE2D1E009811C
:1008C0000E94FE0E0D9308810E94FE0E1D930D9353
:1008D000C0E3D1E009810E94FE0E0D9308810E94C1
:1008E000FE0E1D930D93C4E2D1E0088103700E94B7
:1008F000FE0E0D930DE00D930AE00D9300E00D93B5
:100900000D930093A10108EF0093C100FF91EF91B7
:10091000DF91CF91BF91AF911F910F910895003357
:1009200098F00A3318F4005388940FC0013460F033
:10093000073418F40753889408C0013628F00736A6
:1009400018F40755889401C008940F7008950F9209
:100950000FB60F920F931F932F933F930091240193
:10096000033009F426C0009122010F3F09F421C091
:1009700000913001109131010E94530520911F0117
:1009800030912001020F131F20E931E002171307F5
:1009900010F4890107C024EC39E00217130710F0A6
:1009A00009F08901009330011093310109E80E9498
:1009B00007133F912F911F910F910F900FBE0F9032
:1009C00008950F920FB60F926F927F928F929F921F
:1009D000AF92BF92CF92DF920F931F932F933F93CB
:1009E00000912401033009F44EC0E0912201EF3F51
:1009F00071F500912401003051F580901F01909015
:100A00002001880C991C880C991C880C991C880C56
:100A1000991C609035017090360168187908882417
:100A20009924A0901F01B0902001CC24DD240E94C5
:100A3000110F80901F01909020010E94EB0E850104
:100A400028E833E1209312013093130104C0009190
:100A50003001109131010E94530520911F01309106
:100A60002001021B130B20E931E00217130717FDC9
:100A700001C010F4002711270093300110933101B9
:100A800009E80E9407133F912F911F910F91DF906A
:100A9000CF90BF90AF909F908F907F906F900F906E
:100AA0000FBE0F900895380188249924A0901F014B
:100AB000B0902001CC24DD240E94110F80901F01F2
:100AC000909020010E94EB0E850108950F920FB6C1
:100AD0000F920F931F932F9306B11FEF01271091D1
:100AE000180100931801102720912401233021F0D0
:100AF0000E9483050E94A3052F911F910F910F90D3
:100B00000FBE0F9008950F931F9300FF12C0109116
:100B1000190117FF01C00DC0103091F01A95109304
:100B2000190171F41A951093190103E00E94100243
:100B300007C010912401133019F014E1109319012A
:100B40001F910F9108950F931F9311FD1EC01091D7
:100B50001A0117FF04C0112710931A0119C0103091
:100B6000B9F01A9510931A0199F41091240101FD1E
:100B700006C0113069F400E00E94100209C0113073
:100B800039F001E00E94100203C014E010931A0132
:100B90001F910F910895AC060E08CE052A390B025D
:100BA00000008080000080800000800000010100C3
:100BB00000010100000180000080800000808000B2
:100BC000000100000101000001010000000000C060
:100BD0007098ECF4F67A3A000000030E19372F6F84
:100BE0005E5C3A7AF6F4EC9870C00000005C5E6FD0
:100BF0002F37190E030000000000000060600000A5
:100C000000000000000000000000000000000000E4
:100C100000000000000000000000000000000000D4
:100C20000000000000F0FC1C0E06060E1CFCF0008C
:100C30000F3F3870606070383F0F006070381CFEE6
:100C4000FE0000000000606060607F7F60606060A8
:100C500000181C0E06060686CEFC78006070787CB4
:100C60006E676361606000060606C6C6E6F6DE8E45
:100C7000060018387060606060713F1F00000080DF
:100C8000C0E070381C8E86000E0F0F0D0C0C0C0C83
:100C90007F7F00FEFEC6C6C6C6C6C68606001838DA
:100CA0007060606060713F1F00F8FC8EC6C6C6C6EB
:100CB000CE8C08001F3F7160606060713F1F0006AE
:100CC0000606060686E6FE7E1E00000060787E1F91
:100CD00007010000000078FCCE8686CEFC7800007C
:100CE0001E3F7361616161733F1E00F8FC8E060652
:100CF00006068EFCF80010317363636363713F1F57
:100D000000000000000000000000000000000000E3
:100D100000000000000000000000000000000000D3
:100D200000000000000000000000000000000000C3
:100D300000000000000000000000000000000000B3
:100D400000000000000000000000000000000000A3
:100D50000000000000000000E0FF0B020030B89827
:100D60009898989898F8F0000F1F19191919190DEB
:100D70001F1F00F8F8D8D8D8D8D8D89800001F1F5F
:100D800018181818181D0F0700F8F898989898D890
:100D9000F8B000001F1F19191919191D0F0700209D
:100DA00030B89898989898F06000060F191919199A
:100DB00019190C0C0000F0F818181818F8F00000B9
:100DC000383F1F181818181F3F3800E0F0989898FF
:100DD000989898F0E000070F1919191919191900B6
:100DE000003878C080F8F880C07838001E1F0301F2
:100DF0001F1F01031F1E002030381898989898F084
:100E00006000040C1C18191919190F0600F8F800D5
:100E1000000080C0E0F8F8001F1F1C0E070301004F
:100E20001F1F00F8F800001898C0E0F8F8001F1F16
:100E30001C0E070301001F1F00F8F88080C0E0703F
:100E4000381800001F1F01010103070E1C180000C5
:100E500080E078181878E08000001C1F0300000074
:100E600000031F1C00F8F870C08080C070F8F80004
:100E70001F1F0000030300001F1F00F8F880808080
:100E8000808080F8F8001F1F0101010101011F1F70
:100E900000E0F0381818181838F0E000070F1C1898
:100EA0001818181C0F0700F8F8181818181818F850
:100EB000F8001F1F0000000000001F1F00F8F818B6
:100EC00018181818B8F0E0001F1F030303030303EA
:100ED000010000E0F0381818181838706000070F8B
:100EE0001C181818181C0E060018181818F8F818EE
:100EF00018181800000000001F1F0000000000F874
:100F0000F8808080808080F8F8000019191919197C
:100F1000191D0F0700E0F03030F8F83030F0E00035
:100F2000070F0C0C1F1F0C0C0F070018387060C047
:100F3000C0E070381800181C0E070303060E1C18BA
:100F400000F8F80000000000F8F800001F1F181853
:100F50001818585F7F7000F8F8800000000000F853
:100F6000F80000010303030303031F1F00F8F80048
:100F700000E0E00000F8F8001F1F18181F1F1818E5
:100F80001F1F00F8F80000E0E00000F8F8001F1F45
:100F900018181F1F58587F7F001818F8F8C0C0C0D5
:100FA000C0C0800000001F1F181818181F0F00F87D
:100FB000F8C0C0C0C08000F8F8001F1F1818181F24
:100FC0000F001F1F00F8F8C0C0C0C0C0C0800000E4
:100FD0001F1F18181818181D0F07002030381898F0
:100FE0009898B8F0E000040C1C181919191D0F0787
:100FF00000F8F880F0F8181818F8F0001F1F010F1B
:101000001F1818181F0F00F0F8989898989898F8DB
:10101000F80010191D0F070301011F1F30432005A1
:101020000000000080C0E0F0F8F87C3C1C1E0E0EB2
:101030000E1E1C3C7CF8F8F0E0C0800000000000B0
:101040000000F0FEFFFFFF3F07010000000000006E
:10105000000000000001073FFFFFFFFEF00000005E
:101060000000FFFFFFFFFF00000000000000000085
:101070000000000000000000FFFFFFFFFF00000075
:101080000000073FFFFFFFFEF0C00000000000006F
:10109000000000000080F0FEFFFFFF3F070000009F
:1010A00000000000000103070F0F1F1E1C3C383812
:1010B000383C1C1E1F0F0F0703010000000000003A
:1010C000000000000000000000000080C0E0FEFE04
:1010D000FEFEFE0000000000000000000000000016
:1010E000000000000000F0F8FC7E3F1F0F07FFFF2C
:1010F000FFFFFF00000000000000000000000000F3
:101100000000000000000101000000000000FFFFDF
:10111000FFFFFF00000000000000000000000000D2
:101120000000000000000000000000000000FFFFC1
:10113000FFFFFF00000000000000000000000000B2
:10114000000000003C3C3C3C3C3C3C3C3C3C3F3FC9
:101150003F3F3F3C3C3C3C3C3C3C3C3C00000000B6
:1011600000000000C0E0F0F8F8FC3C1C0E0E0E0E73
:101170000E0E0E1C3CFCF8F8F0E0C0000000000071
:1011800000000C0F0F0F0F0F030000000000000005
:10119000000000000000C3FFFFFFFFFF3C00000055
:1011A00000000000000000000000000000000080BF
:1011B000C0E0F0F8FC7F3F1F0F07030000000000B5
:1011C0000000000000000080C0E0F0F8FC7E3F1F3F
:1011D0000F070301000000000000000000000000F5
:1011E000000030383C3E3F3F3F3F3F3D3C3C3C3CB5
:1011F0003C3C3C3C3C3C3C3C3C3C3C3C3C000000E3
:101200000000000000C0E0F0F8F83C1C1E0E0E0EBE
:101210000E0E1E1C3CF8F8F0E0C0000000000000BC
:10122000000000000707070707000000000000009B
:1012300000008080C0F0FFFF7F3F0F000000000033
:101240000000000000000000000000000E0E0E0F65
:101250001F1F1F3F3F7FFDF8F8F0E08000000000F7
:1012600000001878F8F8F8F8E080000000000000AE
:10127000000000000080E1FFFFFFFF7F1E00000074
:10128000000000000103070F0F1F1F1E3C3C3838F1
:10129000383C3C1E1F1F0F0F070301000000000019
:1012A00000000000000000000000000000000080BE
:1012B000C0F0F8FEFE7E3E0E0600000000000000BA
:1012C0000000000000000000000080E0F0FCFEFFD5
:1012D0007F1F0F030100000000000000000000005D
:1012E0000000000000C0E0F8FCFFFF3F1F07030004
:1012F00000000000FEFEFEFEFE00000000000000F8
:101300000000787E7F7F7F7F7F7978787878787823
:1013100078787878FFFFFFFFFF7878787800000012
:1013200000000000000000000000000000000000BD
:10133000000000003F3F3F3F3F0000000000000072
:10134000000000FEFEFEFEFE1E1E1E1E1E1E1E1EB7
:101350001E1E1E1E1E1E1E1E1E1E1E1E1E00000007
:10136000000000FFFFFFFFFFE0E0E0E0E060606002
:1013700060E0E0C0C0C0808000000000000000000D
:101380000000000303030303030101000000000049
:1013900000000001030F3FFFFFFEFCF0C000000053
:1013A00000001878F8F8F8F8E0800000000000006D
:1013B000000000000080E0FFFFFFFF7F1F00000033
:1013C000000000000103070F0F1F1E1C38383838BB
:1013D0003838381C1E1F0F0F0703010000000000E3
:1013E00000000000C0E0F0F8F8FC3C1C0E0E0E0EF1
:1013F0000E0E0E1C3CFCF8F8F0E0C00000000000EF
:101400000000F8FFFFFFFF0F83C0C0C0E0E0606096
:1014100060E0E0C0C0C0808000000000000000006C
:101420000000FFFFFFFFFFFF3F0F03010000000070
:1014300000000001030F3FFFFFFEFCF0C0000000B2
:1014400000000F7FFFFFFFFFE080000000000000B2
:10145000000000000080E0FFFFFFFF7F1F00000092
:10146000000000000103070F0F1F1E1C383830302A
:101470003038381C1E1F0F0F07030100000000004A
:1014800000001E1E1E1E1E1E1E1E1E1E1E1E1E1EB8
:101490001E1E1E1E1E1E1EDEFEFEFEFE3E00000066
:1014A000000000000000000000000000000000003C
:1014B000000000C0F0FCFFFF3F0F03000000000031
:1014C000000000000000000000000000000000C05C
:1014D000F0FCFFFF3F0F03000000000000000000D1
:1014E0000000000000000000000000C0F0FCFFFF52
:1014F0003F0F03000000000000000000000000009B
:101500000000000000000000303C3F3F3F0F0300A0
:1015100000000000000000000000000000000000CB
:101520000000000000C0E0F0F8F83C1C1E0E0E0E9B
:101530000E0E1E1C3CF8F8F0E0C000000000000099
:10154000000000000F3F7FFFFFF0C0808000000020
:1015500000008080C0F0FFFF7F3F0F000000000010
:1015600000000080E0F0F8F8FD7F1F1F0F0F070755
:10157000070F0F1F1F7FFDF8F8F0E080000000004C
:1015800000001E7FFFFFFFFFE18000000000000061
:10159000000000000080E1FFFFFFFF7F1E00000051
:1015A000000000000103070F0F1F1E1C38383838D9
:1015B0003838381C1E1F0F0F070301000000000001
:1015C00000000000C0E0F0F8F8FC3C1C0E0E06061F
:1015D000060E0E1C3CFCF8F8F0E0C0000000000015
:1015E0000000FCFFFFFFFFFF030000000000000001
:1015F00000000000000003FFFFFFFFFFF8000000F5
:10160000000000030F1F3F7F7FFCF0E0C0C0808020
:1016100080C0C0E0F0FC7F3FFFFFFFFFFF00000045
:1016200000000000808080808080000001010101B6
:10163000010101000080E0F8FFFFFF7F0F000000C4
:10164000000000000103070F0F1F1E1C3838383838
:101650003838381C1E1F0F0F070301000000000060
:10166000000000000000000000000000000000007A
:10167000000000000000000000000000000000006A
:1016800000000000000000000000000000C0E0F0CA
:10169000F8783C1C1C1C3C78F8F0E0C0000000000E
:1016A0000000000000000000000000F8FFFFFF0F36
:1016B0000100000000000000010FFFFFFFF8000024
:1016C00000000000000000000000001FFFFFFFF00E
:1016D000800000000000000080F0FFFFFF1F0000FE
:1016E00000001C3E3E3E1C00000000000003070FEF
:1016F0001F1E3C3838383C1E1F0F07030000000037
:1017000000000000000000000000000000000000D9
:1017100000000000000000000000000000000000C9
:1017200000000000000000000000000000000000B9
:101730000080C0FCFCFCFC00000000000000000079
:1017400000000000000000000000000000F8FC7E27
:101750003F1F0FFFFFFFFF00000000000000000020
:101760000000000000000000000000000000000079
:10177000000000FFFFFFFF0000000000000000006D
:1017800000001C3E3E3E1C0000000000003C3C3CB3
:101790003C3C3C3F3F3F3F3C3C3C3C3C000000006D
:1017A0000000000000000000000000000000000039
:1017B0000000000000000000000000000000000029
:1017C000000000000000000000000000C0E0F0F099
:1017D00078383C1C1C1C3C3878F0F0E0C00000005D
:1017E00000000000000000000000000303030300ED
:1017F0000000000000000080C0E0F1FF7F3F00001B
:101800000000000000000000000000000000008058
:10181000C0E0F0F87C3E1F0F07030100000000004D
:1018200000001C3E3E3E1C00000000383C3E3F3F96
:101830003F3B3938383838383838383838000000C5
:101840000000000000000000000000000000000098
:101850000000000000000000000000000000000088
:1018600000000000000000000000000080E0F0F830
:10187000783C3C1C1C1C3C3C78F8F0E0C0000000AC
:101880000000000000000000000000000101010154
:10189000000000E0E0E0F0F0F8FFDF8F070000005C
:1018A0000000000000000000000000C0C0C0C080B8
:1018B00000000000000000010187FFFFFFFC0000A6
:1018C00000001C3E3E3E1C000000000003070F0FFE
:1018D0001E1E3C3838383C1E1E0F0F070300000048
:1018E00000000000000000000000000000000000F8
:1018F00000000000000000000000000000000000E8
:1019000000000000000000000000000000000000D7
:101910000000000080E0F0FC7C1C0C0000000000D7
:10192000000000000000000000000000000000C0F7
:10193000E0F8FC3F1F0703C0C0C0C000000000006B
:101940000000000000000000000000F0F8FEFFFFB3
:10195000E7E1E0E0E0E0E0FFFFFFFFE0E0E00000C3
:1019600000001C3E3E3E1C00000000000000000085
:10197000000000000000003F3F3F3F00000000006B
:101980000000000000000000000000000000000057
:101990000000000000000000000000000000000047
:1019A0000000000000000000000000FCFCFCFC1C2B
:1019B0001C1C1C1C1C1C1C1C1C1C1C1C1C000000BB
:1019C00000000000000000000000007F7F7F7F38E3
:1019D0003C1C1C1C1C1C3C7878F0F0E080000000D3
:1019E0000000000000000000000000E0E0E0E00077
:1019F00000000000000000000081E7FFFF7E000003
:101A000000001C3E3E3E1C000000000001070F0FBE
:101A10001E1C383838383C1E1E0F0F07010000000E
:101A200000000000000000000000000000000000B6
:101A300000000000000000000000000000000000A6
:101A4000000000000000000000000000C0E0F0F016
:101A500078383C1C1C1C3C3878F0F0E0C0000000DA
:101A60000000000000000000000000FFFFFFFFC1B9
:101A7000E0E07070707070E0E0C0C08000000000B6
:101A80000000000000000000000000FFFFFFFF0357
:101A900000000000000000000003FFFFFFFC00004A
:101AA00000001C3E3E3E1C000000000003070F0F1C
:101AB0001C1C38383838381C1C0F0F070300000076
:101AC0000000000000000000000000000000000016
:101AD0000000000000000000000000000000000006
:101AE00000000000000000000000003C3C3C3C3CCA
:101AF0003C3C3C3C3C3C3C3C3CFCFCFCFC7C00005E
:101B000000000000000000000000000000000000D5
:101B10000000000000C0F0FCFF7F1F070100000074
:101B200000000000000000000000000000000000B5
:101B300000C0F0FCFF7F1F07010000000000000054
:101B400000001C3E3E3E1C00000000000000303C37
:101B50003F3F1F07010000000000000000000000E0
:101B60000000000000000000000000000000000075
:101B70000000000000000000000000000000000065
:101B80000000000000000000000000000080E0F005
:101B9000F8783C1C1C1C3C78F8F0E0800000000049
:101BA00000000000000000000000000080C3EFFF04
:101BB000FFFC7870707078FCFFFFEFC380000000BE
:101BC0000000000000000000000000FEFFFFFF8397
:101BD00000000000000000000083FFFFFFFE000087
:101BE00000001C3E3E3E1C000000000003070F0FDB
:101BF0001E1E3C3C3C3C3C1E1E0F0F070300000019
:101C000000000000000000000000000000000000D4
:101C100000000000000000000000000000000000C4
:101C2000000000000000000000000000C0E0F0F034
:101C300038381C1C1C1C1C3838F0F0E0C0000000B8
:101C400000000000000000000000003FFFFFFFC098
:101C5000000000000000000000C0FFFFFFFF0000C8
:101C6000000000000000000000000000000103036D
:101C700007070E0E0E0E0E070783FFFFFFFF000083
:101C800000001C3E3E3E1C000000000003070F0F3A
:101C90001E1C3C3838383C1C1E0F0F070300000088
:101CA0000F9300912101002341F40FEF00932101D4
:101CB0000E94FD1200E0009321010F9108950F93FF
:101CC00000912401002319F40BE80E9407130AE88D
:101CD0000E9407130F9108950E9450140091AA01C9
:101CE0000E94951400E80E9495140FEA0E94951432
:101CF0000E947A1408950E9450140091AA010E9433
:101D000095140F3F09F4000000E00E9495141AE1B9
:101D1000E6E2FDE105910E9495141A951123D1F791
:101D20000E947A140895D580A83FD300408D14A155
:101D3000C8DA1281FFD922DB30A4A60010B0AF00B0
:101D4000AF000F931F932F930E94CF1228E014E847
:101D50002A951F9310E01093A2012093A3010E94E3
:101D6000C80E1F910E9450140091AA010E94951460
:101D700000E40E94951400E00E9495141A95D9F78A
:101D80000E947A14222319F72F911F910F91089521
:101D90001091A2012091A30117FD1CC00F930E9476
:101DA00050140091AA010E94951400E00E9495141D
:101DB000022F0770006B0E949514012F0F700E9474
:101DC0009514012F02950F7000610E9495140E94D6
:101DD0007A140F9108950F921F92799C6001689C6C
:101DE0005001699CB00CC11C0024D01C789CB00C24
:101DF000C11C0024D01C1F900F9008950F920FB6A5
:101E00000F92102F0F7012951F70005D0A3308F0AB
:101E1000095F105D1A3308F0195F0F900FBE0F9025
:101E20000895FF932F923F924F925F922224332482
:101E300044245524F0E2660C771C881C991C221C53
:101E4000331C441C551C2A143B044C045D0428F02C
:101E500063942A183B084C085D08FA9561F7220C38
:101E6000331C441C551C2A143B044C045D0430F004
:101E7000F1E06F0EF0E07F1E8F1E9F1E5F904F906F
:101E80003F902F90FF910895AF92BF92CF92DF9233
:101E9000EF92FF920F931F932F933F934F935F9374
:101EA0006F937F93CC24DD24EE2400E4F02E88246D
:101EB0009924AA24BB24840195010C291D292E29CB
:101EC0003F29B694A79497948794401751076207C7
:101ED000730740F08C289D28AE28BF28401B510B6B
:101EE000620B730BF694E794D794C794F694E79437
:101EF000D794C7940C2D0D290E290F29E1F67F9157
:101F00006F915F914F913F912F911F910F91FF9092
:101F1000EF90DF90CF90BF90AF9008954F935F9375
:101F20006F937F93AF92BF92CF92FF93EF9377FD22
:101F30000E94F30F40E1BB24AA24FF27660F771FFE
:101F4000AA1CBB1C4A9561F0EDE052915D5F53FD08
:101F500050835081505D57FD5083EA30B1F7EECF8A
:101F60005A2D5F7050635093AE015A2D52955F7099
:101F700050635093AF015B2D5F7050635093B0017D
:101F80005B2D52955F7050635093B1015C2D5F7073
:101F900050635093B201EF91FF91CF90BF90AF90FB
:101FA0007F916F915F914F9108950F931F932F939E
:101FB0003F93EF93FF93E2EBF1E0222732E010E34F
:101FC000332341F00291011729F400E223953A9559
:101FD0000083F6CF2093B301FF91EF913F912F91B2
:101FE0001F910F91089560957095809590956F5F02
:101FF0007F4F8F4F9F4F08950F920FB60F92EF9321
:10200000FF936F927F928F929F92AF92BF92CF92E7
:10201000DF925E9B05C0AA24BB24CC24DD2407C02C
:10202000609078007090790043010E94EB0EE5E229
:10203000F1E061907190819091906A0C7B1C8C1CF6
:102040009D1CE5E2F1E06192719281929192E091A2
:102050002901F0912A013196E0932901F0932A0198
:10206000DF90CF90BF90AF909F908F907F906F90B8
:10207000FF91EF910F900FBE0F9018955E981895F5
:102080005E9A18955E9A18950F930091AC0103958E
:102090000093AC010A3021F00A950093AC0103C013
:1020A0000DB301600DBB0F9108950F920FB60F9203
:1020B0000F931F932F933F932091840030918500BD
:1020C00009ED1DE30217130708F053C15E9A0DE6F0
:1020D00000937A000091810000931601087F00931D
:1020E00081000DB30E7F00931D0000270093AC010B
:1020F0004F93FF93EF93DF93CF930F921F922F9203
:102100003F924F925F926F927F928F929F92AF9287
:10211000BF92CF92DF92EF92FF920027009385004B
:102120000093840010911301009112011093890013
:1021300000938800109115010091140110938B00F9
:1021400000938A0001E003BD009116010093810015
:102150000091690003700230C1F0033041F000913A
:1021600069000C7F0360009369000C94A4110FEFC9
:10217000009317010DEE00937A00009169000C7F27
:102180000260009369000C94A41100E00093170111
:102190000DE600937A00009169000C7F03600093C4
:1021A0006900E5E2F1E06190719081909190E9E23F
:1021B000F1E0A190B190CC24DD24AC14BD0409F46D
:1021C0003CC0660C771C881C991C660C771C881C0C
:1021D000991C0E94110F660C771C881C991C660CB8
:1021E000771C881C991CA301B4010E94440F8092A3
:1021F000350190923601F1E0E5E5EF012224332428
:10220000882499247A906A900FE0002359F00A9567
:102210001A900A90600C711C821C931C12920292FC
:102220000C940511E0E1F0E05F01CC24DD240E9474
:10223000110F60922B0170922C010027E5E2F1E072
:102240000193019301930193E9E2F1E0019301937A
:1022500000912401003009F41AC0013009F407C0CC
:10226000023009F40EC0033009F40BC06DC02D9884
:10227000882499248394880C991C880C991C2BC061
:1022800063C02D9A08E31AE4480125C05DC02D9A69
:10229000609035017090360180903001909031014E
:1022A000681879088090120190901301860C971C91
:1022B00097FE08C001E010E048010FEF00932201F3
:1022C0000C946B1108E31AE48016910608F048019B
:1022D0000027009322018092120190921301009135
:1022E0002401003009F030C0E0912B01F0912C0165
:1022F0000091300110913101E01BF10B18F4E095D1
:10230000F095319603E010E0E017F10750F4002754
:102310000093AD015F98109123010FEF009323010B
:102320000EC00091AD010A3020F403950093AD0179
:102330000BC05F9A1091230100E000932301011765
:1023400019F008E80E940713FF90EF90DF90CF90FC
:10235000BF90AF909F908F907F906F905F904F90C5
:102360003F902F901F900F90CF91DF91EF91FF91B1
:102370004F913F912F911F910F910F900FBE0F9092
:1023800018950F920FB60F920F931F932F933F93B1
:102390004F930F921F92FF93EF93F198F0980F9342
:1023A0000091A80110E0E6E9FBE0E00FF11FE00F6B
:1023B000F11F05911591000F111F0093A6011093B5
:1023C000A701F8010F9115912591359145910032A2
:1023D00049F0003031F0011718F0021721F018F021
:1023E0005AC0F09AF19A003828F0003CC8F3103C2B
:1023F00008F400540F93011B349F009DE00DF11D64
:102400000091A2010093A4010091A3010093A501F2
:102410000F910E3221F4002436953695301D4F93DE
:102420000E9450140091AA010E94951400E40E9499
:1024300095143F930091A201003868F4039500932E
:10244000A20100E0F19B05910E9495143A95F09944
:102450003A9581F702C00591F9CF3F910E947A1415
:102460004A9579F00091A4010093A2010091A50181
:10247000039507700093A3010093A5010E94C80E65
:10248000CFCF4F910091A301041B039507700093D8
:10249000A3010E94C80EEF91FF911F900F904F91E2
:1024A0003F912F911F910F910F900FBE0F900895A4
:1024B0000F920FB60F920F931F93AF93BF93CF93CB
:1024C000DF93EE0FFF1F00270093A9010091A901E0
:1024D000003808F011C0039500936B120591003885
:1024E00009F40AC0003828F0003C18F40E94861253
:1024F000EDCF0E94C111EACFDF91CF91BF91AF9193
:102500001F910F910F900FBE0F900895DF01EEE025
:10251000F8E2C4EBD1E00F93005810E0E00FF11F98
:10252000E00FF11FC00FD11FC00FD11F05911491F3
:10253000F8010091A20108831091A3011770009186
:10254000A80102950073102B10641F7719830F9157
:102550000995FD010895CF93DF930F93005811273C
:10256000C4EBD1E0C00FD11FC00FD11F09810F7B79
:1025700009830F91DF91CF910895CF93DF930F934C
:1025800000581127C4EBD1E0C00FD11FC00FD11FDD
:102590000981006409830F91DF91CF910895CF9352
:1025A000DF930F931F93C4EBD1E000E4002339F0D5
:1025B0000A9519811F7B1F7719832296F7CF1F91E8
:1025C0000F91DF91CF910895CF93DF93C4EBD1E0CA
:1025D0000F9300581127C00FD11FC00FD11F0981C1
:1025E000007C003C0F9131F40F930E941B130E945A
:1025F00086120F91DF91CF9108950F9308E800396B
:1026000020F40E94E4120395FACF0F910895CF931E
:10261000DF930F931F93C4EBD1E000581127C00F35
:10262000D11FC00FD11F1981106819831F910F91FD
:10263000DF91CF9108950F931F93CF93DF93C4EB56
:10264000D1E000581127C00FD11FC00FD11F088142
:1026500019810093A2011093A3011F7710641983BD
:10266000129513701093A8010E94C80EDF91CF91AC
:102670001F910F9108950895FD0105910370009336
:10268000A801DF010895FD012F933F931591259136
:102690003591059133950F932093A2011093A301D7
:1026A0000E94C80E0E9450140091AA010E94951425
:1026B00000E40E9495140F91231739F030F40F9322
:1026C0000E9495140F912395F7CF0E947A143F91A1
:1026D0002F91DF010895FD010591003808F00FE703
:1026E0000093A201059107700093A301DF010E94EE
:1026F000C80E0895FD010091A2011591010F003847
:1027000008F00FE70093A2010091A3011591010FBA
:1027100007700093A301DF010E94C80E0895CF93B4
:10272000DF930F931F93FD010591DF01003CC0F47F
:102730000A38B0F000581127C4EBD1E0C00FD11F08
:10274000C00FD11F0091A20108831091A30117703F
:102750000091A80102950073102B1F7B1F7719832E
:102760001F910F91DF91CF910895009123010030C7
:1027700039F00CE20E94C1110DE20E94C11106C0A5
:102780000AE20E94C1110BE20E94C1110895C0E348
:10279000D1E008C0CBE2D1E005C0009122010023C6
:1027A000B1F3F8CF688179818A819B810C816A833A
:1027B0007B836817790731F4002309F027C00FEFF6
:1027C0000C8302C000E00C830E948E0F0E94D50F84
:1027D0000091B1010E94C1110091B0010E94C1118C
:1027E0000091AF010E94C1110091A801013031F4A4
:1027F0000091AE01065F0E94C11108C00EE20E9466
:10280000C1110091AE010E94C11100C008953B1397
:102810003C1343136B137A138F133B133B13B51302
:10282000C713CA13CD133B133B133B133B133B138B
:102830003B133B133B133B133B133B133B133B1328
:102840003B133B133B133B133B133B133B133B1318
:102850003B133B133B133B133B133B133B133B1308
:102860003B133B133B133B133B133B133B133B13F8
:102870003B133B133B133B133B133B133B133B13E8
:102880003B133B133B133B133B133B133B132F9364
:102890002198299A2098289A0E947A142F910895B5
:1028A0002F932998219A24E12150F0F700002898CD
:1028B000209A24E12150F0F700002F9108952F93E2
:1028C0002198299A24E12150F0F700002098289AB5
:1028D00024E12150F0F700002998219A24E12150A9
:1028E000F0F700002898209A24E12150F0F700002A
:1028F0002F9108952F932898209A24E12150F0F7E2
:1029000000002998219A24E12150F0F70000209836
:10291000289A24E12150F0F700002198299A24E117
:102920002150F0F700002F9108950F920FB60F92EB
:102930001F932F9318E0001F18F42198299A02C0C2
:102940002998219A24E12150F0F700002098289A34
:1029500024E12150F0F700002898209A1A9559F7A1
:102960002198299A24E12150F0F700002098289A14
:1029700024E12150F0F7000013B111FB002711FDF5
:102980000A952898209A2F911F910F900FBE0F90B3
:102990000895CD14DE14EF1400158100830000E2C9
:1029A000FBF5EEE42020202020810283680088814E
:1029B000018300038B8202007F0880008100830076
:1029C00000F0E0E7E3EEED202020208102834E00BE
:1029D000898202007F0881018300038A80008100D0
:1029E000830000E2FBEAEB202020202020810283EC
:1029F0004E00898202007F0881018300038A8000E3
:102A0000810083000120E2FBEAEBFEF7E5EDEE201A
:102A10002083000320E0E2E0F0E8E9EDFBEC202079
:102A20008300052020F1E8E3EDE0EBEEEC202080D0
:102A30008200007F038102830001E2F5EEE42020A2
:102A4000208100834D018A20208102830003ECE570
:102A5000EDFCF8E520202020208102830005E2FB28
:102A6000F5EEE4E0208100834D05892020820700F7
:102A70007F6080008100830200EFF0E8E2E5F283EE
:102A80000202E2E5F0F1E8FF830204810230362E13
:102A900031312E32303235800F920FB60F920F93B4
:102AA0001F93EF93FF9300911101002700931101F1
:102AB000E2EEFAE20091B900087F069506950695C8
:102AC0001127E00FF11FE00FF11F05911491F8019C
:102AD0000995FF91EF911F910F910F900FBE0F90ED
:102AE000189591150A160A160A160A160A160A16D3
:102AF0000A160A160A160A160A16951595150A16C2
:102B00000A16A115B8150A160A16CE15D915D91523
:102B1000EF15061606160A160A160A160A160A16D9
:102B20000A1605ED0093BC00089500E0009308012B
:102B300003E0013011F405E801C005EC0093BC008E
:102B40000895002710910801E9E0F1E0E10FF01F7E
:102B50000091BB00008313951093080103E00A95D0
:102B6000101711F405E801C005EC0093BC000895AE
:102B7000002710910801E9E0F1E0E10FF01F00915A
:102B8000BB00008313951093080100915E01026061
:102B900000935E0105EC0093BC00089500915E0176
:102BA00001FD03C000E00093080105EC0093BC00A8
:102BB00008950E940B1610E010930801ECE0F1E07C
:102BC0000027E10FF01F00810093BB0005E00130FA
:102BD00011F405E801C005EC0093BC00089500273E
:102BE00010910801139510930801ECE0F1E0E10F5A
:102BF000F01F00810093BB0005E00A95101711F447
:102C000005E801C005EC0093BC00089505EC0093B5
:102C1000BC00089508950F920FB60F920F931F9363
:102C20000091300100930C010091310100930D01DE
:102C300000912B0100930E0100912C0100930F01D4
:102C4000009124010F70109123011071012B10913C
:102C500022011072012B009310011F910F910F9010
:102C60000FBE0F9008950F920FB60F920F931F9300
:102C70002F9300910801013009F407C0023009F4D4
:102C800007C0033009F407C011C00E945D160EC0D2
:102C90000E9472160BC00091090110910A010E9456
:102CA000761600910B010E945F1600C02F911F91B4
:102CB0000F910F900FBE0F90089500910901109190
:102CC0002401011709F40DC0033010F009F009C008
:102CD00010912401133009F404C0009324010E94D0
:102CE000100208950091090110910A0117FD13C007
:102CF00025EC021729E0120770F420913001021729
:102D000020913101120739F0009330011093310105
:102D100009E80E94071308950F920FB60F920F93C0
:102D200000911101093020F40395009311010DC0A9
:102D300000270093110101EC0093BC0004E3015053
:102D4000F0F7000005EC0093BC000F910F900FBE50
:042D50000F90089543
:00000001FF
