:020000020000FC
:0A0000000C9433000C9416121895AE
:02000C00189545
:02001000189541
:0200140018953D
:02001800189539
:02001C00189535
:02002000189531
:0200240018952D
:02002800189529
:10002C000C9487020C9489020C9490020C94990203
:02003C00189515
:02004000189511
:0200440018950D
:100048000C94C2030C9481040C9480040C94D01179
:020058001895F9
:02005C001895F5
:100060000C940D17189500916000086110E2009340
:1000700060001093600005B70160102F0D7F15BF61
:1000800005BF04B710E014BF00FD0C94510001FD42
:100090000C945A0002FD0C945A0003FD0C945A0073
:1000A0000000E0E0F1E000270193F530E9F7E030EF
:1000B000D9F70293E0E0F5E0EDBFFEBFEEE1FF27E8
:1000C000EA95F083E9F700E007B90FE308B902EC1D
:1000D0000AB90AEF0BB90BE204B90CEF05B903E05A
:1000E00000936C0000E0009368000CE00093B800FF
:1000F00002E30093BA0005E40093BC0007E6009316
:10010000C40000E00093C50008ED0093C10006E0C4
:100110000093C20002E00093B00003E00093B1003E
:100120000CE70093B30000E000937000B6E4A0E594
:10013000A0930D01B0930E01B0938900A0938800A5
:10014000B6E4A0E5A0930F01B0931001B0938B002B
:10015000A0938A0000E00093800007E000936F0006
:1001600002E00093810009EF07BD08BD02E004BD75
:1001700003E000936E0003E005BD0AE00093690010
:1001800001E00DBB00E000937B0007E000937C00E2
:100190000DEE00937A00CAEFD0E00E942D010E947C
:1001A000EB150E940B0F26F00FEF0093A4012CC05B
:1001B0000E94EB150E94F4150AE70E9439160E946E
:1001C0001E1626F00AE70093A40112C00E94EB1548
:1001D0000E94F41508E70E9439160E941E1626F0A8
:1001E00008E70093A40104C000E00093A4010CC040
:1001F0000E94AF0F0E94D40F0E94600FC8E2D1E0AE
:10020000C0932A01D0932B0109B105FD0C940C0178
:10021000B4E0A0EB0C940E01AA27BB27A093280101
:10022000B093290109E80E94A814B0E0A5E0A093CA
:100230001601B09317010091A4010F3F21F0E4E6ED
:10024000F6E10E941A1478940E94B20309E80E9411
:10025000A8140C943801C8EED3E0EF93FF93E0E4C8
:10026000FFE13197F1F72197D1F7FF91EF910895D1
:100270000091580100FF07C00F930E9414040F91D2
:100280000E7F0093580101FF07C00F930E94AA162A
:100290000F910D7F0093580103FF09C00F930E9437
:1002A000B2030E94DF010F91077F0093580104FF02
:1002B00009C00F930E94B2030E9405020F910F7EA6
:1002C0000093580105FF23C00F93009115010030E2
:1002D00059F0CF93DF93C2E3D0E0C0931601D093DF
:1002E0001701DF91CF910AC0CF93DF93C5E0D0E033
:1002F000C0931601D0931701DF91CF9102E00093D4
:1003000015010E9410050F910F7D0093580106FF03
:1003100023C00F9300911501003059F0CF93DF9364
:10032000C2E3D0E0C0931601D0931701DF91CF91C3
:100330000AC0CF93DF93C5E0D0E0C0931601D093FD
:100340001701DF91CF9102E0009315010E94530540
:100350000F910F7B009358010091590100FF08C0D5
:100360000F930E941E100F910E7F0093590125C01C
:1003700001FF0AC00F930E9424020E94E5050F911D
:100380000D7F0093590119C002FF0FC00F930E9407
:10039000600300911501003009F00A9500931501E2
:1003A0000F910B7F0093590108C003FF06C00F9304
:1003B0000F91077F0093590100C00C943801FF9200
:1003C000FFB6FF920F9300911B01003021F402E071
:1003D0000E94D20215C0013039F400E00E94D2021E
:1003E00009E80E94A8140CC0023039F400E00E9411
:1003F000D20209E80E94A81403C0033009F400C027
:100400000F91FF90FFBEFF900895FF92FFB6FF92FD
:100410000F9300911B01003021F401E00E94D202F1
:100420000EC0023019F401E00E94D202033039F408
:1004300000E00E94D20209E80E94A81400C00F91B7
:10044000FF90FFBEFF9008950F931F930E949B03A0
:100450000F930E943F0E0F9100914C01039512E003
:10046000011338C00F9300912801009306010091F9
:1004700029010093070100912601009308010091D2
:1004800027010093090100911B010F7010911A01BF
:100490001071012B109119011072012B00930A01A8
:1004A0000AE80E94A81400911B01002389F400911E
:1004B0001901002339F009E80E946D140AE80E942E
:1004C000811406C009E80E9481140AE80E946D1494
:1004D0000F91002700934C0100914D01039513E00B
:1004E000011303C00F930F91002700934D0100915A
:1004F0004E01039514E0011305C00F930E94A6045A
:100500000F91002700934E011F910F9108955E985F
:1005100018955E9A0F9301E000931D000F911895B6
:100520005E9A0F9300911D00016000931D000F91D2
:1005300018950F930FB70F931F93109159010091C6
:100540005401093029F0039500935401186021C02B
:1005500000270093540100915501093029F00395BB
:1005600000935501146015C00027009355010091B8
:100570005601093029F0039500935601126009C015
:1005800000270093560100915701039500935701EE
:100590001160109359010E9434031F910F910FBFF6
:1005A0000F9118950F9300270093190100935301A1
:1005B0000F91003009F40AC0013009F419C002306B
:1005C00009F428C0033009F437C04DC000931B0163
:1005D0002D9A0091A401002351F00F3F41F00E9499
:1005E000AF0F0E94D40FE4E6F6E10E941A143BC05C
:1005F00000931B012D980091A401002351F00F3F9F
:1006000041F00E94AF0F0E94D40FE7E7F6E10E948D
:100610001A1429C000931B012D9A0091A4010023F4
:1006200051F00F3F41F00E94AF0F0E94D40FE7E856
:10063000F6E10E941A1417C000931B01C8E2D1E032
:100640000027099308832D9A0091A401002351F0FB
:100650000F3F41F00E94AF0F0E94D40FE7E9F6E18F
:100660000E941A1400C008952F930091580105FDAF
:1006700025C006FD23C0002719B113FF016014FF38
:100680000260109100010117C9F02091010113309F
:1006900089F4021779F0023039F4009158010F7D86
:1006A00000640093580106C00091580100620F7B5E
:1006B0000093580110930101009300012F910895B8
:1006C00009B100721FEF012705FBABE0B1E0CCE000
:1006D000D1E00E947C030E948A031091580100918E
:1006E0000C01007E003A11F4106103C0003409F4DB
:1006F00018601093580108950C9114E02EF01A958B
:10070000011731F0039504C01195011709F00A95FE
:100710000C930895188117FB0C91002342F056F4B6
:1007200016FD03C01F77106404C0112702C016F025
:1007300010E818830895CCE0D1E021E0199117FB6F
:1007400076F416FB66F0012F0F710F3141F003951F
:10075000107E102B0A3008F010621A9319912A9516
:1007600069F708950F931F93CF93DF93CCE0D1E007
:1007700011E00FEF09931A95E9F7DF91CF911F91DF
:100780000F910895FF92FFB6FF92EF93FF931F938F
:100790000F930091580100FD3FC0EAE5F1E00091A0
:1007A000C6000D3009F431C0073408F40CC00A3516
:1007B00058F051F0013608F42FC00A3710F009F054
:1007C0002BC00052F1CF06C000C000830027009369
:1007D0009A0122C0003350F0093348F041F001344F
:1007E00028F0063420F019F00052F9CF15C010910E
:1007F0009A0113951F3010F009F00EC010939A0162
:10080000E10F10E0F11F008307C000915801016063
:10081000009358010E9414040F911F91FF91EF91D2
:10082000FF90FFBEFF901895FF92FFB6FF92EF93E7
:10083000FF930F931F932F93EAE5F1E010919A0134
:100840000191033509F407C00D3409F433C00435B0
:1008500009F443C044C022271430E9F3133051F0A7
:10086000123071F03CC001910E94F90410F1029520
:10087000007F202F01910E94F904D8F00F70202BE7
:1008800001910E94F904A8F00295007F102F0191B8
:100890000E94F90470F00F70102B05EC101709E09E
:1008A000200738F4209329011093280109E80E94B9
:1008B000A81415C0113009F012C000911B010330BB
:1008C00059F001910E94F90438F0033008F007C094
:1008D00000931B010E94D20202C0000000C000274A
:1008E00000939A01009158010E7F009358012F91B7
:1008F0001F910F91FF91EF91FF90FFBEFF90089520
:100900001895FF92FFB6FF92EF93FF931F930F93FB
:10091000EAE7F1E000919B0110E0E00FF11F039581
:100920000F71003079F000939B010191003051F07C
:100930000093C6000F911F91FF91EF91FF90FFBEB2
:10094000FF90189508ED0093C100F4CFFF92FFB619
:10095000FF92AF93BF93CF93DF93EF93FF930F93E8
:100960001F93AAE7B1E004E50D93C6E2D1E0098147
:100970000E9468100D9308810E9468101D930D93CA
:10098000C8E2D1E009810E9468100D9308810E949D
:1009900068101D930D93CBE1D1E008810E9468108F
:1009A0000D930DE00D930AE00D9300E00D9300937D
:1009B0009B0108EF0093C1001F910F91FF91EF91F0
:1009C000DF91CF91BF91AF91FF90FFBEFF9008954F
:1009D000088115EC0117098119E0010748F467FC4B
:1009E00003C004EC19E002C0002711270883198313
:1009F0000895003398F00A3318F4005388940FC018
:100A0000013460F0073418F40753889408C00136A5
:100A100028F0073618F40755889401C00894089503
:100A2000FF92FFB6FF920F931F932F933F93009176
:100A30001B011091A4011F3F19F0103029F002C0D2
:100A4000003011F4033009F426C0009119010F3F62
:100A500009F421C00091280110912901209116016B
:100A600030911701020F131F0E94D20520E931E0D7
:100A70000217130710F4890107C024EC39E00217AC
:100A8000130710F009F08901009328011093290140
:100A900009E80E94A8143F912F911F910F91FF9098
:100AA000FFBEFF900895FF92FFB6FF926F927F9274
:100AB0008F929F92AF92BF92CF92DF920F931F932C
:100AC0002F933F9300911B011091A4011F3F19F038
:100AD000103029F002C0003011F4033009F452C084
:100AE000E0911901EF3F91F500911B01003071F584
:100AF0008090160190901701880C991C880C991C05
:100B0000880C991C880C991C60902C0170902D0108
:100B10006818790888249924A0901601B0901701CC
:100B2000CC24DD240E947B10809016019090170148
:100B30000E944D10850128E833E120930D01309388
:100B40000E01209116013091170108C00091280173
:100B5000109129012091160130911701021B130BEE
:100B60000E94D20520E931E00217130717FD01C0EA
:100B700010F400271127009328011093290109E898
:100B80000E94A8143F912F911F910F91DF90CF9059
:100B9000BF90AF909F908F907F906F90FF90FFBE1F
:100BA000FF900895380188249924A0901601B090F0
:100BB0001701CC24DD240E947B10809016019090B8
:100BC00017010E944D10850108950F930FB70F93E1
:100BD0001F932F9306B11FEF01271091500100932F
:100BE0005001102720911B01233021F00E940006A4
:100BF0000E941E062F911F910F910FBF0F91089514
:100C00000F931F9310FD14C01091510117FF04C0E2
:100C10001127109351010FC0103069F01A951093ED
:100C2000510149F400FF07C003E00E94D20203C053
:100C300014E1109351011F910F9108950F931F9389
:100C400011FD1EC01091520117FF04C0112710930F
:100C5000520119C01030B9F01A951093520199F44D
:100C600010911B0101FD06C0113069F400E00E94E3
:100C7000D20209C0113039F001E00E94D20203C053
:100C800014E0109352011F910F9108954906FD073A
:100C9000DB062A3909020000000000000000000005
:100CA0000C1C18183838303000000000000000001C
:100CB000003030383818181C0C0000C07098ECF464
:100CC000F6FA1A00030E19372F6F5F581AFAF6F466
:100CD000EC9870C000585F6F2F37190E03000000AA
:100CE0000000000000606000000000606000000084
:100CF00000000000000000000000000000000000F4
:100D0000000000E0F81C06061CF8E000071F386031
:100D100060381F0700101818FEFE00000000606019
:100D2000607F7F60606000181C0E06060EFCF800F5
:100D30006070787C6E676361000606C6E6F6DE8E3C
:100D400006001838706060713F1F000000C0F03E60
:100D50000E8080000C0F0F0C0C0C7F7F00FEFEC677
:100D6000C6C6C68606001838706060713F1F00F85E
:100D7000FCCEC6C6CE8C08001F3F716060713F1F5D
:100D80000006060686E6FE3E0E0060783E0F030073
:100D900000000078FCCE8686CEFC78001E3F736192
:100DA00061733F1E00F8FC8E06068EFCF8001031C1
:100DB000736363733F1FC0DF09020080F07C0E0E77
:100DC0007CF080007F7F0C0C0C0C7F7F00FEFEC649
:100DD000C6C6868600007F7F606060713F1F00FE90
:100DE000FE8686CEFC3800007F7F616161733F1E06
:100DF00000FEFE060606060600007F7F00000000DB
:100E000000000000FCFE0606FEFC0000E0FF7F6024
:100E1000607FFFE000FEFE868686860606007F7FF6
:100E2000616161616060007EFE80FEFE80FE7E008A
:100E30007E7F017F7F017F7E00181C0E8686CEFCA0
:100E400038001838706161733F1E00FEFE0000809C
:100E5000C0FEFE007F7F381E07017F7F00FEFE0080
:100E60000E8EC0FEFE007F7F381E07017F7F00FED2
:100E7000FE80E0F81E0600007F7F0101071E7860FB
:100E8000000080F07E7EF0800000787F0700000781
:100E90007F7800FEFEF08080F0FEFE007F7F010F75
:100EA0000F017F7F00FEFE80808080FEFE007F7F3E
:100EB000010101017F7F00F8FC0E06060EFCF80020
:100EC0001F3F706060703F1F00FEFE06060606FEB4
:100ED000FE007F7F000000007F7F00FEFE0606060A
:100EE0000EFCF8007F7F06060607030100F8FC0EE3
:100EF00006060E1C18001F3F706060703818000650
:100F00000606FEFE060606000000007F7F000000C9
:100F100000FEFE80000000FEFE000061636363735C
:100F20003F1F00F0FC0CFEFE0CFCF000071F187FBA
:100F30007F181F07000E3E70C0C0703E0E00707C10
:100F40000E03030E7C7000FEFE000000FEFE00009B
:100F50007F7F6060607FFFC000FEFE00000000FE3B
:100F6000FE000103070606067F7F00FEFE00FEFE70
:100F700000FEFE007F7F607F7F607F7F00FEFE00BF
:100F8000FEFE00FEFE007F7F607F7F60FFFF0006A9
:100F900006FEFEC0C080000000007F7F60713F1F22
:100FA00000FEFEC0C08000FEFE007F7F607F3F002D
:100FB0007F7F00FEFEC0C0C0808000007F7F606039
:100FC00060713F1F00181C0E86868EFCF8001838D2
:100FD000706161713F1F00FEFE80FCFE06FEFC009A
:100FE0007F7F013F7F607F3F00F8FC8E060606FE94
:100FF000FE006071391F0F037F7F30432005000022
:10100000C0F0F8F8FCFCFEFEFE7E7E7E7E7E7E7EDC
:101010007E7E7EFEFEFEFCFCF8F8F0C0000000FFC5
:10102000FFFFFFFFFF0701000000000000000000BD
:101030000080C0E0703907FFFFFFFFFFFF0000FFE7
:10104000FFFFFFFFFF0000000080C0E070381C0EB3
:1010500007030100000000FFFFFFFFFFFF0000FF8C
:10106000FFFFFFFFFFE09C0E0703010000000000F0
:10107000000000000080E0FFFFFFFFFFFF00000016
:10108000030F1F1F3F3F7F7F7F7E7E7E7E7E7E7EA3
:101090007E7E7E7F7F7F3F3F1F1F0F03000000008B
:1010A0000000000000000080C0E0F0FEFEFEFEFE3A
:1010B000FE00000000000000000000000000000032
:1010C0000000F0F8FCFEFFFF7F3F1FFFFFFFFFFF68
:1010D000FF00000000000000000000000000000011
:1010E0000000000000000000000000FFFFFFFFFF05
:1010F000FF000000000000000000000000000000F1
:101100000000000000000000000000FFFFFFFFFFE4
:10111000FF000000000000000000000000000000D0
:1011200000007E7E7E7E7E7E7E7E7E7F7F7F7F7FD6
:101130007F7E7E7E7E7E7E7E7E7E00000000008042
:10114000E0F0F8F8FCFCFEFE7E7E7E7E7E7E7E7EFB
:101150007E7E7E7EFEFEFCFCFCF8F0E08000000F50
:101160000F0F0F0F0F030000000000000000000031
:101170000000000080C0E1FFFFFFFFFF3F00000014
:1011800000000000000000000000000080C0E0F04F
:10119000F8FCFEFF7F3F1F0F070301000000000067
:1011A0000000000080C0E0F0F8FCFEFF7F3F1F0F52
:1011B00007030100000000000000000000000070B4
:1011C000787C7E7F7F7F7F7F7F7F7F7E7E7E7E7E3F
:1011D0007E7E7E7E7E7E7E7E7E7E7E7E7E00008029
:1011E000E0F0F8F8FCFCFE7E7E7E7E7E7E7E7E7EDB
:1011F0007E7E7E7E7EFEFCFCFCF8F0E08000000F30
:101200000F0F0F0F0F030000000000000000000090
:10121000000000000000C3FFFFFFFFFF7F00000091
:1012200000000000000000000000003E3E3E3E3E88
:101230003E3E3E3E3E7FFFFFFFF7E3C1000000F071
:10124000F0F0F0F0F0C0000000000000000000002E
:10125000000000000000C1FFFFFFFFFFFF000001D2
:10126000070F1F1F3F3F7F7E7E7E7E7E7E7E7E7EBF
:101270007E7E7E7E7E7F3F3F3F1F0F070100000086
:10128000000000000000000000000000000080C01E
:10129000E0F0F8FCFEFEFE7E3E1E000000000000B6
:1012A00000000000000080C0E0F0F8FCFEFFFF7FBF
:1012B0003F1F0F070301000000000000000000C0F6
:1012C000E0F0F8FCFEFFFF7F3F1F0F070301000067
:1012D00000000000FEFEFEFEFEFE00000000007F9B
:1012E0007F7F7F7F7F7F7E7E7E7E7E7E7E7E7E7E18
:1012F0007E7E7E7EFFFFFFFFFFFF7E7E7E00000082
:1013000000000000000000000000000000000000DD
:10131000000000003F3F3F3F3F3F0000000000FE55
:10132000FEFEFEFEFE7E7E7E7E7E7E7E7E7E7E7E5D
:101330007E7E7E7E7E7E7E7E7E7E7E7E7E0000FF48
:10134000FFFFFFFFFFC080808080808080808080E2
:10135000808080808080000000000000000000018C
:10136000070F0F1F1F1F1F1F1F1F1F1F1F1F1F1FC5
:101370001F1F1F1F1F3FFFFFFEFEFCF8E00000F0D5
:10138000F0F0F0F0F0C000000000000000000000ED
:10139000000000000000C0FFFFFFFFFFFF00000192
:1013A000070F1F1F3F3F7F7E7E7E7E7E7E7E7E7E7E
:1013B0007E7E7E7E7E7F3F3F1F1F0F070100000065
:1013C00080E0F0F8F8FCFC7E7E7E7E7E7E7E7E7E77
:1013D0007E7E7E7EFEFCFCF8F8F0E080000000FEE1
:1013E000FFFFFFFFFF010000808080808080808001
:1013F000808080808003030303030303000000FF59
:10140000FFFFFFFFFFFE3F1F1F1F1F1F1F1F1F1F8D
:101410001F1F1F1F1F3FFFFEFEFCF8F0C00000FF54
:10142000FFFFFFFFFFC00000000000000000000001
:10143000000000000000C0FFFFFFFFFFFF000000F2
:1014400003070F1F1F3F3F7E7E7E7E7E7E7E7E7E59
:101450007E7E7E7E7E3F3F1F1F0F07030000007EC3
:101460007E7E7E7E7E7E7E7E7E7E7E7E7E7E7E7E9C
:101470007E7E7E7E7E7EFEFEFEFEFEFEFE00000086
:10148000000000000000000000000000000000005C
:101490000000C0F0FCFFFFFFFF7F1F0701000000FE
:1014A0000000000000000000000000000000C0F08C
:1014B000FCFFFFFFFF7F1F0701000000000000008E
:1014C00000000000000000000000C0F0FCFFFFFF73
:1014D000FF7F1F0701000000000000000000000067
:1014E00000000000000040707C7F7F7F7F7F1F072F
:1014F00001000000000000000000000000000000EB
:1015000080E0F0F8F8FCFCFE7E7E7E7E7E7E7E7EB5
:101510007E7E7E7EFEFCFCF8F8F0E080000000009D
:101520003FFFFFFFFFFFC180000000000000000040
:101530000000000080C1FFFFFFFFFF3F000000C070
:10154000E0F8FDFFFFFF7F3F3F3F3F3F3F3F3F3F13
:101550003F3F3F3F3F7FFFFFFFFDF8E0C00000FF40
:10156000FFFFFFFFFFC100000000000000000000BF
:10157000000000000000C1FFFFFFFFFFFF000001AF
:10158000070F1F1F3F3F7F7E7E7E7E7E7E7E7E7E9C
:101590007E7E7E7E7E7F3F3F1F1F0F070100008003
:1015A000E0F0F8F8FCFCFE7E7E7E7E7E7E7E7E7E17
:1015B0007E7E7E7E7EFEFCFCF8F8F0E0800000FF80
:1015C000FFFFFFFFFF03000000000000000000001D
:1015D00000000000000003FFFFFFFFFFFF00000707
:1015E0001F3F7FFFFFFFFCF8F8F8F8F8F8F8F8F86D
:1015F000F8F8F8F8F8FC7FFFFFFFFFFFFF0000009E
:10160000C0C0C0C0C0C0C101010101010101010190
:1016100001010101000080FFFFFFFFFFFF0000004C
:1016200001070F1F1F3F3F7F7E7E7E7E7E7E7E7E78
:101630007E7E7E7E7E7F3F3F1F1F0F0701000000E2
:10164000000000000000000000000000000000009A
:10165000000000000000000000000000000000008A
:1016600000000000000000C0E0E0F0F0F8F8F8F83A
:10167000F8F8F8F8F8F8F0F0E0E0C000000000003A
:10168000000000000000FFFFFFFFFF070100000057
:101690000080C0E0703907FFFFFFFFFF000000007F
:1016A000000000000000FFFFFFFFFF8070381C0EED
:1016B00007030100000080FFFFFFFFFF000000386C
:1016C0007C7C7C380000030F1F1F3F3F7E7C7C7CAE
:1016D0007C7C7C7C7C7E3F3F1F1F0F030000000052
:1016E00000000000000000000000000000000000FA
:1016F00000000000000000000000000000000000EA
:101700000000000000000000000000000000008059
:10171000F8F8F8F8F80000000000000000000000F1
:10172000000000000000000000E0F0F8FC7E3F1F19
:10173000FFFFFFFFFF0000000000000000000000AE
:101740000000000000000000000303010000000092
:10175000FFFFFFFFFF000000000000000000003856
:101760007C7C7C38000000007C7C7C7C7C7C7C7CED
:101770007F7F7F7F7F7C7C7C7C7C7C7C000000008A
:101780000000000000000000000000000000000059
:101790000000000000000000000000000000000049
:1017A00000000000000000C0E0E0F0F0F8F8F8F8F9
:1017B000F8F8F8F8F8F8F0F0E0E0C00000000000F9
:1017C00000000000000007070707070100000000F5
:1017D0000000000080C0E1FFFFFFFF3F00000000AD
:1017E00000000000000000000000000080C0E0F0E9
:1017F000F8FCFE7F3F1F0F070301000000000038C8
:101800007C7C7C3800006070787C7E7F7F7F7F7F6F
:101810007F7D7C7C7C7C7C7C7C7C7C7C00000000F4
:1018200000000000000000000000000000000000B8
:1018300000000000000000000000000000000000A8
:1018400000000000000000C0E0E0F0F0F8F8F8F858
:10185000F8F8F8F8F8F0F0E0E0C000000000000050
:10186000000000000000070707070703010000C091
:10187000C0C0C0E0E1F3FFFF7F3F1F000000000099
:1018800000000000000080808080800000000003D5
:101890000303030307070FFFFFFEFCF800000038F7
:1018A0007C7C7C380000030F1F1F3F3F7E7C7C7CCC
:1018B0007C7C7C7C7E3E3F1F1F0F070100000000E8
:1018C0000000000000000000000000000000000018
:1018D0000000000000000000000000000000000008
:1018E00000000000000000000000000000000000F8
:1018F0000080C0E0F0F8F8F8783800000000000040
:1019000000000000000000000080C0E0F0F8FCFED5
:101910007F3F1F0F07838180808000000000000050
:10192000000000000000FCFEFFFFFFFFF7F3F1F0F6
:10193000F0F0F0F0F0FFFFFFFFFFF0F000000038E4
:101940007C7C7C38000001010101010101010101E1
:1019500001010101017F7F7F7F7F01010000000005
:101960000000000000000000000000000000000077
:101970000000000000000000000000000000000067
:10198000000000000000F8F8F8F8F8F8F8F8F8F8A7
:10199000F8F8F8F8F8F8F8F8F8F800000000000097
:1019A000000000000000FFFFFFFFFFE0E0E0E0E0DC
:1019B000E0E0E0E0E0C0C080800000000000000047
:1019C000000000000000818383838303030303037B
:1019D0000303030307070FFFFFFFFEF800000038B3
:1019E0007C7C7C380000030F1F1F3F3E7C7C7C7C8E
:1019F0007C7C7C7C7C3E3F1F1F0F070100000000A9
:101A000000000000000000000000000000000000D6
:101A100000000000000000000000000000000000C6
:101A200000000000000000C0E0E0F0F0F8F8F8F876
:101A3000F8F8F8F8F8F0F0E0E0C00000000000006E
:101A4000000000000000FFFFFFFFFF83C1E0E0E0B7
:101A5000E0E0E0E0E0C1C383830303000000000096
:101A6000000000000000FFFFFFFFFF0F070303035C
:101A70000303030303070FFFFFFFFEF80000003816
:101A80007C7C7C380000030F1F1F3F3F7E7C7C7CEA
:101A90007C7C7C7C7C3E3F1F1F0F07010000000008
:101AA0000000000000000000000000000000000036
:101AB0000000000000000000000000000000000026
:101AC000000000000000F8F8F8F8F8F8F8F8F8F866
:101AD000F8F8F8F8F8F8F8F8F8F8F8F80000000066
:101AE00000000000000000000000000000000000F6
:101AF000000000C0F0FCFFFF7F1F07010000000096
:101B0000000000000000000000000000000000C015
:101B1000F0FCFFFF7F1F07010000000000000038FD
:101B20007C7C7C380000000000000040707C7F7FDF
:101B30007F1F0701000000000000000000000000FF
:101B40000000000000000000000000000000000095
:101B50000000000000000000000000000000000085
:101B60000000000000000080E0E0F0F0F8F8F8F875
:101B7000F8F8F8F8F8F0F0E0E0C00000000000002D
:101B8000000000000000001F3F7FFFFFF3E1C0C026
:101B9000C0C0C0C0E1F3FFFF7F3F1F000000000096
:101BA000000000000000F8FCFEFFFF0F0703030326
:101BB0000303030303070FFFFFFEFCF800000038D8
:101BC0007C7C7C380000030F1F1F3F3F7E7C7C7CA9
:101BD0007C7C7C7C7C3E3F1F1F0F070100000000C7
:101BE00000000000000000000000000000000000F5
:101BF00000000000000000000000000000000000E5
:101C00000000000000000080C0E0E0F0F0F8F8F80C
:101C1000F8F8F8F8F8F8F0F0E0E0C0000000000094
:101C20000000000000007EFFFFFFFFC381000000F6
:101C3000000000000081C3FFFFFFFFFF0000000065
:101C400000000000000000010307070F0F1F1F1F07
:101C50001F1F1F1F1F0F0F07FFFFFFFF0000003890
:101C60007C7C7C380000030F1F1F3F3E7C7C7C7C0B
:101C70007C7C7C7C7C7C3E3F1F1F0F03000000911E
:101C80001801002309F008950FEF00931801009147
:101C9000A4010F3F41F0003011F00E94320F00E02C
:101CA00000931801089500911B01003039F00130B4
:101CB00009F1023089F10330E1F148C000911901C6
:101CC000002361F40091C40107FF55C00F77009312
:101CD000C401609128017091290145C00091C6019D
:101CE00007FF49C00F770093C601609126017091EC
:101CF000270139C009E20093A90108E20093A80175
:101D000003E30093A7010BE20093A60132C06091A8
:101D100026017091270127C009E20093A9010CE375
:101D20000093A8010EE30093A7010EE30093A60120
:101D300020C008E20093A90108E30093A80108E28B
:101D40000093A70109E20093A60113C00BE30093DF
:101D5000A9010BE30093A8010BE30093A7010BE398
:101D60000093A60106C0882799270E94FB100E94B5
:101D700064110E94BC0E93CFFF92FFB6FF921F9397
:101D80000F93EF93FF930E94F41500EC0E94550F00
:101D90000E943916E4E4FEE10091A9010E94FB0EC5
:101DA0000E94550F0E9439160091A8010E94FB0E57
:101DB0000E94550F0E9439160091A7010E94FB0E48
:101DC00010911B01103009F400680E94550F0E9409
:101DD00039160091A6010E94FB0E0E94550F0E9429
:101DE00039160E941E16FF91EF910F911F91FF90DF
:101DF000FFBEFF900895EF93FF93003220F0003470
:101E000010F4005201C000E0E00F00E0F01F049168
:101E1000FF91EF9108950E94F4150AE80E94550F72
:101E20000E9439160BD7E0D600E40E94550F21D747
:101E300005D708953F065B4F666D7D077F6F008075
:101E40005CF97100000000000000000077735F3152
:101E5000000000003F065B4F666D7D077F6F0080CE
:101E60005CF971000F9308E8003920F40E943C0FE0
:101E70000395FACF0F910895CF93DF93C1EBD1E093
:101E80000F9300581127C00FD11FC00FD11F098118
:101E9000007C003C0F9131F40F930E94BC140E940F
:101EA00048140F91DF91CF9108951F932F9328E04D
:101EB0000795111F2A95E1F7012F2F911F91089582
:101EC0000E94F4150091A4010E94391600E80E94B6
:101ED00039160FEA0E9439160E941E1608950F93B4
:101EE0001F932F9310E0202F10939C0120939D01AE
:101EF0000E94FB0F0E94F4150091A4010E94391664
:101F000000E40E9439161FE700E00E9439161A9576
:101F1000D9F70E941E162F911F910F9108950F93CC
:101F20001F932F9310E0202F10939C0120939D016D
:101F30000E94FB0F0E94F4150091A4010E94391623
:101F400000E40E94391610E82F91022F0E943916E2
:101F50001A95D9F70E941E161F910F9108950E949D
:101F6000F4150091A4010E9439160F3F09F40000F6
:101F700000E00E94391618E1EEE8FFE105910E94A9
:101F800039161A951123D1F70E941E160895D5808F
:101F9000A83FD300408D14A1C8DA1281FFD922DBFB
:101FA00030A4A60010B0AF000F931F932F930E9490
:101FB000931428E014E82A951F9310E010939C01D5
:101FC00020939D010E94FB0F1F910E94F415009128
:101FD000A4010E94391600E40E94391600E00E9414
:101FE00039161A95D9F70E941E16222319F72F9138
:101FF0001F910F91089510919C0120919D0117FD53
:102000001CC00F930E94F4150091A4010E94391680
:1020100000E00E943916022F0770006B0E943916EB
:10202000012F0F700E943916012F02950F70006169
:102030000E9439160E941E160F9108950F930FB734
:102040000F93EF93FF93009153010A3020F403950F
:10205000009353011CC00027009353010E94AF0F4F
:1020600000911B01003019F4E4E6F6E10EC00130E6
:1020700019F4E7E7F6E109C0023019F4E7E8F6E100
:1020800004C0033021F4E7E9F6E10E941A14FF913D
:10209000EF910F910FBF0F910895FF92FFB6FF923E
:1020A000FF920F921F92799C6001689C5001699C7D
:1020B000FF24B00CC11CDF1C789CFF24B00CC11C99
:1020C000DF1C1F900F90FF90FF90FFBEFF900895C0
:1020D000FF92FFB6FF92102F0F70107F1295005DD8
:1020E0000A3308F0095F105D1A3308F0195FFF909A
:1020F000FFBEFF9008950024112422243324F0E22F
:10210000660C771C881C991C001C111C221C331C9B
:102110000A141B042C043D0428F063940A181B08BD
:102120002C083D08FA9561F708950F931F932F939C
:102130003F934F935F936F937F93CC24DD24EE24E2
:1021400000E4F02E88249924AA24BB24840195015C
:102150000C291D292E293F29B694A794979487947A
:10216000401751076207730740F08C289D28AE285E
:10217000BF28401B510B620B730BF694E794D79466
:10218000C794F694E794D794C7940C2D0D290E2983
:102190000F29E1F67F916F915F914F913F912F91C0
:1021A0001F910F910895FF92FFB6FF920F931F9317
:1021B0003F934F9330E1CC24BB24AA24FF27000F88
:1021C000111FAA1CBB1CCC1C3A9549F400004F916E
:1021D0003F911F910F91FF90FFBEFF900895EDE09A
:1021E00042914D5F43FD40834081405D47FD408308
:1021F000EA30B1F7E4CF4F935F936F937F938F9360
:102200009F93FF93EF9397FD0E94C71140E2EE2446
:10221000DD24CC24BB24AA24FF27660F771F881F48
:10222000991FAA1CBB1CCC1CDD1CEE1C4A9561F03E
:10223000EFE052915D5F53FD50835081505D57FD3B
:102240005083EA30B1F7E9CF5A2D5F705063509355
:10225000A6015A2D52955F7050635093A7015B2DD4
:102260005F7050635093A8015B2D52955F7050636F
:102270005093A9015C2D5F7050635093AA015C2DAF
:1022800052955F7050635093AB015D2D5F7050634A
:102290005093AC015D2D52955F7050635093AD012A
:1022A0005E2D5F7050635093AE015E2D52955F704E
:1022B00050635093AF01EF91FF919F918F917F9168
:1022C0006F915F914F9108950F931F932F93222742
:1022D00010E30091AF01011719F400E2239501C04A
:1022E00010E20093AF010091AE01011719F400E272
:1022F000239501C010E20093AE010091AD010117DA
:1023000019F4239500E201C010E20093AD010091A1
:10231000AC01011719F4239500E201C010E200930B
:10232000AC010091AB01011719F4239500E201C043
:1023300010E20093AB010091AA01011719F4239553
:1023400000E201C010E20093AA010091A901011767
:1023500019F4239500E201C010E20093A901009155
:10236000A801011719F4239500E201C010E20093BF
:10237000A8010091A7010093A7010091A601009375
:10238000A6012093B0012F911F910F9108956095A0
:102390007095809590956F5F7F4F8F4F9F4F0895F9
:1023A000FF92FFB6FF92EF93FF936F927F928F920F
:1023B0009F92AF92BF92CF92DF925E9B05C0AA24FC
:1023C000BB24CC24DD2407C0609078007090790095
:1023D00043010E944D1060901C0170901D0180907F
:1023E0001E0190901F016A0C7B1C8C1C9D1C60922E
:1023F0001C0170921D0180921E0190921F01E091BC
:102400002001F09121013196E0932001F093210108
:10241000DF90CF90BF90AF909F908F907F906F9004
:10242000FF91EF91FF90FFBEFF901895FF92FFB6CE
:10243000FF920F931F932F933F9300E000931D0093
:102440005E9A009181000F93087F00938100209194
:10245000840030918500002700938500009384005C
:1024600010910E0100910D011093890000938800D6
:102470001091100100910F0110938B0000938A00BE
:1024800001E003BD0F91009381004F93FF93EF9301
:10249000DF93CF930F921F922F923F924F925F92B2
:1024A0006F927F928F929F92AF92BF92CF92DF9264
:1024B000EF92FF920091690003700230B1F0033097
:1024C00029F00BE0009369000C9467130DEE009364
:1024D0007A00009169000C7F0260009369002093EC
:1024E0001101309312010C9467130DE600937A00EA
:1024F000009169000C7F0360009369002093130131
:102500003093140160901C0170901D0180901E0199
:1025100090901F01A0902001B0902101660C771CC3
:10252000881C991C660C771C881C991CCC24DD2403
:102530000E947B10660C771C881C991C660C771C0B
:10254000881C991CA301B40160922201709223019E
:1025500080922401909225010E94951080922C0176
:1025600090922D01002700931C0100931D01009300
:102570001E0100931F010093200100932101F1E04F
:10258000ECE4EF010027802E202E302E7A906A9006
:102590000FE0002359F00A951A900A90600C711C04
:1025A000821C931C129202920C94C912E0E1F0E09A
:1025B0005F01CC24DD240E947B1060922601709282
:1025C000270100911B01003009F427C0013009F4F4
:1025D00007C0023009F418C0033009F415C077C0F1
:1025E0002D985F9A00E000931A01E0910D01F0919F
:1025F0000E01C4EFD1E0EC1BFD0B09F018F4EE273F
:10260000FF2731964F0139C02D9A5F9A00E0009361
:102610001A0100E516E4480130C02D9A60902C01A3
:1026200070902D01809028019090290168187908F8
:10263000889477FC08947794679480900D0190902B
:102640000E01860C971C97FE0BC001E010E04801BC
:10265000109119010FEF0093190101130EC00DC065
:1026600000E516E48016910608F048010091190172
:10267000002319F000270093190180920D01909218
:102680000E01E0912601F091270133960091280177
:1026900010912901E01BF10B07E010E0E017F107B2
:1026A00000911A010F7040F05F9A0F3009F00CC0D2
:1026B00000E800931A0108C05F98003009F004C0D8
:1026C0000FE800931A0100C008E80E94A814FF90C8
:1026D000EF90DF90CF90BF90AF909F908F907F90C2
:1026E0006F905F904F903F902F901F900F90CF91E1
:1026F000DF91EF91FF914F913F912F911F910F919A
:10270000FF90FFBEFF901895FF92FFB6FF920F93C8
:102710001F932F933F934F930F921F92FF93EF932B
:10272000F198F0980F930091A20110E0ECE8FCE022
:10273000E00FF11FE00FF11F05911591000F111F20
:102740000093A0011093A101F8010F91159125911B
:1027500035914591003249F0003031F0011718F001
:10276000021721F018F059C0F09AF19A003828F0B9
:10277000003CC8F3103C08F400540F93011B349F35
:10278000009DE00DF11D00919C0100939E010091C0
:102790009D0100939F010F910E3219F4002436958C
:1027A000301D4F930E94F4150091A4010E94391628
:1027B00000E40E9439163F9300919C01003868F4B0
:1027C000039500939C0100E0F19B05910E9439164E
:1027D0003A95F0993A9581F702C00591F9CF3F916A
:1027E0000E941E164A9579F000919E0100939C016B
:1027F00000919F010395077000939D0100939F0135
:102800000E94FB0FCFCF4F9100919D01041B0395B8
:10281000077000939D010E94FB0FEF91FF911F90A5
:102820000F904F913F912F911F910F91FF90FFBEFD
:10283000FF900895FF92FFB6FF920F931F93AF93FF
:10284000BF93CF93DF93EE0FFF1F00270093A301E9
:102850000091A301003808F011C0039500932D14D6
:102860000591003809F40AC0003828F0003C18F43B
:102870000E944814EDCF0E948413EACFDF91CF91DC
:10288000BF91AF911F910F91FF90FFBEFF900895F0
:10289000DF01ECE3FBE2C1EBD1E00F93005810E065
:1028A000E00FF11FE00FF11FC00FD11FC00FD11FAC
:1028B00005911491F80100919C01088310919D01EC
:1028C00017700091A20102950073102B10641F77FE
:1028D00019830F910995FD010895CF93DF930F930D
:1028E0001F9300581127C1EBD1E0C00FD11FC00FBB
:1028F000D11F09810F7B09831F910F91DF91CF9128
:102900000895CF93DF930F9300581127C1EBD1E0C7
:10291000C00FD11FC00FD11F0981006409830F911F
:10292000DF91CF910895CF93DF930F931F93C1EB66
:10293000D1E000E4002339F00A9519811F7B1F774D
:1029400019832296F7CF1F910F91DF91CF910895B0
:10295000CF93DF930F931F93C1EBD1E00058112762
:10296000C00FD11FC00FD11F1981106819831F918B
:102970000F91DF91CF9108950F931F93CF93DF9322
:10298000C1EBD1E000581127C00FD11FC00FD11FDC
:102990000881198100939C0110939D011F77106499
:1029A0001983129513701093A2010E94FB0FDF91FF
:1029B000CF911F910F9108950895FD010591037026
:1029C0000093A201DF010895FD012F933F9315911C
:1029D0002591359105910F9320939C0110939D01B2
:1029E0000E94FB0F0E94F4150091A4010E94391669
:1029F00000E40E9439160F91231739F030F40F9339
:102A00000E9439160F912395F7CF0E941E163F9111
:102A10002F91DF010895FD010591003808F00FE7BF
:102A200000939C010591077000939D01DF010E94B6
:102A3000FB0F0895FD0100919C011591010F0038D5
:102A400008F00FE700939C0100919D011591010F83
:102A5000077000939D01DF010E94FB0F0895CF9343
:102A6000DF930F931F93FD010591DF01003CC0F43C
:102A70000A38B0F000581127C1EBD1E0C00FD11FC8
:102A8000C00FD11F00919C01088310919D01177008
:102A90000091A20102950073102B1F7B1F771983F1
:102AA0001F910F91DF91CF91089500911B0100308C
:102AB00089F400911A01003039F00CE20E9484136D
:102AC0000DE20E94841306C00AE20E9484130BE206
:102AD0000E9484130895C8E2D1E003C0C6E2D1E0A9
:102AE00000C06881798185EC99E06817790708F062
:102AF00024C0882799270E94FB100E94641100912E
:102B0000A9010E9484130091A8010E9484130091DE
:102B1000A7010E9484130091A201013031F40091B9
:102B2000A601065F0E94841308C00EE20E9484136F
:102B30000091A6010E94841300C00895DC14DD14E6
:102B4000E4140B151A152F15DC14DC1455156B1530
:102B50006E15DC14DC14DC14DC14DC14DC14DC1462
:102B6000DC14DC14DC14DC14DC14DC14DC14DC14E5
:102B7000DC14DC14DC14DC14DC14DC14DC14DC14D5
:102B8000DC14DC14DC14DC14DC14DC14DC14DC14C5
:102B9000DC14DC14DC14DC14DC14DC14DC14DC14B5
:102BA000DC14DC14DC14DC14DC14DC14DC14DC14A5
:102BB000DC14DC14DC14DC14DC14DC14209823B1E9
:102BC00020FFFDCF08952898209A08952198089510
:102BD0002998219A08952F930E94E6150E94DE15E8
:102BE0000E941E162F9108952F930E94E81524E04D
:102BF0002150F0F700000E94E31524E02150F0F787
:102C000000002F9108952F930E94E61524E0215093
:102C1000F0F700000E94DE1524E02150F0F70000DC
:102C20000E94E81524E02150F0F700000E94E3150F
:102C300024E02150F0F700002F9108952F930E9477
:102C4000E31524E02150F0F700000E94E81524E08D
:102C50002150F0F700000E94DE1524E02150F0F72B
:102C600000000E94E61524E02150F0F700002F91AB
:102C700008951F932F9318E0001F18F40E94E61583
:102C800002C00E94E81524E02150F0F700000E94E5
:102C9000DE1524E02150F0F700000E94E3151A959C
:102CA00059F70E94E61524E02150F0F700000E9439
:102CB000DE1524E02150F0F7000013B111FB0E9453
:102CC000E3152F911F9108958102830000C2DBD587
:102CD000CEC4202020202020208100836C00888109
:102CE00001830003858A89820200801880008102A6
:102CF000830000D0C0C7C3CECD20202081008351E7
:102D00000089820200801881018300038A80810289
:102D1000830000D1D2CECF202020202081008351FB
:102D20000089820200801881018300038A80810269
:102D3000831701C2DBCACBDED7C5CDCE831703C054
:102D4000C2C0D0C8C9CDDBCC831C05D1C8C3CDC09F
:102D5000CBCECC80FF92FFB6FF920F931F932F93A1
:102D600000910201013009F407C0023009F414C0D7
:102D7000033009F426C04AC000910301033010F06B
:102D800009F044C010911B01133009F43FC00093B7
:102D90001B010E94D2023AC000910301109104016C
:102DA00017FD34C024EC021729E0120711F008F0D7
:102DB0002DC0009328011093290109E80E94A8144E
:102DC00025C0009103011091040117FD0FC024ECF0
:102DD000021729E0120711F008F008C0009328013B
:102DE0001093290109E80E94A81410C00091050160
:102DF000033010F009F00AC010911B01133009F4E0
:102E000005C000931B010E94D20200C02F911F91A8
:102E10000F91FF90FFBEFF900895FF92FFB6FF92C3
:102E20000F931F93EF93FF93EAE5FEE20091B90041
:102E3000087F0695069506951127E00FF11FE00F14
:102E4000F11F05911491F8010995FF91EF911F91E0
:102E50000F91FF90FFBEFF9018954D17C417C41730
:102E6000C417C417C417C417C417C417C417C4178A
:102E7000C4175117C417C417C4175E177517C417A2
:102E8000C4178B179417C417A917C017C017C417F6
:102E9000C417C417C417C417C41705ED0093BC00AA
:102EA000089500E00093020100910300013011F445
:102EB00005E801C005EC0093BC00089500271091BF
:102EC0000201E3E0F1E0E10FF01F0091BB0000839D
:102ED00013951093020103E00A95101711F405E809
:102EE00001C005EC0093BC00089500271091020179
:102EF000E3E0F1E0E10FF01F0091BB0000831395C8
:102F00001093020105EC0093BC000091580102608F
:102F100000935801089505EC0093BC0000915801FE
:102F2000026000935801089510E010930201E6E05A
:102F3000F1E00027E10FF01F00810093BB0000913A
:102F40000500013011F405E801C005EC0093BC0058
:102F50000895002710910201139510930201E6E0F5
:102F6000F1E0E10FF01F00810093BB0005E00A953E
:102F7000101711F405E801C005EC0093BC0008959A
:0A2F800005EC0093BC0008950895CD
:00000001FF
