:020000020000FC
:0A0000000C9433000C943C12189588
:02000C00189545
:02001000189541
:0200140018953D
:02001800189539
:02001C00189535
:02002000189531
:0200240018952D
:02002800189529
:10002C000C94AA130C94AC130C94B6130C942A02D3
:02003C00189515
:02004000189511
:0200440018950D
:100048000C9475030C9419040C9418040C94F61170
:020058001895F9
:02005C001895F5
:100060000C944F17189500916000086110E20093FE
:1000700060001093600005B70160102F0D7F15BF61
:1000800005BF04B710E014BF00FD0C94510001FD42
:100090000C945A0002FD0C945A0003FD0C945A0073
:1000A0000000E0E0F1E000270193F530E9F7E030EF
:1000B000D9F70293E0E0F5E0EDBFFEBFEEE1FF27E8
:1000C000EA95F083E9F700E007B90FE308B900EC1F
:1000D0000AB908EF0BB90BE204B90CEF05B903E05C
:1000E00000936C0000E0009368000CE00093B800FF
:1000F00002E30093BA0005E40093BC0007E6009316
:10010000C40000E00093C50008ED0093C10006E0C4
:100110000093C20002E00093B00003E00093B1003E
:100120000CE70093B30000E000937000B6E4A0E594
:10013000A0930E01B0930F01B0938900A0938800A3
:10014000B6E4A0E5A0931001B0931101B0938B0029
:10015000A0938A0000E00093800007E000936F0006
:1001600002E00093810009EF07BD08BD02E004BD75
:1001700003E000936E0003E005BD0AE00093690010
:1001800001E00DBB00E000937B0007E000937C00E2
:100190000DEE00937A00CAEFD0E00E941F010E948A
:1001A00035160E94310F26F00FEF0093A60126C0EE
:1001B0000E9435160E943E160AE70E9483160E948E
:1001C000681626F00AE70093A60112C00E943516B1
:1001D0000E943E1608E70E9483160E94681626F0C9
:1001E00008E70093A60104C000E00093A60106C042
:1001F0000E94D50F0E94FA0F0E94860F09B105FDDB
:100200000C940601B4E0A0EB0C940801AA27BB27CC
:10021000A0932901B0932A01B0E0A5E0A0931701B3
:10022000B09318010091A6010F3F21F0EEEAF6E12C
:100230000E945A1478940C942A01C8EED3E0EF93EC
:10024000FF93E0E4FFE13197F1F72197D1F7FF91B8
:10025000EF9108950091590100FF07C00F930E948C
:10026000BE030F910E7F0093590101FF07C00F934A
:100270000E94EC160F910D7F0093590103FF07C0F8
:100280000F930E943B030F91077F0093590104FFD6
:1002900007C00F930E9459030F910F7E00935901DD
:1002A00005FF23C00F9300911601003059F0CF9342
:1002B000DF93C2E3D0E0C0931701D0931801DF9120
:1002C000CF910AC0CF93DF93C5E0D0E0C093170170
:1002D000D0931801DF91CF9102E0009316010E94A4
:1002E000AA040F910F7D0093590106FF23C00F93BD
:1002F00000911601003059F0CF93DF93C2E3D0E0B4
:10030000C0931701D0931801DF91CF910AC0CF930A
:10031000DF93C5E0D0E0C0931701D0931801DF91BF
:10032000CF9102E0009316010E94ED040F910F7B24
:100330000093590100915A0100FF07C00F930E94DA
:1003400044100F910E7F00935A0101FF09C00F93D3
:100350000E94C9010E947F050F910D7F00935A01F1
:1003600002FF0EC00F930E94F102009116010030AF
:1003700009F00A95009316010F910B7F00935A0123
:1003800003FF05C00F930F91077F00935A010C9450
:100390002A010F931F930F930E94650E0F910091F6
:1003A0004D01039512E0011322C00F930091290122
:1003B0000093060100912A01009307010091270193
:1003C00000930801009128010093090100911C018C
:1003D0000F7010911B011071012B10911A011072F6
:1003E000012B00930A010E9460040F9100270093E3
:1003F0004D0100914E01039513E001131BC00F93B3
:100400000AE80E94E81400911C01002389F400917D
:100410001A01002339F009E80E94AD140AE80E948D
:10042000C11406C009E80E94C1140AE80E94AD1474
:100430000F91002700934E0100914F01039514E0A6
:10044000011303C00F930F91002700934F011F91D9
:100450000F9108950F930FB70F931F9310915A01A7
:1004600000915501093029F003950093550118605A
:1004700021C000270093550100915601093029F051
:10048000039500935601146015C000270093560190
:1004900000915701093029F003950093570112602C
:1004A00009C000270093570100915801039500935C
:1004B0005801116010935A010E94C5021F910F91BB
:1004C0000FBF0F9118950F93002700931A01009307
:1004D00054010F91003009F40AC0013009F419C029
:1004E000023009F428C0033009F437C04DC000932E
:1004F0001C012D9A0091A601002351F00F3F41F0FD
:100500000E94D50F0E94FA0FEEEAF6E10E945A14FB
:100510003BC000931C012D980091A601002351F0CF
:100520000F3F41F00E94D50F0E94FA0FECEBF6E16D
:100530000E945A1429C000931C012D9A0091A60113
:10054000002351F00F3F41F00E94D50F0E94FA0F97
:10055000E9ECF6E10E945A1417C000931C01C9E2AD
:10056000D1E00027099308832D9A0091A60100236A
:1005700051F00F3F41F00E94D50F0E94FA0FE6EDB7
:10058000F6E10E945A1400C008952F93009159017A
:1005900005FD25C006FD23C0002719B113FF01602A
:1005A00014FF0260109100010117C9F020910101B0
:1005B000133089F4021779F0023039F400915901AF
:1005C0000F7D00640093590106C00091590100623B
:1005D0000F7B0093590110930101009300012F91AB
:1005E00008950F930FB70F931F9309B11FEF0127C2
:1005F000007210910B0100930B01102715FF04C02E
:1006000011E010930C0132C010910C0117FF04C0CF
:10061000112710930C012AC01030B9F01A951093CD
:100620000C0121F505FD0DC000C010910D01153024
:10063000E8F01436D8F4009159010860009359018C
:1006400015C0112710930D0111C005FF0FC01091A7
:100650000D01143629F400915901006100935901EC
:100660001F3F21F0139510930D0100C01F910F91B2
:100670000FBF0F9108950F930FB70F9300911C01B7
:10068000003021F402E00E9463020FC0013021F427
:1006900000E00E94630209C0023021F400E00E94E1
:1006A000630203C0033009F400C00F910FBF0F9124
:1006B0000895FF92FFB6FF920F9300911C01003046
:1006C00021F401E00E9463020BC0023019F401E042
:1006D0000E946302033021F400E00E94630200C024
:1006E0000F91FF90FFBEFF9008950F930FB70F93E8
:1006F0001F93EF93FF930091590100FD38C0EBE584
:10070000F1E00091C60010919B01013608F0005203
:100710000B3508F026C0073408F00DC0013408F08E
:1007200014C00A3308F01DC0003308F00EC00D30AD
:1007300009F418C016C0033519F00D3409F011C0C2
:10074000008310E010939B0112C013951F3010F02E
:1007500009F00DC010939B01E10F1127F11F0083D9
:1007600006C005C000915901016000935901FF9135
:10077000EF911F910F910FBF0F9118950F930FB726
:100780000F931F932F93EF93FF93EBE5F1E01091FD
:100790009B010191033509F404C00D3409F423C011
:1007A00037C0133019F0123031F032C001910E947D
:1007B0009204C0F0202F01910E94920498F00295BB
:1007C000102F01910E94920468F0102B05EC101775
:1007D00009E0200738F420932A011093290109E841
:1007E0000E94E81415C0113009F012C001910E9456
:1007F000920468F0033008F00BC010911C010093C4
:100800001C01011729F000931C010E94630200C023
:10081000002700939B01009159010E7F009359011D
:10082000FF91EF912F911F910F910FBF0F9108959D
:1008300018950F930FB70F931F93EF93FF93EBE769
:10084000F1E000919C0110E0E00FF11F03950F71A2
:10085000003071F000939C010191003049F0009349
:10086000C600FF91EF911F910F910FBF0F91189547
:1008700008ED0093C100F5CF098107FF05C000E333
:100880000D930D930D931BC0088114EC0117098182
:1008900019E0010758F051F009E00E948E100D9305
:1008A00004EC0E948E101D930D9309C009810E94D3
:1008B0008E100D9308810E948E101D930D93089544
:1008C0000F930FB70F931F93AF93BF93CF93DF9304
:1008D000EF93FF93ABE7B1E004E50D93C7E2D1E0FE
:1008E0000E943C04C9E2D1E00E943C04CCE1D1E08A
:1008F00008810E948E100D930DE00D930AE00D9378
:1009000000E00D9300939C0108EF0093C100FF915C
:10091000EF91DF91CF91BF91AF911F910F910FBFD9
:100920000F910895003398F00A3318F40053889417
:100930000FC0013460F0073418F40753889408C0DE
:10094000013628F0073618F40755889401C008943A
:100950000F700895FF92FFB6FF920F931F932F938E
:100960003F9300911C011091A6011F3F19F0103018
:1009700029F002C0003011F4033009F426C00091C0
:100980001A010F3F09F421C00091290110912A0199
:100990002091170130911801020F131F0E946C055E
:1009A00020E931E00217130710F4890107C024EC95
:1009B00039E00217130710F009F0890100932901AB
:1009C00010932A0109E80E94E8143F912F911F918A
:1009D0000F91FF90FFBEFF900895FF92FFB6FF9228
:1009E0006F927F928F929F92AF92BF92CF92DF923F
:1009F0000F931F932F933F9300911C011091A60119
:100A00001F3F19F0103029F002C0003011F40330FC
:100A100009F452C0E0911A01EF3F91F500911C01D9
:100A2000003071F58090170190901801880C991C86
:100A3000880C991C880C991C880C991C60902B01BF
:100A400070902C016818790888249924A0901701C7
:100A5000B0901801CC24DD240E94A11080901701D1
:100A6000909018010E947310850128E833E12093CB
:100A70000E0130930F01209117013091180108C029
:100A80000091290110912A0120911701309118013C
:100A9000021B130B0E946C0520E931E002171307BB
:100AA00017FD01C010F400271127009329011093AE
:100AB0002A0109E80E94E8143F912F911F910F919C
:100AC000DF90CF90BF90AF909F908F907F906F906E
:100AD000FF90FFBEFF900895380188249924A090CC
:100AE0001701B0901801CC24DD240E94A110809041
:100AF0001701909018010E947310850108950F93BB
:100B00000FB70F931F932F9306B11FEF012710917B
:100B1000510100935101102720911C01233021F035
:100B20000E949A050E94B8052F911F910F910FBF47
:100B30000F9108950F931F9310FD14C0109152014F
:100B400017FF04C01127109352010FC0103069F035
:100B50001A951093520149F400FF07C003E00E9468
:100B6000630203C014E1109352011F910F91089585
:100B70000F931F9311FD1EC01091530117FF04C066
:100B800011271093530119C01030B9F01A95109322
:100B9000530199F410911C0101FD06C0113069F454
:100BA00000E00E94630209C0113039F001E00E94A8
:100BB000630203C014E0109353011F910F91089535
:100BC000E3052308C1062A390B02000080800000DB
:100BD0008080000080000001010000010100000190
:100BE0008000008080000080800000010000010182
:100BF000000001010000000000C07098ECF4F67ADB
:100C00003A000000030E19372F6F5E5C3A7AF6F453
:100C1000EC9870C00000005C5E6F2F37190E030067
:100C20000000000000006060000000000000000004
:100C300000000000000000000000000000000000B4
:100C4000000000000000000000000000000000F0B4
:100C5000FC1C0E06060E1CFCF0000F3F3870606096
:100C600070383F0F006070381CFEFE00000000006E
:100C7000606060607F7F6060606000181C0E060628
:100C80000686CEFC78006070787C6E676361606079
:100C900000060606C6C6E6F6DE8E06001838706048
:100CA000606060713F1F00000080C0E070381C8EE3
:100CB00086000E0F0F0D0C0C0C0C7F7F00FEFEC685
:100CC000C6C6C6C6C6860600183870606060607109
:100CD0003F1F00F8FC8EC6C6C6C6CE8C08001F3F5C
:100CE0007160606060713F1F00060606060686E6BA
:100CF000FE7E1E00000060787E1F070100000000DD
:100D000078FCCE8686CEFC7800001E3F7361616160
:100D100061733F1E00F8FC8E060606068EFCF80086
:100D200010317363636363713F1F000000000000B4
:100D300000000000000000000000000000000000B3
:100D400000000000000000000000000000000000A3
:100D50000000000000000000000000000000000093
:100D60000000000000000000000000000000000083
:100D70000000000000000000000000000000000073
:100D80000000E0FF0B0200CCEE666666666666FE5B
:100D9000FC000307060606060603070700FEFE36EC
:100DA0003636363676E6C00007070606060606071C
:100DB000030100FEFE66666666767EECC0000707ED
:100DC00006060606060703010088CC6E66666666A0
:100DD000663C18000103060606060606030300002B
:100DE000FCFE06060606FEFC00000E0F07060606C1
:100DF00006070F0E00F8FC6666666666667C3800BD
:100E000001030606060606060600008EDEF060FEFA
:100E1000FE60F0DE8E0007070000070700000707EE
:100E200000080C0E0666666666FC9800010307065D
:100E300006060606030100FEFE0080C0E07038FED4
:100E4000FE000707070301000000070700FEFE0081
:100E500080C6E67038FEFE000707070301000000A9
:100E6000070700FEFE606070F8DC8E0600000707D2
:100E700000000000010307060000E0F81E06061E41
:100E8000F8E000000707000000000000070700FE70
:100E9000FE1C30E0E0301CFEFE00070700000000F2
:100EA0000000070700FEFE606060606060FEFE00FC
:100EB0000707000000000000070700F8FC0E060608
:100EC00006060EFCF80001030706060606070301E6
:100ED00000FEFE060606060606FEFE0007070000E8
:100EE00000000000070700FEFEC6C6C6C6C6EE7CB0
:100EF00038000707000000000000000000F8FC0EAA
:100F0000060606060E9C980001030706060606075D
:100F100003010006060606FEFE06060606000000A1
:100F20000000070700000000003E7E606060606017
:100F300060FEFE000006060606060607030100F82E
:100F4000FC0C0CFEFE0C0CFCF8000103030307076D
:100F50000303030100060E9CD8F0F0B89C0E0600B7
:100F60000607030100000103070600FEFE00000063
:100F70000000FEFE000007070606060616171F1CE7
:100F8000003E7EE0C0C0C0C0C0FEFE000000000009
:100F900000000000070700FEFE0000F8F80000FE59
:100FA000FE000707060607070606070700FEFE0005
:100FB00000F8F80000FEFE000707060607071616F1
:100FC0001F1F000606FEFE30303030F0E00000004B
:100FD000070706060606070300FEFE303030F0E085
:100FE00000FEFE000707060606070300070700FECF
:100FF000FE303030303070E0C000070706060606CD
:101000000607030100080C0E066666666EFCF80013
:101010000103070606060607030100FEFE60FCFE4C
:10102000060606FEFC000707000307060606070380
:10103000003C7E66E6E6E66666FEFE000406070302
:10104000010000000707304320050000C0F0F8F859
:10105000FCFCFEFEFE7E7E7E7E7E7E7E7E7E7EFEB4
:10106000FEFEFCFCF8F8F0C0000000FFFFFFFFFFF1
:10107000FF07010000000000000000000080C0E049
:10108000703907FFFFFFFFFFFF0000FFFFFFFFFFBB
:10109000FF0000000080C0E070381C0E0703010054
:1010A000000000FFFFFFFFFFFF0000FFFFFFFFFF4B
:1010B000FFE09C0E0703010000000000000000009C
:1010C0000080E0FFFFFFFFFFFF000000030F1F1F76
:1010D0003F3F7F7F7F7E7E7E7E7E7E7E7E7E7E7FAA
:1010E0007F7F3F3F1F1F0F03000000000000000034
:1010F00000000080C0E0F0FEFEFEFEFEFE000000EC
:101100000000000000000000000000000000F0F8F7
:10111000FCFEFFFF7F3F1FFFFFFFFFFFFF00000000
:1011200000000000000000000000000000000000BF
:1011300000000000000000FFFFFFFFFFFF000000B5
:10114000000000000000000000000000000000009F
:1011500000000000000000FFFFFFFFFFFF00000095
:1011600000000000000000000000000000007E7E83
:101170007E7E7E7E7E7E7E7F7F7F7F7F7F7E7E7E89
:101180007E7E7E7E7E7E000000000080E0F0F8F82B
:10119000FCFCFEFE7E7E7E7E7E7E7E7E7E7E7E7E73
:1011A000FEFEFCFCFCF8F0E08000000F0F0F0F0FBC
:1011B0000F0300000000000000000000000000001D
:1011C00080C0E1FFFFFFFFFF3F00000000000000C4
:1011D000000000000000000080C0E0F0F8FCFEFF0E
:1011E0007F3F1F0F07030100000000000000000008
:1011F00080C0E0F0F8FCFEFF7F3F1F0F07030100F7
:10120000000000000000000000000070787C7E7F7D
:101210007F7F7F7F7F7F7F7E7E7E7E7E7E7E7E7EE7
:101220007E7E7E7E7E7E7E7E7E000080E0F0F8F810
:10123000FCFCFE7E7E7E7E7E7E7E7E7E7E7E7E7E52
:101240007EFEFCFCFCF8F0E08000000F0F0F0F0F9B
:101250000F0300000000000000000000000000007C
:101260000000C3FFFFFFFFFF7F0000000000000041
:10127000000000000000003E3E3E3E3E3E3E3E3E40
:101280003E7FFFFFFFF7E3C1000000F0F0F0F0F059
:10129000F0C000000000000000000000000000009E
:1012A0000000C1FFFFFFFFFFFF000001070F1F1F2E
:1012B0003F3F7F7E7E7E7E7E7E7E7E7E7E7E7E7ECB
:1012C0007E7F3F3F3F1F0F0701000000000000002E
:1012D0000000000000000000000080C0E0F0F8FC0A
:1012E000FEFEFE7E3E1E000000000000000000002A
:1012F000000080C0E0F0F8FCFEFFFF7F3F1F0F07FB
:101300000301000000000000000000C0E0F0F8FC55
:10131000FEFFFF7F3F1F0F070301000000000000DA
:10132000FEFEFEFEFEFE00000000007F7F7F7F7F4E
:101330007F7F7E7E7E7E7E7E7E7E7E7E7E7E7E7ECB
:10134000FFFFFFFFFFFF7E7E7E0000000000000029
:10135000000000000000000000000000000000008D
:101360003F3F3F3F3F3F0000000000FEFEFEFEFE0D
:10137000FE7E7E7E7E7E7E7E7E7E7E7E7E7E7E7E0D
:101380007E7E7E7E7E7E7E7E7E0000FFFFFFFFFFF4
:10139000FFC080808080808080808080808080808E
:1013A000808000000000000000000001070F0F1FF8
:1013B0001F1F1F1F1F1F1F1F1F1F1F1F1F1F1F1F3D
:1013C0001F3FFFFFFEFEFCF8E00000F0F0F0F0F041
:1013D000F0C000000000000000000000000000005D
:1013E0000000C0FFFFFFFFFFFF000001070F1F1FEE
:1013F0003F3F7F7E7E7E7E7E7E7E7E7E7E7E7E7E8A
:101400007E7F3F3F1F1F0F070100000080E0F0F8C4
:10141000F8FCFC7E7E7E7E7E7E7E7E7E7E7E7E7E76
:10142000FEFCFCF8F8F0E080000000FEFFFFFFFF8C
:10143000FF010000808080808080808080808080AC
:101440008003030303030303000000FFFFFFFFFF0C
:10145000FFFE3F1F1F1F1F1F1F1F1F1F1F1F1F1FBD
:101460001F3FFFFEFEFCF8F0C00000FFFFFFFFFF84
:10147000FFC00000000000000000000000000000AD
:101480000000C0FFFFFFFFFFFF00000003070F1F6A
:101490001F3F3F7E7E7E7E7E7E7E7E7E7E7E7E7E49
:1014A0007E3F3F1F1F0F07030000007E7E7E7E7E73
:1014B0007E7E7E7E7E7E7E7E7E7E7E7E7E7E7E7E4C
:1014C0007E7EFEFEFEFEFEFEFE000000000000002E
:1014D0000000000000000000000000000000C0F05C
:1014E000FCFFFFFFFF7F1F0701000000000000005E
:1014F00000000000000000000000C0F0FCFFFFFF43
:10150000FF7F1F0701000000000000000000000036
:10151000000000000000C0F0FCFFFFFFFF7F1F077E
:1015200001000000000000000000000000000000BA
:10153000000040707C7F7F7F7F7F1F0701000000DD
:1015400000000000000000000000000080E0F0F853
:10155000F8FCFCFE7E7E7E7E7E7E7E7E7E7E7E7EB5
:10156000FEFCFCF8F8F0E080000000003FFFFFFF09
:10157000FFFFC1800000000000000000000000002C
:1015800080C1FFFFFFFFFF3F000000C0E0F8FDFF4C
:10159000FFFF7F3F3F3F3F3F3F3F3F3F3F3F3F3F9B
:1015A0003F7FFFFFFFFDF8E0C00000FFFFFFFFFFF0
:1015B000FFC100000000000000000000000000006B
:1015C0000000C1FFFFFFFFFFFF000001070F1F1F0B
:1015D0003F3F7F7E7E7E7E7E7E7E7E7E7E7E7E7EA8
:1015E0007E7F3F3F1F1F0F0701000080E0F0F8F8EB
:1015F000FCFCFE7E7E7E7E7E7E7E7E7E7E7E7E7E8F
:101600007EFEFCFCF8F8F0E0800000FFFFFFFFFF2B
:10161000FF030000000000000000000000000000C8
:10162000000003FFFFFFFFFFFF0000071F3F7FFFDA
:10163000FFFFFCF8F8F8F8F8F8F8F8F8F8F8F8F818
:10164000F8FC7FFFFFFFFFFFFF000000C0C0C0C02D
:10165000C0C0C1010101010101010101010101013C
:10166000000080FFFFFFFFFFFF00000001070F1FCA
:101670001F3F3F7F7E7E7E7E7E7E7E7E7E7E7E7E66
:101680007E7F3F3F1F1F0F0701000000000000008A
:10169000000000000000000000000000000000004A
:1016A000000000000000000000000000000000003A
:1016B000000000C0E0E0F0F0F8F8F8F8F8F8F8F80A
:1016C000F8F8F0F0E0E0C0000000000000000000CA
:1016D0000000FFFFFFFFFF07010000000080C0E0E7
:1016E000703907FFFFFFFFFF00000000000000004F
:1016F0000000FFFFFFFFFF8070381C0E0703010092
:10170000000080FFFFFFFFFF000000387C7C7C387A
:101710000000030F1F1F3F3F7E7C7C7C7C7C7C7C19
:101720007C7E3F3F1F1F0F030000000000000000F1
:1017300000000000000000000000000000000000A9
:101740000000000000000000000000000000000099
:10175000000000000000000000000080F8F8F8F829
:10176000F800000000000000000000000000000081
:101770000000000000E0F0F8FC7E3F1FFFFFFFFFCD
:10178000FF0000000000000000000000000000005A
:10179000000000000003030100000000FFFFFFFF46
:1017A000FF00000000000000000000387C7C7C3856
:1017B000000000007C7C7C7C7C7C7C7C7F7F7F7F4D
:1017C0007F7C7C7C7C7C7C7C000000000000000036
:1017D0000000000000000000000000000000000009
:1017E00000000000000000000000000000000000F9
:1017F000000000C0E0E0F0F0F8F8F8F8F8F8F8F8C9
:10180000F8F8F0F0E0E0C000000000000000000088
:1018100000000707070707010000000000000000A4
:1018200080C0E1FFFFFFFF3F00000000000000005C
:10183000000000000000000080C0E0F0F8FCFE7F27
:101840003F1F0F0703010000000000387C7C7C383C
:1018500000006070787C7E7F7F7F7F7F7F7D7C7CD7
:101860007C7C7C7C7C7C7C7C000000000000000098
:101870000000000000000000000000000000000068
:101880000000000000000000000000000000000058
:10189000000000C0E0E0F0F0F8F8F8F8F8F8F8F828
:1018A000F8F0F0E0E0C000000000000000000000E0
:1018B0000000070707070703010000C0C0C0C0E021
:1018C000E1F3FFFF7F3F1F00000000000000000069
:1018D0000000808080808000000000030303030379
:1018E00007070FFFFFFEFCF8000000387C7C7C3807
:1018F0000000030F1F1F3F3F7E7C7C7C7C7C7C7C38
:101900007E3E3F1F1F0F0701000000000000000087
:1019100000000000000000000000000000000000C7
:1019200000000000000000000000000000000000B7
:101930000000000000000000000000000080C0E087
:10194000F0F8F8F87838000000000000000000000F
:10195000000000000080C0E0F0F8FCFE7F3F1F0F99
:1019600007838180808000000000000000000000EC
:101970000000FCFEFFFFFFFFF7F3F1F0F0F0F0F0E6
:10198000F0FFFFFFFFFFF0F0000000387C7C7C38A8
:101990000000010101010101010101010101010139
:1019A000017F7F7F7F7F01010000000000000000B9
:1019B0000000000000000000000000000000000027
:1019C0000000000000000000000000000000000017
:1019D0000000F8F8F8F8F8F8F8F8F8F8F8F8F8F877
:1019E000F8F8F8F8F8F80000000000000000000027
:1019F0000000FFFFFFFFFFE0E0E0E0E0E0E0E0E00C
:101A0000E0C0C08080000000000000000000000076
:101A1000000081838383830303030303030303031E
:101A200007070FFFFFFFFEF8000000387C7C7C38C2
:101A30000000030F1F1F3F3E7C7C7C7C7C7C7C7CF9
:101A40007C3E3F1F1F0F0701000000000000000048
:101A50000000000000000000000000000000000086
:101A60000000000000000000000000000000000076
:101A7000000000C0E0E0F0F0F8F8F8F8F8F8F8F846
:101A8000F8F0F0E0E0C000000000000000000000FE
:101A90000000FFFFFFFFFF83C1E0E0E0E0E0E0E0E7
:101AA000E0C1C383830303000000000000000000C6
:101AB0000000FFFFFFFFFF0F070303030303030300
:101AC00003070FFFFFFFFEF8000000387C7C7C3826
:101AD0000000030F1F1F3F3F7E7C7C7C7C7C7C7C56
:101AE0007C3E3F1F1F0F07010000000000000000A8
:101AF00000000000000000000000000000000000E6
:101B000000000000000000000000000000000000D5
:101B10000000F8F8F8F8F8F8F8F8F8F8F8F8F8F835
:101B2000F8F8F8F8F8F8F8F80000000000000000F5
:101B3000000000000000000000000000000000C0E5
:101B4000F0FCFFFF7F1F0701000000000000000005
:101B50000000000000000000000000C0F0FCFFFFDB
:101B60007F1F070100000000000000387C7C7C38EB
:101B70000000000000000040707C7F7F7F1F070195
:101B80000000000000000000000000000000000055
:101B90000000000000000000000000000000000045
:101BA0000000000000000000000000000000000035
:101BB00000000080E0E0F0F0F8F8F8F8F8F8F8F845
:101BC000F8F0F0E0E0C000000000000000000000BD
:101BD0000000001F3F7FFFFFF3E1C0C0C0C0C0C0D6
:101BE000E1F3FFFF7F3F1F00000000000000000046
:101BF0000000F8FCFEFFFF0F0703030303030303CA
:101C000003070FFFFFFEFCF8000000387C7C7C38E7
:101C10000000030F1F1F3F3F7E7C7C7C7C7C7C7C14
:101C20007C3E3F1F1F0F0701000000000000000066
:101C300000000000000000000000000000000000A4
:101C40000000000000000000000000000000000094
:101C500000000080C0E0E0F0F0F8F8F8F8F8F8F8DC
:101C6000F8F8F0F0E0E0C000000000000000000024
:101C700000007EFFFFFFFFC38100000000000000A6
:101C80000081C3FFFFFFFFFF000000000000000015
:101C9000000000010307070F0F1F1F1F1F1F1F1F3B
:101CA0001F0F0F07FFFFFFFF000000387C7C7C3810
:101CB0000000030F1F1F3F3E7C7C7C7C7C7C7C7C77
:101CC0007C7C3E3F1F1F0F03000000911901002381
:101CD00009F008950FEF009319010091A6010F3F3D
:101CE00041F0003011F00E94580F00E000931901FC
:101CF000089500911C01003039F0013009F10230E3
:101D000089F10330E1F148C000911A01002361F428
:101D10000091C50107FF55C00F770093C501609181
:101D2000290170912A0145C00091C70107FF49C0F0
:101D30000F770093C701609127017091280139C086
:101D400009E20093AA0108E20093A90103E30093CA
:101D5000A8010BE20093A70132C0609127017091A6
:101D6000280127C009E20093AA010CE30093A9010E
:101D70000EE30093A8010EE30093A70120C008E240
:101D80000093AA0108E30093A90108E20093A801C7
:101D900009E20093A70113C00BE30093AA010BE330
:101DA0000093A9010BE30093A8010BE30093A701A3
:101DB00006C0882799270E9421110E948A110E943B
:101DC000E20E93CFFF92FFB6FF921F930F93EF9314
:101DD000FF930E943E1600EC0E947B0F0E94831628
:101DE000E0E9FEE10091AA010E94210F0E947B0F11
:101DF0000E9483160091A9010E94210F0E947B0F6F
:101E00000E9483160091A8010E94210F10911C01CD
:101E1000103009F400680E947B0F0E948316009125
:101E2000A7010E94210F0E947B0F0E9483160E942F
:101E30006816FF91EF910F911F91FF90FFBEFF90E9
:101E40000895EF93FF93003220F0003410F4005215
:101E500001C000E0E00F00E0F01F0491FF91EF915E
:101E600008950E943E160AE80E947B0F0E94831686
:101E70002FD704D700E40E947B0F45D729D70895B8
:101E80003F065B4F666D7D077F6F00805CF97100D8
:101E9000000000000000000077735F3100000000C8
:101EA0003F065B4F666D7D077F6F00805CF97100B8
:101EB0000F9308E8003920F40E94620F0395FACFCF
:101EC0000F910895CF93DF93C2EBD1E00F930058A9
:101ED0001127C00FD11FC00FD11F0981007C003C0A
:101EE0000F9131F40F930E94FC140E9488140F91FB
:101EF000DF91CF9108951F932F9328E00795111F2D
:101F00002A95E1F7012F2F911F9108950E943E1607
:101F10000091A6010E94831600E80E9483160FEA32
:101F20000E9483160E94681608950F931F932F93A3
:101F300010E0202F10939E0120939F010E942110FA
:101F40000E943E160091A6010E94831600E40E94A2
:101F500083161FE700E00E9483161A95D9F70E94A6
:101F600068162F911F910F9108950F931F932F9330
:101F700010E0202F10939E0120939F010E942110BA
:101F80000E943E160091A6010E94831600E40E9462
:101F9000831610E82F91022F0E9483161A95D9F705
:101FA0000E9468161F910F9108950E943E1600919D
:101FB000A6010E9483160F3F09F4000000E00E9472
:101FC000831618E1EAEDFFE105910E9483161A9548
:101FD0001123D1F70E9468160895D580A83FD30039
:101FE000408D14A1C8DA1281FFD922DB30A4A600EB
:101FF00010B0AF000F931F932F930E94D31428E0CB
:1020000014E82A951F9310E010939E0120939F01DE
:102010000E9421101F910E943E160091A6010E946D
:10202000831600E40E94831600E00E9483161A952E
:10203000D9F70E946816222319F72F911F910F914B
:10204000089510919E0120919F0117FD1CC00F93D0
:102050000E943E160091A6010E94831600E00E9495
:102060008316022F0770006B0E948316012F0F70DA
:102070000E948316012F02950F7000610E94831643
:102080000E9468160F9108950F930FB70F93EF9367
:10209000FF93009154010A3020F4039500935401FA
:1020A0001CC00027009354010E94D50F00911C0111
:1020B000003019F4EEEAF6E10EC0013019F4ECEB51
:1020C000F6E109C0023019F4E9ECF6E104C003308E
:1020D00021F4E6EDF6E10E945A14FF91EF910F9181
:1020E0000FBF0F910895FF92FFB6FF92FF920F92DC
:1020F0001F92799C6001689C5001699CFF24B00C80
:10210000C11CDF1C789CFF24B00CC11CDF1C1F907D
:102110000F90FF90FF90FFBEFF900895FF92FFB6D3
:10212000FF92102F0F70107F1295005D0A3308F098
:10213000095F105D1A3308F0195FFF90FFBEFF9032
:1021400008950024112422243324F0E2660C771C25
:10215000881C991C001C111C221C331C0A141B0413
:102160002C043D0428F063940A181B082C083D0831
:10217000FA9561F708950F931F932F933F934F9311
:102180005F936F937F93CC24DD24EE2400E4F02E44
:1021900088249924AA24BB24840195010C291D2993
:1021A0002E293F29B694A7949794879440175107F6
:1021B0006207730740F08C289D28AE28BF28401B7B
:1021C000510B620B730BF694E794D794C794F69473
:1021D000E794D794C7940C2D0D290E290F29E1F609
:1021E0007F916F915F914F913F912F911F910F912F
:1021F0000895FF92FFB6FF920F931F933F934F9363
:1022000030E1CC24BB24AA24FF27000F111FAA1CF5
:10221000BB1CCC1C3A9549F400004F913F911F9193
:102220000F91FF90FFBEFF900895EDE042914D5F4A
:1022300043FD40834081405D47FD4083EA30B1F774
:10224000E4CF4F935F936F937F938F939F93FF930D
:10225000EF9397FD0E94ED1140E2EE24DD24CC24A3
:10226000BB24AA24FF27660F771F881F991FAA1C6B
:10227000BB1CCC1CDD1CEE1C4A9561F0EFE05291BA
:102280005D5F53FD50835081505D57FD5083EA30B0
:10229000B1F7E9CF5A2D5F7050635093A7015A2DC3
:1022A00052955F7050635093A8015B2D5F7050632F
:1022B0005093A9015B2D52955F7050635093AA0112
:1022C0005C2D5F7050635093AB015C2D52955F7035
:1022D00050635093AC015D2D5F7050635093AD011E
:1022E0005D2D52955F7050635093AE015E2D5F700F
:1022F00050635093AF015E2D52955F7050635093C1
:10230000B001EF91FF919F918F917F916F915F91BC
:102310004F9108950F931F932F93222710E300915D
:10232000B001011719F400E2239501C010E20093F7
:10233000B0010091AF01011719F400E2239501C02B
:1023400010E20093AF010091AE01011719F423953B
:1023500000E201C010E20093AE010091AD0101174F
:1023600019F4239500E201C010E20093AD01009141
:10237000AC01011719F4239500E201C010E20093AB
:10238000AC010091AB01011719F4239500E201C0E3
:1023900010E20093AB010091AA01011719F42395F3
:1023A00000E201C010E20093AA010091A901011707
:1023B00019F4239500E201C010E20093A9010091F5
:1023C000A8010093A8010091A7010093A701209301
:1023D000B1012F911F910F9108956095709580958F
:1023E00090956F5F7F4F8F4F9F4F0895FF92FFB67D
:1023F000FF92EF93FF936F927F928F929F92AF9293
:10240000BF92CF92DF925E9B05C0AA24BB24CC244E
:10241000DD2407C0609078007090790043010E942D
:10242000731060901D0170901E0180901F019090AC
:1024300020016A0C7B1C8C1C9D1C60921D017092FB
:102440001E0180921F0190922001E0912101F091E4
:1024500022013196E0932101F0932201DF90CF9089
:10246000BF90AF909F908F907F906F90FF91EF9172
:10247000FF90FFBEFF901895FF92FFB6FF920F935B
:102480001F932F933F9300E000931D005E9A0091ED
:1024900081000F93087F0093810020918400309188
:1024A00085000027009385000093840010910F01A0
:1024B00000910E0110938900009388001091110182
:1024C0000091100110938B0000938A0001E003BD7E
:1024D0000F91009381004F93FF93EF93DF93CF937E
:1024E0000F921F922F923F924F925F926F927F9224
:1024F0008F929F92AF92BF92CF92DF92EF92FF9214
:102500000091690003700230B1F0033029F00BE054
:10251000009369000C948D130DEE00937A000091E6
:1025200069000C7F026000936900209312013093D0
:1025300013010C948D130DE600937A00009169004D
:102540000C7F036000936900209314013093150100
:1025500060901D0170901E0180901F0190902001DD
:10256000A0902101B0902201660C771C881C991C58
:10257000660C771C881C991CCC24DD240E94A110B9
:10258000660C771C881C991C660C771C881C991C8F
:10259000A301B4016092230170922401809225016D
:1025A000909226010E94BB1080922B0190922C01E8
:1025B000002700931D0100931E0100931F0100934B
:1025C00020010093210100932201F1E0EBE4EF01EF
:1025D0000027802E202E302E7A906A900FE0002364
:1025E00059F00A951A900A90600C711C821C931C79
:1025F000129202920C94EF12E0E1F0E05F01CC2421
:10260000DD240E94A11060922701709228010091A0
:102610001C01003009F427C0013009F407C0023062
:1026200009F418C0033009F415C077C02D985F9ADB
:1026300000E000931B01E0910E01F0910F01C4EF47
:10264000D1E0EC1BFD0B09F018F4EE27FF273196C3
:102650004F0139C02D9A5F9A00E000931B0100E5FD
:1026600016E4480130C02D9A60902B0170902C0127
:102670008090290190902A0168187908889477FC45
:1026800008947794679480900E0190900F01860CC7
:10269000971C97FE0BC001E010E0480110911A0151
:1026A0000FEF00931A0101130EC00DC000E516E4F0
:1026B0008016910608F0480100911A01002319F0D4
:1026C000002700931A0180920E0190920F01E09171
:1026D0002701F091280133960091290110912A01D8
:1026E000E01BF10B07E010E0E017F10700911B0180
:1026F0000F7040F05F9A0F3009F00CC000E80093B3
:102700001B0108C05F98003009F004C00FE8009377
:102710001B0100C008E80E94E814FF90EF90DF90D2
:10272000CF90BF90AF909F908F907F906F905F9071
:102730004F903F902F901F900F90CF91DF91EF918E
:10274000FF914F913F912F911F910F91FF90FFBEED
:10275000FF9018955E9818955E9A0F9301E000938C
:102760001C0001E000931D000F9118955E9A0F93D5
:1027700001E000931C0001E000931D000F911895EB
:10278000FF92FFB6FF920F931F932F933F934F93A8
:102790000F921F92FF93EF9300939D01F198F09891
:1027A0000F930091A40110E0E0ECFBE0E00FF11FBB
:1027B000E00FF11F05911591000F111F0093A20169
:1027C0001093A301F8010F91159125913591459131
:1027D000003249F0003031F0011718F0021721F0F3
:1027E00018F05BC0F09AF19A003810F0003CC8F382
:1027F0000F93011B349F009DE00DF11D00919E0180
:102800000093A00100919F010093A1010F910E324E
:1028100041F400243695301D3695301D301D209131
:102820009D014F930E943E160091A6010E948316BF
:1028300000E40E9483163F9300919E01003868F4E3
:10284000039500939E0100E0F19B05910E94831681
:102850003A95F0993A9581F702C00591F9CF3F91E9
:102860000E9468164A9579F00091A00100939E019C
:102870000091A1010395077000939F010093A101AE
:102880000E942110CFCF4F9100919F01041B03950F
:10289000077000939F010E942110EF91FF911F90FC
:1028A0000F904F913F912F911F910F91FF90FFBE7D
:1028B000FF900895FF92FFB6FF920F931F93AF937F
:1028C000BF93CF93DF93EE0FFF1F00270093A50167
:1028D0000091A501003808F011C0039500936D1414
:1028E0000591003809F40AC0003828F0003C18F4BB
:1028F0000E948814EDCF0E94C013EACFDF91CF91E0
:10290000BF91AF911F910F91FF90FFBEFF9008956F
:10291000DF01ECECFBE2C2EBD1E00F93005810E0DA
:10292000E00FF11FE00FF11FC00FD11FC00FD11F2B
:1029300005911491F80100919E01088310919F0167
:1029400017700091A40102950073102B10641F777B
:1029500019830F910995FD010895CF93DF930F938C
:102960001F9300581127C2EBD1E0C00FD11FC00F39
:10297000D11F09810F7B09831F910F91DF91CF91A7
:102980000895CF93DF930F9300581127C2EBD1E046
:10299000C00FD11FC00FD11F0981006409830F919F
:1029A000DF91CF910895CF93DF930F931F93C2EBE5
:1029B000D1E000E4002339F00A9519811F7B1F77CD
:1029C00019832296F7CF1F910F91DF91CF91089530
:1029D000CF93DF930F931F93C2EBD1E000581127E1
:1029E000C00FD11FC00FD11F1981106819831F910B
:1029F0000F91DF91CF9108950F931F93CF93DF93A2
:102A0000C2EBD1E000581127C00FD11FC00FD11F5A
:102A10000881198100939E0110939F011F77106414
:102A20001983129513701093A4010E942110DF9155
:102A3000CF911F910F9108950895FD0105910370A5
:102A40000093A401DF010895FD012F933F93159199
:102A50002591359105910F9320939E0110939F012D
:102A60000E9421100E943E160091A6010E9483162A
:102A700000E40E9483160F91231739F030F40F936E
:102A80000E9483160F912395F7CF0E9468163F91FD
:102A90002F91DF010895FD010591003808F00FE73F
:102AA00000939E010591077000939F01DF010E9432
:102AB00021100895FD0100919E011591010F00382C
:102AC00008F00FE700939E0100919F011591010FFF
:102AD000077000939F01DF010E9421100895CF939A
:102AE000DF930F931F93FD010591DF01003CC0F4BC
:102AF0000A38B0F000581127C2EBD1E0C00FD11F47
:102B0000C00FD11F00919E01088310919F01177083
:102B10000091A40102950073102B1F7B1F7719836E
:102B20001F910F91DF91CF91089500911C0100300A
:102B300091F400911B010F70003039F00CE20E94FB
:102B4000C0130DE20E94C01306C00AE20E94C01327
:102B50000BE20E94C0130895C9E2D1E003C0C7E2AE
:102B6000D1E000C0FF92FFB6FF92F89468817981AE
:102B7000FF90FFBEFF9085EC99E06817790708F099
:102B800024C0882799270E9421110E948A11009150
:102B9000AA010E94C0130091A9010E94C0130091D4
:102BA000A8010E94C0130091A401013031F40091EA
:102BB000A701065F0E94C01308C00EE20E94C01366
:102BC0000091A7010E94C01300C008951C151D1597
:102BD00024154B155A156F151C151C159515AC159C
:102BE000AF151C151C151C151C151C151C151C15CA
:102BF0001C151C151C151C151C151C151C151C154D
:102C00001C151C151C151C151C151C151C151C153C
:102C10001C151C151C151C151C151C151C151C152C
:102C20001C151C151C151C151C151C151C151C151C
:102C30001C151C151C151C151C151C151C151C150C
:102C40001C151C151C151C151C151C152098289AE4
:102C500023B120FFFDCF08952898209A0895219848
:102C6000299A08952998219A08952F930E942F1642
:102C70000E9426160E9468162F9108952F930E9495
:102C8000321624E02150F0F700000E942C1624E0B8
:102C90002150F0F700002F9108952F930E942F16D6
:102CA00024E02150F0F700000E94261624E0215075
:102CB000F0F700000E94321624E02150F0F70000E7
:102CC0000E942C1624E02150F0F700002F91089567
:102CD0002F930E942C1624E02150F0F700000E9450
:102CE000321624E02150F0F700000E94261624E05E
:102CF0002150F0F700000E942F1624E02150F0F739
:102D000000002F9108951F932F9318E0001F18F4CF
:102D10000E942F1602C00E94321624E02150F0F7C4
:102D200000000E94261624E02150F0F700000E94C7
:102D30002C161A9559F70E942F1624E02150F0F70F
:102D400000000E94261624E02150F0F7000013B185
:102D500011FB0E942C162F911F9108958102830070
:102D600000E2FBF5EEE42020810083680088810109
:102D7000830003858A8980008102830000F0E0E7F8
:102D8000E3EEED2081008351008981018300038AF5
:102D900080008102830000F1F2EEEF20202081000C
:102DA0008351008981018300038A800081028300AE
:102DB0000120E2FBEAEBFEF7E5EDEE2083000320C5
:102DC000E0E2E0F0E8E9EDFBEC2083050520F1E826
:102DD000E3EDE0EBEEEC2080FF92FFB6FF920F9365
:102DE0001F932F9300910201013009F407C00230B4
:102DF00009F414C0033009F426C04AC0009103014D
:102E0000033010F009F044C010911C01133009F494
:102E10003FC000931C010E9463023AC0009103016D
:102E20001091040117FD34C024EC021729E01207A9
:102E300011F008F02DC00093290110932A0109E830
:102E40000E94E81425C0009103011091040117FDB0
:102E50000FC024EC021729E0120711F008F008C097
:102E60000093290110932A0109E80E94E81410C078
:102E700000910501033010F009F00AC010911C0107
:102E8000133009F405C000931C010E94630200C0C6
:102E90002F911F910F91FF90FFBEFF900895FF9219
:102EA000FFB6FF920F931F93EF93FF93EEEDFEE2B9
:102EB0000091B900087F0695069506951127E00F49
:102EC000F11FE00FF11F05911491F8010995FF9191
:102ED000EF911F910F91FF90FFBEFF9018958F17F4
:102EE00006180618061806180618061806180618F2
:102EF0000618061806189317061806180618A017BD
:102F0000B71706180618CD17D6170618EB170218AC
:102F1000021806180618061806180618061805EDF1
:102F20000093BC00089500E00093020100910300AB
:102F3000013011F405E801C005EC0093BC000895D0
:102F4000002710910201E3E0F1E0E10FF01F009192
:102F5000BB00008313951093020103E00A9510173C
:102F600011F405E801C005EC0093BC0008950027AA
:102F700010910201E3E0F1E0E10FF01F0091BB00CE
:102F8000008313951093020105EC0093BC0000919F
:102F90005901026000935901089505EC0093BC00AB
:102FA00000915901026000935901089510E01093B7
:102FB0000201E6E0F1E00027E10FF01F008100933D
:102FC000BB0000910500013011F405E801C005ECDB
:102FD0000093BC00089500271091020113951093EF
:102FE0000201E6E0F1E0E10FF01F00810093BB0079
:102FF00005E00A95101711F405E801C005EC0093EF
:0E300000BC00089505EC0093BC0008950895EF
:00000001FF
