:020000020000FC
:0A0000000C9433000C94AF12189515
:02000C00189545
:02001000189541
:0200140018953D
:02001800189539
:02001C00189535
:02002000189531
:0200240018952D
:02002800189529
:10002C000C9487020C9489020C9490020C94990203
:02003C00189515
:02004000189511
:0200440018950D
:100048000C94D5030C9494040C9493040C946912A6
:020058001895F9
:02005C001895F5
:100060000C94A817189500916000086110E20093A5
:1000700060001093600005B70160102F0D7F15BF61
:1000800005BF04B710E014BF00FD0C94510001FD42
:100090000C945A0002FD0C945A0003FD0C945A0073
:1000A0000000E0E0F1E000270193F530E9F7E030EF
:1000B000D9F70293E0E0F5E0EDBFFEBFEEE1FF27E8
:1000C000EA95F083E9F700E007B90FE308B902EC1D
:1000D0000AB90AEF0BB90BE204B90CEF05B903E05A
:1000E00000936C0000E0009368000CE00093B800FF
:1000F00002E30093BA0005E40093BC0007E6009316
:10010000C40000E00093C50008ED0093C10006E0C4
:100110000093C20002E00093B00003E00093B1003E
:100120000CE70093B30000E000937000B6E4A0E594
:10013000A0930D01B0930E01B0938900A0938800A5
:10014000B6E4A0E5A0930F01B0931001B0938B002B
:10015000A0938A0000E00093800007E000936F0006
:1001600002E00093810009EF07BD08BD02E004BD75
:1001700003E000936E0003E005BD0AE00093690010
:1001800001E00DBB00E000937B0007E000937C00E2
:100190000DEE00937A00CAEFD0E00E942D010E947C
:1001A0008D160E94A40F26F00FEF0093A7012CC01C
:1001B0000E948D160E9496160AE70E94DB160E9486
:1001C000C01626F00AE70093A70112C00E948D1600
:1001D0000E94961608E70E94DB160E94C01626F0C1
:1001E00008E70093A70104C000E00093A7010CC03A
:1001F0000E9448100E946D100E94F90FCBE2D1E0DE
:10020000C0932D01D0932E0109B105FD0C940C0172
:10021000B4E0A0EB0C940E01AA27BB27A0932B01FE
:10022000B0932C0109E80E945015B0E0A5E0A0931E
:100230001901B0931A010091A7010F3F21F0E6E0E8
:10024000F7E10E94C21478940E94C50309E80E9455
:1002500050150C943801C8EED3E0EF93FF93E0E41F
:10026000FFE13197F1F72197D1F7FF91EF910895D1
:1002700000915B0100FF07C00E7F00935B010F93AD
:100280000E9427040F9101FF07C00D7F00935B01BF
:100290000F930E9445170F9103FF09C0077F00933A
:1002A0005B010F930E94C5030E94DF010F9104FFC1
:1002B00009C00F7E00935B010F930E94C5030E944B
:1002C00005020F9105FF23C00F7D00935B010F9383
:1002D00000911801003059F0CF93DF93C2E3D0E0D2
:1002E000C0931901D0931A01DF91CF910AC0CF9327
:1002F000DF93C5E0D0E0C0931901D0931A01DF91DC
:10030000CF9102E0009318010E9412050F9106FFA1
:1003100023C00F7B00935B010F9300911801003005
:1003200059F0CF93DF93C2E3D0E0C0931901D0938B
:100330001A01DF91CF910AC0CF93DF93C5E0D0E0DF
:10034000C0931901D0931A01DF91CF9102E000937D
:1003500018010E9455050F9100915C0100FF08C033
:100360000E7F00935C010F930E94B7100F9125C080
:1003700001FF0AC00D7F00935C010F930E942402CD
:100380000E94E7050F9119C002FF0DC00B7F00937B
:100390005C010F9300911801003009F00A95009359
:1003A00018010F910AC003FF08C0077F00935C018A
:1003B0000F930E9473030F9100C00C943801FF92B9
:1003C000FFB6FF920F9300911E01003021F402E06E
:1003D0000E94D20215C0013039F400E00E94D2021E
:1003E00009E80E9450150CC0023039F400E00E9468
:1003F000D20209E80E94501503C0033009F400C07E
:100400000F91FF90FFBEFF900895FF92FFB6FF92FD
:100410000F9300911E01003021F401E00E94D202EE
:100420000EC0023019F401E00E94D202033039F408
:1004300000E00E94D20209E80E94501500C00F910E
:10044000FF90FFBEFF9008950F931F930E94AE038D
:100450000F930E94D80E0F9100914F01039512E067
:10046000011338C00F9300912B01009306010091F6
:100470002C010093070100912901009308010091CC
:100480002A010093090100911E010F7010911D01B6
:100490001071012B10911C011072012B00930A01A5
:1004A0000AE80E94501500911E01002389F4009172
:1004B0001C01002339F009E80E9415150AE80E9482
:1004C000291506C009E80E9429150AE80E94151599
:1004D0000F91002700934F0100915001039513E005
:1004E000011303C00F930F91002700935001009157
:1004F0005101039514E0011305C00F930E94B90444
:100500000F910027009351011F910F9108955E985C
:1005100018955E9A0F9301E000931D000F911895B6
:100520005E9A0F9300911D00016000931D000F91D2
:1005300018950F930FB70F931F9310915C010091C3
:100540005701093029F0039500935701186021C025
:1005500000270093570100915801093029F00395B5
:1005600000935801146015C00027009358010091B2
:100570005901093029F0039500935901126009C00F
:1005800000270093590100915A01039500935A01E5
:10059000116010935C010E9447031F910F910FBFE0
:1005A0000F9118950F93002700931C01009356019B
:1005B0000F91003009F40AC0013009F41FC0023065
:1005C00009F434C0033009F449C060C000931E012F
:1005D000CBE2D1E0C0932D01D0932E012D9A009152
:1005E000A701002351F00F3F41F00E9448100E94E4
:1005F0006D10E6E0F7E10E94C21448C000931E01AE
:10060000C9E2D1E0C0932D01D0932E012D98009125
:10061000A701002351F00F3F41F00E9448100E94B3
:100620006D10E5E1F7E10E94C21430C000931E0195
:10063000C9E2D1E0C0932D01D0932E012D9A0091F3
:10064000A701002351F00F3F41F00E9448100E9483
:100650006D10E4E2F7E10E94C21418C000931E017D
:10066000C9E2D1E0C0932D01D0932E012D9A0091C3
:10067000A701002351F00F3F41F00E9448100E9453
:100680006D10E2E3F7E10E94C21400C008952F93B9
:1006900000915B0105FD25C006FD23C0002719B1AF
:1006A00013FF016014FF0260109100010117C9F0EF
:1006B00020910101133089F4021779F0023039F4E6
:1006C00000915B010F7D006400935B0106C0009107
:1006D0005B0100620F7B00935B01109301010093AB
:1006E00000012F91089509B100721FEF012705FB4A
:1006F000ABE0B1E0CCE0D1E00E948F030E949D030B
:1007000010915B0100910C01007E003A11F4106120
:1007100003C0003409F4186010935B0108950C9134
:100720001FE22EF01A95011731F0039504C01195C0
:10073000011709F00A950C930895188117FB0C9185
:10074000002342F056F416FD03C01F77106404C066
:10075000112702C016F010E818830895CCE0D1E00C
:1007600021E0199117FB76F416FB66F0012F0F714B
:100770000F3141F00395107E102B0A3008F0106203
:100780001A9319912A9569F708950F931F93CF93A0
:10079000DF93CCE0D1E011E00FEF09931A95E9F770
:1007A000DF91CF911F910F910895FF92FFB6FF92B5
:1007B000EF93FF931F930F9300915B0100FD3FC0E8
:1007C000EDE5F1E00091C6000D3009F431C00734C9
:1007D00008F40CC00A3558F051F0013608F42FC067
:1007E0000A3710F009F02BC00052F1CF06C000C04C
:1007F0000083002700939D0122C0003350F009338D
:1008000048F041F0013428F0063420F019F000528D
:10081000F9CF15C010919D0113951F3010F009F00C
:100820000EC010939D01E10F10E0F11F008307C07F
:1008300000915B01016000935B010E9427040F910E
:100840001F91FF91EF91FF90FFBEFF901895FF92CF
:10085000FFB6FF92EF93FF930F931F932F93EDE556
:10086000F1E010919D010191033509F407C00D34A9
:1008700009F433C0043509F443C044C022271430BE
:10088000E9F3133051F0123071F03CC001910E9435
:10089000FB0410F10295007F202F01910E94FB04C0
:1008A000D8F00F70202B01910E94FB04A8F0029554
:1008B000007F102F01910E94FB0470F00F70102B2D
:1008C00005EC101709E0200738F420932C01109351
:1008D0002B0109E80E94501515C0113009F012C013
:1008E00000911E01033059F001910E94FB0438F081
:1008F000033008F007C000931E010E94D20202C01C
:10090000000000C0002700939D0100915B010E7F55
:1009100000935B012F911F910F91FF91EF91FF9039
:10092000FFBEFF9008951895FF92FFB6FF92EF93D8
:10093000FF931F930F93EDE7F1E000919E0110E00C
:10094000E00FF11F03950F71003079F000939E01C5
:100950000191003051F00093C6000F911F91FF915B
:10096000EF91FF90FFBEFF90189508ED0093C10036
:10097000F4CFFF92FFB6FF92AF93BF93CF93DF9375
:10098000EF93FF930F931F93ADE7B1E004E50D9351
:10099000C9E2D1E009810E9401110D9308810E94F2
:1009A00001111D930D93CBE2D1E009810E94011149
:1009B0000D9308810E9401111D930D93CEE1D1E0AA
:1009C00008810E9401110D930DE00D930AE00D9333
:1009D00000E00D9300939E0108EF0093C1001F916A
:1009E0000F91FF91EF91DF91CF91BF91AF91FF9068
:1009F000FFBEFF900895003398F00A3318F40053B7
:100A000088940FC0013460F0073418F407538894B9
:100A100008C0013628F0073618F40755889401C03D
:100A200008940895FF92FFB6FF920F931F932F93A0
:100A30003F9300911E011091A7011F3F19F0103044
:100A400029F002C0003011F4033009F426C00091EF
:100A50001C010F3F09F421C000912B0110912C01C2
:100A60002091190130911A01020F131F0E94D40521
:100A700020E931E00217130710F4890107C024ECC4
:100A800039E00217130710F009F0890100932B01D8
:100A900010932C0109E80E9450153F912F911F914E
:100AA0000F91FF90FFBEFF900895FF92FFB6FF9257
:100AB0006F927F928F929F92AF92BF92CF92DF926E
:100AC0000F931F932F933F9300911E011091A70145
:100AD0001F3F19F0103029F002C0003011F403302C
:100AE00009F452C0E0911C01EF3F91F500911E0105
:100AF000003071F58090190190901A01880C991CB2
:100B0000880C991C880C991C880C991C60902F01EA
:100B1000709030016818790888249924A0901901F0
:100B2000B0901A01CC24DD240E9414118090190188
:100B300090901A010E94E610850128E833E1209385
:100B40000D0130930E012091190130911A0108C056
:100B500000912B0110912C012091190130911A0163
:100B6000021B130B0E94D40520E931E00217130782
:100B700017FD01C010F40027112700932B011093DB
:100B80002C0109E80E9450153F912F911F910F9160
:100B9000DF90CF90BF90AF909F908F907F906F909D
:100BA000FF90FFBEFF900895380188249924A090FB
:100BB0001901B0901A01CC24DD240E9414118090F8
:100BC000190190901A010E94E610850108950F9373
:100BD0000FB70F931F932F9306B11FEF01271091AB
:100BE000530100935301102720911E01233021F05F
:100BF0000E9402060E9420062F911F910F910FBFA5
:100C00000F9108950F931F9310FD14C0109154017C
:100C100017FF04C01127109354010FC0103069F062
:100C20001A951093540149F400FF07C003E00E9495
:100C3000D20203C014E1109354011F910F91089543
:100C40000F931F9311FD1EC01091550117FF04C093
:100C500011271093550119C01030B9F01A9510934F
:100C6000550199F410911E0101FD06C0113069F47F
:100C700000E00E94D20209C0113039F001E00E9468
:100C8000D20203C014E0109355011F910F910895F3
:100C9000FF92FFB6FF920F931F9300911E01033046
:100CA00009F437C006B1037000FF21C010E01093B3
:100CB000A90101FD03C001FF0FC02BC000911E015F
:100CC000013049F40091AA01003829F400E00093B2
:100CD000AA010E94D2021DC000911E01003031F411
:100CE00001E00E94D20200E80093AA0112C0109114
:100CF0001E01133011F400E005C00091A9010A3073
:100D000020F403950093A90104C003E00E94D202DD
:100D100000C01F910F91FF90FFBEFF9008959206B3
:100D2000460824072A3909020000000000000000DC
:100D300000000C1C1818383830300000000000008B
:100D40000000003030383818181C0C0000C07098B3
:100D5000ECF4F6FA1A00030E19372F6F5F581AFADF
:100D6000F6F4EC9870C000585F6F2F37190E03002F
:100D700000000000000000606000000000606000F3
:100D80000000000000000000000000000000000063
:100D90000000000000E0F81C06061CF8E000071F39
:100DA000386060381F0700101818FEFE00000000B1
:100DB0006060607F7F60606000181C0E06060EFC9D
:100DC000F8006070787C6E676361000606C6E6F620
:100DD000DE8E06001838706060713F1F000000C092
:100DE000F03E0E8080000C0F0F0C0C0C7F7F00FE7D
:100DF000FEC6C6C6C68606001838706060713F1F02
:100E000000F8FCCEC6C6CE8C08001F3F7160607132
:100E10003F1F0006060686E6FE3E0E0060783E0F87
:100E2000030000000078FCCE8686CEFC78001E3FD2
:100E3000736161733F1E00F8FC8E06068EFCF8009D
:100E40001031736363733F1FC0DF09020080F07CC1
:100E50000E0E7CF080007F7F0C0C0C0C7F7F00FE60
:100E6000FEC6C6C6868600007F7F606060713F1F39
:100E700000FEFE8686CEFC3800007F7F61616173D4
:100E80003F1E00FEFE060606060600007F7F0000ED
:100E9000000000000000FCFE0606FEFC0000E0FF73
:100EA0007F60607FFFE000FEFE8686868606060085
:100EB0007F7F616161616060007EFE80FEFE80FE7A
:100EC0007E007E7F017F7F017F7E00181C0E86865C
:100ED000CEFC38001838706161733F1E00FEFE00C2
:100EE0000080C0FEFE007F7F381E07017F7F00FE6E
:100EF000FE000E8EC0FEFE007F7F381E07017F7F42
:100F000000FEFE80E0F81E0600007F7F0101071E44
:100F10007860000080F07E7EF0800000787F07001F
:100F200000077F7800FEFEF08080F0FEFE007F7FED
:100F3000010F0F017F7F00FEFE80808080FEFE009B
:100F40007F7F010101017F7F00F8FC0E06060EFC89
:100F5000F8001F3F706060703F1F00FEFE0606062F
:100F600006FEFE007F7F000000007F7F00FEFE0681
:100F700006060EFCF8007F7F06060607030100F850
:100F8000FC0E06060E1C18001F3F706060703818BB
:100F900000060606FEFE060606000000007F7F0033
:100FA000000000FEFE80000000FEFE0000616363A2
:100FB00063733F1F00F0FC0CFEFE0CFCF000071FEB
:100FC000187F7F181F07000E3E70C0C0703E0E00D5
:100FD000707C0E03030E7C7000FEFE000000FEFE1F
:100FE00000007F7F6060607FFFC000FEFE000000A9
:100FF00000FEFE000103070606067F7F00FEFE00DE
:10100000FEFE00FEFE007F7F607F7F607F7F00FE30
:10101000FE00FEFE00FEFE007F7F607F7F60FFFF20
:10102000000606FEFEC0C080000000007F7F6071E9
:101030003F1F00FEFEC0C08000FEFE007F7F607F7D
:101040003F007F7F00FEFEC0C0C0808000007F7F29
:10105000606060713F1F00181C0E86868EFCF800D1
:101060001838706161713F1F00FEFE80FCFE06FEB5
:10107000FC007F7F013F7F607F3F00F8FC8E06060B
:1010800006FEFE006071391F0F037F7F304320058D
:10109000000000000080C0E0F0F0F8F8F8FCFCFC74
:1010A000FCFCFCF8F8F8F0F0E0C080000000000064
:1010B0000000C0F8FEFFFFFFFF3F0F070303010121
:1010C00001010303070F3FFFFFFFFFFEF8C0000011
:1010D0000000FFFFFFFFFFFFFF0000000000000017
:1010E00000000000000000FFFFFFFFFFFFFF000007
:1010F0000000031F7FFFFFFFFFFCF0E0C0C0808007
:101100008080C0C0E0F0FCFFFFFFFF7F1F030000F6
:1011100000000000000103070F0F1F1F1F3F3F3F8C
:101120003F3F3F1F1F1F0F0F07030100000000007C
:101130000000000000000000000000000080FCFC37
:10114000FCFCFCFCFC0000000000000000000000B3
:1011500000000000000000E0F0F8FCFEFF7FFFFF51
:10116000FFFFFFFFFF000000000000000000000084
:10117000000000000000000F0F0703010000FFFF48
:10118000FFFFFFFFFF000000000000000000000064
:101190000000000000000000000000000000FFFF51
:1011A000FFFFFFFFFF000000000000000000000044
:1011B000000000000000003F3F3F3F3F3F3F3F3FF8
:1011C0003F3F3F3F3F3F3F3F3F3F3F3F000000002B
:1011D0000000000080C0E0F0F0F8F8FCFCFCFCFC33
:1011E000FCFCFCFCFCF8F8F0F0E0C0800000000023
:1011F0000000383E3F3F3F3F3F1F0703030101010F
:101200000101010303079FFFFFFFFFFFFEF800003E
:10121000000000000000000000000000000000804E
:10122000C0E0F0F8FCFEFFFF7F3F1F0F070100004A
:101230000000000000000080C0E0F0F8FCFEFFFFAE
:101240007F3F1F0F070301000000000000000000A7
:10125000000030383C3E3F3F3F3F3F3F3F3F3F3F36
:101260003F3F3F3F3F3F3F3F3F3F3F3F3F3F00000C
:1012700000000000FCFCFCFCFCFCFCFCFCFCFCFC9E
:10128000FCFCFCFCFCFCFCFCFCFCFCFC000000008E
:10129000000000000000000000000000000080C00E
:1012A000E0F0F8FCFE7F3F1F0F0703010000000085
:1012B00000000000000000000000001F1F1F1F1F93
:1012C0001F1F1F3F3F7FFFFEFEFCF8F0C000000025
:1012D00000000078F8F8F8F8F8F0C080800000000E
:1012E0000000008080C0F1FFFFFFFFFF7F1F0000B4
:1012F000000000000103070F0F1F1F3F3F3F3F3F4C
:101300003F3F3F3F3F1F1F0F0F070301000000003B
:101310000000000000000000000000000080E0F875
:10132000FCFCFCFC7C1C0000000000000000000035
:1013300000000000000000000080E0F8FEFFFFFF5A
:101340007F1F0701000000000000000000000000F7
:10135000000000000080E0F8FEFFFFFF7F1F070194
:1013600000000000FEFEFEFEFEFEFE00000000008B
:10137000000060787E7F7F7F7F7F7F7F7E7E7E7EA6
:101380007E7E7E7EFFFFFFFFFFFFFF7E7E7E0000F2
:10139000000000000000000000000000000000004D
:1013A000000000003F3F3F3F3F3F3F000000000084
:1013B000000000FCFCFCFCFCFCFCFCFCFCFCFCFC61
:1013C000FCFCFCFCFCFCFCFCFCFCFCFCFC00000051
:1013D000000000FFFFFFFFFFFFFFE0C0C0C0C0C074
:1013E000C0C0C0C0C080800000000000000000003D
:1013F0000000000103070F0F0F0F0F0F0F0F0F0F4C
:101400000F0F1F1F1F3FFFFFFFFEFCF8E0800000D3
:1014100000000078F8F8F8F8F8F8F0C080800000D4
:101420000000008080C0F0FFFFFFFFFF7F1F000073
:10143000000000000103070F0F1F1F3F3F3F3F3F0A
:101440003F3F3F3F3F1F1F0F0F07030100000000FA
:1014500000000000000000000080E0F8FCFCFCFC44
:10146000FC7C1C04000000000000000000000000E4
:10147000000000000080E0F8FEFFFFFFFFFFDFC775
:10148000C1C0C0C0C080800000000000000000009B
:101490000000E0F8FEFFFFFFFFFF3F1F1F0F0F0FD1
:1014A0000F0F0F1F1F3FFFFFFFFEFCF8E080000043
:1014B00000001F7FFFFFFFFFFFF0C08080000000E3
:1014C0000000008080C0F0FFFFFFFFFF7F1F0000D3
:1014D000000000000103070F0F1F1F3F3F3F3F3F6A
:1014E0003F3F3F3F3F1F1F0F0F070301000000005A
:1014F0000000FCFCFCFCFCFCFCFCFCFCFCFCFCFC24
:10150000FCFCFCFCFCFCFCFCFCFCFCFCFCFC000013
:1015100000000000000000000000000000000000CB
:1015200000000080E0F8FEFFFFFFFF3F0F03000018
:10153000000000000000000000000000000000802B
:10154000E0F8FEFFFFFFFF3F0F0300000000000078
:10155000000000000000000000000080E0F8FEFF36
:10156000FFFFFF3F0F03000000000000000000002D
:10157000000000000000000020383E3F3F3F3F3F9A
:101580000F03000000000000000000000000000049
:101590000000000000C0E0F0F0F8F8FCFCFC7C7CEF
:1015A0007C7CFCFCFCF8F8F0F0E0C00000000000DF
:1015B000000000003FFFFFFFFFFFC38100000000AD
:1015C0000000000081C3FFFFFFFFFF3F000000009D
:1015D000000000C0E0F0F9FFFFFF7F3F3F3F1E1E0D
:1015E0001E1E3F3F3F7FFFFFFFF9F0E0C0000000FD
:1015F00000001F7FFFFFFFFFFFE1800000000000F1
:10160000000000000080E1FFFFFFFFFF7F1F0000E0
:10161000000000000103070F0F1F1F3F3F3F3E3E2A
:101620003E3E3F3F3F1F1F0F0F070301000000001A
:101630000000000080C0E0F0F0F8F8FCFCFCFCFCCE
:10164000FCFCFCFCFCF8F8F0F0E0C08000000000BE
:101650000000F8FEFFFFFFFFFF070301010000008D
:1016600000000001010307FFFFFFFFFFFEF800007D
:10167000000001071F3F7FFFFFFEFCF8F8F0F0F0CD
:10168000F0F0F0F8F8FCFEFFFFFFFF7F1F070000FF
:1016900000000000000000000001010303030383B9
:1016A000E3FBFFFFFFFFFF7F1F07010000000000BB
:1016B00000000000000000000000000020383E3F55
:1016C0003F3F3F3F1F0701000000000000000000F7
:1016D000000000000000000000000000000000000A
:1016E00000000000000000000000000000000000FA
:1016F000000000000000000000000080E0F0F0F8B2
:10170000F8FCFC7C7CFCFCF8F8F0F0E080000000C9
:1017100000000000000000000000FEFFFFFFFF07C8
:10172000010000000000000107FFFFFFFFFE0000B6
:10173000000000000000000000007FFFFFFFFFE04E
:101740008000000000000080E0FFFFFFFF7F00003E
:10175000001C3E3E3E1C000000000001070F0F1F52
:101760001F3F3F3E3E3F3F1F1F0F0F07010000007E
:101770000000000000000000000000000000000069
:101780000000000000000000000000000000000059
:101790000000000000000000000000000000000049
:1017A00080C0FCFCFCFCFC0000000000000000000D
:1017B000000000000000000000000000F8FCFE7FB8
:1017C0003F1FFFFFFFFFFF000000000000000000C0
:1017D0000000000000000000000000000101000007
:1017E0000000FFFFFFFFFF000000000000000000FE
:1017F000001C3E3E3E1C0000000000003C3C3C3C07
:101800003C3C3F3F3F3F3F3C3C3C3C3C3C000000BD
:1018100000000000000000000000000000000000C8
:1018200000000000000000000000000000000000B8
:10183000000000000000000000000080E0F0F0F870
:10184000F8FC7C7C7C7CFCF8F8F0F0E08000000088
:101850000000000000000000000006070707070363
:1018600000000000000080C0E3FFFFFFFF3E00001B
:10187000000000000000000000000000000080C028
:10188000E0F0F8FCFE7F3F1F0F070301000000009F
:10189000001C3E3E3E1C00000000003C3E3F3F3F1F
:1018A0003F3F3F3D3C3C3C3C3C3C3C3C3C00000022
:1018B0000000000000000000000000000000000028
:1018C0000000000000000000000000000000000018
:1018D00000000000000000000000007C7C7C7C7C9C
:1018E0007C7C7C7C7C7CFCFCFCFCFCFC7C000000AC
:1018F000000000000000000000000000000000E008
:10190000E0F0F8FCFEFFFFFFF7E3E1C0000000009D
:101910000000000000000000000060E0E0E0E0C027
:101920000000000000000101C7FFFFFFFF7C000076
:10193000001C3E3E3E1C000000000001070F0F1F70
:101940001F3F3E3E3E3E3F1F1F0F0F07010000009E
:101950000000000000000000000000000000000087
:101960000000000000000000000000000000000077
:101970000000000000000000000000000000000067
:101980000080E0FCFCFCFC7C00000000000000008B
:101990000000000000000000000000000080E0F8EF
:1019A000FEFFFF7F1F0701C0C0C0C0C000000000D5
:1019B0000000000000000000000000F8FEFFFFFF34
:1019C000FFF7F1F0F0F0F0FFFFFFFFFFF0F0000095
:1019D000001C3E3E3E1C0000000000000000000015
:1019E000000000000000003F3F3F3F3F00000000BC
:1019F00000000000000000000000000000000000E7
:101A000000000000000000000000000000000000D6
:101A100000000000000000000000FCFCFCFCFC7C5E
:101A20007C7C7C7C7C7C7C7C7C7C7C7C7C0000006A
:101A3000000000000000000000003F7FFFFFFFF8F3
:101A4000F0F0F0F0F0F0F0F0F0E0E0C000000000A6
:101A50000000000000000000000060E0E0E0E0C0E6
:101A60000000000000000101C7FFFFFFFF7C000035
:101A7000001C3E3E3E1C000000000001070F0F1F2F
:101A80001F3F3E3E3E3E3F1F1F0F0F07010000005D
:101A90000000000000000000000000000000000046
:101AA0000000000000000000000000000000000036
:101AB00000000000000000000000000000000080A6
:101AC000E0F8FCFCFC3C0C00000000000000000002
:101AD000000000000000000000000080E0F8FEFFB1
:101AE000FFFFFFF3F0F0F0F0F0E0E0C000000000D6
:101AF000000000000000000000007EFFFFFFFFC7A5
:101B00000101000000000101C7FFFFFFFF7C000092
:101B1000001C3E3E3E1C000000000001070F0F1F8E
:101B20001F3F3E3E3E3E3F1F1F0F0F0701000000BC
:101B300000000000000000000000000000000000A5
:101B40000000000000000000000000000000000095
:101B500000000000000000000000007C7C7C7C7C19
:101B60007C7C7C7C7C7C7C7CFCFCFCFCFCFC0000AD
:101B70000000000000000000000000000000000065
:101B80000000000080E0F8FEFFFF3F0F03000000B0
:101B90000000000000000000000000000000000045
:101BA00080E0F8FEFFFF3F0F030000000000000090
:101BB000001C3E3E3E1C0000000000000000383EBD
:101BC0003F3F3F0F03000000000000000000000046
:101BD0000000000000000000000000000000000005
:101BE00000000000000000000000000000000000F5
:101BF000000000000000000000000000C0E0F0F85D
:101C0000F87C7C3C3C3C7C7CF8F8F0E0C0000000B8
:101C10000000000000000000000000000F9FFFFF18
:101C2000F8F0F0E0E0E0F0F0F8FFFF9F0F000000B8
:101C30000000000000000000000000FCFFFFFF8724
:101C400003010100000001010387FFFFFFFC00000A
:101C5000001C3E3E3E1C00000000000003070F1F5A
:101C60001F3E3E3C3C3C3E3E1F1F0F070300000052
:101C70000000000000000000000000000000000064
:101C80000000000000000000000000000000000054
:101C9000000000000000000000000080E0F0F0F80C
:101CA000F8FC7C7C7C7CFCF8F8F0F0E08000000024
:101CB000000000000000000000003EFFFFFFFFE307
:101CC0008080000000008080E3FFFFFFFF7E0000B7
:101CD0000000000000000000000000000307070FE4
:101CE0000F1F1F1FDFFFFFFFFF7F1F070100000007
:101CF000001C3E3E3E1C00000000000000000000F2
:101D000000303C3F3F3F1F07010000000000000083
:101D100000000000000000000000000000000000C3
:101D200000000000000000000000000000000000B3
:101D300000000000000000000000000000000000A3
:101D40000000000000000000000000000000000093
:101D50000000000000000000000000000000000083
:101D60000000000000000000000000000000000073
:101D70000000000000000000000000000000000063
:101D80000000000000000000000000000000000053
:101D90000000000000000000000000000000000043
:101DA0000000000000000000000000000000000033
:101DB00000911B01002309F008950FEF00931B0110
:101DC0000091A7010F3F41F0003011F00E94CB0FAE
:101DD00000E000931B01089500911E01003039F0CE
:101DE000013009F1023089F10330E1F148C000917E
:101DF0001C01002361F40091C90107FF55C00F7752
:101E00000093C90160912B0170912C0145C0009194
:101E1000CB0107FF49C00F770093CB0160912901E7
:101E200070912A0139C009E20093AE0108E20093E3
:101E3000AD0103E30093AC010BE20093AB0132C0B0
:101E40006091290170912A0127C009E20093AE0137
:101E50000CE30093AD010EE30093AC010EE300939D
:101E6000AB0120C008E20093AE0108E30093AD018E
:101E700008E20093AC0109E20093AB0113C00BE34D
:101E80000093AE010BE30093AD010BE30093AC01B3
:101E90000BE30093AB0106C0882799270E94941199
:101EA0000E94FD110E94550F93CFFF92FFB6FF9243
:101EB0001F930F93EF93FF930E94961600EC0E94DE
:101EC000EE0F0E94DB16E6E7FFE10091AE010E94F3
:101ED000940F0E94EE0F0E94DB160091AD010E944C
:101EE000940F0E94EE0F0E94DB160091AC010E943D
:101EF000940F10911E01103009F400680E94EE0F3B
:101F00000E94DB160091AB010E94940F0E94EE0F1D
:101F10000E94DB160E94C016FF91EF910F911F9156
:101F2000FF90FFBEFF900895EF93FF93003220F0E3
:101F3000003410F4005201C000E0E00F00E0F01F98
:101F40000491FF91EF9108950E9496160AE80E946D
:101F5000EE0F0E94DB1614D7E9D600E40E94EE0FC4
:101F60002AD70ED708953F065B4F666D7D077F6FBA
:101F700000805CF971000000000000000000777331
:101F80005F31000000003F065B4F666D7D077F6F8D
:101F900000805CF971000F9308E8003920F40E947A
:101FA000D50F0395FACF0F910895CF93DF93C6EB2A
:101FB000D1E00F9300581127C00FD11FC00FD11FC0
:101FC0000981007C003C0F9131F40F930E9464154D
:101FD0000E94F0140F91DF91CF9108951F932F93DA
:101FE00028E00795111F2A95E1F7012F2F911F91E6
:101FF00008950E9496160091A7010E94DB1600E842
:102000000E94DB160FEA0E94DB160E94C01608959C
:102010000F931F932F9310E0202F10939F01209375
:10202000A0010E9494100E9496160091A7010E94A0
:10203000DB1600E40E94DB161FE700E00E94DB16BF
:102040001A95D9F70E94C0162F911F910F910895EC
:102050000F931F932F9310E0202F10939F01209335
:10206000A0010E9494100E9496160091A7010E9460
:10207000DB1600E40E94DB1610E82F91022F0E946D
:10208000DB161A95D9F70E94C0161F910F9108957B
:102090000E9496160091A7010E94DB160F3F09F4DB
:1020A000000000E00E94DB1618E1E0ECF0E2059190
:1020B0000E94DB161A951123D1F70E94C0160895CD
:1020C000D580A83FD300408D14A1C8DA1281FFD972
:1020D00022DB30A4A60010B0AF000F931F932F9304
:1020E0000E943B1528E014E82A951F9310E01093F6
:1020F0009F012093A0010E9494101F910E949616A8
:102100000091A7010E94DB1600E40E94DB1600E0AC
:102110000E94DB161A95D9F70E94C016222319F7E0
:102120002F911F910F91089510919F012091A0016F
:1021300017FD1CC00F930E9496160091A7010E94E4
:10214000DB1600E00E94DB16022F0770006B0E9476
:10215000DB16012F0F700E94DB16012F02950F7006
:1021600000610E94DB160E94C0160F9108950F9324
:102170000FB70F93EF93FF93009156010A3020F4AD
:102180000395009356011CC00027009356010E943E
:10219000481000911E01003019F4E6E0F7E10EC08E
:1021A000013019F4E5E1F7E109C0023019F4E4E285
:1021B000F7E104C0033021F4E2E3F7E10E94C21426
:1021C000FF91EF910F910FBF0F910895FF92FFB60E
:1021D000FF92FF920F921F92799C6001689C5001C0
:1021E000699CFF24B00CC11CDF1C789CFF24B00C40
:1021F000C11CDF1C1F900F90FF90FF90FFBEFF904F
:102200000895FF92FFB6FF92102F0F70107F129566
:10221000005D0A3308F0095F105D1A3308F0195F9A
:10222000FF90FFBEFF900895002411242224332440
:10223000F0E2660C771C881C991C001C111C221CE7
:10224000331C0A141B042C043D0428F063940A1860
:102250001B082C083D08FA9561F708950F931F930A
:102260002F933F934F935F936F937F93CC24DD2401
:10227000EE2400E4F02E88249924AA24BB248401AF
:1022800095010C291D292E293F29B694A7949794CE
:102290008794401751076207730740F08C289D28E8
:1022A000AE28BF28401B510B620B730BF694E794CA
:1022B000D794C794F694E794D794C7940C2D0D291E
:1022C0000E290F29E1F67F916F915F914F913F9118
:1022D0002F911F910F910895FF92FFB6FF920F93D8
:1022E0001F933F934F9330E1CC24BB24AA24FF27B4
:1022F000000F111FAA1CBB1CCC1C3A9549F400000E
:102300004F913F911F910F91FF90FFBEFF90089555
:10231000EDE042914D5F43FD40834081405D47FDCC
:102320004083EA30B1F7E4CF4F935F936F937F938D
:102330008F939F93FF93EF9397FD0E94601240E26B
:10234000EE24DD24CC24BB24AA24FF27660F771FAC
:10235000881F991FAA1CBB1CCC1CDD1CEE1C4A95B7
:1023600061F0EFE052915D5F53FD50835081505D0D
:1023700057FD5083EA30B1F7E9CF5A2D5F705063B3
:102380005093AB015A2D52955F7050635093AC013E
:102390005B2D5F7050635093AD015B2D52955F7064
:1023A00050635093AE015C2D5F7050635093AF014A
:1023B0005C2D52955F7050635093B0015D2D5F703E
:1023C00050635093B1015D2D52955F7050635093EF
:1023D000B2015E2D5F7050635093B3015E2D529534
:1023E0005F7050635093B401EF91FF919F918F9173
:1023F0007F916F915F914F9108950F931F932F934A
:10240000222710E30091B401011719F400E223958B
:1024100001C010E20093B4010091B301011719F457
:1024200000E2239501C010E20093B3010091B201D4
:10243000011719F4239500E201C010E20093B201E4
:102440000091B101011719F4239500E201C010E2D7
:102450000093B1010091B001011719F4239500E236
:1024600001C010E20093B0010091AF01011719F40F
:10247000239500E201C010E20093AF010091AE018C
:10248000011719F4239500E201C010E20093AE0198
:102490000091AD01011719F4239500E201C010E28B
:1024A0000093AD010091AC010093AC010091AB0130
:1024B0000093AB012093B5012F911F910F910895C7
:1024C00060957095809590956F5F7F4F8F4F9F4F70
:1024D0000895FF92FFB6FF92EF93FF936F927F9262
:1024E0008F929F92AF92BF92CF92DF925E9B05C078
:1024F000AA24BB24CC24DD2407C06090780070900F
:10250000790043010E94E61060901F017090200145
:1025100080902101909022016A0C7B1C8C1C9D1CD8
:1025200060921F01709220018092210190922201FD
:10253000E0912301F09124013196E0932301F0937F
:102540002401DF90CF90BF90AF909F908F907F90AD
:102550006F90FF91EF91FF90FFBEFF901895FF9253
:10256000FFB6FF920F931F932F933F9300E00093CA
:102570001D005E9A009181000F93087F00938100F7
:1025800020918400309185000027009385000093FE
:10259000840010910E0100910D01109389000093A9
:1025A00088001091100100910F0110938B0000938F
:1025B0008A0001E003BD0F91009381004F93FF93C8
:1025C000EF93DF93CF930F921F922F923F924F92F0
:1025D0005F926F927F928F929F92AF92BF92CF92B3
:1025E000DF92EF92FF920091690003700230B1F028
:1025F000033029F00BE0009369000C940F140DEEEA
:1026000000937A00009169000C7F026000936900DA
:1026100020931101309312010C940F140DE60093D6
:102620007A00009169000C7F036000936900209399
:1026300013013093140160901F017090200180906D
:10264000210190902201A0902301B0902401660CFA
:10265000771C881C991C660C771C881C991CCC2440
:10266000DD240E941411660C771C881C991C660CD2
:10267000771C881C991CA301B401609225017092FB
:10268000260180922701909228010E942E118092AB
:102690002F0190923001002700931F010093200129
:1026A0000093210100932201009323010093240150
:1026B000F1E0EFE4EF010027802E202E302E7A90FB
:1026C0006A900FE0002359F00A951A900A90600C66
:1026D000711C821C931C129202920C946213E0E112
:1026E000F0E05F01CC24DD240E94141160922901E6
:1026F00070922A0100911E01003009F427C00130B8
:1027000009F407C0023009F418C0033009F415C0F9
:1027100086C02D985F9A00E000931D01E0910D01A5
:10272000F0910E01C4EFD1E0EC1BFD0B09F018F4A1
:10273000EE27FF2731964F0139C02D9A5F9A00E0AE
:1027400000931D0100E516E4480130C02D9A609009
:102750002F017090300180902B0190902C0168180F
:102760007908889477FC08947794679480900D0199
:1027700090900E01860C971C97FE0BC001E010E0B4
:10278000480110911C010FEF00931C0101130EC0B2
:102790000DC000E516E48016910608F0480100918E
:1027A0001C01002319F0002700931C0180920D01E9
:1027B00090920E0100911E01003009F030C0E091AE
:1027C0002901F0912A0100912B0110912C01E01BAD
:1027D000F10B18F4E095F095319603E010E0E01766
:1027E000F10750F400270093A8015F9810911D0194
:1027F0000FEF00931D010EC00091A801093120F4D4
:1028000003950093A8010BC05F9A10911D0100E091
:1028100000931D01011303C008E80E945015FF90AA
:10282000EF90DF90CF90BF90AF909F908F907F9070
:102830006F905F904F903F902F901F900F90CF918F
:10284000DF91EF91FF914F913F912F911F910F9148
:10285000FF90FFBEFF901895FF92FFB6FF920F9377
:102860001F932F933F934F930F921F92FF93EF93DA
:10287000F198F0980F930091A50110E0EEE1FDE0D2
:10288000E00FF11FE00FF11F05911591000F111FCF
:102890000093A3011093A401F8010F9115912591C4
:1028A00035914591003249F0003031F0011718F0B0
:1028B000021721F018F059C0F09AF19A003828F068
:1028C000003CC8F3103C08F400540F93011B349FE4
:1028D000009DE00DF11D00919F010093A101009169
:1028E000A0010093A2010F910E3219F40024369535
:1028F000301D4F930E9496160091A7010E94DB168F
:1029000000E40E94DB163F9300919F01003868F4B9
:10291000039500939F0100E0F19B05910E94DB1657
:102920003A95F0993A9581F702C00591F9CF3F9118
:102930000E94C0164A9579F00091A10100939F0171
:102940000091A201039507700093A0010093A201DA
:102950000E949410CFCF4F910091A001041B0395CA
:1029600007700093A0010E949410EF91FF911F90B7
:102970000F904F913F912F911F910F91FF90FFBEAC
:10298000FF900895FF92FFB6FF920F931F93AF93AE
:10299000BF93CF93DF93EE0FFF1F00270093A60195
:1029A0000091A601003808F011C003950093D514DA
:1029B0000591003809F40AC0003828F0003C18F4EA
:1029C0000E94F014EDCF0E942C14EACFDF91CF913A
:1029D000BF91AF911F910F91FF90FFBEFF9008959F
:1029E000DF01E0E8FCE2C6EBD1E00F93005810E015
:1029F000E00FF11FE00FF11FC00FD11FC00FD11F5B
:102A000005911491F80100919F0108831091A00194
:102A100017700091A50102950073102B10641F77A9
:102A200019830F910995FD010895CF93DF930F93BB
:102A30001F9300581127C6EBD1E0C00FD11FC00F64
:102A4000D11F09810F7B09831F910F91DF91CF91D6
:102A50000895CF93DF930F9300581127C6EBD1E071
:102A6000C00FD11FC00FD11F0981006409830F91CE
:102A7000DF91CF910895CF93DF930F931F93C6EB10
:102A8000D1E000E4002339F00A9519811F7B1F77FC
:102A900019832296F7CF1F910F91DF91CF9108955F
:102AA000CF93DF930F931F93C6EBD1E0005811270C
:102AB000C00FD11FC00FD11F1981106819831F913A
:102AC0000F91DF91CF9108950F931F93CF93DF93D1
:102AD000C6EBD1E000581127C00FD11FC00FD11F86
:102AE0000881198100939F011093A0011F77106442
:102AF0001983129513701093A5010E949410DF9111
:102B0000CF911F910F9108950895FD0105910370D4
:102B10000093A501DF010895FD012F933F931591C7
:102B20002591359105910F9320939F011093A0015A
:102B30000E9494100E9496160091A7010E94DB1635
:102B400000E40E94DB160F91231739F030F40F9345
:102B50000E94DB160F912395F7CF0E94C0163F917C
:102B60002F91DF010895FD010591003808F00FE76E
:102B700000939F01059107700093A001DF010E945F
:102B800094100895FD0100919F011591010F0038E7
:102B900008F00FE700939F010091A0011591010F2C
:102BA00007700093A001DF010E9494100895CF9355
:102BB000DF930F931F93FD010591DF01003CC0F4EB
:102BC0000A38B0F000581127C6EBD1E0C00FD11F72
:102BD000C00FD11F00919F0108831091A0011770B1
:102BE0000091A50102950073102B1F7B1F7719839D
:102BF0001F910F91DF91CF91089500911E01003038
:102C000089F400911D01003039F00CE20E942C146F
:102C10000DE20E942C1406C00AE20E942C140BE262
:102C20000E942C140895CBE2D1E003C0C9E2D1E0A8
:102C300000C068817981882799270E9494110E9499
:102C4000FD110091AE010E942C140091AD010E9473
:102C50002C140091AC010E942C140091A5010130AC
:102C600031F40091AB01065F0E942C1408C00EE203
:102C70000E942C140091AB010E942C1400C00895F6
:102C8000841585158C15B315C215D71584158415B3
:102C9000FD151316161684158415841584158415D0
:102CA000841584158415841584158415841584155C
:102CB000841584158415841584158415841584154C
:102CC000841584158415841584158415841584153C
:102CD000841584158415841584158415841584152C
:102CE000841584158415841584158415841584151C
:102CF000841584158415841584158415841584150C
:102D0000209823B120FFFDCF08952898209A089598
:102D1000219808952998219A08952F930E94881642
:102D20000E9480160E94C0162F9108952F930E9432
:102D30008A1624E02150F0F700000E94851624E056
:102D40002150F0F700002F9108952F930E948816CC
:102D500024E02150F0F700000E94801624E021506A
:102D6000F0F700000E948A1624E02150F0F70000DE
:102D70000E94851624E02150F0F700002F9108955D
:102D80002F930E94851624E02150F0F700000E9446
:102D90008A1624E02150F0F700000E94801624E0FB
:102DA0002150F0F700000E94881624E02150F0F72F
:102DB00000002F9108951F932F9318E0001F18F41F
:102DC0000E94881602C00E948A1624E02150F0F763
:102DD00000000E94801624E02150F0F700000E94BD
:102DE00085161A9559F70E94881624E02150F0F7AD
:102DF00000000E94801624E02150F0F7000013B17B
:102E000011FB0E9485162F911F9108958102830066
:102E100000C2DBD5CEC481008365008881018300B8
:102E200003858A898202008018808102830000D095
:102E3000C0C7C3CECD8100835300898202008018B1
:102E400081018300038A80008102830000D1D2CEF9
:102E5000CF810083530089820200801881018300A2
:102E6000038A80008102831701C2DBCACBDED7C58B
:102E7000CDCE831703C0C2C0D0C8C9CDDBCC831C64
:102E800005D1C8C3CDC0CBCECC80FF92FFB6FF9298
:102E90000F931F932F9300910201013009F407C093
:102EA000023009F414C0033009F426C04AC000916E
:102EB0000301033010F009F044C010911E011330DB
:102EC00009F43FC000931E010E94D2023AC0009153
:102ED00003011091040117FD34C024EC021729E00E
:102EE000120711F008F02DC000932B0110932C0154
:102EF00009E80E94501525C00091030110910401BA
:102F000017FD0FC024EC021729E0120711F008F09A
:102F100008C000932B0110932C0109E80E94501562
:102F200010C000910501033010F009F00AC01091A3
:102F30001E01133009F405C000931E010E94D20245
:102F400000C02F911F910F91FF90FFBEFF90089539
:102F5000FF92FFB6FF920F931F93EF93FF93E0E969
:102F6000FFE20091B900087F0695069506951127A6
:102F7000E00FF11FE00FF11F05911491F801099581
:102F8000FF91EF911F910F91FF90FFBEFF90189559
:102F9000E8175F185F185F185F185F185F185F18F1
:102FA0005F185F185F185F18EC175F185F185F18DD
:102FB000F91710185F185F1826182F185F18441893
:102FC0005B185B185F185F185F185F185F185F1851
:102FD00005ED0093BC00089500E00093020100910C
:102FE0000300013011F405E801C005EC0093BC00BA
:102FF0000895002710910201E3E0F1E0E10FF01FD6
:103000000091BB00008313951093020103E00A9521
:10301000101711F405E801C005EC0093BC000895F9
:10302000002710910201E3E0F1E0E10FF01F0091B1
:10303000BB00008313951093020105EC0093BC00C4
:1030400000915B01026000935B01089505EC009321
:10305000BC0000915B01026000935B01089510E0E9
:1030600010930201E6E0F1E00027E10FF01F00817C
:103070000093BB0000910500013011F405E801C088
:1030800005EC0093BC0008950027109102011395F0
:1030900010930201E6E0F1E0E10FF01F00810093E0
:1030A000BB0005E00A95101711F405E801C005EC16
:1030B0000093BC00089505EC0093BC0008950895AA
:00000001FF
