:020000020000FC
:0A0000000C9400010C94DB1018951D
:02000C00189545
:02001000189541
:0200140018953D
:02001800189539
:02001C00189535
:02002000189531
:0200240018952D
:02002800189529
:10002C000C94AA180C94B3180C94C1180C940E18B8
:02003C00189515
:02004000189511
:0200440018950D
:100048000C94C4160C9477170C9476170C9405022C
:020058001895F9
:02005C001895F5
:060060000C94170F189527
:1002000005B70160102F0D7F15BF05BFE0E0F1E0DD
:1002100000270193F530E9F7E030D9F70293E0E0E9
:10022000F5E0EDBFFEBFEEE1FF27EA95F083E9F7C9
:1002300008E204B90CEF05B900E007B90FE308B90B
:1002400000EC0AB908EF0BB90CE00093B80002E328
:100250000093BA0005E40093BC0007E60093C400D5
:1002600000E00093C50008ED0093C10006E0009394
:10027000C20009EF07BD08BD02E004BD03E0009322
:100280006E0003E005BDB6E4A0E5A0935101B09374
:100290005201B0938900A0938800B6E4A0E5A09332
:1002A0005301B0935401B0938B00A0938A0000E0F7
:1002B0000093800007E000936F0002E0009381004C
:1002C00003E00093690001E00DBB00E000937B00B8
:1002D00007E000937C000DEE00937A00C4E6D0E0C6
:1002E0000E94DA180E940C100AE70E9452100E9425
:1002F0003C100091D401002321F40AE70093D501BA
:1003000013C00E940C1008E70E9452100E943C107B
:100310000091D401002321F408E70093D50104C023
:1003200000E00093D50106C00E9462040E94A4046C
:100330000E94120409B105FD0C94A201B4E0A0EBE7
:100340000C94A401AA27BB27A0930D01B0930E0122
:10035000B0E0A5E0A093DC01B093DD010091D501F0
:100360000F3F21F0EBE5F6E10E94791404E10093E0
:100370005A0178940091CB0107FF05C00F770093D5
:10038000CB010E94C7170091CB0102FF05C00B7F74
:100390000093CB010E949E100091CB0103FF07C088
:1003A000077F0093CB010E9428050E94F40400916E
:1003B000D60101FF05C00D7F0093D6010E94A60E55
:1003C0000091D60103FF05C00E94E305077F00935B
:1003D000D6010091D60104FF05C00E9404060F7EDD
:1003E0000093D6010091D60105FF05C00E944D0281
:1003F0000F7D0093D6010091D60106FF05C00E9433
:1004000092020F7B0093D601B5CFFF92FFB6FF9209
:100410000F93EF93FF936F927F928F929F92AF9281
:10042000BF92CF92DF925E9B05C0AA24BB24CC244E
:10043000DD2407C0609078007090790043010E942D
:100440007B126090010170900201809003019090F6
:1004500004016A0C7B1C8C1C9D1C60920101709233
:1004600002018092030190920401E0910501F09154
:1004700006013196E0930501F0930601DF90CF90DD
:10048000BF90AF909F908F907F906F90FF91EF9172
:100490000F91FF90FFBEFF901895FF92FFB6FF925D
:1004A000F8940F931F932F933F930091D301037000
:1004B0001091D5011F3F19F0103029F002C0003013
:1004C00011F4033009F426C00091D7010F3F09F45D
:1004D00021C000910D0110910E012091DC0130919D
:1004E000DD01020F131F0E94140320E931E00217FF
:1004F000130710F4890107C024EC39E00217130731
:1005000010F009F007C000930D0110930E0108E8E8
:100510000E940A153F912F911F910F91FF90FFBEEE
:10052000FF900895FF92FFB6FF92F8946F927F922A
:100530008F929F92AF92BF92CF92DF920F931F93B1
:100540002F933F930091D30103701091D5011F3F6A
:1005500019F0103029F002C0003011F4033009F412
:1005600053C0E091D701EF3F99F50091D30103709B
:10057000003071F58090DC019090DD01880C991CB1
:10058000880C991C880C991C880C991C60900F0190
:10059000709010016818790888249924A090DC01D3
:1005A000B090DD01CC24DD240E9494128090DC0107
:1005B0009090DD010E947B12850128E833E12093B1
:1005C0005101309352012091DC013091DD0108C0CE
:1005D00000910D0110910E012091DC013091DD019F
:1005E000021B130B0E94140320E931E002171307CA
:1005F00017FD01C010F40027112700930D0110937F
:100600000E0108E80E940A153F912F911F910F914A
:10061000DF90CF90BF90AF909F908F907F906F9022
:10062000FF90FFBEFF900895380188249924A09080
:10063000DC01B090DD01CC24DD240E949412809076
:10064000DC019090DD010E947B1285010895FF92EC
:10065000FFB6FF920F931F932F9306B11FEF012751
:10066000109159010093590110272091D301233093
:1006700021F00E9444030E9464032F911F910F9167
:10068000FF90FFBEFF9008950F931F9300FF12C0CD
:1006900010915A0117FF01C00DC0103091F01A954A
:1006A00010935A0171F41A9510935A0103E00E94B5
:1006B0008C0307C01091D301133019F014E110938B
:1006C0005A011F910F9108950F931F9311FD1EC0A2
:1006D00010915B0117FF04C0112710935B0119C033
:1006E0001030B9F01A9510935B0199F41091D30171
:1006F00001FD06C0113069F400E00E948C0309C0BE
:10070000113039F001E00E948C0303C014E0109313
:100710005B011F910F9108950F9300270093D7015C
:1007200000935C010F91003009F40DC0013009F411
:1007300023C0023009F434C0033009F445C004304A
:1007400009F45BC06EC00093D3012D9A0091D501CE
:10075000002389F00F3F79F00E947A040E94A404DC
:100760000E941204EBE5F6E10E9479140027009341
:10077000DB010093D70155C00093D3012D98009160
:10078000D501002361F00F3F51F00E947A040E94CE
:10079000A4040E941204ECE6F6E10E94791441C020
:1007A0000093D3012D9A0091D501002361F00F3FF2
:1007B00051F00E947A040E94A4040E941204ECE703
:1007C000F6E10E9479142DC00093D301CDE0D1E071
:1007D0000027099308832D9A0091D501002361F029
:1007E0000F3F51F00E947A040E94A4040E94120458
:1007F000ECE8F6E10E94791414C00093D3012D9A1D
:100800000091D501002361F00F3F51F00E947A045E
:100810000E94A4040E941204E2EAF6E10E94791404
:1008200000C008950E940C100091D5010E94521042
:1008300000E80E9452100FEA0E9452100E943C10E1
:1008400008950F931F932F9310E0202F1093810191
:10085000209382010E94CB040E940C100091D501CC
:100860000E94521000E40E94521014E800E00E941E
:1008700052101A95D9F70E943C102F911F910F9199
:1008800008950F931F932093DE0110E0202F109303
:100890008101209382010E94CB040E940C100091E0
:1008A000D5010E94521000E40E94521014E80091F9
:1008B000DE010E9452101A95E1F70E943C101F9130
:1008C0000F9108950E940C100091D5010E945210C2
:1008D0000F3F09F4000000E00E94521018E1EEE220
:1008E000F9E005910E9452101A951123D1F70E9448
:1008F0003C1008950E940C100091D5010E945210E6
:100900000F3F09F4000000E00E94521018E0E4E2FA
:10091000F9E005910E9452101A951123D1F70E9417
:100920003C100895D30040A1C8A681AF0000D58037
:10093000A83FD300408D14A1C8DA1281AFD922DBC1
:1009400020A4A60010B0AF000F931F932F930E9416
:10095000F61428E014E82A951F9310E01093810103
:10096000209382010E94CB041F910E940C100091E1
:10097000D5010E94521000E40E94521000E00E9433
:1009800052101A95D9F70E943C10222319F72F9183
:100990001F910F910895FF92FFB6FF921091810170
:1009A0002091820117FD1CC00F930E940C10009132
:1009B000D5010E94521000E00E945210022F0770D1
:1009C000006B0E945210012F0F700E945210012FD5
:1009D00002950F7000610E9452100E943C100F910E
:1009E000FF90FFBEFF900895FF92FFB6FF920F9316
:1009F000EF93FF9300915C010A3020F4039500937C
:100A00005C011FC0002700935C010091D3010030FE
:100A100019F4EBE5F6E113C0013019F4ECE6F6E168
:100A20000EC0023019F4ECE7F6E109C0033019F406
:100A3000ECE8F6E104C0043021F4E2EAF6E10E94B9
:100A40007914FF91EF910F91FF90FFBEFF900895F1
:100A50000F931F930091D3011091D7011F3F41F0D5
:100A6000003069F0043059F400E00E948C0307C0A4
:100A7000043029F0003019F404E00E948C031F9127
:100A80000F9108950F931F932F9300915F010030F2
:100A900051F00A9500935F0102E310E00093DC013E
:100AA0001093DD0106C005E010E00093DC01109317
:100AB000DD010091D60105FD28C006FD26C00027F6
:100AC00019B113FF016014FF026010915D0101175D
:100AD000E1F020915E011330A1F4021791F0023091
:100AE00039F40091D6010F7D00640093D60106C051
:100AF0000091D60100620F7B0093D60124E1209380
:100B00005F0110935E0100935D012F911F910F9182
:100B100008950F931F9309B11FEF012700721091E1
:100B2000600100936001102715FF04C011E01093CD
:100B3000610146C01091610117FF04C01127109395
:100B400061013EC0103059F11A9510936101C1F551
:100B500005FD21C000C0109163011395109363013E
:100B6000123030F410916201153050F1143640F516
:100B70000091D60108600093D601009163010093B3
:100B800064010027009363011BC01091630113955A
:100B90001093630115C011271093620111C005FF66
:100BA0000FC010916201143629F40091D601006142
:100BB0000093D6011F3F21F013951093620100C0EE
:100BC0001F910F910895FF92FFB6FF920F9300912E
:100BD000D3010370003021F402E00E948C030FC0A7
:100BE000013021F400E00E948C0309C0023021F49E
:100BF00000E00E948C0303C0033009F400C00F9191
:100C0000FF90FFBEFF900895FF92FFB6FF920F93F3
:100C10000091D3010370003021F401E00E948C03A5
:100C20000BC0023019F401E00E948C03033021F460
:100C300000E00E948C0300C00F91FF90FFBEFF9068
:100C400008952406640802072A390B0200008080F8
:100C50000000808000008000000101000001010010
:100C60000001800000808000008080000001000002
:100C70000101000001010000000000C07098ECF4C8
:100C8000F67A3A000000030E19372F6F5E5C3A7A4D
:100C9000F6F4EC9870C00000005C5E6F2F37190E00
:100CA0000300000000000000606000000000000081
:100CB0000000000000000000000000000000000034
:100CC0000000000000000000000000000000000024
:100CD00000F0FC1C0E06060E1CFCF0000F3F3870E6
:100CE000606070383F0F006070381CFEFE0000002E
:100CF0000000606060607F7F6060606000181C0EB4
:100D000006060686CEFC78006070787C6E676361AC
:100D1000606000060606C6C6E6F6DE8E06001838D7
:100D20007060606060713F1F00000080C0E070383C
:100D30001C8E86000E0F0F0D0C0C0C0C7F7F00FE1E
:100D4000FEC6C6C6C6C6C686060018387060606095
:100D500060713F1F00F8FC8EC6C6C6C6CE8C080068
:100D60001F3F7160606060713F1F00060606060647
:100D700086E6FE7E1E00000060787E1F07010000F0
:100D8000000078FCCE8686CEFC7800001E3F7361A2
:100D9000616161733F1E00F8FC8E060606068EFC3C
:100DA000F80010317363636363713F1F000000003C
:100DB0000000000000000000000000000000000033
:100DC0000000000000000000000000000000000023
:100DD0000000000000000000000000000000000013
:100DE0000000000000000000000000000000000003
:100DF00000000000000000000000000000000000F3
:100E000000000000E0FF0B0200CCEE66666666663E
:100E100066FEFC000307060606060603070700FE3B
:100E2000FE363636363676E6C00007070606060674
:100E30000607030100FEFE66666666767EECC0006D
:100E4000070706060606060703010088CC6E6666DD
:100E50006666663C180001030606060606060303DE
:100E60000000FCFE06060606FEFC00000E0F07064C
:100E7000060606070F0E00F8FC6666666666667C68
:100E8000380001030606060606060600008EDEF0A0
:100E900060FEFE60F0DE8E0007070000070700001E
:100EA000070700080C0E0666666666FC98000103DC
:100EB000070606060606030100FEFE0080C0E0707D
:100EC00038FEFE000707070301000000070700FEC9
:100ED000FE0080C6E67038FEFE000707070301002B
:100EE0000000070700FEFE606070F8DC8E06000060
:100EF000070700000000010307060000E0F81E06D7
:100F0000061EF8E0000007070000000000000707C9
:100F100000FEFE1C30E0E0301CFEFE000707000073
:100F200000000000070700FEFE606060606060FE79
:100F3000FE000707000000000000070700F8FC0E95
:100F4000060606060EFCF80001030706060606075D
:100F5000030100FEFE060606060606FEFE00070763
:100F6000000000000000070700FEFEC6C6C6C6C699
:100F7000EE7C38000707000000000000000000F8C9
:100F8000FC0E060606060E9C9800010307060606E0
:100F9000060703010006060606FEFE060606060014
:100FA00000000000070700000000003E7E60606057
:100FB000606060FEFE0000060606060606070301E6
:100FC00000F8FC0C0CFEFE0C0CFCF8000103030303
:100FD00007070303030100060E9CD8F0F0B89C0E2F
:100FE00006000607030100000103070600FEFE00DD
:100FF00000000000FEFE00000707060606061617A2
:101000001F1C003E7EE0C0C0C0C0C0FEFE0000004D
:10101000000000000000070700FEFE0000F8F800D6
:1010200000FEFE000707060607070606070700FE84
:10103000FE0000F8F80000FEFE000707060607079E
:1010400016161F1F000606FEFE30303030F0E0009E
:101050000000070706060606070300FEFE303030D4
:10106000F0E000FEFE00070706060607030007077C
:1010700000FEFE303030303070E0C000070706065A
:1010800006060607030100080C0E066666666EFC7F
:10109000F8000103070606060607030100FEFE60CE
:1010A000FCFE060606FEFC00070700030706060610
:1010B0000703003C7E66E6E6E66666FEFE00040682
:1010C0000703010000000707304320050000C0F0BF
:1010D000F8F8FCFCFEFEFE7E7E7E7E7E7E7E7E7EC0
:1010E0007EFEFEFEFCFCF8F8F0C0000000FFFFFFF3
:1010F000FFFFFF070100000000000000000000806B
:10110000C0E0703907FFFFFFFFFFFF0000FFFFFF98
:10111000FFFFFF0000000080C0E070381C0E0703D6
:101120000100000000FFFFFFFFFFFF0000FFFFFFC7
:10113000FFFFFFE09C0E070301000000000000001D
:1011400000000080E0FFFFFFFFFFFF000000030F33
:101150001F1F3F3F7F7F7F7E7E7E7E7E7E7E7E7EE8
:101160007E7F7F7F3F3F1F1F0F03000000000000B6
:10117000000000000080C0E0F0FEFEFEFEFEFE006B
:10118000000000000000000000000000000000005F
:10119000F0F8FCFEFFFF7F3F1FFFFFFFFFFFFF0098
:1011A000000000000000000000000000000000003F
:1011B000000000000000000000FFFFFFFFFFFF0035
:1011C000000000000000000000000000000000001F
:1011D000000000000000000000FFFFFFFFFFFF0015
:1011E00000000000000000000000000000000000FF
:1011F0007E7E7E7E7E7E7E7E7E7F7F7F7F7F7F7E09
:101200007E7E7E7E7E7E7E7E000000000080E0F09E
:10121000F8F8FCFCFEFE7E7E7E7E7E7E7E7E7E7EFE
:101220007E7EFEFEFCFCFCF8F0E08000000F0F0F5D
:101230000F0F0F030000000000000000000000007E
:10124000000080C0E1FFFFFFFFFF3F000000000043
:101250000000000000000000000080C0E0F0F8FC8A
:10126000FEFF7F3F1F0F070301000000000000008A
:10127000000080C0E0F0F8FCFEFF7F3F1F0F070377
:101280000100000000000000000000000070787CF9
:101290007E7F7F7F7F7F7F7F7F7E7E7E7E7E7E7E66
:1012A0007E7E7E7E7E7E7E7E7E7E7E000080E0F084
:1012B000F8F8FCFCFE7E7E7E7E7E7E7E7E7E7E7EDE
:1012C0007E7E7EFEFCFCFCF8F0E08000000F0F0F3D
:1012D0000F0F0F03000000000000000000000000DE
:1012E00000000000C3FFFFFFFFFF7F0000000000C1
:1012F0000000000000000000003E3E3E3E3E3E3E3C
:101300003E3E3E7FFFFFFFF7E3C1000000F0F0F03C
:10131000F0F0F0C00000000000000000000000003D
:1013200000000000C1FFFFFFFFFFFF000001070FEB
:101330001F1F3F3F7F7E7E7E7E7E7E7E7E7E7E7E08
:101340007E7E7E7F3F3F3F1F0F07010000000000B1
:1013500000000000000000000000000080C0E0F07D
:10136000F8FCFEFEFE7E3E1E0000000000000000B5
:101370000000000080C0E0F0F8FCFEFFFF7F3F1F90
:101380000F070301000000000000000000C0E0F0B3
:10139000F8FCFEFFFF7F3F1F0F0703010000000066
:1013A0000000FEFEFEFEFEFE00000000007F7F7FCC
:1013B0007F7F7F7F7E7E7E7E7E7E7E7E7E7E7E7E49
:1013C0007E7EFFFFFFFFFFFF7E7E7E0000000000AD
:1013D000000000000000000000000000000000000D
:1013E00000003F3F3F3F3F3F0000000000FEFEFE89
:1013F000FEFEFE7E7E7E7E7E7E7E7E7E7E7E7E7E8D
:101400007E7E7E7E7E7E7E7E7E7E7E0000FFFFFF75
:10141000FFFFFFC08080808080808080808080800F
:101420008080808000000000000000000001070FA5
:101430000F1F1F1F1F1F1F1F1F1F1F1F1F1F1F1FCC
:101440001F1F1F3FFFFFFEFEFCF8E00000F0F0F062
:10145000F0F0F0C0000000000000000000000000FC
:1014600000000000C0FFFFFFFFFFFF000001070FAB
:101470001F1F3F3F7F7E7E7E7E7E7E7E7E7E7E7EC7
:101480007E7E7E7F3F3F1F1F0F070100000080E030
:10149000F0F8F8FCFC7E7E7E7E7E7E7E7E7E7E7E0A
:1014A0007E7EFEFCFCF8F8F0E080000000FEFFFF0E
:1014B000FFFFFF010000808080808080808080802E
:1014C00080808003030303030303000000FFFFFF8A
:1014D000FFFFFFFE3F1F1F1F1F1F1F1F1F1F1F1F7D
:1014E0001F1F1F3FFFFEFEFCF8F0C00000FFFFFFC4
:1014F000FFFFFFC00000000000000000000000002F
:1015000000000000C0FFFFFFFFFFFF000000030717
:101510000F1F1F3F3F7E7E7E7E7E7E7E7E7E7E7E96
:101520007E7E7E3F3F1F1F0F07030000007E7E7EF2
:101530007E7E7E7E7E7E7E7E7E7E7E7E7E7E7E7ECB
:101540007E7E7E7EFEFEFEFEFEFEFE0000000000B1
:10155000000000000000000000000000000000008B
:10156000C0F0FCFFFFFFFF7F1F070100000000002D
:10157000000000000000000000000000C0F0FCFFC0
:10158000FFFFFF7F1F0701000000000000000000B8
:101590000000000000000000C0F0FCFFFFFFFF7F24
:1015A0001F07010000000000000000000000000014
:1015B0000000000040707C7F7F7F7F7F1F0701005D
:1015C000000000000000000000000000000080E0BB
:1015D000F0F8F8FCFCFE7E7E7E7E7E7E7E7E7E7E49
:1015E0007E7EFEFCFCF8F8F0E080000000003FFF8B
:1015F000FFFFFFFFC18000000000000000000000AE
:10160000000080C1FFFFFFFFFF3F000000C0E0F8C7
:10161000FDFFFFFF7F3F3F3F3F3F3F3F3F3F3F3F9C
:101620003F3F3F7FFFFFFFFDF8E0C00000FFFFFFEF
:10163000FFFFFFC1000000000000000000000000EC
:1016400000000000C1FFFFFFFFFFFF000001070FC8
:101650001F1F3F3F7F7E7E7E7E7E7E7E7E7E7E7EE5
:101660007E7E7E7F3F3F1F1F0F0701000080E0F05E
:10167000F8F8FCFCFE7E7E7E7E7E7E7E7E7E7E7E1A
:101680007E7E7EFEFCFCF8F8F0E0800000FFFFFFAD
:10169000FFFFFF030000000000000000000000004A
:1016A0000000000003FFFFFFFFFFFF0000071F3FD8
:1016B0007FFFFFFFFCF8F8F8F8F8F8F8F8F8F8F80A
:1016C000F8F8F8FC7FFFFFFFFFFFFF000000C0C03D
:1016D000C0C0C0C0C101010101010101010101013E
:1016E0000101000080FFFFFFFFFFFF000000010776
:1016F0000F1F1F3F3F7F7E7E7E7E7E7E7E7E7E7EB4
:101700007E7E7E7F3F3F1F1F0F070100000000000D
:1017100000000000000000000000000000000000C9
:1017200000000000000000000000000000000000B9
:101730000000000000C0E0E0F0F0F8F8F8F8F8F879
:10174000F8F8F8F8F0F0E0E0C00000000000000059
:1017500000000000FFFFFFFFFF0701000000008006
:10176000C0E0703907FFFFFFFFFF0000000000002E
:1017700000000000FFFFFFFFFF8070381C0E070312
:101780000100000080FFFFFFFFFF000000387C7CAD
:101790007C380000030F1F1F3F3F7E7C7C7C7C7CDD
:1017A0007C7C7C7E3F3F1F1F0F0300000000000079
:1017B0000000000000000000000000000000000029
:1017C0000000000000000000000000000000000019
:1017D0000000000000000000000000000080F8F899
:1017E000F8F8F80000000000000000000000000011
:1017F00000000000000000E0F0F8FC7E3F1FFFFF4B
:10180000FFFFFF00000000000000000000000000DB
:101810000000000000000003030100000000FFFFC3
:10182000FFFFFF00000000000000000000387C7C8B
:101830007C38000000007C7C7C7C7C7C7C7C7F7F16
:101840007F7F7F7C7C7C7C7C7C7C000000000000B7
:101850000000000000000000000000000000000088
:101860000000000000000000000000000000000078
:101870000000000000C0E0E0F0F0F8F8F8F8F8F838
:10188000F8F8F8F8F0F0E0E0C00000000000000018
:101890000000000007070707070100000000000024
:1018A000000080C0E1FFFFFFFF3F000000000000DC
:1018B0000000000000000000000080C0E0F0F8FC24
:1018C000FE7F3F1F0F0703010000000000387C7CF3
:1018D0007C3800006070787C7E7F7F7F7F7F7F7D9B
:1018E0007C7C7C7C7C7C7C7C7C7C00000000000020
:1018F00000000000000000000000000000000000E8
:1019000000000000000000000000000000000000D7
:101910000000000000C0E0E0F0F0F8F8F8F8F8F897
:10192000F8F8F8F0F0E0E0C000000000000000006F
:1019300000000000070707070703010000C0C0C040
:10194000C0E0E1F3FFFF7F3F1F0000000000000048
:1019500000000000808080808000000000030303FE
:10196000030307070FFFFFFEFCF8000000387C7C34
:101970007C380000030F1F1F3F3F7E7C7C7C7C7CFB
:101980007C7C7E3E3F1F1F0F07010000000000000F
:101990000000000000000000000000000000000047
:1019A0000000000000000000000000000000000037
:1019B00000000000000000000000000000000080A7
:1019C000C0E0F0F8F8F878380000000000000000EF
:1019D0000000000000000080C0E0F0F8FCFE7F3F47
:1019E0001F0F07838180808000000000000000003E
:1019F00000000000FCFEFFFFFFFFF7F3F1F0F0F046
:101A0000F0F0F0FFFFFFFFFFF0F0000000387C7CFB
:101A10007C38000001010101010101010101010106
:101A20000101017F7F7F7F7F010100000000000036
:101A300000000000000000000000000000000000A6
:101A40000000000000000000000000000000000096
:101A500000000000F8F8F8F8F8F8F8F8F8F8F8F8E6
:101A6000F8F8F8F8F8F8F8F80000000000000000B6
:101A700000000000FFFFFFFFFFE0E0E0E0E0E0E04B
:101A8000E0E0E0C0C0808000000000000000000036
:101A900000000000818383838303030303030303A4
:101AA000030307070FFFFFFFFEF8000000387C7CF0
:101AB0007C380000030F1F1F3F3E7C7C7C7C7C7CBD
:101AC0007C7C7C3E3F1F1F0F0701000000000000D0
:101AD0000000000000000000000000000000000006
:101AE00000000000000000000000000000000000F6
:101AF0000000000000C0E0E0F0F0F8F8F8F8F8F8B6
:101B0000F8F8F8F0F0E0E0C000000000000000008D
:101B100000000000FFFFFFFFFF83C1E0E0E0E0E026
:101B2000E0E0E0C1C3838303030000000000000085
:101B300000000000FFFFFFFFFF0F07030303030385
:101B4000030303070FFFFFFFFEF8000000387C7C53
:101B50007C380000030F1F1F3F3F7E7C7C7C7C7C19
:101B60007C7C7C3E3F1F1F0F07010000000000002F
:101B70000000000000000000000000000000000065
:101B80000000000000000000000000000000000055
:101B900000000000F8F8F8F8F8F8F8F8F8F8F8F8A5
:101BA000F8F8F8F8F8F8F8F8F8F800000000000085
:101BB0000000000000000000000000000000000025
:101BC00000C0F0FCFFFF7F1F0701000000000000C5
:101BD00000000000000000000000000000C0F0FC59
:101BE000FFFF7F1F070100000000000000387C7C21
:101BF0007C380000000000000040707C7F7F7F1F69
:101C000007010000000000000000000000000000CC
:101C100000000000000000000000000000000000C4
:101C200000000000000000000000000000000000B4
:101C3000000000000080E0E0F0F0F8F8F8F8F8F8B4
:101C4000F8F8F8F0F0E0E0C000000000000000004C
:101C500000000000001F3F7FFFFFF3E1C0C0C0C0D5
:101C6000C0C0E1F3FFFF7F3F1F0000000000000045
:101C700000000000F8FCFEFFFF0F0703030303034F
:101C8000030303070FFFFFFEFCF8000000387C7C15
:101C90007C380000030F1F1F3F3F7E7C7C7C7C7CD8
:101CA0007C7C7C3E3F1F1F0F0701000000000000EE
:101CB0000000000000000000000000000000000024
:101CC0000000000000000000000000000000000014
:101CD000000000000080C0E0E0F0F0F8F8F8F8F84C
:101CE000F8F8F8F8F0F0E0E0C000000000000000B4
:101CF000000000007EFFFFFFFFC381000000000026
:101D000000000081C3FFFFFFFFFF00000000000094
:101D10000000000000010307070F0F1F1F1F1F1FF8
:101D20001F1F1F0F0F07FFFFFFFF000000387C7C05
:101D30007C380000030F1F1F3F3E7C7C7C7C7C7C3A
:101D40007C7C7C7C3E3F1F1F0F030000FF92FFB690
:101D5000FF920F931F932F9300916501013009F4B7
:101D600007C0023009F414C0033009F42DC058C074
:101D700000916601033010F009F052C01091D301B8
:101D8000133009F44DC00093D3010E948C0348C066
:101D9000009166011091670117FD42C024EC021703
:101DA00029E0120711F008F03BC02FE8201721E0CE
:101DB000210710F00027112700930D0110930E0149
:101DC00008E80E940A152CC0009166011091670175
:101DD00017FD16C024EC021729E0120711F008F0D5
:101DE0000FC02FE8201721E0210710F0002711274E
:101DF00000930D0110930E0108E80E940A1510C00F
:101E000000916801033010F009F00AC01091D3016D
:101E1000133009F405C00093D3010E948C0300C065
:101E20002F911F910F91FF90FFBEFF900895FF9299
:101E3000FFB6FF920F931F93EF93FF93EEE6FEE141
:101E40000091B900087F0695069506951127E00FC9
:101E5000F11FE00FF11F05911491F8010995FF9111
:101E6000EF911F910F91FF90FFBEFF901895570FB4
:101E7000D00FD00FD00FD00FD00FD00FD00FD00F6A
:101E8000D00FD00FD00F5B0FD00FD00FD00F680F37
:101E90007F0FD00FD00F950F9E0FD00FB50FCC0F27
:101EA000CC0FD00FD00FD00FD00FD00FD00F05ED2B
:101EB0000093BC00089500E00093650100910300C9
:101EC000013011F405E801C005EC0093BC00089551
:101ED000002710916501E6E6F1E0E10FF01F0091A7
:101EE000BB00008313951093650103E00A9510175A
:101EF00011F405E801C005EC0093BC00089500272B
:101F000010916501E6E6F1E0E10FF01F0091BB00E2
:101F1000008313951093650105EC0093BC000091BC
:101F2000D60102600093D601089505EC0093BC0031
:101F30000091D60102600093D60108950E94D10F4E
:101F400010E010936501E9E6F1E00027E10FF01FD2
:101F500000810093BB0000910500013011F405E8F9
:101F600001C005EC0093BC000895002710916501A5
:101F7000139510936501E9E6F1E0E10FF01F008190
:101F80000093BB0005E00A95101711F405E801C0A5
:101F900005EC0093BC00089505EC0093BC00089587
:101FA00008950F931F9300910D0100936901009113
:101FB0000E0100936A0100910B0100936B010091E7
:101FC0000C0100936C010091D30103701091D801B2
:101FD0001071012B1091D70112951072012B0093F3
:101FE0006D011F910F910895209823B120FFFDCF1F
:101FF00008952898209A0895219808952198089581
:102000002998219A08952F930E94FC0F0E94F40FA3
:102010000E943C102F9108952F930E94001021E000
:102020002150F0F7000000000E94F90F21E021503C
:10203000F0F7000000002F9108952F930E94FC0FED
:1020400021E02150F0F7000000000E94F40F21E091
:102050002150F0F7000000000E94001021E0215004
:10206000F0F7000000000E94F90F21E02150F0F786
:10207000000000002F9108952F9321E02150F0F7E8
:10208000000000000E94F40F21E02150F0F7000052
:1020900000000E94FC0F21E02150F0F7000000003A
:1020A0002F910895FF92FFB6FF921F932F9318E090
:1020B00021E02150F0F70000000007FD0E94FC0F16
:1020C00007FF0E94001021E02150F0F700000000FF
:1020D0000E94F40F21E02150F0F7000000000E9460
:1020E000F90F001F1A9521F721E02150F0F70000A9
:1020F00000000E94FE0F21E02150F0F700000000D8
:102100000E94F40F21E02150F0F70000000013B10D
:1021100011FD02C010E001C01FEF1093D4010E9416
:10212000F90F21E02150F0F7000000000E9400109C
:102130002F911F91FF90FFBEFF900895FF92FFB671
:10214000FF920F930091D901002309F00CC00FEF0B
:102150000093D9010091D501003011F00E94B81010
:1021600000E00093D9010F91FF90FFBEFF9008950A
:102170000F9308E8003920F40E94C2100395FACFAB
:102180000F910895CF93DF93CFEDD1E00F930058D7
:102190001127C00FD11FC00FD11F0981007C003C47
:1021A0000F9131F40F930E941E150E94A5140F91F8
:1021B000DF91CF910895FF92FFB6FF920F931F9387
:1021C0002F933F9300E000931D005E9A00E0009380
:1021D00081002091840030918500002700938500C4
:1021E00000938400109154010091530110938B00CF
:1021F00000938A000091D3010370003009F102308E
:1022000029F0013081F0033009F06DC15E9A2D9AFA
:102210005F9A00E00093D80100E50093510106E4C5
:102220000093520120C05E982D985F9A00E00093C1
:10223000D80102E30093510100E00093520113C062
:102240001091520100915101109389000093880070
:10225000109154010091530110938B0000938A0058
:1022600002E0009381004F93FF93EF93DF93CF93AE
:102270000F921F922F923F924F925F926F927F9296
:102280008F929F92AF92BF92CF92DF92EF92FF9286
:102290000091690003700230B1F0033029F00BE0C7
:1022A000009369000C945E120DEE00937A00009189
:1022B00069000C7F02600093690020935501309300
:1022C00056010C945E120DE600937A0000916900AD
:1022D0000C7F0360009369002093570130935801ED
:1022E00060900101709002018090030190900401C0
:1022F000A0900501B0900601660C771C881C991C03
:10230000660C771C881C991CCC24DD240E94941236
:10231000660C771C881C991C660C771C881C991C01
:10232000A301B40160920701709208018092090133
:1023300090920A010E94AE1280920F0190921001B9
:102340000027009301010093020100930301009311
:1023500004010093050100930601F1E0EFE4EF01B1
:102360000027802E202E302E7A906A900FE10023D5
:1023700059F00A951A900A90600C711C821C931CEB
:10238000129202920C94B711E0E2F0E05F01CC24CB
:10239000DD240E94941280900B0190900C016092B9
:1023A0000B0170920C010091D3010370003009F011
:1023B00085C02D9A60900F017090100180900D01E2
:1023C00090900E0168187908889477FC08947794A7
:1023D00067948090510190905201860C971C02E303
:1023E00010E097FC03C08016910648F44801009164
:1023F000DB01043608F403950093DB010FC0009164
:10240000DB01002309F00A950093DB0100E516E4E7
:102410008016910608F402C0480100C08092510164
:10242000909252010091DB01043608F40BC00A952A
:102430000093DB010091D7010F3F59F00FEF00939C
:10244000D70107C00091D701003019F000E00093D8
:10245000D7010091D3010370003009F02FC0E09143
:102460000B01F0910C01339600910D0110910E01BA
:10247000E01BF10B07E010E0E017F10708F00AC0DD
:1024800000270093DA015F981091D8010FEF0093B5
:10249000D8010EC00091DA01053020F403950093B5
:1024A000DA010CC05F9A1091D80100E00093D801C6
:1024B000011301C003C00AE80E940A15FF90EF90C3
:1024C000DF90CF90BF90AF909F908F907F906F9054
:1024D0005F904F903F902F901F900F90CF91DF9182
:1024E000EF91FF914F913F912F911F910F91FF908D
:1024F000FFBEFF901895FF92FFB6FF920F921F92BA
:10250000799C6001689C5001699CB00CC11C00243E
:10251000D01C789CB00CC11C0024D01C1F900F90C4
:10252000FF90FFBEFF90089500241124222433243D
:10253000F0E2660C771C881C991C001C111C221CE4
:10254000331C0A141B042C043D0428F063940A185D
:102550001B082C083D08FA9561F708950F931F9307
:102560002F933F934F935F936F937F93CC24DD24FE
:10257000EE2400E4F02E88249924AA24BB248401AC
:1025800095010C291D292E293F29B694A7949794CB
:102590008794401751076207730740F08C289D28E5
:1025A000AE28BF28401B510B620B730BF694E794C7
:1025B000D794C794F694E794D794C7940C2D0D291B
:1025C0000E290F29E1F67F916F915F914F913F9115
:1025D0002F911F910F910895102F0F70107F12955A
:1025E000005D0A3308F0095F105D1A3308F0195FC7
:1025F00008954F935F936F937F938F939F93FF9370
:10260000EF9397FD0E94C51340E2EE24DD24CC2415
:10261000BB24AA24FF27660F771F881F991FAA1CB7
:10262000BB1CCC1CDD1CEE1C4A9561F0EFE0529106
:102630005D5F53FD50835081505D57FD5083EA30FC
:10264000B1F7E9CF5A2D5F70506350936E015A2D48
:1026500052955F70506350936F015B2D5F705063B4
:10266000509370015B2D52955F70506350937101D0
:102670005C2D5F705063509372015C2D52955F70BA
:102680005063509373015D2D5F70506350937401DC
:102690005D2D52955F705063509375015E2D5F7094
:1026A0005063509376015E2D52955F705063509346
:1026B0007701EF91FF919F918F917F916F915F9142
:1026C0004F9108950F931F932F93222710E30091AA
:1026D0007701011719F400E2239501C010E200937D
:1026E000770100917601011719F400E2239501C0EA
:1026F00010E20093760100917501011719F42395FA
:1027000000E201C010E2009375010091740101170D
:1027100019F4239500E201C010E2009374010091C6
:102720007301011719F4239500E201C010E2009330
:10273000730100917201011719F4239500E201C0A1
:1027400010E20093720100917101011719F42395B1
:1027500000E201C010E200937101009170010117C5
:1027600019F4239500E201C010E20093700100917A
:102770006F0100936F0100916E0100936E01209331
:1027800078012F911F910F91089560957095809514
:1027900090956F5F7F4F8F4F9F4F0895E091870116
:1027A000F09188010591E0938701F093880103700F
:1027B000009379010E94DD130895E2E4FCE00091AA
:1027C00079011127E00FF11FE00FF11F059115911D
:1027D000000F111FF801059100937C0105910093F2
:1027E0007D0105910F7300937E0115911770109371
:1027F0007F01019F00928001E0937A01F0937B01B9
:1028000008950F931F932F933F934F930F921F920F
:10281000FF93EF9300938501003259F0F0981091E7
:102820007C01011728F020917D01021718F011F0AA
:1028300056C0F09A10917C01011B10918001019FFC
:10284000E0917A01F0917B01E00DF11D30917E0164
:1028500040917F01009181010093830100918201E9
:1028600000938401009185010E3231F400243695E5
:10287000301D3695301D301D0E940C100091D50181
:102880000E94521000E40E9452103F930091810177
:10289000003858F403950093810100E0F09B059106
:1028A0000E9452103A9591F702C00591FBCF3F91DB
:1028B0000E943C104A9569F00091830100938101C8
:1028C0000091820103950770009382010E94CB045E
:1028D000D3CF00918401009382010E94CB04EF9139
:1028E000FF911F900F904F913F912F911F910F914A
:1028F0000895FF92FFB6FF920F931F93AF93BF937C
:10290000CF93DF93EE0FFF1F002700938601009106
:102910008601003808F00FC003950591003809F4CE
:102920000AC0003828F0003C18F40E94A514EFCF2C
:102930000E940114ECCFDF91CF91BF91AF911F9115
:102940000F91FF90FFBEFF900895E0938701F093F1
:102950008801E6E3FCE2CFEDD1E00F93005810E0F0
:10296000E00FF11FE00FF11FC00FD11FC00FD11FEB
:1029700005911491F8010091810108831091820161
:1029800017700091790102950073102B10641F7766
:1029900019830F910995E0918701F09188010895BD
:1029A000CF93DF930F931F9300581127CFEDD1E002
:1029B000C00FD11FC00FD11F09810F7B09831F9149
:1029C0000F91DF91CF910895CF93DF930F9300582C
:1029D0001127CFEDD1E0C00FD11FC00FD11F09814A
:1029E000006409830F91DF91CF910895CF93DF9316
:1029F0000F931F93CFEDD1E000E4002331F00A954F
:102A000019811F7B19832296F8CF1F910F91DF91B7
:102A1000CF910895CF93DF930F931F93CFEDD1E024
:102A200000581127C00FD11FC00FD11F1981106886
:102A300019831F910F91DF91CF9108950F931F93E9
:102A4000CF93DF93CFEDD1E000581127C00FD11FF6
:102A5000C00FD11F08811981009381011093820159
:102A60001F77198312951370109379010E94DD135B
:102A70000E94CB04DF91CF911F910F91089508958B
:102A8000E0918701F09188012F933F931591259153
:102A9000359105910F9320938101109382010E943B
:102AA000CB040E940C100091D5010E94521000E44A
:102AB0000E9452100F91231739F030F40F930E94A7
:102AC00052100F912395F7CF0E943C103F912F9108
:102AD000E0938701F09388010895E0918701F091D8
:102AE00088010591003808F00FE7009381010591F6
:102AF000077000938201E0938701F09388010E94A0
:102B0000CB040895E0918701F09188010091810143
:102B10001591010F003808F00FE700938101009133
:102B200082011591010F077000938201E0938701E4
:102B3000F09388010E94CB040895CF93DF930F9305
:102B40001F93E0918701F09188010591E09387013F
:102B5000F0938801003CC0F40A38B0F00058112707
:102B6000CFEDD1E0C00FD11FC00FD11F0091810167
:102B7000088310918201177000917901029500730A
:102B8000102B1F7B1F7719831F910F91DF91CF911E
:102B900008950091D3010370003091F40091D801A1
:102BA0000F70003039F00CE20E9401140DE20E9417
:102BB000011406C00AE20E9401140BE20E940114F3
:102BC0000895CDE0D1E003C0CBE0D1E000C0FF929A
:102BD000FFB6FF92F89468817981FF90FFBEFF9065
:102BE00085EC99E06817790708F024C088279927B1
:102BF0000E94F9120E946213009171010E94011457
:102C0000009170010E94011400916F010E94011453
:102C100000917901013031F400916E01065F0E944C
:102C2000011408C00EE20E94011400916E010E947E
:102C3000011400C008953F15CE1340156D1582157F
:102C40009D153F153F15E115E415C9153F153F15B5
:102C50003F153F153F153F153F153F153F153F15D4
:102C60003F153F153F153F153F153F153F153F15C4
:102C70003F153F153F153F153F153F153F153F15B4
:102C80003F153F153F153F153F153F153F153F15A4
:102C90003F153F153F153F153F153F153F153F1594
:102CA0003F153F153F153F153F153F153F153F1584
:102CB0003F153F153F158102830000E2FBF5EEE46E
:102CC0002020208100835800208A20820200800872
:102CD00081018300038880008102830000F0E0E727
:102CE000E3EEED20208100835100888202008008FD
:102CF00081018300038980008102830000F1F2EEEC
:102D0000EF2020202081008351008882020080086B
:102D10008101830003898000810283000120E2FB9E
:102D2000EAEBFEF7E5EDEE2083000320E0E2E0F0C1
:102D3000E8E9EDFBEC2083050520F1E8E3EDE0EBAD
:102D4000EEEC208082000080038102830001E2F526
:102D5000EEE42020208100834D0189202081028320
:102D60000003ECE5EDFCF8E5202020202081028323
:102D70000005E2FBF5EEE4E0208100834D058820AC
:102D80002082070080608000FF92FFB6FF920F93C1
:102D90001F93EF93FF930091D60100FD3CC0E9E83B
:102DA000F1E00091C6001091C901013608F000520F
:102DB0000B3508F026C0073408F00DC0013408F0C8
:102DC00014C00A3308F01DC0003308F00EC00D30E7
:102DD00009F418C016C0033519F00D3409F011C0FC
:102DE000008310E01093C90116C013951F3010F036
:102DF00009F011C01093C901E10F1127F11F0083E1
:102E00000AC009C00091D60101600093D6010E945A
:102E100013170E94C717FF91EF911F910F91FF9019
:102E2000FFBEFF901895FF92FFB6FF920F931F937E
:102E30002F93EF93FF93E9E8F1E01091C90101911D
:102E4000033509F404C00D3409F42AC03EC0133020
:102E500019F0123031F039C001910E94F617F8F0E4
:102E6000202F01910E94F617D0F00295102F0191AA
:102E70000E94F617A0F0102B05EC101709E02007B0
:102E800070F40FE8011701E0020710F01127222764
:102E900020930E0110930D0108E80E940A1515C039
:102EA000113009F012C001910E94F61768F003304A
:102EB00008F00BC01091D3010093D301011729F042
:102EC0000093D3010E948C0300C000270093C90126
:102ED0000091D6010E7F0093D601FF91EF912F91C3
:102EE0001F910F91FF90FFBEFF9008951895FF92DC
:102EF000FFB6FF920F931F93EF93FF93E9EAF1E080
:102F00000091CA0110E0E00FF11F0395003278F440
:102F10000093CA010191003051F00093C600FF9167
:102F2000EF911F910F91FF90FFBEFF90189508ED54
:102F30000093C100F4CFFF92FFB6FF92F89409818D
:102F40001881FF90FFBEFF9007FF05C000E30D93BF
:102F50000D930D931BC0012F14EC0117098119E08B
:102F6000010758F051F009E00E94EC120D9304ECB7
:102F70000E94EC121D930D9309C009810E94EC126E
:102F80000D9308810E94EC121D930D9308950F93E9
:102F90001F93AF93BF93CF93DF93EF93FF93A9EA70
:102FA000B1E004E50D93CBE0D1E00E949B17CDE0AA
:102FB000D1E00E949B17C3EDD1E0088103700E940D
:102FC000EC120D930DE00D930AE00D9300E00D93CC
:102FD0000093CA0108EF0093C100FF91EF91DF91C8
:102FE000CF91BF91AF911F910F910895003398F049
:102FF0000A3318F4005388940FC0013460F007348A
:1030000018F40753889408C0013628F0073618F4DE
:103010000755889401C008940F700895FF92FFB679
:10302000FF920F931F930E9442051091CB010091D4
:10303000CC0103950A3018F40093CC0132C000276C
:1030400012600E9489050093CC010091CD01039587
:103050000A3018F40093CD0124C0002714600E94A8
:1030600059180E9468180E9479180093CD010E9497
:1030700027030091CE0103950A3018F40093CE0186
:1030800010C0002718600093CE010091CF01039576
:103090000A3018F40093CF0104C000271061009398
:1030A000CF011093CB011F910F91FF90FFBEFF90B6
:1030B00018950F930091D0010395023018F40093F6
:1030C000D00104C0002710620093D0010F91089531
:1030D0000F930091D1010395043018F40093D101AE
:1030E00006C0002710640093D1010E9488180F9138
:1030F00008950F930091D2010395053018F40093C1
:10310000D20104C0002710680093D2010F910895E6
:10311000FF92FFB6FF920F931F932F933F9300915F
:103120000B0110910C0120914F01309150010217B9
:10313000130739F000934F011093500109E80E94E2
:103140000A153F912F911F910F91FF90FFBEFF90A5
:10315000089508950F930091D3010370003009F48E
:103160005E980F9118955E9A0F9300911C00016074
:1031700000931C0000911D00016000931D000F9141
:1031800018955E9A0F9300911C00016000931C003B
:1031900000911D00016000931D000F9118950F9381
:1031A0001F9305B110E2012705B91F910F910895F2
:1031B000C8EED3E0EF93FF93E0E4FFE13197F1F73E
:0A31C0002197D1F7FF91EF910895D8
:00000001FF
