:020000020000FC
:0A0000000C9433000C94DB111895EA
:02000C00189545
:02001000189541
:0200140018953D
:02001800189539
:02001C00189535
:02002000189531
:0200240018952D
:02002800189529
:10002C000C9470020C9472020C9479020C947B0266
:02003C00189515
:02004000189511
:0200440018950D
:100048000C9449040C9415050C9414050C94951102
:020058001895F9
:02005C001895F5
:100060000C940217189505B70160102F0D7F15BF6E
:1000700005BFE0E0F1E000270193F530E9F7E0305B
:10008000D9F70293EDBFFEBFEEE1FF27EA95F083BB
:10009000E9F700E007B90FE308B902EC0AB90AEF83
:1000A0000BB90BE204B90CEF05B903E000936C0047
:1000B00000E0009368000CE00093B80002E30093B6
:1000C000BA0005E40093BC0007E60093C40000E01A
:1000D0000093C50008ED0093C10006E00093C20044
:1000E00002E00093B00003E00093B1000CE700933E
:1000F000B30000E000937000BAE4A8E3A0930B0102
:10010000B0930C01B0938900A0938800BAE4A8E3EF
:10011000A0930D01B0930E01B0938B00A0938A00C1
:1001200000E00093800007E000936F0002E000937E
:10013000810009EF07BD08BD02E004BD03E00093A4
:100140006E0003E005BD09E00093540109E000934F
:10015000550109E0009356010AE00093690001E0AF
:100160000DBB00E000937B0007E000937C000DEEE8
:1001700000937A00EF93FF93F3ECE0E5319731962B
:1001800031973196319731963197C1F7FF91EF91C1
:100190000E94EA150AE70E9430160E9414160023F6
:1001A00026F00AE70093AB0111C00E94EA1508E7A8
:1001B0000E9430160E941416002326F008E70093D0
:1001C000AB0104C000E00093AB0106C00E949F0F8A
:1001D0000E94C40F0E94500F09B105FD0C94F40059
:1001E000B4E0A0EB0C94F600AA27BB27A0932E0145
:1001F000B0932F0109E80E94A114B0E0A5E0A093FC
:100200001C01B0931D010091AB010F3F21F0EBE504
:10021000F6E10E94F21378940E9439040C941901BB
:10022000C8EED3E0E0E4FFE13197F1F72197D1F791
:10023000089500915D0100FF07C00E7F00935D01EE
:100240000F930E949E040F9101FF07C00D7F009342
:100250005D010F930E949F160F9103FF09C0077F56
:1002600000935D010F930E9439040E94D7010F9102
:1002700004FF09C00F7E00935D010F930E943904B3
:100280000E94FA010F9105FF23C00F7D00935D01CD
:100290000F9300911B01003059F0CF93DF93C2E31D
:1002A000D0E0C0931C01D0931D01DF91CF910AC013
:1002B000CF93DF93C5E0D0E0C0931C01D0931D0124
:1002C000DF91CF9103E000931B010E9494050F91F1
:1002D00006FF23C00F7B00935D010F9300911B016C
:1002E000003059F0CF93DF93C2E3D0E0C0931C01FC
:1002F000D0931D01DF91CF910AC0CF93DF93C5E06A
:10030000D0E0C0931C01D0931D01DF91CF9103E099
:1003100000931B010E94CE050F9107FF0DC00F93A4
:100320000091C10005FD07C00E943B050F910F77AA
:1003300000935D010F930F9100915E0100FF06C0D5
:100340000E7F00935E010F930F912FC001FF0AC033
:100350000D7F00935E010F930E9417020E945706C3
:100360000F9123C002FF0DC00B7F00935E010F931E
:1003700000911B01003009F00A9500931B010F91B9
:1003800014C003FF08C0077F00935E010F930E9413
:10039000E7030F910AC004FF08C00F7E00935E01BF
:1003A0000F930E943B050F9100C00C941901FF921E
:1003B000FFB6FF920F9300912101003021F402E07B
:1003C0000E94670312C0013021F400E00E9467031D
:1003D0000CC0023021F400E00E94670306C0033025
:1003E00021F400E00093AD0100C00F91FF90FFBE2B
:1003F000FF900895FF92FFB6FF920F9300912101A5
:10040000003021F401E00E9467030CC0023021F4A7
:1004100001E00E94670306C0033021F400E00E945F
:10042000670300C00F91FF90FFBEFF900895FF92F9
:10043000FFB6FF92CF93DF93EF93FF930F931F933A
:100440002F930E9422040E94410F00915701023015
:1004500009F038C000270F9300912E01009304018A
:1004600000912F010093050100912C0100930601DA
:1004700000912D0100930701009121010F7010914F
:1004800020011071012B10911F011072012B00939C
:1004900008010AE80E94A11400912101002389F4B7
:1004A00000911F01002339F009E80E9445140AE871
:1004B0000E94571406C009E80E9457140AE80E94D7
:1004C00045140F910395009357012F911F910F91A0
:1004D000FF91EF91DF91CF91FF90FFBEFF900895C4
:1004E0005E9818955E9A0F9301E000931D000F919E
:1004F00018955E9A1895FF92FFB6FF923F932F933F
:100500001F930F9310915E0100915801093059F02B
:1005100003950093580118600F931F930E94BA032C
:100520001F910F912DC00027009358010091590190
:10053000093029F0039500935901146021C0002768
:100540000093590100915C01043021F00395009360
:100550005C0104C0002700935C01106100915A0106
:10056000093029F0039500935A01126009C0002751
:1005700000935A0100915B01039500935B011160A8
:1005800010935E010F911F912F913F91FF90FFBE3D
:10059000FF901895CD02CD02FD02EEEED4D4BDBD84
:1005A000B2B29E9E8D8D7E7E767669695E5E58586B
:1005B0004F4F46463E3E3B3B00000000000000001F
:1005C000000000000000000000000000000000002B
:1005D000000000000000000000000000000000001B
:1005E000000000000000000000000000000000000B
:1005F0000000000000000000000046464646464657
:100600004646464600000000000000000000464646
:1006100046464646464646460000000000000000AA
:1006200000003B3B3B3B3B3B3B3B3B3B000000007C
:1006300000000000000000000000000000000000BA
:1006400000000000000000000000000000000000AA
:1006500000000000000000000000EF93FF930F93E4
:100660001F930091AD01002309F425C0E4E9F5E0F2
:1006700011270370E00FF11FE00FF11F0591149196
:10068000F801EE0FFF1F0091AC0110E0E00FF11F29
:100690000395003608F000270093AC010491002375
:1006A00031F00093B30002E40093B0000BC002E00D
:1006B0000093B00007C002E00093B0000027009351
:1006C000AC0100C01F910F91FF91EF9108950F931E
:1006D000002700931F010F91003009F40AC0013078
:1006E00009F417C0023009F424C0033009F431C002
:1006F00040C0009321012D9A0091AB01002341F0ED
:100700000F3F31F00E94C40FEBE5F6E10E94F213B7
:1007100030C0009321012D980091AB01002341F0DE
:100720000F3F31F00E94C40FEAE6F6E10E94F21397
:1007300020C0009321012D9A0091AB01002341F0CC
:100740000F3F31F00E94C40FE9E7F6E10E94F21377
:1007500010C0009321012D9A0091AB01002341F0BC
:100760000F3F31F00E94C40FE7E8F6E10E94F21358
:1007700000C0089509B1087110911801103021F4DA
:10078000003011F510E820C0083161F0083021F484
:1007900013951A3F90F418C0003119F41A951530CA
:1007A00020F012C0103881F040F000915D0100642B
:1007B0000F7D00935D01112707C000915D010F7B44
:1007C000006200935D01112710931801089509B18B
:1007D00000721FEF012705FBA9E0B1E0CAE0D1E0FC
:1007E0000E9403040E94110410915D0100910A010E
:1007F000007E003A11F4106103C0003409F418605F
:1008000010935D0108950C911FE22EF01A950117C7
:1008100031F0039504C01195011709F00A950C9366
:100820000895188117FB0C91002342F056F416FD31
:1008300003C01F77106404C0112702C016F010E82F
:1008400018830895CAE0D1E021E0199117FB76F4EE
:1008500016FB66F0012F0F710F3141F00395107EEA
:10086000102B0A3008F010621A9319912A9569F733
:1008700008950F931F93CF93DF93CAE0D1E011E067
:100880000FEF09931A95E9F7DF91CF911F910F911F
:100890000895FF92FFB6FF92EF93FF931F930F937C
:1008A00000915D0100FD42C0EFE5F1E00091C6005E
:1008B000033509F412C0033711F403E50EC00D34FB
:1008C00009F40BC00D3611F40DE407C0043509F42A
:1008D00004C00D3009F425C005C000830027009333
:1008E0009F0124C0003370F0093368F061F00134D7
:1008F00048F0063440F039F00052013418F0063464
:1009000010F009F013C010919F0113951F3010F0E3
:1009100009F00CC010939F01E10F10E0F11F00835C
:1009200005C000915D01016000935D010F911F9171
:10093000FF91EF91FF90FFBEFF901895FF92FFB6D9
:10094000FF92EF93FF930F931F932F93EFE5F1E047
:1009500010919F010191033509F407C00D3409F48A
:1009600038C0043509F44DC04EC02227143029F098
:10097000133051F0123071F046C001910E947D0594
:1009800038F10295007F202F01910E947D0500F132
:100990000F70202B01910E947D05D0F00295007F01
:1009A000102F01910E947D0598F00F70102B05EC1F
:1009B000101709E0200760F420932F0110932E01F7
:1009C00009E80E94A11400915D01006800935D0197
:1009D0001AC0113009F017C000912101033081F0D5
:1009E00001910E947D0560F0033008F00CC0009377
:1009F00021010E94670300915D01006800935D0181
:100A000002C0000000C0002700939F0100915D011B
:100A10000E7F00935D012F911F910F91FF91EF9138
:100A2000FF90FFBEFF9008951895FF92FFB6FF92CA
:100A3000EF93FF931F930F93EFE7F1E00091A00175
:100A400010E0E00FF11F03950F71003079F0009373
:100A5000A0010191003051F00093C6000F911F9149
:100A6000FF91EF91FF90FFBEFF90189508ED009366
:100A7000C100F4CF0895FF92FFB6FF92AF93BF93EA
:100A8000CF93DF93EF93FF930F931F93AFE7B1E003
:100A900004E50D93CCE2D1E009810E942D100D9365
:100AA00008810E942D101D930D93CEE2D1E00981A3
:100AB0000E942D100D9308810E942D101D930D93FF
:100AC000C1E2D1E008810E942D100D930DE00D933D
:100AD0000AE00D9300E00D930093A00108EF00934E
:100AE000C1001F910F91FF91EF91DF91CF91BF91C5
:100AF000AF91FF90FFBEFF900895003398F00A3346
:100B000018F4005388940FC0013460F0073418F4CF
:100B10000753889408C0013628F0073618F40755A3
:100B2000889401C008940895FF92FFB6FF920F9336
:100B30001F932F933F9300912101033009F426C0A6
:100B400000911F010F3F09F421C000912E01109167
:100B50002F0120911C0130911D01020F131F0E94D3
:100B6000440620E931E00217130710F4890107C099
:100B700024EC39E00217130710F009F08901009303
:100B80002E0110932F0109E80E94A1143F912F918B
:100B90001F910F91FF90FFBEFF900895FF92FFB647
:100BA000FF926F927F928F929F92AF92BF92CF925D
:100BB000DF920F931F932F933F93009121010330F6
:100BC00009F452C0E0911F01EF3F91F5009121011E
:100BD000003071F580901C0190901D01880C991CCB
:100BE000880C991C880C991C880C991C6090320107
:100BF000709033016818790888249924A0901C010A
:100C0000B0901D01CC24DD240E94401080901C0176
:100C100090901D010E941210850128E833E1209375
:100C20000B0130930C0120911C0130911D0108C073
:100C300000912E0110912F0120911C0130911D0176
:100C4000021B130B0E94440620E931E00217130730
:100C500017FD01C010F40027112700932E011093F7
:100C60002F0109E80E94A1143F912F911F910F912C
:100C7000DF90CF90BF90AF909F908F907F906F90BC
:100C8000FF90FFBEFF900895380188249924A0901A
:100C90001C01B0901D01CC24DD240E9440108090E6
:100CA0001C0190901D010E94121085010895FF9271
:100CB000FFB6FF920F931F932F9306B11FEF0127EB
:100CC0001091150100931501102720912101233067
:100CD00021F00E9474060E9494062F911F910F919B
:100CE000FF90FFBEFF9008950F931F9300FF12C067
:100CF0001091160117FF01C00DC0103091F01A9528
:100D00001093160171F41A951093160103E00E94D6
:100D1000670307C010912101133019F014E11093FB
:100D200016011F910F9108950F931F9311FD1EC07F
:100D30001091170117FF04C011271093170119C054
:100D40001030B9F01A951093170199F41091210100
:100D500001FD06C0113069F400E00E94670309C07C
:100D6000113039F001E00E94670303C014E01093D2
:100D700017011F910F910895DF0D9D07BF062A39B6
:100D80000B020000808000008080000080000001D5
:100D9000010000010100000180000080800000804F
:100DA00080000001000001010000010100000000BE
:100DB00000C07098ECF4F67A3A000000030E193780
:100DC0002F6F5E5C3A7AF6F4EC9870C00000005C1D
:100DD0005E6F2F37190E03000000000000006060F6
:100DE0000000000000000000000000000000000003
:100DF00000000000000000000000000000000000F3
:100E000000000000000000F0FC1C0E06060E1CFC9A
:100E1000F0000F3F3870606070383F0F006070382E
:100E20001CFEFE0000000000606060607F7F60606C
:100E3000606000181C0E06060686CEFC7800607006
:100E4000787C6E676361606000060606C6C6E6F6DB
:100E5000DE8E060018387060606060713F1F000011
:100E60000080C0E070381C8E86000E0F0F0D0C0C39
:100E70000C0C7F7F00FEFEC6C6C6C6C6C686060030
:100E800018387060606060713F1F00F8FC8EC6C645
:100E9000C6C6CE8C08001F3F7160606060713F1F46
:100EA00000060606060686E6FE7E1E000000607846
:100EB0007E1F07010000000078FCCE8686CEFC78FD
:100EC00000001E3F7361616161733F1E00F8FC8E7C
:100ED000060606068EFCF8001031736363636371C7
:100EE0003F1F0000000000000000000000000000A4
:100EF00000000000000000000000000000000000F2
:100F000000000000000000000000000000000000E1
:100F100000000000000000000000000000000000D1
:100F200000000000000000000000000000000000C1
:100F30000000000000000000000030432005000019
:100F4000C0F0F8F8FCFCFEFEFE7E7E7E7E7E7E7E9D
:100F50007E7E7EFEFEFEFCFCF8F8F0C0000000FF86
:100F6000FFFFFFFFFF07010000000000000000007E
:100F70000080C0E0703907FFFFFFFFFFFF0000FFA8
:100F8000FFFFFFFFFF0000000080C0E070381C0E74
:100F900007030100000000FFFFFFFFFFFF0000FF4D
:100FA000FFFFFFFFFFE09C0E0703010000000000B1
:100FB000000000000080E0FFFFFFFFFFFF000000D7
:100FC000030F1F1F3F3F7F7F7F7E7E7E7E7E7E7E64
:100FD0007E7E7E7F7F7F3F3F1F1F0F03000000004C
:100FE0000000000000000080C0E0F0FEFEFEFEFEFB
:100FF000FE000000000000000000000000000000F3
:101000000000F0F8FCFEFFFF7F3F1FFFFFFFFFFF28
:10101000FF000000000000000000000000000000D1
:101020000000000000000000000000FFFFFFFFFFC5
:10103000FF000000000000000000000000000000B1
:101040000000000000000000000000FFFFFFFFFFA5
:10105000FF00000000000000000000000000000091
:1010600000007E7E7E7E7E7E7E7E7E7F7F7F7F7F97
:101070007F7E7E7E7E7E7E7E7E7E00000000008003
:10108000E0F0F8F8FCFCFEFE7E7E7E7E7E7E7E7EBC
:101090007E7E7E7EFEFEFCFCFCF8F0E08000000F11
:1010A0000F0F0F0F0F0300000000000000000000F2
:1010B0000000000080C0E1FFFFFFFFFF3F000000D5
:1010C00000000000000000000000000080C0E0F010
:1010D000F8FCFEFF7F3F1F0F070301000000000028
:1010E0000000000080C0E0F0F8FCFEFF7F3F1F0F13
:1010F0000703010000000000000000000000007075
:10110000787C7E7F7F7F7F7F7F7F7F7E7E7E7E7EFF
:101110007E7E7E7E7E7E7E7E7E7E7E7E7E000080E9
:10112000E0F0F8F8FCFCFE7E7E7E7E7E7E7E7E7E9B
:101130007E7E7E7E7EFEFCFCFCF8F0E08000000FF0
:101140000F0F0F0F0F030000000000000000000051
:10115000000000000000C3FFFFFFFFFF7F00000052
:1011600000000000000000000000003E3E3E3E3E49
:101170003E3E3E3E3E7FFFFFFFF7E3C1000000F032
:10118000F0F0F0F0F0C000000000000000000000EF
:10119000000000000000C1FFFFFFFFFFFF00000193
:1011A000070F1F1F3F3F7F7E7E7E7E7E7E7E7E7E80
:1011B0007E7E7E7E7E7F3F3F3F1F0F070100000047
:1011C000000000000000000000000000000080C0DF
:1011D000E0F0F8FCFEFEFE7E3E1E00000000000077
:1011E00000000000000080C0E0F0F8FCFEFFFF7F80
:1011F0003F1F0F070301000000000000000000C0B7
:10120000E0F0F8FCFEFFFF7F3F1F0F070301000027
:1012100000000000FEFEFEFEFEFE00000000007F5B
:101220007F7F7F7F7F7F7E7E7E7E7E7E7E7E7E7ED8
:101230007E7E7E7EFFFFFFFFFFFF7E7E7E00000042
:10124000000000000000000000000000000000009E
:10125000000000003F3F3F3F3F3F0000000000FE16
:10126000FEFEFEFEFE7E7E7E7E7E7E7E7E7E7E7E1E
:101270007E7E7E7E7E7E7E7E7E7E7E7E7E0000FF09
:10128000FFFFFFFFFFC080808080808080808080A3
:10129000808080808080000000000000000000014D
:1012A000070F0F1F1F1F1F1F1F1F1F1F1F1F1F1F86
:1012B0001F1F1F1F1F3FFFFFFEFEFCF8E00000F096
:1012C000F0F0F0F0F0C000000000000000000000AE
:1012D000000000000000C0FFFFFFFFFFFF00000153
:1012E000070F1F1F3F3F7F7E7E7E7E7E7E7E7E7E3F
:1012F0007E7E7E7E7E7F3F3F1F1F0F070100000026
:1013000080E0F0F8F8FCFC7E7E7E7E7E7E7E7E7E37
:101310007E7E7E7EFEFCFCF8F8F0E080000000FEA1
:10132000FFFFFFFFFF0100008080808080808080C1
:10133000808080808003030303030303000000FF19
:10134000FFFFFFFFFFFE3F1F1F1F1F1F1F1F1F1F4E
:101350001F1F1F1F1F3FFFFEFEFCF8F0C00000FF15
:10136000FFFFFFFFFFC000000000000000000000C2
:10137000000000000000C0FFFFFFFFFFFF000000B3
:1013800003070F1F1F3F3F7E7E7E7E7E7E7E7E7E1A
:101390007E7E7E7E7E3F3F1F1F0F07030000007E84
:1013A0007E7E7E7E7E7E7E7E7E7E7E7E7E7E7E7E5D
:1013B0007E7E7E7E7E7EFEFEFEFEFEFEFE00000047
:1013C000000000000000000000000000000000001D
:1013D0000000C0F0FCFFFFFFFF7F1F0701000000BF
:1013E0000000000000000000000000000000C0F04D
:1013F000FCFFFFFFFF7F1F0701000000000000004F
:1014000000000000000000000000C0F0FCFFFFFF33
:10141000FF7F1F0701000000000000000000000027
:1014200000000000000040707C7F7F7F7F7F1F07EF
:1014300001000000000000000000000000000000AB
:1014400080E0F0F8F8FCFCFE7E7E7E7E7E7E7E7E76
:101450007E7E7E7EFEFCFCF8F8F0E080000000005E
:101460003FFFFFFFFFFFC180000000000000000001
:101470000000000080C1FFFFFFFFFF3F000000C031
:10148000E0F8FDFFFFFF7F3F3F3F3F3F3F3F3F3FD4
:101490003F3F3F3F3F7FFFFFFFFDF8E0C00000FF01
:1014A000FFFFFFFFFFC10000000000000000000080
:1014B000000000000000C1FFFFFFFFFFFF00000170
:1014C000070F1F1F3F3F7F7E7E7E7E7E7E7E7E7E5D
:1014D0007E7E7E7E7E7F3F3F1F1F0F0701000080C4
:1014E000E0F0F8F8FCFCFE7E7E7E7E7E7E7E7E7ED8
:1014F0007E7E7E7E7EFEFCFCF8F8F0E0800000FF41
:10150000FFFFFFFFFF0300000000000000000000DD
:1015100000000000000003FFFFFFFFFFFF000007C7
:101520001F3F7FFFFFFFFCF8F8F8F8F8F8F8F8F82D
:10153000F8F8F8F8F8FC7FFFFFFFFFFFFF0000005E
:10154000C0C0C0C0C0C0C101010101010101010151
:1015500001010101000080FFFFFFFFFFFF0000000D
:1015600001070F1F1F3F3F7F7E7E7E7E7E7E7E7E39
:101570007E7E7E7E7E7F3F3F1F1F0F0701000000A3
:10158000000000000000000000000000000000005B
:10159000000000000000000000000000000000004B
:1015A00000000000000000C0E0E0F0F0F8F8F8F8FB
:1015B000F8F8F8F8F8F8F0F0E0E0C00000000000FB
:1015C000000000000000FFFFFFFFFF070100000018
:1015D0000080C0E0703907FFFFFFFFFF0000000040
:1015E000000000000000FFFFFFFFFF8070381C0EAE
:1015F00007030100000080FFFFFFFFFF000000382D
:101600007C7C7C380000030F1F1F3F3F7E7C7C7C6E
:101610007C7C7C7C7C7E3F3F1F1F0F030000000012
:1016200000000000000000000000000000000000BA
:1016300000000000000000000000000000000000AA
:10164000000000000000000000000000000000801A
:10165000F8F8F8F8F80000000000000000000000B2
:10166000000000000000000000E0F0F8FC7E3F1FDA
:10167000FFFFFFFFFF00000000000000000000006F
:101680000000000000000000000303010000000053
:10169000FFFFFFFFFF000000000000000000003817
:1016A0007C7C7C38000000007C7C7C7C7C7C7C7CAE
:1016B0007F7F7F7F7F7C7C7C7C7C7C7C000000004B
:1016C000000000000000000000000000000000001A
:1016D000000000000000000000000000000000000A
:1016E00000000000000000C0E0E0F0F0F8F8F8F8BA
:1016F000F8F8F8F8F8F8F0F0E0E0C00000000000BA
:1017000000000000000007070707070100000000B5
:101710000000000080C0E1FFFFFFFF3F000000006D
:1017200000000000000000000000000080C0E0F0A9
:10173000F8FCFE7F3F1F0F07030100000000003888
:101740007C7C7C3800006070787C7E7F7F7F7F7F30
:101750007F7D7C7C7C7C7C7C7C7C7C7C00000000B5
:101760000000000000000000000000000000000079
:101770000000000000000000000000000000000069
:1017800000000000000000C0E0E0F0F0F8F8F8F819
:10179000F8F8F8F8F8F0F0E0E0C000000000000011
:1017A000000000000000070707070703010000C052
:1017B000C0C0C0E0E1F3FFFF7F3F1F00000000005A
:1017C0000000000000008080808080000000000396
:1017D0000303030307070FFFFFFEFCF800000038B8
:1017E0007C7C7C380000030F1F1F3F3F7E7C7C7C8D
:1017F0007C7C7C7C7E3E3F1F1F0F070100000000A9
:1018000000000000000000000000000000000000D8
:1018100000000000000000000000000000000000C8
:1018200000000000000000000000000000000000B8
:101830000080C0E0F0F8F8F8783800000000000000
:1018400000000000000000000080C0E0F0F8FCFE96
:101850007F3F1F0F07838180808000000000000011
:10186000000000000000FCFEFFFFFFFFF7F3F1F0B7
:10187000F0F0F0F0F0FFFFFFFFFFF0F000000038A5
:101880007C7C7C38000001010101010101010101A2
:1018900001010101017F7F7F7F7F010100000000C6
:1018A0000000000000000000000000000000000038
:1018B0000000000000000000000000000000000028
:1018C000000000000000F8F8F8F8F8F8F8F8F8F868
:1018D000F8F8F8F8F8F8F8F8F8F800000000000058
:1018E000000000000000FFFFFFFFFFE0E0E0E0E09D
:1018F000E0E0E0E0E0C0C080800000000000000008
:10190000000000000000818383838303030303033B
:101910000303030307070FFFFFFFFEF80000003873
:101920007C7C7C380000030F1F1F3F3E7C7C7C7C4E
:101930007C7C7C7C7C3E3F1F1F0F07010000000069
:101940000000000000000000000000000000000097
:101950000000000000000000000000000000000087
:1019600000000000000000C0E0E0F0F0F8F8F8F837
:10197000F8F8F8F8F8F0F0E0E0C00000000000002F
:10198000000000000000FFFFFFFFFF83C1E0E0E078
:10199000E0E0E0E0E0C1C383830303000000000057
:1019A000000000000000FFFFFFFFFF0F070303031D
:1019B0000303030303070FFFFFFFFEF800000038D7
:1019C0007C7C7C380000030F1F1F3F3F7E7C7C7CAB
:1019D0007C7C7C7C7C3E3F1F1F0F070100000000C9
:1019E00000000000000000000000000000000000F7
:1019F00000000000000000000000000000000000E7
:101A0000000000000000F8F8F8F8F8F8F8F8F8F826
:101A1000F8F8F8F8F8F8F8F8F8F8F8F80000000026
:101A200000000000000000000000000000000000B6
:101A3000000000C0F0FCFFFF7F1F07010000000056
:101A4000000000000000000000000000000000C0D6
:101A5000F0FCFFFF7F1F07010000000000000038BE
:101A60007C7C7C380000000000000040707C7F7FA0
:101A70007F1F0701000000000000000000000000C0
:101A80000000000000000000000000000000000056
:101A90000000000000000000000000000000000046
:101AA0000000000000000080E0E0F0F0F8F8F8F836
:101AB000F8F8F8F8F8F0F0E0E0C0000000000000EE
:101AC000000000000000001F3F7FFFFFF3E1C0C0E7
:101AD000C0C0C0C0E1F3FFFF7F3F1F000000000057
:101AE000000000000000F8FCFEFFFF0F07030303E7
:101AF0000303030303070FFFFFFEFCF80000003899
:101B00007C7C7C380000030F1F1F3F3F7E7C7C7C69
:101B10007C7C7C7C7C3E3F1F1F0F07010000000087
:101B200000000000000000000000000000000000B5
:101B300000000000000000000000000000000000A5
:101B40000000000000000080C0E0E0F0F0F8F8F8CD
:101B5000F8F8F8F8F8F8F0F0E0E0C0000000000055
:101B60000000000000007EFFFFFFFFC381000000B7
:101B7000000000000081C3FFFFFFFFFF0000000026
:101B800000000000000000010307070F0F1F1F1FC8
:101B90001F1F1F1F1F0F0F07FFFFFFFF0000003851
:101BA0007C7C7C380000030F1F1F3F3E7C7C7C7CCC
:101BB0007C7C7C7C7C7C3E3F1F1F0F030000E0FF91
:101BC0000B0200CCEE666666666666FEFC000307E6
:101BD000060606060603070700FEFE3636363636CC
:101BE00076E6C0000707060606060607030100FEA4
:101BF000FE66666666767EECC00007070606060689
:101C0000060703010088CC6E66666666663C1800AF
:101C1000010306060606060603030000FCFE060690
:101C20000606FEFC00000E0F0706060606070F0E4E
:101C300000F8FC6666666666667C38000103060688
:101C4000060606060600008EDEF060FEFE60F0DE90
:101C50008E000707000007070000070700080C0EAA
:101C60000666666666FC9800010307060606060619
:101C7000030100FEFE0080C0E07038FEFE00070792
:101C8000070301000000070700FEFE0080C6E670A3
:101C900038FEFE000707070301000000070700FEEB
:101CA000FE606070F8DC8E06000007070000000090
:101CB000010307060000E0F81E06061EF8E000001B
:101CC0000707000000000000070700FEFE1C30E0D0
:101CD000E0301CFEFE0007070000000000000707C0
:101CE00000FEFE606060606060FEFE0007070000AE
:101CF00000000000070700F8FC0E060606060EFCB2
:101D0000F8000103070606060607030100FEFE06AB
:101D10000606060606FEFE0007070000000000009B
:101D2000070700FEFEC6C6C6C6C6EE7C380007071B
:101D3000000000000000000000F8FC0E0606060689
:101D40000E9C98000103070606060607030100061D
:101D5000060606FEFE06060606000000000007074F
:101D600000000000003E7E606060606060FEFE007B
:101D70000006060606060607030100F8FC0C0CFE2A
:101D8000FE0C0CFCF8000103030307070303030127
:101D900000060E9CD8F0F0B89C0E06000607030162
:101DA00000000103070600FEFE0000000000FEFE2A
:101DB000000007070606060616171F1C003E7EE0F9
:101DC000C0C0C0C0C0FEFE00000000000000000057
:101DD000070700FEFE0000F8F80000FEFE000707FF
:101DE000060607070606070700FEFE0000F8F800D3
:101DF00000FEFE0007070606070716161F1F00064F
:101E000006FEFE30303030F0E00000000707060626
:101E10000606070300FEFE303030F0E000FEFE0054
:101E20000707060606070300070700FEFE303030EE
:101E3000303070E0C00007070606060606070301FB
:101E400000080C0E066666666EFCF80001030706C5
:101E500006060607030100FEFE60FCFE060606FEFF
:101E6000FC0007070003070606060703003C7E6622
:101E7000E6E6E66666FEFE000406070301000000D3
:101E8000070700911E01002309F008950FEF00934A
:101E90001E010E94971400E000931E01089508950A
:101EA0000E94EA150091AB010E94301600E80E94E2
:101EB00030160FEA0E9430160E94141608950F93F0
:101EC0001F932F9310E0202F1093A3012093A401C0
:101ED0000E94EB0F0E94EA150091AB010E943016A0
:101EE00000E40E94301614E800E00E9430161A95B3
:101EF000D9F70E9414162F911F910F9108950F93F7
:101F00001F932F9310E0202F1093A3012093A4017F
:101F10000E94EB0F0E94EA150091AB010E9430165F
:101F200000E40E94301610E82F91022F0E94301614
:101F30001A95D9F70E9414161F910F9108950E94C7
:101F4000EA150091AB010E9430160F3F09F4000022
:101F500000E00E94301618E1EEE6FFE105910E94D4
:101F600030161A951123D1F70E9414160895D580C2
:101F7000A83FD300408D14A1C8DA1281FFD922DB1B
:101F800030A4A60010B0AF000F931F932F930E94B0
:101F9000691428E014E82A951F9310E01093A30118
:101FA0002093A4010E94EB0F1F910E94EA1500915B
:101FB000AB010E94301600E40E94301600E00E943F
:101FC00030161A95D9F70E941416222319F72F916B
:101FD0001F910F9108951091A3012091A40117FD65
:101FE00020C00F931093A1012093A2010E94EA1533
:101FF0000091AB010E94301600E00E943016022FC3
:102000000770006B0E943016012F0F700E9430166F
:10201000012F02950F7000610E9430160E94141665
:102020000F910895FF92FFB6FF92FF920F921F92B9
:10203000799C6001689C5001699CFF24B00CC11C14
:10204000DF1C789CFF24B00CC11CDF1C1F900F907C
:10205000FF90FF90FFBEFF900895FF92FFB6FF92A2
:10206000102F0F70107F1295005D0A3308F0095F82
:10207000105D1A3308F0195FFF90FFBEFF900895BE
:102080000024112422243324F0E2660C771C881CDF
:10209000991C001C111C221C331C0A141B042C0448
:1020A0003D0428F063940A181B082C083D08FA9593
:1020B00061F708950F931F932F933F934F935F936F
:1020C0006F937F93CC24DD24EE2400E4F02E88244B
:1020D0009924AA24BB24840195010C291D292E29A9
:1020E0003F29B694A79497948794401751076207A5
:1020F000730740F08C289D28AE28BF28401B510B49
:10210000620B730BF694E794D794C794F694E79414
:10211000D794C7940C2D0D290E290F29E1F67F9134
:102120006F915F914F913F912F911F910F91089562
:10213000FF92FFB6FF920F931F933F934F9330E1AF
:10214000CC24BB24AA24FF27000F111FAA1CBB1CF0
:10215000CC1C3A9549F400004F913F911F910F918B
:10216000FF90FFBEFF900895EDE042914D5F43FD6B
:1021700040834081405D47FD4083EA30B1F7E4CFC2
:102180004F935F936F937F938F939F93FF93EF93FF
:1021900097FD0E948C1140E2EE24DD24CC24BB2468
:1021A000AA24FF27660F771F881F991FAA1CBB1C34
:1021B000CC1CDD1CEE1C4A9561F0EFE052915D5F96
:1021C00053FD50835081505D57FD5083EA30B1F785
:1021D000E9CF5A2D5F7050635093AF015A2D52953D
:1021E0005F7050635093B0015B2D5F7050635093EC
:1021F000B1015B2D52955F7050635093B2015C2D1D
:102200005F7050635093B3015C2D52955F705063C3
:102210005093B4015D2D5F7050635093B5015D2DF7
:1022200052955F7050635093B6015E2D5F7050639E
:102230005093B7015E2D52955F7050635093B80173
:10224000EF91FF919F918F917F916F915F914F914E
:1022500008950F931F932F93222710E30091B80145
:10226000011719F400E2239501C010E20093B801B0
:102270000091B701011719F400E2239501C010E2A3
:102280000093B7010091B601011719F4239500E2FC
:1022900001C010E20093B6010091B501011719F4D5
:1022A000239500E201C010E20093B5010091B40152
:1022B000011719F4239500E201C010E20093B40164
:1022C0000091B301011719F4239500E201C010E257
:1022D0000093B3010091B201011719F4239500E2B4
:1022E00001C010E20093B2010091B101011719F48D
:1022F000239500E201C010E20093B1010091B0010A
:102300000093B0010091AF010093AF012093B90198
:102310002F911F910F9108956095709580959095DC
:102320006F5F7F4F8F4F9F4F0895FF92FFB6FF92D1
:10233000EF93FF936F927F928F929F92AF92BF9293
:10234000CF92DF925E9B05C0AA24BB24CC24DD245F
:1023500007C0609078007090790043010E941210CD
:1023600060902201709023018090240190902501BB
:102370006A0C7B1C8C1C9D1C6092220170922301B4
:102380008092240190922501E0912601F09127018D
:102390003196E0932601F0932701DF90CF90BF9014
:1023A000AF909F908F907F906F90FF91EF91FF90F3
:1023B000FFBEFF901895FF92FFB6FF920F931F93F9
:1023C0002F933F9300E000931D005E9A00918100DF
:1023D0000F93087F00938100209184003091850045
:1023E0000027009385000093840010910C01009158
:1023F0000B01109389000093880010910E01009149
:102400000D0110938B0000938A0001E003BD0F9132
:10241000009381004F93FF93EF93DF93CF930F923D
:102420001F922F923F924F925F926F927F928F9264
:102430009F92AF92BF92CF92DF92EF92FF92009164
:1024400069000370023031F1033029F00BE0009392
:1024500069000C943E130DEE00937A000091690020
:102460000C7F02600093690020930F0130931001EC
:102470000091110110911201201B310B88943795A6
:10248000279588943795279520931301309314014D
:102490000C943E130DE600937A00009169000C7FC6
:1024A00003600093690020931101309312010091A1
:1024B0000F0110911001201B310B089437952795BF
:1024C0000894379527952093130130931401609059
:1024D0002201709023018090240190902501A0900A
:1024E0002601B0902701660C771C881C991C660C8D
:1024F000771C881C991CCC24DD240E944010660C9B
:10250000771C881C991C660C771C881C991CA301DD
:10251000B401609228017092290180922A01909260
:102520002B010E945A1080923201909233010027B1
:1025300000932201009323010093240100932501BD
:102540000093260100932701F1E0E2E5EF01002767
:10255000802E202E302E7A906A900FE0002359F0C2
:102560000A951A900A90600C711C821C931C12929E
:1025700002920C94AE12E0E1F0E05F01CC24DD2485
:102580000E94401060922C0170922D010091210157
:10259000003009F416C0013009F407C0023009F414
:1025A0000AC0033009F407C069C02D988824992413
:1025B00083942BC063C02D9A08E31AE4480125C018
:1025C0005DC02D9A609032017090330180902E0191
:1025D00090902F016818790880900B0190900C0161
:1025E000860C971C97FE08C001E010E048010FEF31
:1025F00000931F010C94051308E31AE4801691065A
:1026000008F04801002700931F0180920B0190926F
:102610000C0100912101003009F030C0E0912C0143
:10262000F0912D0100912E0110912F01E01BF10B73
:1026300018F4E095F095319603E010E0E017F1070B
:1026400050F400270093AE015F98109120010FEF26
:10265000009320010EC00091AE010A3020F40395D2
:102660000093AE010BC05F9A1091200100E000932F
:102670002001011719F008E80E94A114FF90EF90C3
:10268000DF90CF90BF90AF909F908F907F906F9092
:102690005F904F903F902F901F900F90CF91DF91C0
:1026A000EF91FF914F913F912F911F910F91FF90CB
:1026B000FFBEFF901895FF92FFB6FF920F931F93F6
:1026C0002F933F934F930F921F92FF93EF93F198A5
:1026D000F0980F930091A90110E0E8E7FDE0E00F0A
:1026E000F11FE00FF11F05911591000F111F0093CD
:1026F000A7011093A801F8010F911591259135912B
:102700004591003249F0003031F0011718F00217FE
:1027100021F018F05AC0F09AF19A003828F0003CE5
:10272000C8F3103C08F400540F93011B349F009D24
:10273000E00DF11D0091A3010093A5010091A401FA
:102740000093A6010F910E3221F4002436953695A0
:10275000301D4F930E94EA150091AB010E94301684
:1027600000E40E9430163F930091A301003868F402
:1027700003950093A30100E0F19B05910E943016A0
:102780003A95F0993A9581F702C00591F9CF3F91BA
:102790000E9414164A9579F00091A5010093A301B7
:1027A0000091A601039507700093A4010093A60170
:1027B0000E94EB0FCFCF4F910091A401041B039512
:1027C00007700093A4010E94EB0FEF91FF911F90FF
:1027D0000F904F913F912F911F910F91FF90FFBE4E
:1027E000FF900895FF92FFB6FF920F931F93AF9350
:1027F000BF93CF93DF93EE0FFF1F00270093AA0133
:102800000091AA01003808F011C003950093051447
:102810000591003809F40AC0003828F0003C18F48B
:102820000E942014EDCF0E945B13EACFDF91CF917D
:10283000BF91AF911F910F91FF90FFBEFF90089540
:10284000DF01EAE2FBE2CAEBD1E00F93005810E0AF
:10285000E00FF11FE00FF11FC00FD11FC00FD11FFC
:1028600005911491F8010091A30108831091A4012E
:1028700017700091A90102950073102B10641F7747
:1028800019830F910995FD010895CF93DF930F935D
:1028900000581127CAEBD1E0C00FD11FC00FD11FC4
:1028A00009810F7B09830F91DF91CF910895CF9319
:1028B000DF930F9300581127CAEBD1E0C00FD11F4F
:1028C000C00FD11F0981006409830F91DF91CF915F
:1028D0000895CF93DF930F931F93CAEBD1E000E4E9
:1028E000002339F00A9519811F7B1F7719832296DF
:1028F000F7CF1F910F91DF91CF910895CF93DF9381
:10290000CAEBD1E00F9300581127C00FD11FC00FA1
:10291000D11F0981007C003C0F9131F40F930E947C
:10292000B5140E9420140F91DF91CF9108950F9359
:1029300008E8003920F40E947E140395FACF0F9125
:102940000895CF93DF930F931F93CAEBD1E0005804
:102950001127C00FD11FC00FD11F19811068198313
:102960001F910F91DF91CF9108950F931F93CF93F4
:10297000DF93CAEBD1E000581127C00FD11FC00F61
:10298000D11F088119810093A3011093A4011F771F
:1029900010641983129513701093A9010E94EB0F14
:1029A000DF91CF911F910F9108950895FD01059139
:1029B00003700093A901DF010895FD012F933F9358
:1029C000159125913591059133950F932093A3018E
:1029D0001093A4010E94EB0F0E94EA150091AB0135
:1029E0000E94301600E40E9430160F91231739F030
:1029F00030F40F930E9430160F912395F7CF0E9469
:102A000014163F912F91DF010895FD0105910038C3
:102A100008F00FE70093A301059107700093A4014C
:102A2000DF010E94EB0F0895FD010091A3011591B4
:102A3000010F003808F00FE70093A3010091A401F3
:102A40001591010F07700093A401DF010E94EB0FA5
:102A50000895CF93DF930F931F93FD010591DF013D
:102A6000003CC0F40A38B0F000581127CAEBD1E09E
:102A7000C00FD11FC00FD11F0091A3010883109177
:102A8000A40117700091A90102950073102B1F7B00
:102A90001F7719831F910F91DF91CF9108950091B6
:102AA0002001003039F00CE20E945B130DE20E941D
:102AB0005B1306C00AE20E945B130BE20E945B13E9
:102AC0000895CEE2D1E003C0CCE2D1E000C068813D
:102AD000798184EC99E06817790710F009F024C037
:102AE000882799270E94C0100E9429110091B201E5
:102AF0000E945B130091B1010E945B130091B00131
:102B00000E945B130091A901013031F40091AF01E3
:102B1000065F0E945B1308C00EE20E945B130091E7
:102B2000AF010E945B1300C00895D514D614DD14C4
:102B3000051514152915D514D5144F1561156415EF
:102B4000D514D514D514D514D514D514D514D5143D
:102B5000D514D514D514D514D514D514D514D5142D
:102B6000D514D514D514D514D514D514D514D5141D
:102B7000D514D514D514D514D514D514D514D5140D
:102B8000D514D514D514D514D514D514D514D514FD
:102B9000D514D514D514D514D514D514D514D514ED
:102BA000D514D514D514D514D5142098289A089581
:102BB0002898209A08952198299A08952998219A69
:102BC00008952F930E94DB150E94D5150E941416BC
:102BD0002F9108952F930E94DE1524E02150F0F7E5
:102BE00000000E94D81524E02150F0F700002F913A
:102BF00008952F930E94DB1524E02150F0F7000088
:102C00000E94D51524E02150F0F700000E94DE1547
:102C100024E02150F0F700000E94D81524E0215054
:102C2000F0F700002F9108952F930E94D81524E00B
:102C30002150F0F700000E94DE1524E02150F0F74B
:102C400000000E94D51524E02150F0F700000E94FA
:102C5000DB1529E02150F0F7000000002F910895C6
:102C60001F932F9318E0001F18F40E94DB1502C079
:102C70000E94DE1524E02150F0F700000E94D515D7
:102C800024E02150F0F700000E94D8151A9559F75A
:102C90000E94DB1524E02150F0F700000E94D515BA
:102CA00024E02150F0F7000013B111FB0E94D81569
:102CB0002F911F9108958100830000E2FBF5EEE45F
:102CC0008102836800888101830003858A898202EA
:102CD000007F08808100830000F0E0E7E3EEED81F3
:102CE00002834E00898202007F0881018300038AEB
:102CF00080008100830000F1F2EEEF8102834E003C
:102D0000898202007F0881018300038A800081009C
:102D100083000120E2FBEAEBFEF7E5EDEE202083E5
:102D2000000320E0E2E0F0E8E9EDFBEC2020830086
:102D30000520F1E8E3EDE0EBEEEC20202080FF92AF
:102D4000FFB6FF920F931F932F9300910001013064
:102D500009F407C0023009F414C0033009F426C096
:102D60004AC000910101033010F009F044C01091F5
:102D70002101133009F43FC0009321010E94670331
:102D80003AC0009101011091020117FD34C024ECFA
:102D9000021729E0120711F008F02DC000932E0150
:102DA00010932F0109E80E94A11425C00091010190
:102DB0001091020117FD0FC024EC021729E0120741
:102DC00011F008F008C000932E0110932F0109E8BC
:102DD0000E94A11410C000910301033010F009F00B
:102DE0000AC010912101133009F405C0009321019C
:102DF0000E94670300C02F911F910F91FF90FFBEAB
:102E0000FF900895FF92FFB6FF920F931F93EF93E9
:102E1000FF93E4E4FEE20091B900087F0695069571
:102E200006951127E00FF11FE00FF11F0591149196
:102E3000F8010995FF91EF911F910F91FF90FFBE4F
:102E4000FF9018954217B917B917B917B917B917DD
:102E5000B917B917B917B917B917B9174617B91765
:102E6000B917B91753176A17B917B9178017891700
:102E7000B9179E17B517B517B917B917B917B917F5
:102E8000B917B91705ED0093BC00089500E0009351
:102E9000000100910300013011F405E801C005ECC8
:102EA0000093BC000895002710910001E1E0F1E0DB
:102EB000E10FF01F0091BB000083139510930001F8
:102EC00003E00A95101711F405E801C005EC009322
:102ED000BC000895002710910001E1E0F1E0E10F4E
:102EE000F01F0091BB00008313951093000105ECC7
:102EF0000093BC0000915D01026000935D010895A4
:102F000005EC0093BC0000915D01026000935D013F
:102F1000089510E010930001E4E0F1E00027E10FD4
:102F2000F01F00810093BB0000910500013011F4F7
:102F300005E801C005EC0093BC000895002710913E
:102F40000001139510930001E4E0F1E0E10FF01FA0
:102F500000810093BB0005E00A95101711F405E805
:102F600001C005EC0093BC00089505EC0093BC0083
:042F70000895089523
:00000001FF
