:020000020000FC
:0A0000000C9433000C949E04189534
:02000C00189545
:02001000189541
:0200140018953D
:02001800189539
:02001C00189535
:02002000189531
:0200240018952D
:02002800189529
:10002C000C9498040C949A040C949C040C94450C19
:02003C00189515
:02004000189511
:0200440018950D
:0A0048000C9412080C94C3081895DC
:060054000C9456041895FF
:02005C001895F5
:100060000C94BD0A1895F894A89504B7077F04BFAF
:100070000091600008610093600000E00093600060
:1000800005B70160102F0D7F15BF05BF04B700FD38
:1000900001C00EC0E0E0F1E000270193F930E9F77C
:1000A000E030D9F70293EEE1FF27EA95F083E9F714
:1000B000002704BFEFEFF8E0EDBFFEBF0BE204B98D
:1000C0000CEF05B900E007B90FE308B900EC0AB975
:1000D00008EF0BB909EF07BD08BD02E004BD02E05F
:1000E00000936E0003E005BDBAE4A8E3A09300010D
:1000F000B0930101B0938900A0938800BAE4A8E30B
:10010000A0930201B0930301B0938B00A0938A00E7
:1001100000E00093800007E000936F0002E000938E
:1001200081000DE600937A0000E000937B0007E079
:1001300000937C000CE00093B80002E30093BA0047
:100140000FEF0093BB0005EC0093BC0003B104FF6C
:1001500007C007E60093C40000E00093C50006C096
:1001600009E10093C40000E00093C50008ED00938E
:10017000C10006E00093C20001E00093690001E0C5
:100180000DBBE0E5F3EC0E94ED0B08E70E942C0AA2
:1001900010910E01103041F00AE70E942C0A1091D4
:1001A0000E01103009F0002700930701002309F425
:1001B00006C00E94460A0E94710A0E94370A000087
:1001C000789403E016B110FD00E00E94070C009146
:1001D000360100FF08C00E7F009336010E945C08C4
:1001E00001E00E9474090091360101FF05C00D7FF6
:1001F000009336010E94990B0091360103FF05C060
:10020000077F009336010E94E8010091360104FF48
:1002100005C00F7E009336010E940802009136014E
:1002200005FF05C00F7D009336010E942802009152
:10023000360106FF05C00F7B009336010E947E0247
:1002400000913D0100FF06C00E7F00933D0101E0DB
:100250000E94740900913D0101FF07C00D7F0093CA
:100260003D010E9434090E94000300913D0102FFFC
:1002700005C00B7F00933D010E94980100913D0154
:1002800003FF05C0077F00933D010E9451010091CB
:100290003D0106FF05C00F7B00933D010E94E20671
:1002A00096CF0F931F932F930091C601003051F00A
:1002B0000A950093C60102E310E0009393011093A6
:1002C000940106C005E010E000939301109394019F
:1002D0000091360105FD28C006FD26C0002719B192
:1002E00014FF016013FF02601091C4010117E1F0D7
:1002F0002091C5011330A1F4021791F0023039F4B6
:10030000009136010F7D00640093360106C0009114
:10031000360100620F7B0093360124E12093C60171
:100320001093C5010093C4012F911F910F9108955F
:100330000F931F9309B11FEF012700721091C7019E
:100340000093C701102715FF04C011E01093C801E6
:100350003CC01091C80117FF04C011271093C801B9
:1003600034C0103009F11A951093C80171F505FDDC
:1003700017C000C01091CA0113951093CA01123022
:1003800030F41091C901153000F11436F0F40091E9
:10039000360108600093360100270093CA0115C09A
:1003A00011271093C90111C005FF0FC01091C90199
:1003B000143629F4009136010061009336011F3F85
:1003C00021F013951093C90100C01F910F9108955A
:1003D000FF92FFB6FF920F9300910F010370003060
:1003E00021F402E00E94070C0EC0013021F400E06D
:1003F0000E94070C08C0023021F400E00E94070CA4
:1004000002C0033001F40F91FF90FFBEFF900895EA
:10041000FF92FFB6FF920F9300910F01037000301F
:1004200021F401E00E94070C0EC0023021F401E02B
:100430000E94070C08C0033031F406B100FF03C06E
:1004400000E00E94070C0F91FF90FFBEFF900895FF
:10045000FF92FFB6FF926F927F928F929F92AF9220
:10046000BF92CF92DF920F931F932F933F930091F0
:100470000F01033009F432C0003039F00091070158
:10048000083719F00A3709F029C00091BF010F3F62
:1004900009F424C000919A0110919B0120919301CD
:1004A00030919401020F131F0E94F10220E931E004
:1004B0000217130714F4890107C024EC39E002176E
:1004C000130710F009F0890100939A0110939B0122
:1004D00009E80E9404070BE80E9404073F912F914E
:1004E0001F910F91DF90CF90BF90AF909F908F9012
:1004F0007F906F90FF90FFBEFF900895FF92FFB630
:10050000FF926F927F928F929F92AF92BF92CF9203
:10051000DF920F931F932F933F9300910F010330AE
:1005200009F44FC0003039F000910701083719F085
:100530000A3709F046C0E091BF01EF3F19F500917D
:100540000F010030F9F405E010E0480104E110E08B
:1005500038010E94C6034501609095017090960194
:10056000681879088824992405E010E05801CC2403
:10057000DD240E94D90305E010E048010E94C60373
:10058000850104C000919A0110919B012091930173
:1005900030919401021B130B0E94F10220E931E01B
:1005A0000217130717FD01C010F40027112700934D
:1005B0009A0110939B0109E80E9404070BE80E942E
:1005C00004073F912F911F910F91DF90CF90BF9023
:1005D000AF909F908F907F906F90FF90FFBEFF90A5
:1005E000089538018824992405E010E05801CC24AE
:1005F000DD240E94D90348010E94C60385010895A5
:10060000FF92FFB6FF920F931F932F9306B11FEF38
:10061000012710918A0100938A01102720910F0170
:10062000233021F00E941D030E943D032F911F9152
:100630000F91FF90FFBEFF9008950F931F9300FF4F
:1006400012C010918B0117FF01C00DC0103091F046
:100650001A9510938B0171F41A9510938B0103E096
:100660000E94070C07C010910F01133019F014E11C
:1006700010938B011F910F9108950F931F93209159
:100680000F01233019F111FD1EC010918C0117FFCD
:1006900004C0112710938C0119C01030B9F01A95BD
:1006A00010938C0199F410910F0101FD06C01130D7
:1006B00069F400E00E94070C09C0113039F001E034
:1006C0000E94070C03C015E010938C011F910F913D
:1006D00008954F935F936F937F93AF92BF92CF92A2
:1006E000FF93EF9340E1CC24BB24AA24FF27660F9D
:1006F000771FAA1CBB1CCC1C4A9561F0EDE05291FF
:100700005D5F53FD50835081505D57FD5083EA304B
:10071000B1F7EDCF5A2D5F705063509330015A2DD1
:1007200052955F705063509331015B2D5F70506341
:10073000509332015B2D52955F705063509333019B
:10074000EF91FF91CF90BF90AF907F916F915F91AC
:100750004F9108950F931F932F933F93EF93FF9320
:10076000E4E3F1E0222732E010E3332341F0029189
:10077000011729F400E223953A950083F6CFFF9103
:10078000EF913F912F911F910F9108950F921F921A
:10079000799C6001689C5001699CB00CC11C0024CC
:1007A000D01C789CB00CC11C0024D01C1F900F9052
:1007B0000895FF932F923F924F925F922224332409
:1007C00044245524F0E2660C771C881C991C221CDA
:1007D000331C441C551C2A143B044C045D0428F0B3
:1007E00063942A183B084C085D08FA9561F7220CBF
:1007F000331C441C551C2A143B044C045D0430F08B
:10080000F1E06F0EF0E07F1E8F1E9F1E5F904F90F5
:100810003F902F90FF910895AF92BF92CF92DF92B9
:10082000EF92FF920F931F932F933F934F935F93FA
:100830006F937F93CC24DD24EE2400E4F02E8824F3
:100840009924AA24BB24840195010C291D292E2951
:100850003F29B694A794979487944017510762074D
:10086000730740F08C289D28AE28BF28401B510BF1
:10087000620B730BF694E794D794C794F694E794BD
:10088000D794C7940C2D0D290E290F29E1F67F91DD
:100890006F915F914F913F912F911F910F91FF9019
:1008A000EF90DF90CF90BF90AF900895FF92FFB68A
:1008B000FF92EF93FF936F927F928F929F92AF92EE
:1008C000BF92CF92DF925E9B05C0AA24BB24CC24AA
:1008D000DD2407C0609078007090790043010E9489
:1008E000C603EDE8F1E061907190819091906A0CFF
:1008F0007B1C8C1C9D1CEDE8F1E061927192819251
:100900009192E0919101F09192013196E0939101E1
:10091000F0939201DF90CF90BF90AF909F908F9017
:100920007F906F90FF91EF91FF90FFBEFF90189521
:100930005E9818955E9A18955E9A1895FF92FFB684
:10094000FF920F931F932F933F9309B104703FE9D8
:100950003150F0F719B114703FE93150F0F729B177
:100960002470011719F4021709F401C04EC1009355
:10097000C3012091840030918500209305013093BC
:1009800006015E9A0DE600937A00009181000093C3
:100990000401087F009381004F93FF93EF93DF934F
:1009A000CF930F921F922F923F924F925F926F922E
:1009B0007F928F929F92AF92BF92CF92DF92EF92EF
:1009C000FF9200270093850000938400109101019D
:1009D0000091000110938900009388001091030199
:1009E0000091020110938B0000938A0001E003BD87
:1009F00000910401009381000091C301002309F4D8
:100A000005C00DEE00937A000C94F0050DE60093FE
:100A10007A00EDE8F1E06190719081909190E1E9C8
:100A2000F1E0A190B190CC24DD24AC14BD0409F414
:100A300042C0660C771C881C991C660C771C881CAD
:100A4000991C0E94D903660C771C881C991C660CA3
:100A5000771C881C991CA301B4010E940C0480928D
:100A60009F019092A001F1E0EFEBEF0122243324EB
:100A7000882499247A906A900FE0002359F00A950F
:100A80001A900A90600C711C821C931C12920292A4
:100A90000C943D05E0E1F0E05F01CC24DD240E94F0
:100AA000D90360929501709296010AE80E940407AA
:100AB0000BE80E9404070027EDE8F1E001930193A1
:100AC00001930193E1E9F1E00193019300910F019A
:100AD000003009F412C0013009F407C0023009F4F3
:100AE00008C0033009F405C07BC008E010E04801ED
:100AF0003EC008E31AE448013AC060909F0170903C
:100B0000A00180909A0190909B01681879088090CC
:100B1000000190900101860C971C97FE10C008E020
:100B200010E048010091C201043124F403950093C0
:100B3000C20103C00FEF0093BF010C94B70508E09A
:100B400010E08016910658F308E31AE48016910627
:100B500008F048010091C201002321F00A9500939A
:100B6000C20105C000270093BF010093C20180921B
:100B700000019092010100910F01003009F030C096
:100B8000E0919501F091960100919A0110919B01DD
:100B9000E01BF10B18F4E095F095319603E010E0BE
:100BA000E017F10750F400270093C1015F981091FE
:100BB000C0010FEF0093C0010EC00091C1010A30C7
:100BC00020F403950093C1010BC05F9A1091C001FE
:100BD00000E00093C001011719F008E80E94040723
:100BE000FF90EF90DF90CF90BF90AF909F908F904D
:100BF0007F906F905F904F903F902F901F900F903D
:100C0000CF91DF91EF91FF914F913F912F911F91E4
:100C10000F91FF90FFBEFF901895FF92FFB6FF92D5
:100C20000F931F932F933F934F930F921F92FF9316
:100C3000EF93F0980F9300910801037010E0EAE33E
:100C4000F9E1E00FF11FE00FF11F05911591000F81
:100C5000111FF8010F9115912591359145910032A1
:100C600051F0003031F0011718F0021729F020F090
:100C700059C0369500E2F09A003828F0003CC0F3E5
:100C8000103808F400540F93011B349F009DE00DB1
:100C9000F11D0091090100930B0100910A010093DD
:100CA0000C010F910E3221F4002436953695301D3B
:100CB0004F930E94C809009107010E94F50900E4C2
:100CC0000E94F5093F9300910901003858F40395FB
:100CD0000093090100E0F09B05910E94F5093A9507
:100CE00091F702C00591FBCF3F910E94DA094A9526
:100CF00079F000910B010093090100910C0103951B
:100D0000077000930A0100930C010E94960AD1CF4C
:100D10004F9100910A01041B0395077000930A018B
:100D20000E94960AEF91FF911F900F904F913F9173
:100D30002F911F910F91FF90FFBEFF900895FF929A
:100D4000FFB6FF920F931F93AF93BF93CF93DF93A1
:100D5000EE0FFF1F002700930D0100910D010038D9
:100D600008F011C0039500930D010591003809F4B6
:100D70000AC0003828F0003C18F40E944007EDCF6C
:100D80000E940D06EACFDF91CF91BF91AF911F91E5
:100D90000F91FF90FFBEFF900895CF93DF930F93C5
:100DA0001F93C0E1D1E000E1002339F00A951981D9
:100DB0001F7B1F7719832296F7CF1F910F91DF9129
:100DC000CF910895CF93DF930F931F9308E80039D5
:100DD000B0F4C0E1D1E00F9300581127C00FD11F2C
:100DE000C00FD11F0981007C003C31F40F910F939B
:100DF0000E941C070E9440070F910395E8CF1F91A6
:100E00000F91DF91CF9108950039ACF4003898F03C
:100E1000CF93DF930F931F93C0E1D1E000581127C8
:100E2000C00FD11FC00FD11F1981106819831F91E6
:100E30000F91DF91CF91089500390CF50038F8F04B
:100E4000CF93DF930F931F93C0E1D1E00058112798
:100E5000C00FD11FC00FD11F088119810093090154
:100E600010930A011F771064198312951370109361
:100E700008010E94960A1F910F91DF91CF9108956A
:100E8000003930F5003820F1DF01E2EDFEE0C0E18D
:100E9000D1E00F93005810E0E00FF11FE00FF11FB9
:100EA000C00FD11FC00FD11F05911491F8010091FF
:100EB0000901088310910A0117700091080103705D
:100EC0000295102B10641F7719830F910995FD016E
:100ED000089579077A078107A907790779077907BC
:100EE0007907B807CA07CD07D007790779077907C7
:100EF00079070895FD010591037000930801DF0152
:100F00000895FD012F933F931591259135910591FA
:100F100033950F932093090110930A010E94960ABA
:100F20000E94C809009107010E94F50900E40E948F
:100F3000F5090F91231739F030F40F930E94F5094A
:100F40000F912395F7CF0E94DA093F912F91DF018E
:100F50000895FD010591003808F00FE7009309019D
:100F60000591077000930A01DF010E94960A089517
:100F70000091C001003039F00CE20E940D060DE234
:100F80000E940D0606C00AE20E940D060BE20E94B6
:100F90000D060895CAE9D1E008C0C5E9D1E005C051
:100FA0000091BF010023B1F3F8CF6F937F938F932C
:100FB0009F93688179818A819B810C816A837B837D
:100FC0006817790731F4002309F027C00FEF0C836D
:100FD00002C000E00C830E9469030E94AA030091F2
:100FE00033010E940D06009132010E940D0600910E
:100FF00031010E940D0600910801013031F4009189
:101000003001065F0E940D0608C00EE20E940D0628
:10101000009130010E940D0600C09F918F917F9139
:101020006F910895FF92FFB6FF920F931F93EF9376
:10103000FF930091360100FD37C0EEE3F1E000912F
:10104000C60010917E01013608F000520B3508F001
:101050002BC0073408F00DC0013408F014C00A3367
:1010600008F022C0003308F00EC00D3009F417C09C
:101070001BC010E010937E01033519F00D3409F008
:1010800013C0008311C013951F3010F009F00CC07D
:1010900010937E01E10F1127F11F008305C000911D
:1010A0003601016000933601FF91EF911F910F917E
:1010B000FF90FFBEFF901895FF92FFB6FF92F89445
:1010C0000F931F932F93EF93FF93EEE3F1E01091B3
:1010D0007E010191033509F404C00D3409F431C0D7
:1010E00041C0133039F0123020E049F0113010E0E7
:1010F00061F038C001910E94940910F1202F0191F4
:101100000E949409E8F00295102F01910E94940921
:10111000B8F0102B05EC101709E0200788F40091B7
:101120009A01011700919B01020751F020939B0146
:1011300010939A0109E80E9404070BE80E94040733
:1011400011C0113009F00EC001910E94940948F0BD
:10115000033008F007C010910F01011719F00E9429
:10116000070C00C0002700937E01009136010E7F1E
:1011700000933601FF91EF912F911F910F91FF90F6
:10118000FFBEFF900895FF92FFB6FF920F931F934B
:10119000EF93FF93EEE5F1E000917F0110E0E00FA7
:1011A000F11F0395003278F400937F010191003024
:1011B00051F00093C600FF91EF911F910F91FF90A6
:1011C000FFBEFF90189508ED0093C1000027009323
:1011D0008001F1CF0FEF0093800108EF0093C10071
:1011E00008950895FF92FFB6FF92F8940F931F930E
:1011F000AF93BF93CF93DF93EF93FF93AEE5B1E04F
:1012000004E50D93C5E9D1E009810E94AC090D9375
:1012100008810E94AC091D930D93CAE9D1E00981B0
:101220000E94AC090D9308810E94AC091D930D9397
:10123000CFE0D1E0088103700E94AC090D930DE06E
:101240000D930AE00D9300E00D930D9300937F0141
:10125000FF91EF91DF91CF91BF91AF911F910F91CE
:10126000FF90FFBEFF9008950F931F93EF93FF939E
:1012700000918001002379F400918101003029F46C
:1012800000918201003009F406C00E9450090E94BA
:1012900061090E94EA08FF91EF911F910F91089553
:1012A000EEEBF2E10091820107701127E00FF11FD0
:1012B000E00FF11F05911491F80109950895F108C7
:1012C000F208E2E8F1E017E0112321F00181019337
:1012D0001A95FACF0027008300918101002319F0AD
:1012E0000A95009381010895EF93FF931F932F9325
:1012F000002309F414C010918101173008F00FC0C9
:10130000E2E8F1E0112329F02191021741F01A954A
:10131000F9CF0083109181011395109381012F91D2
:101320001F91FF91EF910895003398F00A3318F45C
:10133000005388940FC0013460F0073418F4075349
:10134000889408C0013628F0073618F407558894A9
:1013500001C008940F700895FF92FFB6FF92102FFE
:101360000F7012951F70005D0A3308F0095F105D61
:101370001A3308F0195FFF90FFBEFF9008952F9376
:101380002198299A2098289A0E94DA092F91089585
:101390002F932998219A24E02150F0F700002898F3
:1013A000209A24E02150F0F700002FEF20930E0147
:1013B0002F9108952F932898209A24E02150F0F738
:1013C00000002998219A24E02150F0F7000020988D
:1013D000289A24E02150F0F700002198299A24E06F
:1013E0002150F0F700002F910895FF92FFB6FF9271
:1013F0000F931F932F9318E007FD2198299A07FF59
:101400002998219A001F24E02150F0F7000020982D
:10141000289A24E02150F0F700002898209A1A9585
:1014200059F72198299A24E02150F0F700002098DC
:10143000289A24E02150F0F7000013B1002711FD95
:101440000A952898209A00930E012F911F910F91D1
:10145000FF90FFBEFF9008950F930E94BF090E9466
:10146000C8090E94F5090E94DA090F9108950E94A7
:10147000C809009107010E94F50900E80E94F509DA
:101480000FEA0E94F5090E94DA0908950F931F934D
:10149000EF93FF930E94C809009107010E94F5098C
:1014A00000E00E94F5091AE1E6ECF4E105910E94E2
:1014B000F5091A951123D1F70E94DA09FF91EF91EE
:1014C0001F910F910895D580A83FD300408D14A19E
:1014D000C8DA1281FFD922DB30A4A60010B0AF0019
:1014E000AF000F931F932F9328E014E82A951F93C2
:1014F00010E01093090120930A010E94960A1F919F
:101500000E94C809009107010E94F50900E40E94A9
:10151000F50900E00E94F5091A95D9F70E94DA0949
:10152000222319F72F911F910F9108950F931F9365
:101530002F931091090120910A0117FD1AC00E94F2
:10154000C809009107010E94F50900E00E94F50911
:10155000022F0770006B0E94F509012F0F700E9487
:10156000F509012F02950F7000610E94F5090E9494
:10157000DA092F911F910F910895FF92FFB6FF9204
:101580000F931F93EF93FF93EAEBF5E10091B900FE
:10159000087F0695069506951127E00FF11FE00FCD
:1015A000F11F05911491F8010995FF91EF911F9199
:1015B0000F91FF90FFBEFF901895FD0A6F0B6F0B08
:1015C0006F0B6F0B6F0B6F0B6F0B6F0B6F0B6F0B4B
:1015D0006F0B010B6F0B6F0B6F0B080B1F0B6F0B60
:1015E0006F0B350B430B6F0B540B6B0B6B0B6F0BB4
:1015F0006F0B6F0B6F0B6F0B6F0B05EC0093BC0049
:10160000089500E00093CC0105EC0093BC00089520
:1016100000271091CC01EDECF1E0E10FF01F0091FB
:10162000BB00008313951093CC0103E00A951017BB
:1016300011F405E801C005EC0093BC0008950027F3
:101640001091CC01EDECF1E0E10FF01F0091BB0037
:10165000008313951093CC01009136010260009332
:10166000360105EC0093BC0008950091360101FDA0
:1016700006C002600093360100E00093CC0105EC47
:101680000093BC0008950E94700B10E01093CC01F1
:10169000E0EDF1E00027E10FF01F00810093BB00B7
:1016A00005EC0093BC00089500271091CC01139520
:1016B0001093CC01E0EDF1E0E10FF01F0081009309
:1016C000BB0005E00A95101711F405E801C005EC10
:1016D0000093BC00089505EC0093BC0008950895A4
:1016E000FF92FFB6FF92F8940F931F9300919A0117
:1016F0000093D00100919B010093D10100919501CD
:101700000093D201009196010093D30100910F0143
:101710000F701091C0011071012B1091BF01107258
:10172000012B0093D4011F910F91FF90FFBEFF90FA
:1017300008950F931F932F930091CC01013009F46A
:1017400007C0023009F407C0033009F407C00EC017
:101750000E94BD0B0BC00E94D00B08C00E94D00B92
:101760000091CF010093CD010E94BD0B0FEF0093BC
:10177000BB002F911F910F9108950091CD01109101
:101780000F01011709F40BC0033010F009F007C076
:1017900010910F01133009F402C00E94070C089544
:1017A0000091CD011091CE0117FD16C025EC021756
:1017B00029E0120788F420919A01021720919B01D9
:1017C000120751F000939A0110939B0109E80E94BF
:1017D00004070BE80E94040708953197319631976A
:1017E0003196319731963197C1F708950E94CD0611
:1017F00000910F01E4E4FAE21127E00FF11FE00F7E
:10180000F11F05911491F8010E949F060895EF932E
:10181000FF930F931F93EE27E093BF01E09399018D
:10182000E0939E01043018F500930F010027009308
:10183000C0010093BF010093C2010093C1015F9AF0
:1018400000910701083719F00A3709F006C00E9415
:10185000460A0E94710A0E94F60B00910F010030A7
:1018600039F0013039F0023039F0033039F008C076
:101870002D9A06C02D9804C02D9A02C02D9A00C042
:101880001F910F91FF91EF910895FF92FFB6FF9284
:101890001F930F9310913D0118600091370109309B
:1018A00024F403950093370140C0002700933701CB
:1018B000146000913801093024F403950093380135
:1018C00034C0002700933801126000913A0103955B
:1018D00005301CF400933A0104C0002700933A013C
:1018E000106200913B01039502301CF400933B0110
:1018F00004C0002700933B011064009139010930B6
:1019000024F403950093390110C000270093390196
:10191000116000913C01093024F4039500933C01CF
:1019200004C0002700933C01106110933D010F910A
:101930001F91FF90FFBEFF9018957E0DE00EA00C4A
:101940002A390B02000080800000808000008000A7
:101950000001010000010100000180000080800002
:101960000080800000010000010100000101000072
:10197000000000C07098ECF4F67A3A000000030E04
:1019800019372F6F5E5C3A7AF6F4EC9870C000005D
:10199000005C5E6F2F37190E03000000000000008E
:1019A0006060000000000000000000000000000077
:1019B0000000000000000000000000000000000027
:1019C000000000000000000000F0FC1C0E06060EE7
:1019D0001CFCF0000F3F3870606070383F0F0060F3
:1019E00070381CFEFE0000000000606060607F7FB9
:1019F0006060606000181C0E06060686CEFC78004B
:101A00006070787C6E676361606000060606C6C61B
:101A1000E6F6DE8E060018387060606060713F1F69
:101A200000000080C0E070381C8E86000E0F0F0D85
:101A30000C0C0C0C7F7F00FEFEC6C6C6C6C6C68652
:101A4000060018387060606060713F1F00F8FC8EFF
:101A5000C6C6C6C6CE8C08001F3F7160606060714C
:101A60003F1F00060606060686E6FE7E1E000000F4
:101A700060787E1F07010000000078FCCE8686CECD
:101A8000FC7800001E3F7361616161733F1E00F8C6
:101A9000FC8E060606068EFCF80010317363636345
:101AA00063713F1F00000000000000000000000004
:101AB0000000000000000000000000000000000026
:101AC0000000000000000000000000000000000016
:101AD0000000000000000000000000000000000006
:101AE00000000000000000000000000000000000F6
:101AF000000000000000000000000000E0FF0B02FA
:101B00000030B8989898989898F8F0000F1F191915
:101B10001919190D1F1F00F8F8D8D8D8D8D8D89897
:101B200000001F1F18181818181D0F0700F8F89844
:101B3000989898D8F8B000001F1F19191919191D85
:101B40000F07002030B89898989898F06000060F1A
:101B50001919191919190C0C0000F0F8181818188F
:101B6000F8F00000383F1F181818181F3F3800E021
:101B7000F0989898989898F0E000070F191919199B
:101B800019191900003878C080F8F880C07838003A
:101B90001E1F03011F1F01031F1E0020303818984D
:101BA000989898F06000040C1C18191919190F0660
:101BB00000F8F800000080C0E0F8F8001F1F1C0EBD
:101BC000070301001F1F00F8F800001898C0E0F894
:101BD000F8001F1F1C0E070301001F1F00F8F880EC
:101BE00080C0E070381800001F1F01010103070EBC
:101BF0001C18000080E078181878E08000001C1F96
:101C00000300000000031F1C00F8F870C08080C0B3
:101C100070F8F8001F1F0000030300001F1F00F8EA
:101C2000F8808080808080F8F8001F1F010101018A
:101C300001011F1F00E0F0381818181838F0E000F4
:101C4000070F1C181818181C0F0700F8F818181898
:101C5000181818F8F8001F1F0000000000001F1FD0
:101C600000F8F81818181818B8F0E0001F1F030340
:101C700003030303010000E0F03818181818387047
:101C80006000070F1C181818181C0E0600181818EA
:101C900018F8F81818181800000000001F1F00009E
:101CA000000000F8F8808080808080F8F80000193B
:101CB00019191919191D0F0700E0F03030F8F83024
:101CC00030F0E000070F0C0C1F1F0C0C0F07001862
:101CD000387060C0C0E070381800181C0E0703038D
:101CE000060E1C1800F8F80000000000F8F80000CC
:101CF0001F1F18181818585F7F7000F8F880000030
:101D0000000000F8F80000010303030303031F1F92
:101D100000F8F80000E0E00000F8F8001F1F1818B5
:101D20001F1F18181F1F00F8F80000E0E00000F85F
:101D3000F8001F1F18181F1F58587F7F001818F829
:101D4000F8C0C0C0C0C0800000001F1F18181818BD
:101D50001F0F00F8F8C0C0C0C08000F8F8001F1FB7
:101D60001818181F0F001F1F00F8F8C0C0C0C0C00F
:101D7000C08000001F1F18181818181D0F0700201A
:101D8000303818989898B8F0E000040C1C1819190D
:101D9000191D0F0700F8F880F0F8181818F8F0006F
:101DA0001F1F010F1F1818181F0F00F0F8989898A0
:101DB000989898F8F80010191D0F070301011F1FCC
:101DC000304320050000000080C0E0F0F8F87C3CC3
:101DD0001C1E0E0E0E1E1C3C7CF8F8F0E0C08000AD
:101DE000000000000000F0FEFFFFFF3F07010000C1
:101DF00000000000000000000001073FFFFFFFFEA1
:101E0000F00000000000FFFFFFFFFF0000000000E7
:101E1000000000000000000000000000FFFFFFFFC6
:101E2000FF0000000000073FFFFFFFFEF0C00000C2
:101E300000000000000000000080F0FEFFFFFF3FF8
:101E40000700000000000000000103070F0F1F1E25
:101E50001C3C3838383C1C1E1F0F0F0703010000C4
:101E600000000000000000000000000000000080F2
:101E7000C0E0FEFEFEFEFE000000000000000000CC
:101E800000000000000000000000F0F8FC7E3F1F92
:101E90000F07FFFFFFFFFF00000000000000000031
:101EA0000000000000000000000001010000000030
:101EB0000000FFFFFFFFFF00000000000000000027
:101EC0000000000000000000000000000000000012
:101ED0000000FFFFFFFFFF00000000000000000007
:101EE00000000000000000003C3C3C3C3C3C3C3C12
:101EF0003C3C3F3F3F3F3F3C3C3C3C3C3C3C3C3C13
:101F00000000000000000000C0E0F0F8F8FC3C1CFD
:101F10000E0E0E0E0E0E0E1C3CFCF8F8F0E0C0008B
:101F20000000000000000C0F0F0F0F0F0300000057
:101F300000000000000000000000C3FFFFFFFFFFE3
:101F40003C00000000000000000000000000000055
:101F500000000080C0E0F0F8FC7F3F1F0F07030087
:101F6000000000000000000000000080C0E0F0F869
:101F7000FC7E3F1F0F07030100000000000000006F
:101F800000000000000030383C3E3F3F3F3F3F3DF7
:101F90003C3C3C3C3C3C3C3C3C3C3C3C3C3C3C3C81
:101FA0003C0000000000000000C0E0F0F8F83C1C1D
:101FB0001E0E0E0E0E0E1E1C3CF8F8F0E0C00000C7
:101FC00000000000000000000707070707000000EE
:101FD0000000000000008080C0F0FFFF7F3F0F0086
:101FE00000000000000000000000000000000000F1
:101FF0000E0E0E0F1F1F1F3F3F7FFDF8F8F0E08011
:102000000000000000001878F8F8F8F8E080000000
:1020100000000000000000000080E1FFFFFFFF7FE4
:102020001E000000000000000103070F0F1F1F1E0D
:102030003C3C3838383C3C1E1F1F0F0F0703010083
:102040000000000000000000000000000000000090
:1020500000000080C0F0F8FEFE7E3E0E060000008C
:10206000000000000000000000000000000080E010
:10207000F0FCFEFF7F1F0F030100000000000000C6
:10208000000000000000000000C0E0F8FCFFFF3F7F
:102090001F07030000000000FEFEFEFEFE00000021
:1020A000000000000000787E7F7F7F7F7F79787856
:1020B0007878787878787878FFFFFFFFFF787878FD
:1020C0007800000000000000000000000000000098
:1020D00000000000000000003F3F3F3F3F000000C5
:1020E00000000000000000FEFEFEFEFE1E1E1E1E82
:1020F0001E1E1E1E1E1E1E1E1E1E1E1E1E1E1E1E00
:102100001E000000000000FFFFFFFFFFE0E0E0E036
:10211000E060606060E0E0C0C0C08080000000005F
:10212000000000000000000303030303030101009B
:102130000000000000000001030F3FFFFFFEFCF065
:10214000C000000000001878F8F8F8F8E0800000FF
:1021500000000000000000000080E0FFFFFFFF7FA4
:102160001F000000000000000103070F0F1F1E1CCE
:10217000383838383838381C1E1F0F0F0703010055
:102180000000000000000000C0E0F0F8F8FC3C1C7B
:102190000E0E0E0E0E0E0E1C3CFCF8F8F0E0C00009
:1021A000000000000000F8FFFFFFFF0F83C0C0C069
:1021B000E0E0606060E0E0C0C0C08080000000003F
:1021C000000000000000FFFFFFFFFFFF3F0F0301C3
:1021D0000000000000000001030F3FFFFFFEFCF0C5
:1021E000C000000000000F7FFFFFFFFFE080000045
:1021F00000000000000000000080E0FFFFFFFF7F04
:102200001F000000000000000103070F0F1F1E1C2D
:10221000383830303038381C1E1F0F0F07030100CC
:102220000000000000001E1E1E1E1E1E1E1E1E1E82
:102230001E1E1E1E1E1E1E1E1E1E1EDEFEFEFEFE7E
:102240003E00000000000000000000000000000050
:1022500000000000000000C0F0FCFFFF3F0F030083
:10226000000000000000000000000000000000006E
:10227000000000C0F0FCFFFF3F0F03000000000063
:10228000000000000000000000000000000000C08E
:10229000F0FCFFFF3F0F0300000000000000000003
:1022A000000000000000000000000000303C3F3F44
:1022B0003F0F0300000000000000000000000000CD
:1022C000000000000000000000C0E0F0F8F83C1C36
:1022D0001E0E0E0E0E0E1E1C3CF8F8F0E0C00000A4
:1022E00000000000000000000F3F7FFFFFF0C080F3
:1022F0008000000000008080C0F0FFFF7F3F0F00E3
:102300000000000000000080E0F0F8F8FD7F1F1FD3
:102310000F0F0707070F0F1F1F7FFDF8F8F0E08072
:102320000000000000001E7FFFFFFFFFE1800000B3
:1023300000000000000000000080E1FFFFFFFF7FC1
:102340001E000000000000000103070F0F1F1E1CED
:10235000383838383838381C1E1F0F0F0703010073
:102360000000000000000000C0E0F0F8F8FC3C1C99
:102370000E0E0606060E0E1C3CFCF8F8F0E0C0003F
:10238000000000000000FCFFFFFFFFFF0300000053
:102390000000000000000000000003FFFFFFFFFF3F
:1023A000F8000000000000030F1F3F7F7FFCF0E0FB
:1023B000C0C0808080C0C0E0F0FC7F3FFFFFFFFF17
:1023C000FF0000000000000080808080808000000E
:1023D00001010101010101000080E0F8FFFFFF7F22
:1023E0000F000000000000000103070F0F1F1E1C5C
:1023F000383838383838381C1E1F0F0F07030100D3
:1024000000000000000000000000000000000000CC
:1024100000000000000000000000000000000000BC
:1024200000000000000000000000000000000000AC
:1024300000C0E0F0F8783C1C1C1C3C78F8F0E0C0D0
:10244000000000000000000000000000000000F894
:10245000FFFFFF0F0100000000000000010FFFFF61
:10246000FFF8000000000000000000000000001F56
:10247000FFFFFFF0800000000000000080F0FFFF81
:10248000FF1F000000001C3E3E3E1C00000000003C
:102490000003070F1F1E3C3838383C1E1F0F070370
:1024A000000000000000000000000000000000002C
:1024B000000000000000000000000000000000001C
:1024C000000000000000000000000000000000000C
:1024D000000000000080C0FCFCFCFC0000000000CC
:1024E00000000000000000000000000000000000EC
:1024F00000F8FC7E3F1F0FFFFFFFFF000000000001
:1025000000000000000000000000000000000000CB
:1025100000000000000000FFFFFFFF0000000000BF
:102520000000000000001C3E3E3E1C0000000000B9
:10253000003C3C3C3C3C3C3F3F3F3F3C3C3C3C3C0B
:10254000000000000000000000000000000000008B
:10255000000000000000000000000000000000007B
:10256000000000000000000000000000000000006B
:10257000C0E0F0F078383C1C1C1C3C3878F0F0E0EF
:10258000C000000000000000000000000000000388
:10259000030303000000000000000080C0E0F1FF22
:1025A0007F3F00000000000000000000000000006D
:1025B00000000080C0E0F0F87C3E1F0F0703010020
:1025C0000000000000001C3E3E3E1C0000000038E1
:1025D0003C3E3F3F3F3B3938383838383838383858
:1025E00038000000000000000000000000000000B3
:1025F00000000000000000000000000000000000DB
:1026000000000000000000000000000000000000CA
:1026100080E0F0F8783C3C1C1C1C3C3C78F8F0E076
:10262000C0000000000000000000000000000000EA
:1026300001010101000000E0E0E0F0F0F8FFDF8FB1
:10264000070000000000000000000000000000C0C3
:10265000C0C0C08000000000000000010187FFFF33
:10266000FFFC000000001C3E3E3E1C00000000007D
:1026700003070F0F1E1E3C3838383C1E1E0F0F0775
:102680000300000000000000000000000000000047
:10269000000000000000000000000000000000003A
:1026A000000000000000000000000000000000002A
:1026B000000000000000000080E0F0FC7C1C0C002A
:1026C000000000000000000000000000000000000A
:1026D000000000C0E0F8FC3F1F0703C0C0C0C000FE
:1026E000000000000000000000000000000000F0FA
:1026F000F8FEFFFFE7E1E0E0E0E0E0FFFFFFFFE0E2
:10270000E0E0000000001C3E3E3E1C000000000017
:1027100000000000000000000000003F3F3F3F00BD
:1027200000000000000000000000000000000000A9
:102730000000000000000000000000000000000099
:10274000000000000000000000000000000000FC8D
:10275000FCFCFC1C1C1C1C1C1C1C1C1C1C1C1C1C19
:102760001C00000000000000000000000000007FCE
:102770007F7F7F383C1C1C1C1C1C3C7878F0F0E0F0
:10278000800000000000000000000000000000E0E9
:10279000E0E0E00000000000000000000081E7FF32
:1027A000FF7E000000001C3E3E3E1C0000000000BA
:1027B00001070F0F1E1C383838383C1E1E0F0F073C
:1027C0000100000000000000000000000000000008
:1027D00000000000000000000000000000000000F9
:1027E00000000000000000000000000000000000E9
:1027F000C0E0F0F078383C1C1C1C3C3878F0F0E06D
:10280000C00000000000000000000000000000FF09
:10281000FFFFFFC1E0E07070707070E0E0C0C0804A
:10282000000000000000000000000000000000FFA9
:10283000FFFFFF0300000000000000000003FFFF97
:10284000FFFC000000001C3E3E3E1C00000000009B
:1028500003070F0F1C1C38383838381C1C0F0F07A3
:102860000300000000000000000000000000000065
:102870000000000000000000000000000000000058
:102880000000000000000000000000000000003C0C
:102890003C3C3C3C3C3C3C3C3C3C3C3C3CFCFCFC38
:1028A000FC7C0000000000000000000000000000B0
:1028B000000000000000000000C0F0FCFF7F1F07C8
:1028C0000100000000000000000000000000000007
:1028D0000000000000C0F0FCFF7F1F0701000000A7
:1028E0000000000000001C3E3E3E1C0000000000F6
:1028F0000000303C3F3F1F070100000000000000C7
:1029000000000000000000000000000000000000C7
:1029100000000000000000000000000000000000B7
:1029200000000000000000000000000000000000A7
:102930000080E0F0F8783C1C1C1C3C78F8F0E0804B
:102940000000000000000000000000000000000087
:1029500080C3EFFFFFFC7870707078FCFFFFEFC35F
:10296000800000000000000000000000000000FEE9
:10297000FFFFFF8300000000000000000083FFFF56
:10298000FFFE000000001C3E3E3E1C000000000058
:1029900003070F0F1E1E3C3C3C3C3C1E1E0F0F0746
:1029A0000300000000000000000000000000000024
:1029B0000000000000000000000000000000000017
:1029C0000000000000000000000000000000000007
:1029D000C0E0F0F038381C1C1C1C1C3838F0F0E04B
:1029E000C000000000000000000000000000003FE8
:1029F000FFFFFFC0000000000000000000C0FFFF5C
:102A0000FFFF0000000000000000000000000000C8
:102A10000001030307070E0E0E0E0E070783FFFFCC
:102A2000FFFF000000001C3E3E3E1C0000000000B6
:102A300003070F0F1E1C3C3838383C1C1E0F0F07B5
:102A40000300000026153515441553158100830237
:102A500000E2FBF5EEE4202081028368008881011A
:102A60008300038B8202007F08808100830000F0D6
:102A7000E0E7E3EEED208102834E00898202007FD1
:102A80000881018300038A808100830000E2FBEA61
:102A9000EB2020208102834E00898202007F088182
:102AA000018300038A8081008300010020E2FBEAA9
:102AB000EBFEF7E5EDEE20208300030020E0E2E0EE
:102AC000F0E8E9EDFBEC20208300052020F1E8E3AD
:082AD000EDE0EBEEEC202080AC
:00000001FF
