:020000020000FC
:0A0000000C945B000C94C40F1895DB
:02000C00189545
:02001000189541
:0200140018953D
:02001800189539
:02001C00189535
:02002000189531
:0200240018952D
:02002800189529
:10002C000C9468170C9470170C947E170C94CF16C4
:02003C00189515
:02004000189511
:0200440018950D
:0A0048000C948C150C943B161895CF
:060054000C946D011895EB
:02005C001895F5
:100060000C940B0E1895000000000000000000002A
:100070000000000000000000000000000000000080
:100080000000000000000000000000000000000070
:100090000000000000000000000000000000000060
:1000A0000000000000000000000000000000000050
:1000B00000000000000000916000086110E2009361
:1000C00060001093600005B70160102F0D7F15BF11
:1000D00005BF04B710E014BF00FD0C94790001FDCA
:1000E0000C94820002FD0C94820003FD0C948200AB
:1000F0000000E0E0F1E000270193F530E9F7E0309F
:10010000D9F70293E0E0F5E0EDBFFEBFEEE1FF2797
:10011000EA95F083E9F70BE204B90CEF05B900E0CA
:1001200007B90FE308B900EC0AB908EF0BB90CE006
:100130000093B80002E30093BA0005E40093BC000A
:1001400007E60093C40000E00093C50008ED0093AB
:10015000C10006E00093C20009EF07BD08BD02E040
:1001600004BD03E000936E0003E005BDB2E4A8E621
:10017000A0935101B0935201B0938900A0938800DD
:10018000B2E4A8E6A0935301B0935401B0938B005E
:10019000A0938A0000E00093800007E000936F00C6
:1001A00002E00093810003E00093690001E00DBBD1
:1001B00000E000937B0007E000937C000DEE0093CD
:1001C0007A00CAEFD0E00E9497170E94FC0E0AE75F
:1001D0000E94430F0E94260F26F00AE70093D401E5
:1001E00010C00E94FC0E08E70E94430F0E94260FD9
:1001F00026F008E70093D40104C000E00093D40186
:1002000006C00E9498030E94DA030E94490309B1C4
:1002100005FD0C940F01B4E0A0EB0C941101AA278A
:10022000BB27A0930D01B0930E01B0E0A5E0A09311
:10023000DB01B093DC010091D4010F3F21F0E2E437
:10024000F5E10E94651378940091CA0103FF05C08F
:10025000077F0093CA010E9424040091CA0107FF8E
:1002600005C00F770093CA010E9489160091CA0148
:1002700002FF05C00B7F0093CA010E947B0F009113
:10028000D50101FF05C00D7F0093D5010E949A0D95
:100290000091D50103FF05C0077F0093D5010E949F
:1002A000DD040091D50104FF05C00F7E0093D50148
:1002B0000E94FB040091D50105FF05C00F7D00934E
:1002C000D5010E94B3010091D50106FF05C00F7B47
:1002D0000093D5010E94F001B7CF0F930FB70F9392
:1002E000EF93FF936F927F928F929F92AF92BF9204
:1002F000CF92DF925E9B05C0AA24BB24CC24DD24D0
:1003000007C0609078007090790043010E946911E5
:1003100060900101709002018090030190900401AF
:100320006A0C7B1C8C1C9D1C609201017092020166
:100330008092030190920401E0910501F091060181
:100340003196E0930501F0930601DF90CF90BF90C6
:10035000AF909F908F907F906F90FF91EF910F9152
:100360000FBF0F9118950F931F932F933F930091F9
:10037000D2011091D4011F3F19F0103029F002C0B2
:10038000003011F4033009F426C00091D6010F3F6C
:1003900009F421C000910D0110910E012091DB01A3
:1003A0003091DC01020F131F0E94690220E931E045
:1003B0000217130710F4890107C024EC39E0021773
:1003C000130710F009F0890100930D0110930E013D
:1003D00009E80E94F1133F912F911F910F91089509
:1003E0006F927F928F929F92AF92BF92CF92DF9245
:1003F0000F931F932F933F930091D2011091D4013B
:100400001F3F19F0103029F002C0003011F4033002
:1004100009F452C0E091D601EF3F91F50091D2016D
:10042000003071F58090DB019090DC01880C991C04
:10043000880C991C880C991C880C991C60900F01E1
:10044000709010016818790888249924A090DB0125
:10045000B090DC01CC24DD240E9480118090DB016F
:100460009090DC010E946911850128E833E1209316
:100470005101309352012091DB013091DC0108C021
:1004800000910D0110910E012091DB013091DC01F2
:10049000021B130B0E94690220E931E002171307C7
:1004A00017FD01C010F40027112700930D011093D0
:1004B0000E0109E80E94F1133F912F911F910F91B6
:1004C000DF90CF90BF90AF909F908F907F906F9074
:1004D0000895380188249924A090DB01B090DC01B4
:1004E000CC24DD240E9480118090DB019090DC01FF
:1004F0000E946911850108950F930FB70F931F9301
:100500002F9306B11FEF0127109159010093590154
:1005100010272091D201233021F00E9497020E94DF
:10052000B7022F911F910F910FBF0F9108950F9355
:100530001F9300FF12C010915A0117FF01C00DC098
:10054000103091F01A9510935A0171F41A95109386
:100550005A0103E00E94DF0207C01091D20113305C
:1005600019F014E110935A011F910F9108950F9300
:100570001F9311FD1EC010915B0117FF04C01127CE
:1005800010935B0119C01030B9F01A9510935B01FC
:1005900099F41091D20101FD06C0113069F400E018
:1005A0000E94DF0209C0113039F001E00E94DF0231
:1005B00003C014E010935B011F910F9108950F93F6
:1005C00000270093D60100935C010F91003009F4DD
:1005D0000AC0013009F41BC0023009F42CC00330FA
:1005E00009F43DC055C00093D2012D9A0091D40169
:1005F000002361F00F3F51F00E94B0030E94DA0324
:100600000E944903E2E4F5E10E94651341C00093B2
:10061000D2012D980091D401002361F00F3F51F0D9
:100620000E94B0030E94DA030E944903E4E5F5E169
:100630000E9465132DC00093D2012D9A0091D40120
:10064000002361F00F3F51F00E94B0030E94DA03D3
:100650000E944903E5E6F5E10E94651319C0009385
:10066000D201CDE0D1E00027099308832D9A0091B3
:10067000D401002361F00F3F51F00E94B0030E94AB
:10068000DA030E944903E6E7F5E10E94651300C022
:1006900008950E94FC0E0091D4010E94430F00E8CF
:1006A0000E94430F0FEA0E94430F0E94260F0895F5
:1006B0000F931F932F9310E0202F1093800120930E
:1006C00081010E9401040E94FC0E0091D4010E944D
:1006D000430F00E40E94430F1FE700E00E94430F16
:1006E0001A95D9F70E94260F2F911F910F91089507
:1006F0000F931F932F9310E0202F109380012093CE
:1007000081010E9401040E94FC0E0091D4010E940C
:10071000430F00E40E94430F10E82F91022F0E9424
:10072000430F1A95D9F70E94260F1F910F91089534
:100730000E94FC0E0091D4010E94430F0F3F09F468
:10074000000000E00E94430F18E1EAE9F7E005919C
:100750000E94430F1A951123D1F70E94260F089586
:100760000E94FC0E0091D4010E94430F0F3F09F438
:10077000000000E00E94430F18E0E0E9F7E0059177
:100780000E94430F1A951123D1F70E94260F089556
:10079000D30040A1C8A681AF0000D580A83FD300F8
:1007A000408D14A1C8DA1281AFD922DB20A4A600A3
:1007B00010B0AF000F931F932F930E94DC1328E01B
:1007C00014E82A951F9310E0109380012093810173
:1007D0000E9401041F910E94FC0E0091D4010E940E
:1007E000430F00E40E94430F00E00E94430F1A955C
:1007F000D9F70E94260F222319F72F911F910F91ED
:100800000895109180012091810117FD1CC00F9364
:100810000E94FC0E0091D4010E94430F00E00E9450
:10082000430F022F0770006B0E94430F012F0F70C0
:100830000E94430F012F02950F7000610E94430F29
:100840000E94260F0F9108950F930FB70F93EF9308
:10085000FF9300915C01083020F4039500935C0144
:100860001CC0002700935C010E94B0030091D201DC
:10087000003019F4E2E4F5E10EC0013019F4E4E5CA
:10088000F5E109C0023019F4E5E6F5E104C00330F2
:1008900021F4E6E7F5E10E946513FF91EF910F91D6
:1008A0000FBF0F9108950F931F932F930091D501C0
:1008B00005FD25C006FD23C0002719B113FF016007
:1008C00014FF026010915D010117C9F020915E01D3
:1008D000133089F4021779F0023039F40091D50110
:1008E0000F7D00640093D50106C00091D501006220
:1008F0000F7B0093D50110935E0100935D012F9152
:100900001F910F9108950F931F9309B11FEF0127B6
:10091000007210915F0100935F01102715FF04C062
:1009200011E01093600146C01091600117FF04C0F0
:100930001127109360013EC0103059F11A951093A1
:100940006001C1F505FD21C000C010916201139541
:1009500010936201123030F410916101153050F1A2
:10096000143640F50091D50108600093D50100913F
:100970006201009363010027009362011BC0109184
:10098000620113951093620115C011271093610144
:1009900011C005FF0FC010916101143629F40091B8
:1009A000D50100610093D5011F3F21F013951093ED
:1009B000610100C01F910F9108950F930FB70F931E
:1009C0000091D201003021F402E00E94DF020FC04A
:1009D000013021F400E00E94DF0209C0023021F45E
:1009E00000E00E94DF0203C0033009F400C00F9151
:1009F0000FBF0F9108950F930FB70F930091D2017E
:100A0000003021F401E00E94DF020BC0023019F433
:100A100001E00E94DF02033021F400E00E94DF02C7
:100A200000C00F910FBF0F91089518055807F605E4
:100A30002A390B02000080800000808000008000C6
:100A40000001010000010100000180000080800021
:100A50000080800000010000010100000101000091
:100A6000000000C07098ECF4F67A3A000000030E23
:100A700019372F6F5E5C3A7AF6F4EC9870C000007C
:100A8000005C5E6F2F37190E0300000000000000AD
:100A90006060000000000000000000000000000096
:100AA0000000000000000000000000000000000046
:100AB000000000000000000000F0FC1C0E06060E06
:100AC0001CFCF0000F3F3870606070383F0F006012
:100AD00070381CFEFE0000000000606060607F7FD8
:100AE0006060606000181C0E06060686CEFC78006A
:100AF0006070787C6E676361606000060606C6C63B
:100B0000E6F6DE8E060018387060606060713F1F88
:100B100000000080C0E070381C8E86000E0F0F0DA4
:100B20000C0C0C0C7F7F00FEFEC6C6C6C6C6C68671
:100B3000060018387060606060713F1F00F8FC8E1E
:100B4000C6C6C6C6CE8C08001F3F7160606060716B
:100B50003F1F00060606060686E6FE7E1E00000013
:100B600060787E1F07010000000078FCCE8686CEEC
:100B7000FC7800001E3F7361616161733F1E00F8E5
:100B8000FC8E060606068EFCF80010317363636364
:100B900063713F1F00000000000000000000000023
:100BA0000000000000000000000000000000000045
:100BB0000000000000000000000000000000000035
:100BC0000000000000000000000000000000000025
:100BD0000000000000000000000000000000000015
:100BE000000000000000000000000000E0FF0B0219
:100BF00000CCEE666666666666FEFC0003070606C7
:100C000006060603070700FEFE363636363676E65B
:100C1000C0000707060606060607030100FEFE667B
:100C2000666666767EECC0000707060606060607BF
:100C300003010088CC6E66666666663C1800010398
:100C400006060606060603030000FCFE0606060668
:100C5000FEFC00000E0F0706060606070F0E00F842
:100C6000FC6666666666667C380001030606060654
:100C700006060600008EDEF060FEFE60F0DE8E00EE
:100C80000707000007070000070700080C0E0666AC
:100C9000666666FC98000103070606060606030161
:100CA00000FEFE0080C0E07038FEFE00070707036C
:100CB00001000000070700FEFE0080C6E67038FE57
:100CC000FE000707070301000000070700FEFE60A3
:100CD0006070F8DC8E0600000707000000000103CA
:100CE00007060000E0F81E06061EF8E000000707F1
:100CF000000000000000070700FEFE1C30E0E030AE
:100D00001CFEFE000707000000000000070700FEB1
:100D1000FE606060606060FEFE000707000000008B
:100D20000000070700F8FC0E060606060EFCF80099
:100D30000103070606060607030100FEFE06060677
:100D4000060606FEFE000707000000000000070779
:100D500000FEFEC6C6C6C6C6EE7C38000707000009
:100D600000000000000000F8FC0E060606060E9CBF
:100D7000980001030706060606070301000606069B
:100D800006FEFE060606060000000000070700003B
:100D90000000003E7E606060606060FEFE00000655
:100DA000060606060607030100F8FC0C0CFEFE0C06
:100DB0000CFCF8000103030307070303030100060B
:100DC0000E9CD8F0F0B89C0E060006070301000048
:100DD0000103070600FEFE0000000000FEFE00000A
:100DE00007070606060616171F1C003E7EE0C0C059
:100DF000C0C0C0FEFE0000000000000000000707A9
:100E000000FEFE0000F8F80000FEFE0007070606E0
:100E100007070606070700FEFE0000F8F80000FEC0
:100E2000FE0007070606070716161F1F000606FE28
:100E3000FE30303030F0E0000000070706060606FE
:100E4000070300FEFE303030F0E000FEFE00070732
:100E5000060606070300070700FEFE30303030307C
:100E600070E0C00007070606060606070301000833
:100E70000C0E066666666EFCF800010307060606A1
:100E80000607030100FEFE60FCFE060606FEFC00EF
:100E900007070003070606060703003C7E66E6E632
:100EA000E66666FEFE000406070301000000070771
:100EB000304320050000C0F0F8F8FCFCFEFEFE7E8A
:100EC0007E7E7E7E7E7E7E7E7EFEFEFEFCFCF8F8D2
:100ED000F0C0000000FFFFFFFFFFFF070100000060
:100EE0000000000000000080C0E0703907FFFFFF35
:100EF000FFFFFF0000FFFFFFFFFFFF00000000807B
:100F0000C0E070381C0E07030100000000FFFFFF67
:100F1000FFFFFF0000FFFFFFFFFFFFE09C0E070346
:100F2000010000000000000000000080E0FFFFFF63
:100F3000FFFFFF000000030F1F1F3F3F7F7F7F7EEB
:100F40007E7E7E7E7E7E7E7E7E7F7F7F3F3F1F1FFA
:100F50000F03000000000000000000000080C0E05F
:100F6000F0FEFEFEFEFEFE0000000000000000009D
:100F70000000000000000000F0F8FCFEFFFF7F3FD3
:100F80001FFFFFFFFFFFFF00000000000000000048
:100F90000000000000000000000000000000000051
:100FA00000FFFFFFFFFFFF00000000000000000047
:100FB0000000000000000000000000000000000031
:100FC00000FFFFFFFFFFFF00000000000000000027
:100FD00000000000000000007E7E7E7E7E7E7E7E21
:100FE0007E7F7F7F7F7F7F7E7E7E7E7E7E7E7E7E1B
:100FF000000000000080E0F0F8F8FCFCFEFE7E7EC1
:101000007E7E7E7E7E7E7E7E7E7EFEFEFCFCFCF80C
:10101000F0E08000000F0F0F0F0F0F030000000023
:101020000000000000000000000080C0E1FFFFFFA2
:10103000FFFF3F0000000000000000000000000073
:10104000000080C0E0F0F8FCFEFF7F3F1F0F0703A9
:101050000100000000000000000080C0E0F0F8FC8B
:10106000FEFF7F3F1F0F070301000000000000008C
:10107000000000000070787C7E7F7F7F7F7F7F7F15
:101080007F7E7E7E7E7E7E7E7E7E7E7E7E7E7E7E7F
:101090007E7E7E000080E0F0F8F8FCFCFE7E7E7E26
:1010A0007E7E7E7E7E7E7E7E7E7E7EFEFCFCFCF8EC
:1010B000F0E08000000F0F0F0F0F0F030000000083
:1010C000000000000000000000000000C3FFFFFF60
:1010D000FFFF7F0000000000000000000000000093
:1010E000003E3E3E3E3E3E3E3E3E3E7FFFFFFFF721
:1010F000E3C1000000F0F0F0F0F0F0C000000000EC
:10110000000000000000000000000000C1FFFFFF21
:10111000FFFFFF000001070F1F1F3F3F7F7E7E7E06
:101120007E7E7E7E7E7E7E7E7E7E7E7F3F3F3F1FFA
:101130000F07010000000000000000000000000098
:101140000000000080C0E0F0F8FCFEFEFE7E3E1EC7
:1011500000000000000000000000000080C0E0F07F
:10116000F8FCFEFFFF7F3F1F0F0703010000000098
:101170000000000000C0E0F0F8FCFEFFFF7F3F1F12
:101180000F070301000000000000FEFEFEFEFEFE51
:1011900000000000007F7F7F7F7F7F7F7E7E7E7EDE
:1011A0007E7E7E7E7E7E7E7E7E7EFFFFFFFFFFFF59
:1011B0007E7E7E00000000000000000000000000B5
:1011C000000000000000000000003F3F3F3F3F3FA5
:1011D0000000000000FEFEFEFEFEFE7E7E7E7E7EA5
:1011E0007E7E7E7E7E7E7E7E7E7E7E7E7E7E7E7E1F
:1011F0007E7E7E0000FFFFFFFFFFFFC080808080BB
:1012000080808080808080808080808000000000DE
:10121000000000000001070F0F1F1F1F1F1F1F1FCF
:101220001F1F1F1F1F1F1F1F1F1F1F3FFFFFFEFE30
:10123000FCF8E00000F0F0F0F0F0F0C0000000007A
:10124000000000000000000000000000C0FFFFFFE1
:10125000FFFFFF000001070F1F1F3F3F7F7E7E7EC5
:101260007E7E7E7E7E7E7E7E7E7E7E7F3F3F1F1FD9
:101270000F070100000080E0F0F8F8FCFC7E7E7EA5
:101280007E7E7E7E7E7E7E7E7E7EFEFCFCF8F8F09C
:10129000E080000000FEFFFFFFFFFF0100008080F4
:1012A00080808080808080808080800303030303AF
:1012B0000303000000FFFFFFFFFFFFFE3F1F1F1F94
:1012C0001F1F1F1F1F1F1F1F1F1F1F3FFFFEFEFC93
:1012D000F8F0C00000FFFFFFFFFFFFC000000000AC
:1012E000000000000000000000000000C0FFFFFF41
:1012F000FFFFFF00000003070F1F1F3F3F7E7E7EA2
:101300007E7E7E7E7E7E7E7E7E7E7E3F3F1F1F0FA8
:1013100007030000007E7E7E7E7E7E7E7E7E7E7E59
:101320007E7E7E7E7E7E7E7E7E7E7E7EFEFEFEFEDD
:10133000FEFEFE00000000000000000000000000B3
:101340000000000000000000C0F0FCFFFFFFFF7F76
:101350001F07010000000000000000000000000066
:1013600000000000C0F0FCFFFFFFFF7F1F0701002F
:10137000000000000000000000000000000000006D
:10138000C0F0FCFFFFFFFF7F1F070100000000000F
:1013900000000000000000000000000040707C7FA2
:1013A0007F7F7F7F1F07010000000000000000001A
:1013B00000000000000080E0F0F8F8FCFCFE7E7EFB
:1013C0007E7E7E7E7E7E7E7E7E7EFEFCFCF8F8F05B
:1013D000E080000000003FFFFFFFFFFFC180000032
:1013E0000000000000000000000080C1FFFFFFFFC0
:1013F000FF3F000000C0E0F8FDFFFFFF7F3F3F3FE1
:101400003F3F3F3F3F3F3F3F3F3F3F7FFFFFFFFDAE
:10141000F8E0C00000FFFFFFFFFFFFC10000000079
:10142000000000000000000000000000C1FFFFFFFE
:10143000FFFFFF000001070F1F1F3F3F7F7E7E7EE3
:101440007E7E7E7E7E7E7E7E7E7E7E7F3F3F1F1FF7
:101450000F0701000080E0F0F8F8FCFCFE7E7E7EC5
:101460007E7E7E7E7E7E7E7E7E7E7EFEFCFCF8F82C
:10147000F0E0800000FFFFFFFFFFFF03000000001F
:1014800000000000000000000000000003FFFFFF5C
:10149000FFFFFF0000071F3F7FFFFFFFFCF8F8F88A
:1014A000F8F8F8F8F8F8F8F8F8F8F8FC7FFFFFFF1C
:1014B000FFFFFF000000C0C0C0C0C0C0C1010101EB
:1014C00001010101010101010101000080FFFFFF95
:1014D000FFFFFF00000001070F1F1F3F3F7F7E7EC1
:1014E0007E7E7E7E7E7E7E7E7E7E7E7F3F3F1F1F57
:1014F0000F070100000000000000000000000000D5
:1015000000000000000000000000000000000000DB
:1015100000000000000000000000000000C0E0E04B
:10152000F0F0F8F8F8F8F8F8F8F8F8F8F0F0E0E08B
:10153000C00000000000000000000000FFFFFFFFEF
:10154000FF07010000000080C0E0703907FFFFFFC7
:10155000FFFF00000000000000000000FFFFFFFF91
:10156000FF8070381C0E07030100000080FFFFFFA2
:10157000FFFF000000387C7C7C380000030F1F1F39
:101580003F3F7E7C7C7C7C7C7C7C7C7E3F3F1F1F45
:101590000F03000000000000000000000000000039
:1015A000000000000000000000000000000000003B
:1015B000000000000000000000000000000000002B
:1015C000000000000080F8F8F8F8F80000000000C3
:1015D000000000000000000000000000000000E02B
:1015E000F0F8FC7E3F1FFFFFFFFFFF000000000040
:1015F00000000000000000000000000000000003E8
:10160000030100000000FFFFFFFFFF0000000000DB
:101610000000000000387C7C7C38000000007C7CEE
:101620007C7C7C7C7C7C7F7F7F7F7F7C7C7C7C7CEB
:101630007C7C0000000000000000000000000000B2
:10164000000000000000000000000000000000009A
:1016500000000000000000000000000000C0E0E00A
:10166000F0F0F8F8F8F8F8F8F8F8F8F8F0F0E0E04A
:10167000C00000000000000000000000070707078E
:101680000701000000000000000080C0E1FFFFFF34
:10169000FF3F00000000000000000000000000000C
:1016A000000080C0E0F0F8FCFE7F3F1F0F07030141
:1016B0000000000000387C7C7C3800006070787C82
:1016C0007E7F7F7F7F7F7F7D7C7C7C7C7C7C7C7C45
:1016D0007C7C000000000000000000000000000012
:1016E00000000000000000000000000000000000FA
:1016F00000000000000000000000000000C0E0E06A
:10170000F0F0F8F8F8F8F8F8F8F8F8F0F0E0E0C0E1
:1017100000000000000000000000000007070707AD
:101720000703010000C0C0C0C0E0E1F3FFFF7F3F3E
:101730001F0000000000000000000000808080808A
:101740008000000000030303030307070FFFFFFEF1
:10175000FCF8000000387C7C7C380000030F1F1F61
:101760003F3F7E7C7C7C7C7C7C7C7E3E3F1F1F0FD1
:101770000701000000000000000000000000000061
:101780000000000000000000000000000000000059
:101790000000000000000000000000000000000049
:1017A0000000000000000080C0E0F0F8F8F8783891
:1017B00000000000000000000000000000000080A9
:1017C000C0E0F0F8FCFE7F3F1F0F07838180808020
:1017D000000000000000000000000000FCFEFFFF11
:1017E000FFFFF7F3F1F0F0F0F0F0F0FFFFFFFFFF85
:1017F000F0F0000000387C7C7C3800000101010121
:1018000001010101010101010101017F7F7F7F7F52
:1018100001010000000000000000000000000000C6
:1018200000000000000000000000000000000000B8
:10183000000000000000000000000000F8F8F8F8C8
:10184000F8F8F8F8F8F8F8F8F8F8F8F8F8F8F8F818
:10185000000000000000000000000000FFFFFFFF8C
:10186000FFE0E0E0E0E0E0E0E0E0E0C0C080800039
:10187000000000000000000000000000818383835E
:101880008303030303030303030307070FFFFFFFA0
:10189000FEF8000000387C7C7C380000030F1F1F1E
:1018A0003F3E7C7C7C7C7C7C7C7C7C3E3F1F1F0F95
:1018B0000701000000000000000000000000000020
:1018C0000000000000000000000000000000000018
:1018D00000000000000000000000000000C0E0E088
:1018E000F0F0F8F8F8F8F8F8F8F8F8F0F0E0E0C000
:1018F000000000000000000000000000FFFFFFFFEC
:10190000FF83C1E0E0E0E0E0E0E0E0C1C383830307
:10191000030000000000000000000000FFFFFFFFC8
:10192000FF0F070303030303030303070FFFFFFF77
:10193000FEF8000000387C7C7C380000030F1F1F7D
:101940003F3F7E7C7C7C7C7C7C7C7C3E3F1F1F0FF1
:10195000070100000000000000000000000000007F
:101960000000000000000000000000000000000077
:10197000000000000000000000000000F8F8F8F887
:10198000F8F8F8F8F8F8F8F8F8F8F8F8F8F8F8F8D7
:10199000F8F8000000000000000000000000000057
:1019A000000000000000000000C0F0FCFFFF7F1FEF
:1019B000070100000000000000000000000000001F
:1019C0000000000000C0F0FCFFFF7F1F07010000C7
:1019D0000000000000387C7C7C3800000000000023
:1019E0000040707C7F7F7F1F070100000000000027
:1019F00000000000000000000000000000000000E7
:101A000000000000000000000000000000000000D6
:101A10000000000000000000000000000080E0E086
:101A2000F0F0F8F8F8F8F8F8F8F8F8F0F0E0E0C0BE
:101A3000000000000000000000000000001F3F7FC9
:101A4000FFFFF3E1C0C0C0C0C0C0E1F3FFFF7F3FB4
:101A50001F0000000000000000000000F8FCFEFF76
:101A6000FF0F070303030303030303070FFFFFFE37
:101A7000FCF8000000387C7C7C380000030F1F1F3E
:101A80003F3F7E7C7C7C7C7C7C7C7C3E3F1F1F0FB0
:101A9000070100000000000000000000000000003E
:101AA0000000000000000000000000000000000036
:101AB0000000000000000000000000000080C0E006
:101AC000E0F0F0F8F8F8F8F8F8F8F8F8F0F0E0E0FE
:101AD000C000000000000000000000007EFFFFFFCB
:101AE000FFC381000000000000000081C3FFFFFF72
:101AF000FFFF0000000000000000000000010307DD
:101B0000070F0F1F1F1F1F1F1F1F1F0F0F07FFFF95
:101B1000FFFF000000387C7C7C380000030F1F1F93
:101B20003F3E7C7C7C7C7C7C7C7C7C7C3E3F1F1FA5
:101B30000F030000FF92FFB6FF920F931F932F93A6
:101B400000916401013009F407C0023009F414C0A7
:101B5000033009F42DC058C000916501033010F026
:101B600009F052C01091D201133009F44DC0009316
:101B7000D2010E94DF0248C0009165011091660108
:101B800017FD42C024EC021729E0120711F008F0FB
:101B90003BC02FE8201721E0210710F00027112774
:101BA00000930D0110930E0109E80E94F1132CC05F
:101BB000009165011091660117FD16C024EC021713
:101BC00029E0120711F008F00FC02FE8201721E0DC
:101BD000210710F00027112700930D0110930E012B
:101BE00009E80E94F11310C000916701033010F062
:101BF00009F00AC01091D201133009F405C0009316
:101C0000D2010E94DF0200C02F911F910F91FF901F
:101C1000FFBEFF900895FF92FFB6FF920F931F93B0
:101C2000EF93FF93E6E5FCE10091B900087F06958C
:101C3000069506951127E00FF11FE00FF11F0591A2
:101C40001491F8010995FF91EF911F910F91FF9069
:101C5000FFBEFF9018954B0EC40EC40EC40EC40EEA
:101C6000C40EC40EC40EC40EC40EC40EC40E4F0E59
:101C7000C40EC40EC40E5C0E730EC40EC40E890EC8
:101C8000920EC40EA90EC00EC00EC40EC40EC40E19
:101C9000C40EC40EC40E05ED0093BC00089500E010
:101CA0000093640100910300013011F405E801C0C4
:101CB00005EC0093BC000895002710916401E5E64F
:101CC000F1E0E10FF01F0091BB000083139510932A
:101CD000640103E00A95101711F405E801C005EC52
:101CE0000093BC000895002710916401E5E6F1E03F
:101CF000E10FF01F0091BB00008313951093640166
:101D000005EC0093BC000091D50102600093D50161
:101D1000089505EC0093BC000091D501026000938A
:101D2000D50108950E94C50E10E010936401E8E605
:101D3000F1E00027E10FF01F00810093BB0000914C
:101D40000500013011F405E801C005EC0093BC006A
:101D50000895002710916401139510936401E8E63B
:101D6000F1E0E10FF01F00810093BB0005E00A9550
:101D7000101711F405E801C005EC0093BC000895AC
:101D800005EC0093BC00089508950F931F930091F4
:101D90000D010093680100910E010093690100910B
:101DA0000B0100936A0100910C0100936B010091FB
:101DB000D2010F701091D7011071012B1091D60133
:101DC00012951072012B00936C011F910F910895D1
:101DD000209823B120FFFDCF0895209A08952198DF
:101DE0000895219A08952F930E94EF0E0E94E80E05
:101DF0000E94260F2F9108952F930E94F10E24E048
:101E00002150F0F700000E94ED0E24E02150F0F781
:101E100000002F9108952F930E94EF0E24E021508F
:101E2000F0F700000E94E80E24E02150F0F70000D7
:101E30000E94F10E24E02150F0F700000E94ED0E08
:101E400024E02150F0F700002F9108952F93189966
:101E50000E94ED0E24E02150F0F7000019990E9435
:101E6000F10E24E02150F0F700000E94E80E24E07B
:101E70002150F0F700000E94EF0E24E02150F0F70F
:101E800000002F9108951F932F9318E024E0215014
:101E9000F0F70000001F18F40E94EF0E02C00E942D
:101EA000F10E24E02150F0F700000E94E80E24E03B
:101EB0002150F0F700000E94ED0E1A9539F70E94AC
:101EC000EF0E24E02150F0F700000E94E80E24E01D
:101ED0002150F0F7000013B111FB11FD03C010E019
:101EE000889402C01FEF08941093D3010E94ED0E56
:101EF0002F911F910895FF92FFB6FF920F930091CB
:101F0000D801002309F009C00FEF0093D801009118
:101F1000D401003011F00E94960F00E00093D80128
:101F20000F91FF90FFBEFF90089508950F9308E86A
:101F3000003920F40E94A00F0395FACF0F91089565
:101F4000CF93DF93CDEDD1E00F9300581127C00F51
:101F5000D11FC00FD11F0981007C003C0F9131F4CB
:101F60000F930E9405140E948B130F91DF91CF9164
:101F700008951F932F9328E00795111F2A95E1F7E5
:101F8000012F2F911F9108950F930FB70F931F9358
:101F90002F933F9300E000931D0000270093000162
:101FA00009B1047024ED2150F0F7000019B114704C
:101FB000012709F087C15E9A00E00093810020911B
:101FC00084003091850000270093850000938400F1
:101FD000109154010091530110938B0000938A00DB
:101FE0000091D201003009F1023029F0013081F076
:101FF000033009F067C15E9A2D9A5F9A00E0009362
:10200000D70108E60093510102E40093520120C079
:102010005E982D985F9A00E00093D70104E6009344
:10202000510100E00093520113C010915201009140
:102030005101109389000093880010915401009180
:10204000530110938B0000938A0002E000938100FB
:102050004F93FF93EF93DF93CF930F921F922F92A3
:102060003F924F925F926F927F928F929F92AF9228
:10207000BF92CF92DF92EF92FF92009169000370BE
:102080000230B1F0033029F00BE0009369000C94AA
:102090004D110DEE00937A00009169000C7F0260F3
:1020A0000093690020935501309356010C944D1113
:1020B0000DE600937A00009169000C7F03600093A5
:1020C000690020935701309358016090010170908E
:1020D00002018090030190900401A0900501B0904E
:1020E0000601660C771C881C991C660C771C881CE2
:1020F000991CCC24DD240E948011660C771C881C5E
:10210000991C660C771C881C991CA301B401609271
:102110000701709208018092090190920A010E94C1
:102120009A1180920F0190921001002700930101F3
:102130000093020100930301009304010093050141
:1021400000930601F1E0EFE4EF010027802E202E3E
:10215000302E7A906A900FE1002359F00A951A9078
:102160000A90600C711C821C931C129202920C94B7
:10217000AC10E0E2F0E05F01CC24DD240E9480118D
:1021800080900B0190900C0160920B0170920C01F9
:102190000091D201003009F080C02D9A60900F01AB
:1021A0007090100180900D0190900E0168187908D0
:1021B000889477FC0894779467948090510190906C
:1021C0005201860C971C04E610E097FC03C08016B1
:1021D000910648F448010091DA010A3008F40395A9
:1021E0000093DA010BC000E00093DA0108E612E484
:1021F0008016910608F402C0480100C08092510187
:10220000909252010091DA01053008F40BC00A9552
:102210000093DA010091D6010F3F59F00FEF0093C0
:10222000D60107C00091D601003019F000E00093FC
:10223000D6010091D201003009F02FC0E0910B01CE
:10224000F0910C01339600910D0110910E01E01BED
:10225000F10B07E010E0E017F10708F00AC00027D3
:102260000093D9015F981091D7010FEF0093D70128
:102270000EC00091D901053020F403950093D901D7
:102280000CC05F9A1091D70100E00093D7010113B1
:1022900001C003C008E80E94F113FF90EF90DF90A7
:1022A000CF90BF90AF909F908F907F906F905F90F6
:1022B0004F903F902F901F900F90CF91DF91EF9113
:1022C000FF914F913F912F911F910F910FBF0F9150
:1022D00018950F920FB60F921F92799C6001689C1F
:1022E0005001699CB00CC11C0024D01C789CB00C1F
:1022F000C11C0024D01C1F900F900FBE0F9008959A
:102300000024112422243324F0E2660C771C881C5C
:10231000991C001C111C221C331C0A141B042C04C5
:102320003D0428F063940A181B082C083D08FA9510
:1023300061F708950F931F932F933F934F935F93EC
:102340006F937F93CC24DD24EE2400E4F02E8824C8
:102350009924AA24BB24840195010C291D292E2926
:102360003F29B694A7949794879440175107620722
:10237000730740F08C289D28AE28BF28401B510BC6
:10238000620B730BF694E794D794C794F694E79492
:10239000D794C7940C2D0D290E290F29E1F67F91B2
:1023A0006F915F914F913F912F911F910F910895E0
:1023B000102F0F70107F1295005D0A3308F0095F2F
:1023C000105D1A3308F0195F08954F935F936F9370
:1023D0007F938F939F93FF93EF9397FD0E94B1128A
:1023E00040E2EE24DD24CC24BB24AA24FF27660F80
:1023F000771F881F991FAA1CBB1CCC1CDD1CEE1C60
:102400004A9561F0EFE052915D5F53FD508350813A
:10241000505D57FD5083EA30B1F7E9CF5A2D5F7018
:10242000506350936D015A2D52955F7050635093D5
:102430006E015B2D5F70506350936F015B2D529561
:102440005F705063509370015C2D5F7050635093C8
:1024500071015C2D52955F705063509372015D2D38
:102460005F705063509373015D2D52955F705063A0
:10247000509374015E2D5F705063509375015E2D13
:1024800052955F70506350937601EF91FF919F9149
:102490008F917F916F915F914F9108950F931F934B
:1024A0002F93222710E300917601011719F400E21F
:1024B000239501C010E20093760100917501011788
:1024C00019F400E2239501C010E200937501009118
:1024D0007401011719F4239500E201C010E2009382
:1024E000740100917301011719F4239500E201C0F2
:1024F00010E20093730100917201011719F4239502
:1025000000E201C010E20093720100917101011715
:1025100019F4239500E201C010E2009371010091CB
:102520007001011719F4239500E201C010E2009335
:10253000700100916F01011719F4239500E201C0A9
:1025400010E200936F0100916E0100936E01009103
:102550006D0100936D01209377012F911F910F91D1
:10256000089560957095809590956F5F7F4F8F4F20
:102570009F4F0895E0918601F09187010591E093C6
:102580008601F09387010370009378010E94C912BD
:102590000895EAE2FAE0009178011127E00FF11FB7
:1025A000E00FF11F05911591000F111FF801059122
:1025B00000937B01059100937C0105910F730093BB
:1025C0007D011591177010937E01019F00927F018C
:1025D000E0937901F0937A0108950F931F932F935D
:1025E0003F934F930F921F92FF93EF9300938401B9
:1025F000003259F0F09810917B01011728F02091DA
:102600007C01021718F011F056C0F09A10917B016E
:10261000011B10917F01019FE0917901F0917A01F6
:10262000E00DF11D30917D0140917E01009180010E
:102630000093820100918101009383010091840144
:102640000E3231F400243695301D3695301D301D84
:102650000E94FC0E0091D4010E94430F00E40E94EE
:10266000430F3F9300918001003858F40395009385
:10267000800100E0F09B05910E94430F3A9591F78D
:1026800002C00591FBCF3F910E94260F4A9569F049
:1026900000918201009380010091810103950770F0
:1026A000009381010E940104D3CF00918301009324
:1026B00081010E940104EF91FF911F900F904F91B3
:1026C0003F912F911F910F9108950F930FB70F9383
:1026D0001F93CF93DF93EE0FFF1F00270093850119
:1026E00000918501003808F00FC00395059100386E
:1026F00009F40AC0003828F0003C18F40E948B133B
:10270000EFCF0E94ED12ECCFDF91CF911F910F918F
:102710000FBF0F910895E0938601F0938701E4E0E5
:10272000FAE2CDEDD1E00F93005810E0E00FF11F79
:10273000E00FF11FC00FD11FC00FD11F05911491E1
:10274000F8010091800108831091810117700091B8
:10275000780102950073102B10641F7719830F9175
:102760000995E0918601F09187010895CF93DF9359
:102770000F931F9300581127CDEDD1E0C00FD11F4B
:10278000C00FD11F09810F7B09831F910F91DF912A
:10279000CF910895CF93DF930F9300581127CDED7C
:1027A000D1E0C00FD11FC00FD11F09810064098380
:1027B0000F91DF91CF910895CF93DF930F931F93E4
:1027C000CDEDD1E000E4002339F00A9519811F7B9B
:1027D0001F7719832296F7CF1F910F91DF91CF9129
:1027E0000895CF93DF930F931F93CDEDD1E0005861
:1027F0001127C00FD11FC00FD11F19811068198375
:102800001F910F91DF91CF9108950F931F93CF9355
:10281000DF93CDEDD1E000581127C00FD11FC00FBD
:10282000D11F0881198100938001109381011F77C6
:102830001064198312951370109378010E94C912C5
:102840000E940104DF91CF911F910F910895089587
:10285000E0918601F09187012F933F931591259187
:10286000359105910F9320938001109381010E946F
:1028700001040E94FC0E0091D4010E94430F00E469
:102880000E94430F0F91231739F030F40F930E94E9
:10289000430F0F912395F7CF0E94260F3F912F9161
:1028A000E0938601F09387010895E0918601F0910D
:1028B00087010591003808F00FE70093800105912A
:1028C000077000938101E0938601F09387010E94D5
:1028D00001040895E0918601F09187010091800143
:1028E0001591010F003808F00FE700938001009167
:1028F00081011591010F077000938101E09386011A
:10290000F09387010E9401040895CF93DF930F9302
:102910001F93E0918601F09187010591E093860174
:10292000F0938701003CC0F40A38B0F0005811273A
:10293000CDEDD1E0C00FD11FC00FD11F009180019C
:10294000088310918101177000917801029500733E
:10295000102B1F7B1F7719831F910F91DF91CF9150
:1029600008950091D201003091F40091D7010F70C9
:10297000003039F00CE20E94ED120DE20E94ED12DF
:1029800006C00AE20E94ED120BE20E94ED120895C9
:10299000CDE0D1E003C0CBE0D1E000C0FF92FFB6B4
:1029A000FF92F89468817981FF90FFBEFF9085ECDB
:1029B00099E06817790708F024C0882799270E94B2
:1029C000E5110E944E12009170010E94ED120091DB
:1029D0006F010E94ED1200916E010E94ED120091B4
:1029E0007801013031F400916D01065F0E94ED1213
:1029F00008C00EE20E94ED1200916D010E94ED12DE
:102A000000C008952714BA12281455146A148514A6
:102A100027142714B114C814CB142714271427140F
:102A200027142714271427142714271427142714CE
:102A300027142714271427142714271427142714BE
:102A400027142714271427142714271427142714AE
:102A5000271427142714271427142714271427149E
:102A6000271427142714271427142714271427148E
:102A7000271427142714271427142714271427147E
:102A8000271427148102830000E2FBF5EEE42020E6
:102A9000202020810083680088820200801081014C
:102AA000830003858A8980008102830000F0E0E7CB
:102AB000E3EEED2020202081008351008982020076
:102AC000801081018300038A80008102830000F16D
:102AD000F2EEEF2020202020208100835100898207
:102AE0000200801081018300038A8000810283003C
:102AF0000120E2FBEAEBFEF7E5EDEE208300032088
:102B0000E0E2E0F0E8E9EDFBEC2083050520F1E8E8
:102B1000E3EDE0EBEEEC20800F930FB70F931F93E4
:102B2000EF93FF930091D50100FD3CC0E8E8F1E090
:102B30000091C6001091C801013608F000520B3513
:102B400008F026C0073408F00DC0013408F014C0A6
:102B50000A3308F01DC0003308F00EC00D3009F430
:102B600018C016C0033519F00D3409F011C00083E8
:102B700010E01093C80116C013951F3010F009F033
:102B800011C01093C801E10F1127F11F00830AC083
:102B900009C00091D50101600093D5010E94D915AB
:102BA0000E948916FF91EF911F910F910FBF0F9116
:102BB00018950F930FB70F931F932F93EF93FF93D6
:102BC000E8E8F1E01091C8010191033509F404C06F
:102BD0000D3409F42AC03EC0133019F0123031F020
:102BE00039C001910E94B716F8F0202F01910E9480
:102BF000B716D0F00295102F01910E94B716A0F0E1
:102C0000102B05EC101709E0200770F40FE80117EE
:102C100001E0020710F01127222720930E011093E4
:102C20000D0109E80E94F11315C0113009F012C01E
:102C300001910E94B71668F0033008F00BC01091A4
:102C4000D2010093D201011729F00093D2010E9412
:102C5000DF0200C000270093C8010091D5010E7F5C
:102C60000093D501FF91EF912F911F910F910FBF0D
:102C70000F91089518950F930FB70F931F93EF932C
:102C8000FF93E8EAF1E00091C90110E0E00FF11FC5
:102C90000395003270F40093C9010191003049F0AE
:102CA0000093C600FF91EF911F910F910FBF0F91FD
:102CB000189508ED0093C100F5CFFF92FFB6FF9283
:102CC000F89409811881FF90FFBEFF9007FF05C0AF
:102CD00000E30D930D930D931BC0012F14EC01170E
:102CE000098119E0010758F051F009E00E94D8115C
:102CF0000D9304EC0E94D8111D930D9309C0098116
:102D00000E94D8110D9308810E94D8111D930D9334
:102D100008950F931F93AF93BF93CF93DF93EF93D8
:102D2000FF93A8EAB1E004E50D93CBE0D1E00E9467
:102D30005D16CDE0D1E00E945D16C2EDD1E00881C4
:102D40000E94D8110D930DE00D930AE00D9300E061
:102D50000D930093C90108EF0093C100FF91EF911B
:102D6000DF91CF91BF91AF911F910F9108950033E3
:102D700098F00A3318F4005388940FC0013460F0BF
:102D8000073418F40753889408C0013628F0073632
:102D900018F40755889401C008940F700895FF92A5
:102DA000FFB6FF920F931F932F930E94530410912D
:102DB000CA01212F0091CB0103950A3018F400932A
:102DC000CB0132C0002712600E9483040093CB0124
:102DD0000091CC0103950A3018F40093CC0124C073
:102DE000002714600E941D170E942C170E943D1797
:102DF0000093CC010E947C020091CD0103950A3022
:102E000018F40093CD0110C0002718600093CD0185
:102E10000091CE0103950A3018F40093CE0104C04E
:102E2000002710610093CE011093CA012F911F91CA
:102E30000F91FF90FFBEFF9018950F930091CF0167
:102E40000395023018F40093CF0104C000271062EC
:102E50000093CF010F9108950F930091D001039536
:102E6000043018F40093D00106C0002710640093CA
:102E7000D0010E944C170F9108950F930091D1013A
:102E80000395053018F40093D10104C000271068A1
:102E90000093D1010F9108950F931F932F933F93A8
:102EA00000910B0110910C0120914F0130915001C4
:102EB0000217130739F000934F01109350010AE8ED
:102EC0000E94F1133F912F911F910F910895089542
:102ED0000F930091D201003009F45E980F9118957C
:102EE0005E9A0F9300911C00016000931C000091FA
:102EF0001D00016000931D000F9118955E9A0F93BD
:102F000000911C00016000931C0000911D000160F5
:102F100000931D000F9118950F931F9305B110E2B8
:102F2000012705B91F910F910895C8EED3E0EF93E3
:102F3000FF93E0E4FFE13197F1F72197D1F7FF919B
:042F4000EF91089570
:00000001FF
