:020000020000FC
:0A0000000C9433000C94661218955E
:02000C00189545
:02001000189541
:0200140018953D
:02001800189539
:02001C00189535
:02002000189531
:0200240018952D
:02002800189529
:10002C000C9487020C9489020C9490020C94990203
:02003C00189515
:02004000189511
:0200440018950D
:100048000C94C2030C9481040C9480040C94201228
:020058001895F9
:02005C001895F5
:100060000C945D17189500916000086110E20093F0
:1000700060001093600005B70160102F0D7F15BF61
:1000800005BF04B710E014BF00FD0C94510001FD42
:100090000C945A0002FD0C945A0003FD0C945A0073
:1000A0000000E0E0F1E000270193F530E9F7E030EF
:1000B000D9F70293E0E0F5E0EDBFFEBFEEE1FF27E8
:1000C000EA95F083E9F700E007B90FE308B902EC1D
:1000D0000AB90AEF0BB90BE204B90CEF05B903E05A
:1000E00000936C0000E0009368000CE00093B800FF
:1000F00002E30093BA0005E40093BC0007E6009316
:10010000C40000E00093C50008ED0093C10006E0C4
:100110000093C20002E00093B00003E00093B1003E
:100120000CE70093B30000E000937000B6E4A0E594
:10013000A0930D01B0930E01B0938900A0938800A5
:10014000B6E4A0E5A0930F01B0931001B0938B002B
:10015000A0938A0000E00093800007E000936F0006
:1001600002E00093810009EF07BD08BD02E004BD75
:1001700003E000936E0003E005BD0AE00093690010
:1001800001E00DBB00E000937B0007E000937C00E2
:100190000DEE00937A00CAEFD0E00E942D010E947C
:1001A0003B160E945B0F26F00FEF0093A4012CC0BA
:1001B0000E943B160E9444160AE70E9489160E947C
:1001C0006E1626F00AE70093A40112C00E943B16A7
:1001D0000E94441608E70E9489160E946E1626F0B7
:1001E00008E70093A40104C000E00093A4010CC040
:1001F0000E94FF0F0E9424100E94B00FC8E2D1E0BD
:10020000C0932A01D0932B0109B105FD0C940C0178
:10021000B4E0A0EB0C940E01AA27BB27A093280101
:10022000B093290109E80E94F814B0E0A5E0A0937A
:100230001601B09317010091A4010F3F21F0E4EBE8
:10024000F6E10E946A1478940E94B20309E80E94C1
:10025000F8140C943801C8EED3E0EF93FF93E0E478
:10026000FFE13197F1F72197D1F7FF91EF910895D1
:100270000091580100FF07C00F930E9414040F91D2
:100280000E7F0093580101FF07C00F930E94FA16DA
:100290000F910D7F0093580103FF09C00F930E9437
:1002A000B2030E94DF010F91077F0093580104FF02
:1002B00009C00F930E94B2030E9405020F910F7EA6
:1002C0000093580105FF23C00F93009115010030E2
:1002D00059F0CF93DF93C2E3D0E0C0931601D093DF
:1002E0001701DF91CF910AC0CF93DF93C5E0D0E033
:1002F000C0931601D0931701DF91CF9102E00093D4
:1003000015010E9410050F910F7D0093580106FF03
:1003100023C00F9300911501003059F0CF93DF9364
:10032000C2E3D0E0C0931601D0931701DF91CF91C3
:100330000AC0CF93DF93C5E0D0E0C0931601D093FD
:100340001701DF91CF9102E0009315010E94530540
:100350000F910F7B009358010091590100FF08C0D5
:100360000F930E946E100F910E7F0093590125C0CC
:1003700001FF0AC00F930E9424020E94E5050F911D
:100380000D7F0093590119C002FF0FC00F930E9407
:10039000600300911501003009F00A9500931501E2
:1003A0000F910B7F0093590108C003FF06C00F9304
:1003B0000F91077F0093590100C00C943801FF9200
:1003C000FFB6FF920F9300911B01003021F402E071
:1003D0000E94D20215C0013039F400E00E94D2021E
:1003E00009E80E94F8140CC0023039F400E00E94C1
:1003F000D20209E80E94F81403C0033009F400C0D7
:100400000F91FF90FFBEFF900895FF92FFB6FF92FD
:100410000F9300911B01003021F401E00E94D202F1
:100420000EC0023019F401E00E94D202033039F408
:1004300000E00E94D20209E80E94F81400C00F9167
:10044000FF90FFBEFF9008950F931F930E949B03A0
:100450000F930E948F0E0F9100914C01039512E0B3
:10046000011338C00F9300912801009306010091F9
:1004700029010093070100912601009308010091D2
:1004800027010093090100911B010F7010911A01BF
:100490001071012B109119011072012B00930A01A8
:1004A0000AE80E94F81400911B01002389F40091CE
:1004B0001901002339F009E80E94BD140AE80E94DE
:1004C000D11406C009E80E94D1140AE80E94BD14A4
:1004D0000F91002700934C0100914D01039513E00B
:1004E000011303C00F930F91002700934D0100915A
:1004F0004E01039514E0011305C00F930E94A6045A
:100500000F91002700934E011F910F9108955E985F
:1005100018955E9A0F9301E000931D000F911895B6
:100520005E9A0F9300911D00016000931D000F91D2
:1005300018950F930FB70F931F93109159010091C6
:100540005401093029F0039500935401186021C02B
:1005500000270093540100915501093029F00395BB
:1005600000935501146015C00027009355010091B8
:100570005601093029F0039500935601126009C015
:1005800000270093560100915701039500935701EE
:100590001160109359010E9434031F910F910FBFF6
:1005A0000F9118950F9300270093190100935301A1
:1005B0000F91003009F40AC0013009F419C002306B
:1005C00009F428C0033009F437C04DC000931B0163
:1005D0002D9A0091A401002351F00F3F41F00E9499
:1005E000FF0F0E942410E4EBF6E10E946A143BC066
:1005F00000931B012D980091A401002351F00F3F9F
:1006000041F00E94FF0F0E942410E7ECF6E10E94E7
:100610006A1429C000931B012D9A0091A4010023A4
:1006200051F00F3F41F00E94FF0F0E942410E7EDB0
:10063000F6E10E946A1417C000931B01C8E2D1E0E2
:100640000027099308832D9A0091A401002351F0FB
:100650000F3F41F00E94FF0F0E942410E7EEF6E1E9
:100660000E946A1400C008952F930091580105FD5F
:1006700025C006FD23C0002719B113FF016014FF38
:100680000260109100010117C9F02091010113309F
:1006900089F4021779F0023039F4009158010F7D86
:1006A00000640093580106C00091580100620F7B5E
:1006B0000093580110930101009300012F910895B8
:1006C00009B100721FEF012705FBABE0B1E0CCE000
:1006D000D1E00E947C030E948A031091580100918E
:1006E0000C01007E003A11F4106103C0003409F4DB
:1006F00018601093580108950C9114E02EF01A958B
:10070000011731F0039504C01195011709F00A95FE
:100710000C930895188117FB0C91002342F056F4B6
:1007200016FD03C01F77106404C0112702C016F025
:1007300010E818830895CCE0D1E021E0199117FB6F
:1007400076F416FB66F0012F0F710F3141F003951F
:10075000107E102B0A3008F010621A9319912A9516
:1007600069F708950F931F93CF93DF93CCE0D1E007
:1007700011E00FEF09931A95E9F7DF91CF911F91DF
:100780000F910895FF92FFB6FF92EF93FF931F938F
:100790000F930091580100FD3FC0EAE5F1E00091A0
:1007A000C6000D3009F431C0073408F40CC00A3516
:1007B00058F051F0013608F42FC00A3710F009F054
:1007C0002BC00052F1CF06C000C000830027009369
:1007D0009A0122C0003350F0093348F041F001344F
:1007E00028F0063420F019F00052F9CF15C010910E
:1007F0009A0113951F3010F009F00EC010939A0162
:10080000E10F10E0F11F008307C000915801016063
:10081000009358010E9414040F911F91FF91EF91D2
:10082000FF90FFBEFF901895FF92FFB6FF92EF93E7
:10083000FF930F931F932F93EAE5F1E010919A0134
:100840000191033509F407C00D3409F433C00435B0
:1008500009F443C044C022271430E9F3133051F0A7
:10086000123071F03CC001910E94F90410F1029520
:10087000007F202F01910E94F904D8F00F70202BE7
:1008800001910E94F904A8F00295007F102F0191B8
:100890000E94F90470F00F70102B05EC101709E09E
:1008A000200738F4209329011093280109E80E94B9
:1008B000F81415C0113009F012C000911B0103306B
:1008C00059F001910E94F90438F0033008F007C094
:1008D00000931B010E94D20202C0000000C000274A
:1008E00000939A01009158010E7F009358012F91B7
:1008F0001F910F91FF91EF91FF90FFBEFF90089520
:100900001895FF92FFB6FF92EF93FF931F930F93FB
:10091000EAE7F1E000919B0110E0E00FF11F039581
:100920000F71003079F000939B010191003051F07C
:100930000093C6000F911F91FF91EF91FF90FFBEB2
:10094000FF90189508ED0093C100F4CFFF92FFB619
:10095000FF92AF93BF93CF93DF93EF93FF930F93E8
:100960001F93AAE7B1E004E50D93C6E2D1E0098147
:100970000E94B8100D9308810E94B8101D930D932A
:10098000C8E2D1E009810E94B8100D9308810E944D
:10099000B8101D930D93CBE1D1E008810E94B810EF
:1009A0000D930DE00D930AE00D9300E00D9300937D
:1009B0009B0108EF0093C1001F910F91FF91EF91F0
:1009C000DF91CF91BF91AF91FF90FFBEFF9008954F
:1009D000088115EC0117098119E0010748F467FC4B
:1009E00003C004EC19E002C0002711270883198313
:1009F0000895003398F00A3318F4005388940FC018
:100A0000013460F0073418F40753889408C00136A5
:100A100028F0073618F40755889401C00894089503
:100A2000FF92FFB6FF920F931F932F933F93009176
:100A30001B011091A4011F3F19F0103029F002C0D2
:100A4000003011F4033009F426C0009119010F3F62
:100A500009F421C00091280110912901209116016B
:100A600030911701020F131F0E94D20520E931E0D7
:100A70000217130710F4890107C024EC39E00217AC
:100A8000130710F009F08901009328011093290140
:100A900009E80E94F8143F912F911F910F91FF9048
:100AA000FFBEFF900895FF92FFB6FF926F927F9274
:100AB0008F929F92AF92BF92CF92DF920F931F932C
:100AC0002F933F9300911B011091A4011F3F19F038
:100AD000103029F002C0003011F4033009F452C084
:100AE000E0911901EF3F91F500911B01003071F584
:100AF0008090160190901701880C991C880C991C05
:100B0000880C991C880C991C60902C0170902D0108
:100B10006818790888249924A0901601B0901701CC
:100B2000CC24DD240E94CB108090160190901701F8
:100B30000E949D10850128E833E120930D01309338
:100B40000E01209116013091170108C00091280173
:100B5000109129012091160130911701021B130BEE
:100B60000E94D20520E931E00217130717FD01C0EA
:100B700010F400271127009328011093290109E898
:100B80000E94F8143F912F911F910F91DF90CF9009
:100B9000BF90AF909F908F907F906F90FF90FFBE1F
:100BA000FF900895380188249924A0901601B090F0
:100BB0001701CC24DD240E94CB1080901601909068
:100BC00017010E949D10850108950F930FB70F9391
:100BD0001F932F9306B11FEF01271091500100932F
:100BE0005001102720911B01233021F00E940006A4
:100BF0000E941E062F911F910F910FBF0F91089514
:100C00000F931F9310FD14C01091510117FF04C0E2
:100C10001127109351010FC0103069F01A951093ED
:100C2000510149F400FF07C003E00E94D20203C053
:100C300014E1109351011F910F9108950F931F9389
:100C400011FD1EC01091520117FF04C0112710930F
:100C5000520119C01030B9F01A951093520199F44D
:100C600010911B0101FD06C0113069F400E00E94E3
:100C7000D20209C0113039F001E00E94D20203C053
:100C800014E0109352011F910F9108954906FD073A
:100C9000DB062A3909020000000000000000000005
:100CA0000C1C18183838303000000000000000001C
:100CB000003030383818181C0C0000C07098ECF464
:100CC000F6FA1A00030E19372F6F5F581AFAF6F466
:100CD000EC9870C000585F6F2F37190E03000000AA
:100CE0000000000000606000000000606000000084
:100CF00000000000000000000000000000000000F4
:100D0000000000E0F81C06061CF8E000071F386031
:100D100060381F0700101818FEFE00000000606019
:100D2000607F7F60606000181C0E06060EFCF800F5
:100D30006070787C6E676361000606C6E6F6DE8E3C
:100D400006001838706060713F1F000000C0F03E60
:100D50000E8080000C0F0F0C0C0C7F7F00FEFEC677
:100D6000C6C6C68606001838706060713F1F00F85E
:100D7000FCCEC6C6CE8C08001F3F716060713F1F5D
:100D80000006060686E6FE3E0E0060783E0F030073
:100D900000000078FCCE8686CEFC78001E3F736192
:100DA00061733F1E00F8FC8E06068EFCF8001031C1
:100DB000736363733F1FC0DF09020080F07C0E0E77
:100DC0007CF080007F7F0C0C0C0C7F7F00FEFEC649
:100DD000C6C6868600007F7F606060713F1F00FE90
:100DE000FE8686CEFC3800007F7F616161733F1E06
:100DF00000FEFE060606060600007F7F00000000DB
:100E000000000000FCFE0606FEFC0000E0FF7F6024
:100E1000607FFFE000FEFE868686860606007F7FF6
:100E2000616161616060007EFE80FEFE80FE7E008A
:100E30007E7F017F7F017F7E00181C0E8686CEFCA0
:100E400038001838706161733F1E00FEFE0000809C
:100E5000C0FEFE007F7F381E07017F7F00FEFE0080
:100E60000E8EC0FEFE007F7F381E07017F7F00FED2
:100E7000FE80E0F81E0600007F7F0101071E7860FB
:100E8000000080F07E7EF0800000787F0700000781
:100E90007F7800FEFEF08080F0FEFE007F7F010F75
:100EA0000F017F7F00FEFE80808080FEFE007F7F3E
:100EB000010101017F7F00F8FC0E06060EFCF80020
:100EC0001F3F706060703F1F00FEFE06060606FEB4
:100ED000FE007F7F000000007F7F00FEFE0606060A
:100EE0000EFCF8007F7F06060607030100F8FC0EE3
:100EF00006060E1C18001F3F706060703818000650
:100F00000606FEFE060606000000007F7F000000C9
:100F100000FEFE80000000FEFE000061636363735C
:100F20003F1F00F0FC0CFEFE0CFCF000071F187FBA
:100F30007F181F07000E3E70C0C0703E0E00707C10
:100F40000E03030E7C7000FEFE000000FEFE00009B
:100F50007F7F6060607FFFC000FEFE00000000FE3B
:100F6000FE000103070606067F7F00FEFE00FEFE70
:100F700000FEFE007F7F607F7F607F7F00FEFE00BF
:100F8000FEFE00FEFE007F7F607F7F60FFFF0006A9
:100F900006FEFEC0C080000000007F7F60713F1F22
:100FA00000FEFEC0C08000FEFE007F7F607F3F002D
:100FB0007F7F00FEFEC0C0C0808000007F7F606039
:100FC00060713F1F00181C0E86868EFCF8001838D2
:100FD000706161713F1F00FEFE80FCFE06FEFC009A
:100FE0007F7F013F7F607F3F00F8FC8E060606FE94
:100FF000FE006071391F0F037F7F30432005000022
:1010000000000080C0E0F0F0F8F8F8FCFCFCFCFC0C
:10101000FCF8F8F8F0F0E0C08000000000000000EC
:10102000C0F8FEFFFFFFFF3F0F07030301010101AF
:101030000303070F3FFFFFFFFFFEF8C000000000A3
:10104000FFFFFFFFFFFFFF000000000000000000A7
:101050000000000000FFFFFFFFFFFFFF0000000097
:10106000031F7FFFFFFFFFFCF0E0C0C08080808097
:10107000C0C0E0F0FCFFFFFFFF7F1F030000000087
:101080000000000103070F0F1F1F1F3F3F3F3F3F9F
:101090003F1F1F1F0F0F070301000000000000008B
:1010A000000000000000000000000080FCFCFCFCD0
:1010B000FCFCFC000000000000000000000000003C
:1010C0000000000000E0F0F8FCFEFF7FFFFFFFFFE4
:1010D000FFFFFF0000000000000000000000000013
:1010E00000000000000F0F0703010000FFFFFFFFDB
:1010F000FFFFFF00000000000000000000000000F3
:10110000000000000000000000000000FFFFFFFFE3
:10111000FFFFFF00000000000000000000000000D2
:1011200000000000003F3F3F3F3F3F3F3F3F3F3F0A
:101130003F3F3F3F3F3F3F3F3F3F00000000000039
:10114000000080C0E0F0F0F8F8FCFCFCFCFCFCFCCB
:10115000FCFCFCF8F8F0F0E0C080000000000000AB
:10116000383E3F3F3F3F3F1F07030301010101019D
:10117000010303079FFFFFFFFFFFFEF800000000D1
:101180000000000000000000000000000080C0E03F
:10119000F0F8FCFEFFFF7F3F1F0F0701000000007B
:1011A000000000000080C0E0F0F8FCFEFFFF7F3F81
:1011B0001F0F0703010000000000000000000000F6
:1011C00030383C3E3F3F3F3F3F3F3F3F3F3F3F3F49
:1011D0003F3F3F3F3F3F3F3F3F3F3F3F000000001B
:1011E0000000FCFCFCFCFCFCFCFCFCFCFCFCFCFC37
:1011F000FCFCFCFCFCFCFCFCFCFC00000000000017
:1012000000000000000000000000000080C0E0F0CE
:10121000F8FCFE7F3F1F0F070301000000000000E5
:101220000000000000000000001F1F1F1F1F1F1FE5
:101230001F3F3F7FFFFEFEFCF8F0C00000000000F3
:101240000078F8F8F8F8F8F0C0808000000000009E
:10125000008080C0F1FFFFFFFFFF7F1F0000000044
:1012600000000103070F0F1F1F3F3F3F3F3F3F3F5E
:101270003F3F3F1F1F0F0F0703010000000000004A
:10128000000000000000000000000080E0F8FCFC0E
:10129000FCFC7C1C000000000000000000000000BE
:1012A0000000000000000080E0F8FEFFFFFF7F1F4D
:1012B0000701000000000000000000000000000026
:1012C00000000080E0F8FEFFFFFF7F1F0701000025
:1012D0000000FEFEFEFEFEFEFE000000000000001C
:1012E00060787E7F7F7F7F7F7F7F7E7E7E7E7E7E3B
:1012F0007E7EFFFFFFFFFFFFFF7E7E7E000000007F
:1013000000000000000000000000000000000000DD
:1013100000003F3F3F3F3F3F3F0000000000000014
:1013200000FCFCFCFCFCFCFCFCFCFCFCFCFCFCFCF9
:10133000FCFCFCFCFCFCFCFCFCFCFC0000000000D9
:1013400000FFFFFFFFFFFFFFE0C0C0C0C0C0C0C084
:10135000C0C0C0808000000000000000000000004D
:10136000000103070F0F0F0F0F0F0F0F0F0F0F0FBE
:101370001F1F1F3FFFFFFFFEFCF8E0800000000082
:101380000078F8F8F8F8F8F8F0C080800000000065
:10139000008080C0F0FFFFFFFFFF7F1F0000000004
:1013A00000000103070F0F1F1F3F3F3F3F3F3F3F1D
:1013B0003F3F3F1F1F0F0F07030100000000000009
:1013C0000000000000000080E0F8FCFCFCFCFC7C5D
:1013D0001C040000000000000000000000000000ED
:1013E00000000080E0F8FEFFFFFFFFFFDFC7C1C085
:1013F000C0C0C080800000000000000000000000AD
:10140000E0F8FEFFFFFFFFFF3F1F1F0F0F0F0F0F43
:101410000F1F1F3FFFFFFFFEFCF8E08000000000F1
:101420001F7FFFFFFFFFFFF0C08080000000000073
:10143000008080C0F0FFFFFFFFFF7F1F0000000063
:1014400000000103070F0F1F1F3F3F3F3F3F3F3F7C
:101450003F3F3F1F1F0F0F07030100000000000068
:10146000FCFCFCFCFCFCFCFCFCFCFCFCFCFCFCFCBC
:10147000FCFCFCFCFCFCFCFCFCFCFCFC000000009C
:10148000000000000000000000000000000000005C
:101490000080E0F8FEFFFFFFFF3F0F0300000000A9
:1014A0000000000000000000000000000080E0F8E4
:1014B000FEFFFFFFFF3F0F030000000000000000E1
:1014C00000000000000000000080E0F8FEFFFFFFC9
:1014D000FF3F0F03000000000000000000000000BC
:1014E00000000000000020383E3F3F3F3F3F0F0319
:1014F00000000000000000000000000000000000EC
:10150000000000C0E0F0F0F8F8FCFCFC7C7C7C7C87
:10151000FCFCFCF8F8F0F0E0C00000000000000067
:1015200000003FFFFFFFFFFFC3810000000000003D
:10153000000081C3FFFFFFFFFF3F0000000000002D
:1015400000C0E0F0F9FFFFFF7F3F3F3F1E1E1E1E61
:101550003F3F3F7FFFFFFFF9F0E0C00000000000C9
:101560001F7FFFFFFFFFFFE1800000000000000081
:1015700000000080E1FFFFFFFFFF7F1F0000000071
:1015800000000103070F0F1F1F3F3F3F3E3E3E3E3F
:101590003F3F3F1F1F0F0F07030100000000000027
:1015A000000080C0E0F0F0F8F8FCFCFCFCFCFCFC67
:1015B000FCFCFCF8F8F0F0E0C08000000000000047
:1015C000F8FEFFFFFFFFFF0703010100000000001E
:1015D0000001010307FFFFFFFFFFFEF8000000000E
:1015E00001071F3F7FFFFFFEFCF8F8F0F0F0F0F07E
:1015F000F0F8F8FCFEFFFFFFFF7F1F070000000070
:101600000000000000000001010303030383E3FB6B
:10161000FFFFFFFFFF7F1F07010000000000000029
:101620000000000000000000000020383E3F3F3F67
:101630003F3F1F0701000000000000000000000005
:10164000000000000000000000000000000000009A
:10165000000000000000000000000000000000008A
:1016600000000000000000000080E0F0F0F8F8FC4E
:10167000FC7C7CFCFCF8F8F0F0E08000000000004E
:101680000000000000000000FEFFFFFFFF07010058
:1016900000000000000107FFFFFFFFFE0000000048
:1016A00000000000000000007FFFFFFFFFE080005F
:1016B000000000000080E0FFFFFFFF7F0000001C33
:1016C0003E3E3E1C000000000001070F0F1F1F3FA1
:1016D0003F3E3E3F3F1F1F0F0F070100000000006D
:1016E00000000000000000000000000000000000FA
:1016F00000000000000000000000000000000000EA
:10170000000000000000000000000000000080C099
:10171000FCFCFCFCFC0000000000000000000000DD
:1017200000000000000000000000F8FCFE7F3F1FEA
:10173000FFFFFFFFFF0000000000000000000000AE
:101740000000000000000000000001010000000097
:10175000FFFFFFFFFF000000000000000000001C72
:101760003E3E3E1C0000000000003C3C3C3C3C3C3B
:101770003F3F3F3F3F3C3C3C3C3C3C0000000000C6
:101780000000000000000000000000000000000059
:101790000000000000000000000000000000000049
:1017A00000000000000000000080E0F0F0F8F8FC0D
:1017B0007C7C7C7CFCF8F8F0F0E08000000000000D
:1017C00000000000000000000607070707030000F4
:1017D0000000000080C0E3FFFFFFFF3E00000000AC
:1017E00000000000000000000000000080C0E0F0E9
:1017F000F8FCFE7F3F1F0F07030100000000001CE4
:101800003E3E3E1C00000000003C3E3F3F3F3F3F4D
:101810003F3D3C3C3C3C3C3C3C3C3C000000000030
:1018200000000000000000000000000000000000B8
:1018300000000000000000000000000000000000A8
:101840000000000000000000007C7C7C7C7C7C7C34
:101850007C7C7C7CFCFCFCFCFCFC7C000000000034
:1018600000000000000000000000000000E0E0F0C8
:10187000F8FCFEFFFFFFF7E3E1C0000000000000FE
:10188000000000000000000060E0E0E0E0C00000B8
:10189000000000000101C7FFFFFFFF7C0000001CEB
:1018A0003E3E3E1C000000000001070F0F1F1F3FBF
:1018B0003E3E3E3E3F1F1F0F0F070100000000008D
:1018C0000000000000000000000000000000000018
:1018D0000000000000000000000000000000000008
:1018E0000000000000000000000000000000008078
:1018F000E0FCFCFCFC7C000000000000000000009C
:10190000000000000000000000000080E0F8FEFF82
:10191000FF7F1F0701C0C0C0C0C000000000000062
:10192000000000000000000000F8FEFFFFFFFFF7CE
:10193000F1F0F0F0F0FFFFFFFFFFF0F00000001CFF
:101940003E3E3E1C000000000000000000000000C1
:1019500000000000003F3F3F3F3F0000000000004C
:101960000000000000000000000000000000000077
:101970000000000000000000000000000000000067
:101980000000000000000000FCFCFCFCFC7C7C7CF7
:101990007C7C7C7C7C7C7C7C7C7C7C0000000000F3
:1019A00000000000000000003F7FFFFFFFF8F0F0A4
:1019B000F0F0F0F0F0F0F0E0E0C000000000000017
:1019C000000000000000000060E0E0E0E0C0000077
:1019D000000000000101C7FFFFFFFF7C0000001CAA
:1019E0003E3E3E1C000000000001070F0F1F1F3F7E
:1019F0003E3E3E3E3F1F1F0F0F070100000000004C
:101A000000000000000000000000000000000000D6
:101A100000000000000000000000000000000000C6
:101A20000000000000000000000000000080E0F85E
:101A3000FCFCFC3C0C00000000000000000000006A
:101A400000000000000000000080E0F8FEFFFFFF43
:101A5000FFF3F0F0F0F0F0E0E0C000000000000064
:101A600000000000000000007EFFFFFFFFC7010133
:101A7000000000000101C7FFFFFFFF7C0000001C09
:101A80003E3E3E1C000000000001070F0F1F1F3FDD
:101A90003E3E3E3E3F1F1F0F0F07010000000000AB
:101AA0000000000000000000000000000000000036
:101AB0000000000000000000000000000000000026
:101AC0000000000000000000007C7C7C7C7C7C7CB2
:101AD0007C7C7C7C7C7CFCFCFCFCFCFC0000000036
:101AE00000000000000000000000000000000000F6
:101AF000000080E0F8FEFFFF3F0F03000000000041
:101B0000000000000000000000000000000080E075
:101B1000F8FEFFFF3F0F0300000000000000001C64
:101B20003E3E3E1C0000000000000000383E3F3FEB
:101B30003F0F030000000000000000000000000054
:101B40000000000000000000000000000000000095
:101B50000000000000000000000000000000000085
:101B600000000000000000000000C0E0F0F8F87C79
:101B70007C3C3C3C7C7CF8F8F0E0C00000000000BD
:101B8000000000000000000000000F9FFFFFF8F0C1
:101B9000F0E0E0E0F0F0F8FFFF9F0F000000000031
:101BA000000000000000000000FCFFFFFF870301B1
:101BB0000100000001010387FFFFFFFC0000001C83
:101BC0003E3E3E1C00000000000003070F1F1F3EAA
:101BD0003E3C3C3C3E3E1F1F0F0703000000000040
:101BE00000000000000000000000000000000000F5
:101BF00000000000000000000000000000000000E5
:101C000000000000000000000080E0F0F0F8F8FCA8
:101C10007C7C7C7CFCF8F8F0F0E0800000000000A8
:101C200000000000000000003EFFFFFFFFE3808097
:101C3000000000008080E3FFFFFFFF7E0000000047
:101C4000000000000000000000000307070F0F1F46
:101C50001F1FDFFFFFFFFF7F1F0701000000001CA9
:101C60003E3E3E1C0000000000000000000000306E
:101C70003C3F3F3F1F070100000000000000000044
:101C80000000000000000000000000000000000054
:101C90000000000000000000000000000000000044
:101CA0000000000000000000000000000000000034
:101CB0000000000000000000000000000000000024
:101CC0000000000000000000000000000000000014
:101CD0000000000000000000000000000000000004
:101CE00000000000000000000000000000000000F4
:101CF00000000000000000000000000000000000E4
:101D000000000000000000000000000000000000D3
:101D10000000000000000000000000000000009132
:101D20001801002309F008950FEF009318010091A6
:101D3000A4010F3F41F0003011F00E94820F00E03B
:101D400000931801089500911B01003039F0013013
:101D500009F1023089F10330E1F148C00091190125
:101D6000002361F40091C40107FF55C00F77009371
:101D7000C401609128017091290145C00091C601FC
:101D800007FF49C00F770093C6016091260170914B
:101D9000270139C009E20093A90108E20093A801D4
:101DA00003E30093A7010BE20093A60132C0609108
:101DB00026017091270127C009E20093A9010CE3D5
:101DC0000093A8010EE30093A7010EE30093A60180
:101DD00020C008E20093A90108E30093A80108E2EB
:101DE0000093A70109E20093A60113C00BE300933F
:101DF000A9010BE30093A8010BE30093A7010BE3F8
:101E00000093A60106C0882799270E944B110E94C3
:101E1000B4110E940C0F93CFFF92FFB6FF921F9355
:101E20000F93EF93FF930E94441600EC0E94A50FBE
:101E30000E948916E4EEFEE10091A9010E944B0F79
:101E40000E94A50F0E9489160091A8010E944B0FC5
:101E50000E94A50F0E9489160091A7010E944B0FB6
:101E600010911B01103009F400680E94A50F0E9418
:101E700089160091A6010E944B0F0E94A50F0E9497
:101E800089160E946E16FF91EF910F911F91FF909E
:101E9000FFBEFF900895EF93FF93003220F00034CF
:101EA00010F4005201C000E0E00F00E0F01F0491C8
:101EB000FF91EF9108950E9444160AE80E94A50F31
:101EC0000E9489160BD7E0D600E40E94A50F21D707
:101ED00005D708953F065B4F666D7D077F6F0080D5
:101EE0005CF97100000000000000000077735F31B2
:101EF000000000003F065B4F666D7D077F6F00802E
:101F00005CF971000F9308E8003920F40E948C0FEF
:101F10000395FACF0F910895CF93DF93C1EBD1E0F2
:101F20000F9300581127C00FD11FC00FD11F098177
:101F3000007C003C0F9131F40F930E940C150E941D
:101F400098140F91DF91CF9108951F932F9328E05C
:101F50000795111F2A95E1F7012F2F911F910895E1
:101F60000E9444160091A4010E94891600E80E9474
:101F700089160FEA0E9489160E946E1608950F9323
:101F80001F932F9310E0202F10939C0120939D010D
:101F90000E944B100E9444160091A4010E948916D1
:101FA00000E40E9489161FE700E00E9489161A9536
:101FB000D9F70E946E162F911F910F9108950F93DC
:101FC0001F932F9310E0202F10939C0120939D01CD
:101FD0000E944B100E9444160091A4010E94891691
:101FE00000E40E94891610E82F91022F0E948916A2
:101FF0001A95D9F70E946E161F910F9108950E94AD
:1020000044160091A4010E9489160F3F09F40000B4
:1020100000E00E94891618E1EEE2F0E205910E94CC
:1020200089161A951123D1F70E946E160895D5804E
:10203000A83FD300408D14A1C8DA1281FFD922DB5A
:1020400030A4A60010B0AF000F931F932F930E94EF
:10205000E31428E014E82A951F9310E010939C01E4
:1020600020939D010E944B101F910E9444160091E5
:10207000A4010E94891600E40E94891600E00E94D3
:1020800089161A95D9F70E946E16222319F72F91F7
:102090001F910F91089510919C0120919D0117FDB2
:1020A0001CC00F930E9444160091A4010E9489163F
:1020B00000E00E948916022F0770006B0E948916AB
:1020C000012F0F700E948916012F02950F70006179
:1020D0000E9489160E946E160F9108950F930FB7F4
:1020E0000F93EF93FF93009153010A3020F403956F
:1020F000009353011CC00027009353010E94FF0F5F
:1021000000911B01003019F4E4EBF6E10EC0013040
:1021100019F4E7ECF6E109C0023019F4E7EDF6E155
:1021200004C0033021F4E7EEF6E10E946A14FF9147
:10213000EF910F910FBF0F910895FF92FFB6FF929D
:10214000FF920F921F92799C6001689C5001699CDC
:10215000FF24B00CC11CDF1C789CFF24B00CC11CF8
:10216000DF1C1F900F90FF90FF90FFBEFF9008951F
:10217000FF92FFB6FF92102F0F70107F1295005D37
:102180000A3308F0095F105D1A3308F0195FFF90F9
:10219000FFBEFF9008950024112422243324F0E28E
:1021A000660C771C881C991C001C111C221C331CFB
:1021B0000A141B042C043D0428F063940A181B081D
:1021C0002C083D08FA9561F708950F931F932F93FC
:1021D0003F934F935F936F937F93CC24DD24EE2442
:1021E00000E4F02E88249924AA24BB2484019501BC
:1021F0000C291D292E293F29B694A79497948794DA
:10220000401751076207730740F08C289D28AE28BD
:10221000BF28401B510B620B730BF694E794D794C5
:10222000C794F694E794D794C7940C2D0D290E29E2
:102230000F29E1F67F916F915F914F913F912F911F
:102240001F910F910895FF92FFB6FF920F931F9376
:102250003F934F9330E1CC24BB24AA24FF27000FE7
:10226000111FAA1CBB1CCC1C3A9549F400004F91CD
:102270003F911F910F91FF90FFBEFF900895EDE0F9
:1022800042914D5F43FD40834081405D47FD408367
:10229000EA30B1F7E4CF4F935F936F937F938F93BF
:1022A0009F93FF93EF9397FD0E94171240E2EE2455
:1022B000DD24CC24BB24AA24FF27660F771F881FA8
:1022C000991FAA1CBB1CCC1CDD1CEE1C4A9561F09E
:1022D000EFE052915D5F53FD50835081505D57FD9B
:1022E0005083EA30B1F7E9CF5A2D5F7050635093B5
:1022F000A6015A2D52955F7050635093A7015B2D34
:102300005F7050635093A8015B2D52955F705063CE
:102310005093A9015C2D5F7050635093AA015C2D0E
:1023200052955F7050635093AB015D2D5F705063A9
:102330005093AC015D2D52955F7050635093AD0189
:102340005E2D5F7050635093AE015E2D52955F70AD
:1023500050635093AF01EF91FF919F918F917F91C7
:102360006F915F914F9108950F931F932F932227A1
:1023700010E30091AF01011719F400E2239501C0A9
:1023800010E20093AF010091AE01011719F400E2D1
:10239000239501C010E20093AE010091AD01011739
:1023A00019F4239500E201C010E20093AD01009101
:1023B000AC01011719F4239500E201C010E200936B
:1023C000AC010091AB01011719F4239500E201C0A3
:1023D00010E20093AB010091AA01011719F42395B3
:1023E00000E201C010E20093AA010091A9010117C7
:1023F00019F4239500E201C010E20093A9010091B5
:10240000A801011719F4239500E201C010E200931E
:10241000A8010091A7010093A7010091A6010093D4
:10242000A6012093B0012F911F910F9108956095FF
:102430007095809590956F5F7F4F8F4F9F4F089558
:10244000FF92FFB6FF92EF93FF936F927F928F926E
:102450009F92AF92BF92CF92DF925E9B05C0AA245B
:10246000BB24CC24DD2407C06090780070907900F4
:1024700043010E949D1060901C0170901D0180908E
:102480001E0190901F016A0C7B1C8C1C9D1C60928D
:102490001C0170921D0180921E0190921F01E0911B
:1024A0002001F09121013196E0932001F093210168
:1024B000DF90CF90BF90AF909F908F907F906F9064
:1024C000FF91EF91FF90FFBEFF901895FF92FFB62E
:1024D000FF920F931F932F933F9300E000931D00F3
:1024E0005E9A009181000F93087F009381002091F4
:1024F00084003091850000270093850000938400BC
:1025000010910E0100910D01109389000093880035
:102510001091100100910F0110938B0000938A001D
:1025200001E003BD0F91009381004F93FF93EF9360
:10253000DF93CF930F921F922F923F924F925F9211
:102540006F927F928F929F92AF92BF92CF92DF92C3
:10255000EF92FF920091690003700230B1F00330F6
:1025600029F00BE0009369000C94B7130DEE009373
:102570007A00009169000C7F02600093690020934B
:102580001101309312010C94B7130DE600937A00F9
:10259000009169000C7F0360009369002093130190
:1025A0003093140160901C0170901D0180901E01F9
:1025B00090901F01A0902001B0902101660C771C23
:1025C000881C991C660C771C881C991CCC24DD2463
:1025D0000E94CB10660C771C881C991C660C771C1B
:1025E000881C991CA301B4016092220170922301FE
:1025F00080922401909225010E94E51080922C0186
:1026000090922D01002700931C0100931D0100935F
:102610001E0100931F010093200100932101F1E0AE
:10262000ECE4EF010027802E202E302E7A906A9065
:102630000FE0002359F00A951A900A90600C711C63
:10264000821C931C129202920C941913E0E1F0E0A8
:102650005F01CC24DD240E94CB1060922601709291
:10266000270100911B01003009F427C0013009F453
:1026700007C0023009F418C0033009F415C077C050
:102680002D985F9A00E000931A01E0910D01F091FE
:102690000E01C4EFD1E0EC1BFD0B09F018F4EE279E
:1026A000FF2731964F0139C02D9A5F9A00E00093C1
:1026B0001A0100E516E4480130C02D9A60902C0103
:1026C00070902D0180902801909029016818790858
:1026D000889477FC08947794679480900D0190908B
:1026E0000E01860C971C97FE0BC001E010E048011C
:1026F000109119010FEF0093190101130EC00DC0C5
:1027000000E516E48016910608F0480100911901D1
:10271000002319F000270093190180920D01909277
:102720000E01E0912601F0912701339600912801D6
:1027300010912901E01BF10B07E010E0E017F10711
:1027400000911A010F7040F05F9A0F3009F00CC031
:1027500000E800931A0108C05F98003009F004C037
:102760000FE800931A0100C008E80E94F814FF90D7
:10277000EF90DF90CF90BF90AF909F908F907F9021
:102780006F905F904F903F902F901F900F90CF9140
:10279000DF91EF91FF914F913F912F911F910F91F9
:1027A000FF90FFBEFF901895FF92FFB6FF920F9328
:1027B0001F932F933F934F930F921F92FF93EF938B
:1027C000F198F0980F930091A20110E0ECE8FCE082
:1027D000E00FF11FE00FF11F05911591000F111F80
:1027E0000093A0011093A101F8010F91159125917B
:1027F00035914591003249F0003031F0011718F061
:10280000021721F018F059C0F09AF19A003828F018
:10281000003CC8F3103C08F400540F93011B349F94
:10282000009DE00DF11D00919C0100939E0100911F
:102830009D0100939F010F910E3219F400243695EB
:10284000301D4F930E9444160091A4010E948916E6
:1028500000E40E9489163F9300919C01003868F4BF
:10286000039500939C0100E0F19B05910E9489165D
:102870003A95F0993A9581F702C00591F9CF3F91C9
:102880000E946E164A9579F000919E0100939C017A
:1028900000919F010395077000939D0100939F0194
:1028A0000E944B10CFCF4F9100919D01041B0395C7
:1028B000077000939D010E944B10EF91FF911F90B4
:1028C0000F904F913F912F911F910F91FF90FFBE5D
:1028D000FF900895FF92FFB6FF920F931F93AF935F
:1028E000BF93CF93DF93EE0FFF1F00270093A30149
:1028F0000091A301003808F011C0039500937D14E6
:102900000591003809F40AC0003828F0003C18F49A
:102910000E949814EDCF0E94D413EACFDF91CF919B
:10292000BF91AF911F910F91FF90FFBEFF9008954F
:10293000DF01ECEDFBE2C1EBD1E00F93005810E0BA
:10294000E00FF11FE00FF11FC00FD11FC00FD11F0B
:1029500005911491F80100919C01088310919D014B
:1029600017700091A20102950073102B10641F775D
:1029700019830F910995FD010895CF93DF930F936C
:102980001F9300581127C1EBD1E0C00FD11FC00F1A
:10299000D11F09810F7B09831F910F91DF91CF9187
:1029A0000895CF93DF930F9300581127C1EBD1E027
:1029B000C00FD11FC00FD11F0981006409830F917F
:1029C000DF91CF910895CF93DF930F931F93C1EBC6
:1029D000D1E000E4002339F00A9519811F7B1F77AD
:1029E00019832296F7CF1F910F91DF91CF91089510
:1029F000CF93DF930F931F93C1EBD1E000581127C2
:102A0000C00FD11FC00FD11F1981106819831F91EA
:102A10000F91DF91CF9108950F931F93CF93DF9381
:102A2000C1EBD1E000581127C00FD11FC00FD11F3B
:102A30000881198100939C0110939D011F771064F8
:102A40001983129513701093A2010E944B10DF910D
:102A5000CF911F910F9108950895FD010591037085
:102A60000093A201DF010895FD012F933F9315917B
:102A70002591359105910F9320939C0110939D0111
:102A80000E944B100E9444160091A4010E948916D6
:102A900000E40E9489160F91231739F030F40F9348
:102AA0000E9489160F912395F7CF0E946E163F91D1
:102AB0002F91DF010895FD010591003808F00FE71F
:102AC00000939C010591077000939D01DF010E9416
:102AD0004B100895FD0100919C011591010F0038E4
:102AE00008F00FE700939C0100919D011591010FE3
:102AF000077000939D01DF010E944B100895CF9352
:102B0000DF930F931F93FD010591DF01003CC0F49B
:102B10000A38B0F000581127C1EBD1E0C00FD11F27
:102B2000C00FD11F00919C01088310919D01177067
:102B30000091A20102950073102B1F7B1F77198350
:102B40001F910F91DF91CF91089500911B010030EB
:102B500089F400911A01003039F00CE20E94D4137C
:102B60000DE20E94D41306C00AE20E94D4130BE2C5
:102B70000E94D4130895C8E2D1E003C0C6E2D1E0B8
:102B800000C06881798185EC99E06817790708F0C1
:102B900024C0882799270E944B110E94B4110091EC
:102BA000A9010E94D4130091A8010E94D41300919E
:102BB000A7010E94D4130091A201013031F40091C9
:102BC000A601065F0E94D41308C00EE20E94D4132F
:102BD0000091A6010E94D41300C008952C152D1554
:102BE00034155B156A157F152C152C15A515BB150D
:102BF000BE152C152C152C152C152C152C152C153B
:102C00002C152C152C152C152C152C152C152C15BC
:102C10002C152C152C152C152C152C152C152C15AC
:102C20002C152C152C152C152C152C152C152C159C
:102C30002C152C152C152C152C152C152C152C158C
:102C40002C152C152C152C152C152C152C152C157C
:102C50002C152C152C152C152C152C15209823B162
:102C600020FFFDCF08952898209A0895219808956F
:102C70002998219A08952F930E9436160E942E16A5
:102C80000E946E162F9108952F930E94381624E00B
:102C90002150F0F700000E94331624E02150F0F795
:102CA00000002F9108952F930E94361624E02150A2
:102CB000F0F700000E942E1624E02150F0F70000EB
:102CC0000E94381624E02150F0F700000E943316CD
:102CD00024E02150F0F700002F9108952F930E94D7
:102CE000331624E02150F0F700000E94381624E04B
:102CF0002150F0F700000E942E1624E02150F0F73A
:102D000000000E94361624E02150F0F700002F91B9
:102D100008951F932F9318E0001F18F40E94361691
:102D200002C00E94381624E02150F0F700000E94F3
:102D30002E1624E02150F0F700000E9433161A9559
:102D400059F70E94361624E02150F0F700000E9447
:102D50002E1624E02150F0F7000013B111FB0E9461
:102D600033162F911F9108958102830000C2DBD595
:102D7000CEC4202020202020208100836C00888168
:102D800001830003858A8982020080188000810205
:102D9000830000D0C0C7C3CECD2020208100835146
:102DA0000089820200801881018300038A808102E9
:102DB000830000D1D2CECF2020202020810083515B
:102DC0000089820200801881018300038A808102C9
:102DD000831701C2DBCACBDED7C5CDCE831703C0B4
:102DE000C2C0D0C8C9CDDBCC831C05D1C8C3CDC0FF
:102DF000CBCECC80FF92FFB6FF920F931F932F9301
:102E000000910201013009F407C0023009F414C036
:102E1000033009F426C04AC000910301033010F0CA
:102E200009F044C010911B01133009F43FC0009316
:102E30001B010E94D2023AC00091030110910401CB
:102E400017FD34C024EC021729E0120711F008F036
:102E50002DC0009328011093290109E80E94F8145D
:102E600025C0009103011091040117FD0FC024EC4F
:102E7000021729E0120711F008F008C0009328019A
:102E80001093290109E80E94F81410C0009105016F
:102E9000033010F009F00AC010911B01133009F43F
:102EA00005C000931B010E94D20200C02F911F9108
:102EB0000F91FF90FFBEFF900895FF92FFB6FF9223
:102EC0000F931F93EF93FF93EAEFFEE20091B90097
:102ED000087F0695069506951127E00FF11FE00F74
:102EE000F11F05911491F8010995FF91EF911F9140
:102EF0000F91FF90FFBEFF9018959D17141814189E
:102F00001418141814181418141814181418141861
:102F10001418A117141814181418AE17C51714187C
:102F20001418DB17E4171418F917101810181418D0
:102F30001418141814181418141805ED0093BC0074
:102F4000089500E00093020100910300013011F4A4
:102F500005E801C005EC0093BC000895002710911E
:102F60000201E3E0F1E0E10FF01F0091BB000083FC
:102F700013951093020103E00A95101711F405E868
:102F800001C005EC0093BC000895002710910201D8
:102F9000E3E0F1E0E10FF01F0091BB000083139527
:102FA0001093020105EC0093BC00009158010260EF
:102FB00000935801089505EC0093BC00009158015E
:102FC000026000935801089510E010930201E6E0BA
:102FD000F1E00027E10FF01F00810093BB0000919A
:102FE0000500013011F405E801C005EC0093BC00B8
:102FF0000895002710910201139510930201E6E055
:10300000F1E0E10FF01F00810093BB0005E00A959D
:10301000101711F405E801C005EC0093BC000895F9
:0A30200005EC0093BC00089508952C
:00000001FF
